{
  "contractName": "GachaNFTAuto",
  "abi": [
    {
      "inputs": [
        {
          "internalType": "uint256",
          "name": "_maxParticipants",
          "type": "uint256"
        }
      ],
      "stateMutability": "nonpayable",
      "type": "constructor"
    },
    {
      "anonymous": false,
      "inputs": [
        {
          "indexed": true,
          "internalType": "address",
          "name": "owner",
          "type": "address"
        },
        {
          "indexed": true,
          "internalType": "address",
          "name": "approved",
          "type": "address"
        },
        {
          "indexed": true,
          "internalType": "uint256",
          "name": "tokenId",
          "type": "uint256"
        }
      ],
      "name": "Approval",
      "type": "event"
    },
    {
      "anonymous": false,
      "inputs": [
        {
          "indexed": true,
          "internalType": "address",
          "name": "owner",
          "type": "address"
        },
        {
          "indexed": true,
          "internalType": "address",
          "name": "operator",
          "type": "address"
        },
        {
          "indexed": false,
          "internalType": "bool",
          "name": "approved",
          "type": "bool"
        }
      ],
      "name": "ApprovalForAll",
      "type": "event"
    },
    {
      "anonymous": false,
      "inputs": [
        {
          "indexed": true,
          "internalType": "address",
          "name": "user",
          "type": "address"
        }
      ],
      "name": "CommitRequested",
      "type": "event"
    },
    {
      "anonymous": false,
      "inputs": [
        {
          "indexed": true,
          "internalType": "bytes32",
          "name": "serverSeedHash",
          "type": "bytes32"
        }
      ],
      "name": "Commitment",
      "type": "event"
    },
    {
      "anonymous": false,
      "inputs": [
        {
          "indexed": false,
          "internalType": "string",
          "name": "",
          "type": "string"
        }
      ],
      "name": "DebugLogEvent",
      "type": "event"
    },
    {
      "anonymous": false,
      "inputs": [
        {
          "indexed": true,
          "internalType": "bytes32",
          "name": "messageHash",
          "type": "bytes32"
        }
      ],
      "name": "LogMessageHash",
      "type": "event"
    },
    {
      "anonymous": false,
      "inputs": [
        {
          "indexed": true,
          "internalType": "address",
          "name": "owner",
          "type": "address"
        },
        {
          "indexed": false,
          "internalType": "uint256",
          "name": "tokenId",
          "type": "uint256"
        }
      ],
      "name": "NFTMinted",
      "type": "event"
    },
    {
      "anonymous": false,
      "inputs": [
        {
          "indexed": true,
          "internalType": "address",
          "name": "player",
          "type": "address"
        },
        {
          "indexed": false,
          "internalType": "bytes32",
          "name": "userSeed",
          "type": "bytes32"
        }
      ],
      "name": "Participation",
      "type": "event"
    },
    {
      "anonymous": false,
      "inputs": [
        {
          "indexed": true,
          "internalType": "address",
          "name": "recovered",
          "type": "address"
        }
      ],
      "name": "RecoveredAddress",
      "type": "event"
    },
    {
      "anonymous": false,
      "inputs": [
        {
          "indexed": true,
          "internalType": "address",
          "name": "requester",
          "type": "address"
        },
        {
          "indexed": false,
          "internalType": "string",
          "name": "requestId",
          "type": "string"
        }
      ],
      "name": "RequestCommit",
      "type": "event"
    },
    {
      "anonymous": false,
      "inputs": [
        {
          "indexed": false,
          "internalType": "bytes32",
          "name": "serverSeed",
          "type": "bytes32"
        },
        {
          "indexed": false,
          "internalType": "uint256",
          "name": "luckyNumber",
          "type": "uint256"
        }
      ],
      "name": "Reveal",
      "type": "event"
    },
    {
      "anonymous": false,
      "inputs": [
        {
          "indexed": true,
          "internalType": "address",
          "name": "from",
          "type": "address"
        },
        {
          "indexed": true,
          "internalType": "address",
          "name": "to",
          "type": "address"
        },
        {
          "indexed": true,
          "internalType": "uint256",
          "name": "tokenId",
          "type": "uint256"
        }
      ],
      "name": "Transfer",
      "type": "event"
    },
    {
      "inputs": [
        {
          "internalType": "address",
          "name": "to",
          "type": "address"
        },
        {
          "internalType": "uint256",
          "name": "tokenId",
          "type": "uint256"
        }
      ],
      "name": "approve",
      "outputs": [],
      "stateMutability": "nonpayable",
      "type": "function"
    },
    {
      "inputs": [
        {
          "internalType": "address",
          "name": "owner",
          "type": "address"
        }
      ],
      "name": "balanceOf",
      "outputs": [
        {
          "internalType": "uint256",
          "name": "",
          "type": "uint256"
        }
      ],
      "stateMutability": "view",
      "type": "function",
      "constant": true
    },
    {
      "inputs": [
        {
          "internalType": "uint256",
          "name": "tokenId",
          "type": "uint256"
        }
      ],
      "name": "getApproved",
      "outputs": [
        {
          "internalType": "address",
          "name": "",
          "type": "address"
        }
      ],
      "stateMutability": "view",
      "type": "function",
      "constant": true
    },
    {
      "inputs": [
        {
          "internalType": "address",
          "name": "owner",
          "type": "address"
        },
        {
          "internalType": "address",
          "name": "operator",
          "type": "address"
        }
      ],
      "name": "isApprovedForAll",
      "outputs": [
        {
          "internalType": "bool",
          "name": "",
          "type": "bool"
        }
      ],
      "stateMutability": "view",
      "type": "function",
      "constant": true
    },
    {
      "inputs": [],
      "name": "isRevealed",
      "outputs": [
        {
          "internalType": "bool",
          "name": "",
          "type": "bool"
        }
      ],
      "stateMutability": "view",
      "type": "function",
      "constant": true
    },
    {
      "inputs": [],
      "name": "luckyNumber",
      "outputs": [
        {
          "internalType": "uint256",
          "name": "",
          "type": "uint256"
        }
      ],
      "stateMutability": "view",
      "type": "function",
      "constant": true
    },
    {
      "inputs": [],
      "name": "maxParticipants",
      "outputs": [
        {
          "internalType": "uint256",
          "name": "",
          "type": "uint256"
        }
      ],
      "stateMutability": "view",
      "type": "function",
      "constant": true
    },
    {
      "inputs": [],
      "name": "name",
      "outputs": [
        {
          "internalType": "string",
          "name": "",
          "type": "string"
        }
      ],
      "stateMutability": "view",
      "type": "function",
      "constant": true
    },
    {
      "inputs": [],
      "name": "owner",
      "outputs": [
        {
          "internalType": "address payable",
          "name": "",
          "type": "address"
        }
      ],
      "stateMutability": "view",
      "type": "function",
      "constant": true
    },
    {
      "inputs": [
        {
          "internalType": "uint256",
          "name": "tokenId",
          "type": "uint256"
        }
      ],
      "name": "ownerOf",
      "outputs": [
        {
          "internalType": "address",
          "name": "",
          "type": "address"
        }
      ],
      "stateMutability": "view",
      "type": "function",
      "constant": true
    },
    {
      "inputs": [],
      "name": "player",
      "outputs": [
        {
          "internalType": "address payable",
          "name": "",
          "type": "address"
        }
      ],
      "stateMutability": "view",
      "type": "function",
      "constant": true
    },
    {
      "inputs": [
        {
          "internalType": "uint256",
          "name": "",
          "type": "uint256"
        }
      ],
      "name": "prizeMapping",
      "outputs": [
        {
          "internalType": "string",
          "name": "name",
          "type": "string"
        },
        {
          "internalType": "string",
          "name": "description",
          "type": "string"
        },
        {
          "internalType": "string",
          "name": "imageURL",
          "type": "string"
        }
      ],
      "stateMutability": "view",
      "type": "function",
      "constant": true
    },
    {
      "inputs": [],
      "name": "revealDeadline",
      "outputs": [
        {
          "internalType": "uint256",
          "name": "",
          "type": "uint256"
        }
      ],
      "stateMutability": "view",
      "type": "function",
      "constant": true
    },
    {
      "inputs": [
        {
          "internalType": "address",
          "name": "from",
          "type": "address"
        },
        {
          "internalType": "address",
          "name": "to",
          "type": "address"
        },
        {
          "internalType": "uint256",
          "name": "tokenId",
          "type": "uint256"
        }
      ],
      "name": "safeTransferFrom",
      "outputs": [],
      "stateMutability": "nonpayable",
      "type": "function"
    },
    {
      "inputs": [
        {
          "internalType": "address",
          "name": "from",
          "type": "address"
        },
        {
          "internalType": "address",
          "name": "to",
          "type": "address"
        },
        {
          "internalType": "uint256",
          "name": "tokenId",
          "type": "uint256"
        },
        {
          "internalType": "bytes",
          "name": "data",
          "type": "bytes"
        }
      ],
      "name": "safeTransferFrom",
      "outputs": [],
      "stateMutability": "nonpayable",
      "type": "function"
    },
    {
      "inputs": [],
      "name": "salt",
      "outputs": [
        {
          "internalType": "bytes32",
          "name": "",
          "type": "bytes32"
        }
      ],
      "stateMutability": "view",
      "type": "function",
      "constant": true
    },
    {
      "inputs": [],
      "name": "serverSeed",
      "outputs": [
        {
          "internalType": "bytes32",
          "name": "",
          "type": "bytes32"
        }
      ],
      "stateMutability": "view",
      "type": "function",
      "constant": true
    },
    {
      "inputs": [],
      "name": "serverSeedHash",
      "outputs": [
        {
          "internalType": "bytes32",
          "name": "",
          "type": "bytes32"
        }
      ],
      "stateMutability": "view",
      "type": "function",
      "constant": true
    },
    {
      "inputs": [
        {
          "internalType": "address",
          "name": "operator",
          "type": "address"
        },
        {
          "internalType": "bool",
          "name": "approved",
          "type": "bool"
        }
      ],
      "name": "setApprovalForAll",
      "outputs": [],
      "stateMutability": "nonpayable",
      "type": "function"
    },
    {
      "inputs": [
        {
          "internalType": "bytes4",
          "name": "interfaceId",
          "type": "bytes4"
        }
      ],
      "name": "supportsInterface",
      "outputs": [
        {
          "internalType": "bool",
          "name": "",
          "type": "bool"
        }
      ],
      "stateMutability": "view",
      "type": "function",
      "constant": true
    },
    {
      "inputs": [],
      "name": "symbol",
      "outputs": [
        {
          "internalType": "string",
          "name": "",
          "type": "string"
        }
      ],
      "stateMutability": "view",
      "type": "function",
      "constant": true
    },
    {
      "inputs": [
        {
          "internalType": "uint256",
          "name": "index",
          "type": "uint256"
        }
      ],
      "name": "tokenByIndex",
      "outputs": [
        {
          "internalType": "uint256",
          "name": "",
          "type": "uint256"
        }
      ],
      "stateMutability": "view",
      "type": "function",
      "constant": true
    },
    {
      "inputs": [
        {
          "internalType": "address",
          "name": "owner",
          "type": "address"
        },
        {
          "internalType": "uint256",
          "name": "index",
          "type": "uint256"
        }
      ],
      "name": "tokenOfOwnerByIndex",
      "outputs": [
        {
          "internalType": "uint256",
          "name": "",
          "type": "uint256"
        }
      ],
      "stateMutability": "view",
      "type": "function",
      "constant": true
    },
    {
      "inputs": [],
      "name": "totalSupply",
      "outputs": [
        {
          "internalType": "uint256",
          "name": "",
          "type": "uint256"
        }
      ],
      "stateMutability": "view",
      "type": "function",
      "constant": true
    },
    {
      "inputs": [
        {
          "internalType": "address",
          "name": "from",
          "type": "address"
        },
        {
          "internalType": "address",
          "name": "to",
          "type": "address"
        },
        {
          "internalType": "uint256",
          "name": "tokenId",
          "type": "uint256"
        }
      ],
      "name": "transferFrom",
      "outputs": [],
      "stateMutability": "nonpayable",
      "type": "function"
    },
    {
      "inputs": [
        {
          "internalType": "address",
          "name": "",
          "type": "address"
        },
        {
          "internalType": "bytes32",
          "name": "",
          "type": "bytes32"
        }
      ],
      "name": "usedUserSeeds",
      "outputs": [
        {
          "internalType": "bool",
          "name": "",
          "type": "bool"
        }
      ],
      "stateMutability": "view",
      "type": "function",
      "constant": true
    },
    {
      "inputs": [],
      "name": "userSeed",
      "outputs": [
        {
          "internalType": "bytes32",
          "name": "",
          "type": "bytes32"
        }
      ],
      "stateMutability": "view",
      "type": "function",
      "constant": true
    },
    {
      "inputs": [
        {
          "internalType": "uint256",
          "name": "luckyNumber",
          "type": "uint256"
        },
        {
          "internalType": "string",
          "name": "name",
          "type": "string"
        },
        {
          "internalType": "string",
          "name": "description",
          "type": "string"
        },
        {
          "internalType": "string",
          "name": "imageURL",
          "type": "string"
        }
      ],
      "name": "setPrize",
      "outputs": [],
      "stateMutability": "nonpayable",
      "type": "function"
    },
    {
      "inputs": [
        {
          "internalType": "uint256",
          "name": "luckyNumber",
          "type": "uint256"
        }
      ],
      "name": "getPrize",
      "outputs": [
        {
          "internalType": "string",
          "name": "name",
          "type": "string"
        },
        {
          "internalType": "string",
          "name": "description",
          "type": "string"
        },
        {
          "internalType": "string",
          "name": "imageURL",
          "type": "string"
        }
      ],
      "stateMutability": "view",
      "type": "function",
      "constant": true
    },
    {
      "inputs": [
        {
          "internalType": "string",
          "name": "requestId",
          "type": "string"
        }
      ],
      "name": "requestCommit",
      "outputs": [],
      "stateMutability": "nonpayable",
      "type": "function"
    },
    {
      "inputs": [
        {
          "internalType": "bytes32",
          "name": "_serverSeedHash",
          "type": "bytes32"
        },
        {
          "internalType": "bytes32",
          "name": "_salt",
          "type": "bytes32"
        }
      ],
      "name": "commit",
      "outputs": [],
      "stateMutability": "nonpayable",
      "type": "function"
    },
    {
      "inputs": [
        {
          "internalType": "bytes32",
          "name": "_userSeed",
          "type": "bytes32"
        },
        {
          "internalType": "bytes",
          "name": "_signature",
          "type": "bytes"
        }
      ],
      "name": "participate",
      "outputs": [],
      "stateMutability": "payable",
      "type": "function",
      "payable": true
    },
    {
      "inputs": [
        {
          "internalType": "bytes32",
          "name": "_serverSeed",
          "type": "bytes32"
        },
        {
          "internalType": "bytes",
          "name": "signature",
          "type": "bytes"
        }
      ],
      "name": "reveal",
      "outputs": [],
      "stateMutability": "nonpayable",
      "type": "function"
    },
    {
      "inputs": [
        {
          "internalType": "uint256",
          "name": "tokenId",
          "type": "uint256"
        }
      ],
      "name": "tokenURI",
      "outputs": [
        {
          "internalType": "string",
          "name": "",
          "type": "string"
        }
      ],
      "stateMutability": "view",
      "type": "function",
      "constant": true
    },
    {
      "inputs": [
        {
          "internalType": "uint256",
          "name": "tokenId",
          "type": "uint256"
        }
      ],
      "name": "getLuckyNumberForToken",
      "outputs": [
        {
          "internalType": "uint256",
          "name": "",
          "type": "uint256"
        }
      ],
      "stateMutability": "view",
      "type": "function",
      "constant": true
    },
    {
      "inputs": [
        {
          "internalType": "uint256[]",
          "name": "luckyNumbers",
          "type": "uint256[]"
        },
        {
          "internalType": "string[]",
          "name": "names",
          "type": "string[]"
        },
        {
          "internalType": "string[]",
          "name": "descriptions",
          "type": "string[]"
        },
        {
          "internalType": "string[]",
          "name": "imageURLs",
          "type": "string[]"
        }
      ],
      "name": "setPrizesBulk",
      "outputs": [],
      "stateMutability": "nonpayable",
      "type": "function"
    },
    {
      "inputs": [],
      "name": "getAllTokensInfo",
      "outputs": [
        {
          "components": [
            {
              "internalType": "address",
              "name": "owner",
              "type": "address"
            },
            {
              "internalType": "uint256",
              "name": "tokenId",
              "type": "uint256"
            },
            {
              "internalType": "uint256",
              "name": "luckyNumber",
              "type": "uint256"
            },
            {
              "components": [
                {
                  "internalType": "string",
                  "name": "name",
                  "type": "string"
                },
                {
                  "internalType": "string",
                  "name": "description",
                  "type": "string"
                },
                {
                  "internalType": "string",
                  "name": "imageURL",
                  "type": "string"
                }
              ],
              "internalType": "struct Prize",
              "name": "prize",
              "type": "tuple"
            }
          ],
          "internalType": "struct TokenInfo[]",
          "name": "",
          "type": "tuple[]"
        }
      ],
      "stateMutability": "view",
      "type": "function",
      "constant": true
    },
    {
      "inputs": [
        {
          "internalType": "uint256",
          "name": "_luckyNumber",
          "type": "uint256"
        }
      ],
      "name": "getLuckyNumberCount",
      "outputs": [
        {
          "internalType": "uint256",
          "name": "",
          "type": "uint256"
        }
      ],
      "stateMutability": "view",
      "type": "function",
      "constant": true
    },
    {
      "inputs": [
        {
          "internalType": "bytes",
          "name": "",
          "type": "bytes"
        }
      ],
      "name": "checkUpkeep",
      "outputs": [
        {
          "internalType": "bool",
          "name": "upkeepNeeded",
          "type": "bool"
        },
        {
          "internalType": "bytes",
          "name": "",
          "type": "bytes"
        }
      ],
      "stateMutability": "nonpayable",
      "type": "function"
    },
    {
      "inputs": [
        {
          "internalType": "bytes",
          "name": "",
          "type": "bytes"
        }
      ],
      "name": "performUpkeep",
      "outputs": [],
      "stateMutability": "nonpayable",
      "type": "function"
    }
  ],
  "bytecode": "0x608060405234801562000010575f80fd5b50604051620058b8380380620058b8833981810160405281019062000036919062000151565b6040518060400160405280600981526020017f546f6b656e4e616d6500000000000000000000000000000000000000000000008152506040518060400160405280600b81526020017f546f6b656e53796d626f6c000000000000000000000000000000000000000000815250815f9081620000b29190620003dc565b508060019081620000c49190620003dc565b50505033600b5f6101000a81548173ffffffffffffffffffffffffffffffffffffffff021916908373ffffffffffffffffffffffffffffffffffffffff16021790555080600d8190555050620004c0565b5f80fd5b5f819050919050565b6200012d8162000119565b811462000138575f80fd5b50565b5f815190506200014b8162000122565b92915050565b5f6020828403121562000169576200016862000115565b5b5f62000178848285016200013b565b91505092915050565b5f81519050919050565b7f4e487b71000000000000000000000000000000000000000000000000000000005f52604160045260245ffd5b7f4e487b71000000000000000000000000000000000000000000000000000000005f52602260045260245ffd5b5f6002820490506001821680620001fd57607f821691505b602082108103620002135762000212620001b8565b5b50919050565b5f819050815f5260205f209050919050565b5f6020601f8301049050919050565b5f82821b905092915050565b5f60088302620002777fffffffffffffffffffffffffffffffffffffffffffffffffffffffffffffffff826200023a565b6200028386836200023a565b95508019841693508086168417925050509392505050565b5f819050919050565b5f620002c4620002be620002b88462000119565b6200029b565b62000119565b9050919050565b5f819050919050565b620002df83620002a4565b620002f7620002ee82620002cb565b84845462000246565b825550505050565b5f90565b6200030d620002ff565b6200031a818484620002d4565b505050565b5b818110156200034157620003355f8262000303565b60018101905062000320565b5050565b601f82111562000390576200035a8162000219565b62000365846200022b565b8101602085101562000375578190505b6200038d62000384856200022b565b8301826200031f565b50505b505050565b5f82821c905092915050565b5f620003b25f198460080262000395565b1980831691505092915050565b5f620003cc8383620003a1565b9150826002028217905092915050565b620003e78262000181565b67ffffffffffffffff8111156200040357620004026200018b565b5b6200040f8254620001e5565b6200041c82828562000345565b5f60209050601f83116001811462000452575f84156200043d578287015190505b620004498582620003bf565b865550620004b8565b601f198416620004628662000219565b5f5b828110156200048b5784890151825560018201915060208501945060208101905062000464565b86831015620004ab5784890151620004a7601f891682620003a1565b8355505b6001600288020188555050505b505050505050565b6153ea80620004ce5f395ff3fe60806040526004361061023a575f3560e01c806368c282f21161012d578063a22cb465116100aa578063c87b56dd1161006e578063c87b56dd146108a5578063ceb2d745146108e1578063d428fa2e14610909578063e3ce094d14610947578063e985e9c51461096f5761023a565b8063a22cb465146107d7578063b14b28a3146107ff578063b88d4fde14610829578063bf205ebc14610851578063bfa0b1331461087b5761023a565b80638da5cb5b116100f15780638da5cb5b146106ff57806395d89b4114610729578063984f0be3146107535780639a24a25b1461076f578063a1099bf2146107995761023a565b806368c282f21461060a5780636e04ff0d1461063457806370a08231146106715780637382901e146106ad57806385205108146106d75761023a565b80633ecce918116101bb57806354214f691161017f57806354214f691461052a5780635bb46dff146105545780635fe8aa5e1461057c5780636352211e146105a457806366bcb642146105e05761023a565b80633ecce9181461043857806342842e0e146104745780634585e33b1461049c57806348db5f89146104c45780634f6ccce7146104ee5761023a565b80630e40fa7b116102025780630e40fa7b1461034457806318160ddd1461038057806323b872dd146103aa57806324924bf7146103d25780632f745c59146103fc5761023a565b806301ffc9a71461023e57806306fdde031461027a578063081812fc146102a4578063095ea7b3146102e05780630e178ef114610308575b5f80fd5b348015610249575f80fd5b50610264600480360381019061025f919061359c565b6109ab565b60405161027191906135e1565b60405180910390f35b348015610285575f80fd5b5061028e610a24565b60405161029b9190613684565b60405180910390f35b3480156102af575f80fd5b506102ca60048036038101906102c591906136d7565b610ab3565b6040516102d79190613741565b60405180910390f35b3480156102eb575f80fd5b5061030660048036038101906103019190613784565b610af5565b005b348015610313575f80fd5b5061032e600480360381019061032991906136d7565b610c0b565b60405161033b91906137d1565b60405180910390f35b34801561034f575f80fd5b5061036a600480360381019061036591906136d7565b610c25565b60405161037791906137d1565b60405180910390f35b34801561038b575f80fd5b50610394610c3f565b6040516103a191906137d1565b60405180910390f35b3480156103b5575f80fd5b506103d060048036038101906103cb91906137ea565b610c4b565b005b3480156103dd575f80fd5b506103e6610cab565b6040516103f391906137d1565b60405180910390f35b348015610407575f80fd5b50610422600480360381019061041d9190613784565b610cb1565b60405161042f91906137d1565b60405180910390f35b348015610443575f80fd5b5061045e6004803603810190610459919061386d565b610d51565b60405161046b91906135e1565b60405180910390f35b34801561047f575f80fd5b5061049a600480360381019061049591906137ea565b610d7b565b005b3480156104a7575f80fd5b506104c260048036038101906104bd919061390c565b610d9a565b005b3480156104cf575f80fd5b506104d8610e81565b6040516104e59190613977565b60405180910390f35b3480156104f9575f80fd5b50610514600480360381019061050f91906136d7565b610ea6565b60405161052191906137d1565b60405180910390f35b348015610535575f80fd5b5061053e610f14565b60405161054b91906135e1565b60405180910390f35b34801561055f575f80fd5b5061057a600480360381019061057591906139e5565b610f26565b005b348015610587575f80fd5b506105a2600480360381019061059d9190613cf6565b610f7a565b005b3480156105af575f80fd5b506105ca60048036038101906105c591906136d7565b6110d3565b6040516105d79190613741565b60405180910390f35b3480156105eb575f80fd5b506105f4611157565b6040516106019190613dd9565b60405180910390f35b348015610615575f80fd5b5061061e61115d565b60405161062b9190613dd9565b60405180910390f35b34801561063f575f80fd5b5061065a6004803603810190610655919061390c565b611163565b604051610668929190613e44565b60405180910390f35b34801561067c575f80fd5b5061069760048036038101906106929190613e72565b611188565b6040516106a491906137d1565b60405180910390f35b3480156106b8575f80fd5b506106c161123c565b6040516106ce9190613dd9565b60405180910390f35b3480156106e2575f80fd5b506106fd60048036038101906106f89190613f3b565b611242565b005b34801561070a575f80fd5b506107136114cd565b6040516107209190613977565b60405180910390f35b348015610734575f80fd5b5061073d6114f2565b60405161074a9190613684565b60405180910390f35b61076d60048036038101906107689190613f3b565b611582565b005b34801561077a575f80fd5b5061078361177b565b6040516107909190614171565b60405180910390f35b3480156107a4575f80fd5b506107bf60048036038101906107ba91906136d7565b611a50565b6040516107ce93929190614191565b60405180910390f35b3480156107e2575f80fd5b506107fd60048036038101906107f89190614205565b611c3f565b005b34801561080a575f80fd5b50610813611c55565b60405161082091906137d1565b60405180910390f35b348015610834575f80fd5b5061084f600480360381019061084a9190614243565b611c5b565b005b34801561085c575f80fd5b50610865611cbd565b60405161087291906137d1565b60405180910390f35b348015610886575f80fd5b5061088f611cc3565b60405161089c9190613dd9565b60405180910390f35b3480156108b0575f80fd5b506108cb60048036038101906108c691906136d7565b611cc9565b6040516108d89190613684565b60405180910390f35b3480156108ec575f80fd5b50610907600480360381019061090291906142c3565b611d6a565b005b348015610914575f80fd5b5061092f600480360381019061092a91906136d7565b611de4565b60405161093e93929190614191565b60405180910390f35b348015610952575f80fd5b5061096d6004803603810190610968919061437b565b611f9c565b005b34801561097a575f80fd5b50610995600480360381019061099091906143b9565b61207f565b6040516109a291906135e1565b60405180910390f35b5f7f780e9d63000000000000000000000000000000000000000000000000000000007bffffffffffffffffffffffffffffffffffffffffffffffffffffffff1916827bffffffffffffffffffffffffffffffffffffffffffffffffffffffff19161480610a1d5750610a1c8261210d565b5b9050919050565b60605f8054610a3290614424565b80601f0160208091040260200160405190810160405280929190818152602001828054610a5e90614424565b8015610aa95780601f10610a8057610100808354040283529160200191610aa9565b820191905f5260205f20905b815481529060010190602001808311610a8c57829003601f168201915b5050505050905090565b5f610abd826121ee565b60045f8381526020019081526020015f205f9054906101000a900473ffffffffffffffffffffffffffffffffffffffff169050919050565b5f610aff826110d3565b90508073ffffffffffffffffffffffffffffffffffffffff168373ffffffffffffffffffffffffffffffffffffffff1603610b6f576040517f08c379a0000000000000000000000000000000000000000000000000000000008152600401610b66906144c4565b60405180910390fd5b8073ffffffffffffffffffffffffffffffffffffffff16610b8e612239565b73ffffffffffffffffffffffffffffffffffffffff161480610bbd5750610bbc81610bb7612239565b61207f565b5b610bfc576040517f08c379a0000000000000000000000000000000000000000000000000000000008152600401610bf390614552565b60405180910390fd5b610c068383612240565b505050565b5f60165f8381526020019081526020015f20549050919050565b5f60195f8381526020019081526020015f20549050919050565b5f600880549050905090565b610c5c610c56612239565b826122f6565b610c9b576040517f08c379a0000000000000000000000000000000000000000000000000000000008152600401610c92906145e0565b60405180910390fd5b610ca683838361238a565b505050565b600d5481565b5f610cbb83611188565b8210610cfc576040517f08c379a0000000000000000000000000000000000000000000000000000000008152600401610cf39061466e565b60405180910390fd5b60065f8473ffffffffffffffffffffffffffffffffffffffff1673ffffffffffffffffffffffffffffffffffffffff1681526020019081526020015f205f8381526020019081526020015f2054905092915050565b6015602052815f5260405f20602052805f5260405f205f915091509054906101000a900460ff1681565b610d9583838360405180602001604052805f815250611c5b565b505050565b5f601054604051602001610dae91906146ac565b604051602081830303815290604052805190602001209050600a815f1c610dd591906146f3565b601181905550600160195f60115481526020019081526020015f2054610dfb9190614750565b60195f60115481526020019081526020015f2081905550610e3f600c5f9054906101000a900473ffffffffffffffffffffffffffffffffffffffff16601154612676565b7f6765f1b8ca6c099f7378c6e9b12cf8afac970d483c3faf81745e4b40c26148db601054601154604051610e74929190614783565b60405180910390a1505050565b600c5f9054906101000a900473ffffffffffffffffffffffffffffffffffffffff1681565b5f610eaf610c3f565b8210610ef0576040517f08c379a0000000000000000000000000000000000000000000000000000000008152600401610ee79061481a565b60405180910390fd5b60088281548110610f0457610f03614838565b5b905f5260205f2001549050919050565b60125f9054906101000a900460ff1681565b3373ffffffffffffffffffffffffffffffffffffffff167f012b1127b60d15366b18ae35b2848ab5a402d272f830e92b37b1db38374a1c098383604051610f6e929190614891565b60405180910390a25050565b82518451148015610f8c575081518351145b8015610f99575080518251145b610fd8576040517f08c379a0000000000000000000000000000000000000000000000000000000008152600401610fcf906148fd565b60405180910390fd5b5f5b84518110156110cc575f604051806060016040528086848151811061100257611001614838565b5b6020026020010151815260200185848151811061102257611021614838565b5b6020026020010151815260200184848151811061104257611041614838565b5b602002602001015181525090508060175f88858151811061106657611065614838565b5b602002602001015181526020019081526020015f205f820151815f01908161108e9190614ab8565b5060208201518160010190816110a49190614ab8565b5060408201518160020190816110ba9190614ab8565b50905050508080600101915050610fda565b5050505050565b5f806110de836128f2565b90505f73ffffffffffffffffffffffffffffffffffffffff168173ffffffffffffffffffffffffffffffffffffffff160361114e576040517f08c379a000000000000000000000000000000000000000000000000000000000815260040161114590614bd1565b60405180910390fd5b80915050919050565b60105481565b600f5481565b5f6060426014541091508160405180602001604052805f815250915091509250929050565b5f8073ffffffffffffffffffffffffffffffffffffffff168273ffffffffffffffffffffffffffffffffffffffff16036111f7576040517f08c379a00000000000000000000000000000000000000000000000000000000081526004016111ee90614c5f565b60405180910390fd5b60035f8373ffffffffffffffffffffffffffffffffffffffff1673ffffffffffffffffffffffffffffffffffffffff1681526020019081526020015f20549050919050565b600e5481565b81601354604051602001611257929190614c7d565b60405160208183030381529060405280519060200120600e54146112b0576040517f08c379a00000000000000000000000000000000000000000000000000000000081526004016112a790614cf2565b60405180910390fd5b81600f819055505f6112c18361292b565b90505f6112cd8261295a565b90505f6112da8285612989565b9050827f5f23b605bd6c13580e1bd65c89aa5768674b0165fd8cc0a8a18819c7cd8a7c7860405160405180910390a28073ffffffffffffffffffffffffffffffffffffffff167f391f5edd7209ba797e8055bce97cab2d1a480a2849b0c7fe965c370457166dc460405160405180910390a2600b5f9054906101000a900473ffffffffffffffffffffffffffffffffffffffff1673ffffffffffffffffffffffffffffffffffffffff168173ffffffffffffffffffffffffffffffffffffffff16146113db576040517f08c379a00000000000000000000000000000000000000000000000000000000081526004016113d290614d5a565b60405180910390fd5b5f600f546010546013546040516020016113f793929190614d78565b604051602081830303815290604052805190602001209050600a815f1c61141e91906146f3565b601181905550600160195f60115481526020019081526020015f20546114449190614750565b60195f60115481526020019081526020015f20819055507f6765f1b8ca6c099f7378c6e9b12cf8afac970d483c3faf81745e4b40c26148db600f54601154604051611490929190614783565b60405180910390a16114c5600c5f9054906101000a900473ffffffffffffffffffffffffffffffffffffffff16601154612676565b505050505050565b600b5f9054906101000a900473ffffffffffffffffffffffffffffffffffffffff1681565b60606001805461150190614424565b80601f016020809104026020016040519081016040528092919081815260200182805461152d90614424565b80156115785780601f1061154f57610100808354040283529160200191611578565b820191905f5260205f20905b81548152906001019060200180831161155b57829003601f168201915b5050505050905090565b5f61158c8361292b565b90505f6115988261295a565b90505f6115a58285612989565b90503373ffffffffffffffffffffffffffffffffffffffff168173ffffffffffffffffffffffffffffffffffffffff1614611615576040517f08c379a000000000000000000000000000000000000000000000000000000000815260040161160c90614d5a565b60405180910390fd5b8460108190555033600c5f6101000a81548173ffffffffffffffffffffffffffffffffffffffff021916908373ffffffffffffffffffffffffffffffffffffffff160217905550600160155f3373ffffffffffffffffffffffffffffffffffffffff1673ffffffffffffffffffffffffffffffffffffffff1681526020019081526020015f205f8781526020019081526020015f205f6101000a81548160ff021916908315150217905550600c5f9054906101000a900473ffffffffffffffffffffffffffffffffffffffff1673ffffffffffffffffffffffffffffffffffffffff167fc197ebf15e8fe977ad5029df6077570283fa75a10103efc82970e4962d21eb306010546040516117299190613dd9565b60405180910390a23373ffffffffffffffffffffffffffffffffffffffff167f4b904c2bfe136ea68afa5ff4de7e0c7101664ebd64570c7f6f6f8d8b533d0ef060405160405180910390a25050505050565b60605f611788600a6129f3565b90505f8167ffffffffffffffff8111156117a5576117a4613a30565b5b6040519080825280602002602001820160405280156117de57816020015b6117cb6134d4565b8152602001906001900390816117c35790505b5090505f5b82811015611a47575f6001826117f99190614750565b90505f611805826110d3565b90505f61181183610c0b565b90505f60175f8381526020019081526020015f206040518060600160405290815f8201805461183f90614424565b80601f016020809104026020016040519081016040528092919081815260200182805461186b90614424565b80156118b65780601f1061188d576101008083540402835291602001916118b6565b820191905f5260205f20905b81548152906001019060200180831161189957829003601f168201915b505050505081526020016001820180546118cf90614424565b80601f01602080910402602001604051908101604052809291908181526020018280546118fb90614424565b80156119465780601f1061191d57610100808354040283529160200191611946565b820191905f5260205f20905b81548152906001019060200180831161192957829003601f168201915b5050505050815260200160028201805461195f90614424565b80601f016020809104026020016040519081016040528092919081815260200182805461198b90614424565b80156119d65780601f106119ad576101008083540402835291602001916119d6565b820191905f5260205f20905b8154815290600101906020018083116119b957829003601f168201915b505050505081525050905060405180608001604052808473ffffffffffffffffffffffffffffffffffffffff16815260200185815260200183815260200182815250868681518110611a2b57611a2a614838565b5b60200260200101819052505050505080806001019150506117e3565b50809250505090565b60608060605f60175f8681526020019081526020015f206040518060600160405290815f82018054611a8190614424565b80601f0160208091040260200160405190810160405280929190818152602001828054611aad90614424565b8015611af85780601f10611acf57610100808354040283529160200191611af8565b820191905f5260205f20905b815481529060010190602001808311611adb57829003601f168201915b50505050508152602001600182018054611b1190614424565b80601f0160208091040260200160405190810160405280929190818152602001828054611b3d90614424565b8015611b885780601f10611b5f57610100808354040283529160200191611b88565b820191905f5260205f20905b815481529060010190602001808311611b6b57829003601f168201915b50505050508152602001600282018054611ba190614424565b80601f0160208091040260200160405190810160405280929190818152602001828054611bcd90614424565b8015611c185780601f10611bef57610100808354040283529160200191611c18565b820191905f5260205f20905b815481529060010190602001808311611bfb57829003601f168201915b5050505050815250509050805f015181602001518260400151935093509350509193909250565b611c51611c4a612239565b83836129ff565b5050565b60145481565b611c6c611c66612239565b836122f6565b611cab576040517f08c379a0000000000000000000000000000000000000000000000000000000008152600401611ca2906145e0565b60405180910390fd5b611cb784848484612b66565b50505050565b60115481565b60135481565b606060185f8381526020019081526020015f208054611ce790614424565b80601f0160208091040260200160405190810160405280929190818152602001828054611d1390614424565b8015611d5e5780601f10611d3557610100808354040283529160200191611d5e565b820191905f5260205f20905b815481529060010190602001808311611d4157829003601f168201915b50505050509050919050565b5f60405180606001604052808581526020018481526020018381525090508060175f8781526020019081526020015f205f820151815f019081611dad9190614ab8565b506020820151816001019081611dc39190614ab8565b506040820151816002019081611dd99190614ab8565b509050505050505050565b6017602052805f5260405f205f91509050805f018054611e0390614424565b80601f0160208091040260200160405190810160405280929190818152602001828054611e2f90614424565b8015611e7a5780601f10611e5157610100808354040283529160200191611e7a565b820191905f5260205f20905b815481529060010190602001808311611e5d57829003601f168201915b505050505090806001018054611e8f90614424565b80601f0160208091040260200160405190810160405280929190818152602001828054611ebb90614424565b8015611f065780601f10611edd57610100808354040283529160200191611f06565b820191905f5260205f20905b815481529060010190602001808311611ee957829003601f168201915b505050505090806002018054611f1b90614424565b80601f0160208091040260200160405190810160405280929190818152602001828054611f4790614424565b8015611f925780601f10611f6957610100808354040283529160200191611f92565b820191905f5260205f20905b815481529060010190602001808311611f7557829003601f168201915b5050505050905083565b600b5f9054906101000a900473ffffffffffffffffffffffffffffffffffffffff1673ffffffffffffffffffffffffffffffffffffffff163373ffffffffffffffffffffffffffffffffffffffff161461202b576040517f08c379a000000000000000000000000000000000000000000000000000000000815260040161202290614dfe565b60405180910390fd5b81600e8190555080601381905550603c426120469190614750565b601481905550600e547f522250e8a5d48ed8b6afbdb88fc1bb8ce6735c729835065b6840033c1d406f9060405160405180910390a25050565b5f60055f8473ffffffffffffffffffffffffffffffffffffffff1673ffffffffffffffffffffffffffffffffffffffff1681526020019081526020015f205f8373ffffffffffffffffffffffffffffffffffffffff1673ffffffffffffffffffffffffffffffffffffffff1681526020019081526020015f205f9054906101000a900460ff16905092915050565b5f7f80ac58cd000000000000000000000000000000000000000000000000000000007bffffffffffffffffffffffffffffffffffffffffffffffffffffffff1916827bffffffffffffffffffffffffffffffffffffffffffffffffffffffff191614806121d757507f5b5e139f000000000000000000000000000000000000000000000000000000007bffffffffffffffffffffffffffffffffffffffffffffffffffffffff1916827bffffffffffffffffffffffffffffffffffffffffffffffffffffffff1916145b806121e757506121e682612bc2565b5b9050919050565b6121f781612c2b565b612236576040517f08c379a000000000000000000000000000000000000000000000000000000000815260040161222d90614bd1565b60405180910390fd5b50565b5f33905090565b8160045f8381526020019081526020015f205f6101000a81548173ffffffffffffffffffffffffffffffffffffffff021916908373ffffffffffffffffffffffffffffffffffffffff160217905550808273ffffffffffffffffffffffffffffffffffffffff166122b0836110d3565b73ffffffffffffffffffffffffffffffffffffffff167f8c5be1e5ebec7d5bd14f71427d1e84f3dd0314c0f7b2291e5b200ac8c7c3b92560405160405180910390a45050565b5f80612301836110d3565b90508073ffffffffffffffffffffffffffffffffffffffff168473ffffffffffffffffffffffffffffffffffffffff1614806123435750612342818561207f565b5b8061238157508373ffffffffffffffffffffffffffffffffffffffff1661236984610ab3565b73ffffffffffffffffffffffffffffffffffffffff16145b91505092915050565b8273ffffffffffffffffffffffffffffffffffffffff166123aa826110d3565b73ffffffffffffffffffffffffffffffffffffffff1614612400576040517f08c379a00000000000000000000000000000000000000000000000000000000081526004016123f790614e8c565b60405180910390fd5b5f73ffffffffffffffffffffffffffffffffffffffff168273ffffffffffffffffffffffffffffffffffffffff160361246e576040517f08c379a000000000000000000000000000000000000000000000000000000000815260040161246590614f1a565b60405180910390fd5b61247b8383836001612c6b565b8273ffffffffffffffffffffffffffffffffffffffff1661249b826110d3565b73ffffffffffffffffffffffffffffffffffffffff16146124f1576040517f08c379a00000000000000000000000000000000000000000000000000000000081526004016124e890614e8c565b60405180910390fd5b60045f8281526020019081526020015f205f6101000a81549073ffffffffffffffffffffffffffffffffffffffff0219169055600160035f8573ffffffffffffffffffffffffffffffffffffffff1673ffffffffffffffffffffffffffffffffffffffff1681526020019081526020015f205f8282540392505081905550600160035f8473ffffffffffffffffffffffffffffffffffffffff1673ffffffffffffffffffffffffffffffffffffffff1681526020019081526020015f205f82825401925050819055508160025f8381526020019081526020015f205f6101000a81548173ffffffffffffffffffffffffffffffffffffffff021916908373ffffffffffffffffffffffffffffffffffffffff160217905550808273ffffffffffffffffffffffffffffffffffffffff168473ffffffffffffffffffffffffffffffffffffffff167fddf252ad1be2c89b69c2b068fc378daa952ba7f163c4a11628f55a4df523b3ef60405160405180910390a46126718383836001612dc6565b505050565b612680600a612dcc565b5f61268b600a6129f3565b90506126978382612de0565b8160165f8381526020019081526020015f20819055505f60175f8481526020019081526020015f206040518060600160405290815f820180546126d990614424565b80601f016020809104026020016040519081016040528092919081815260200182805461270590614424565b80156127505780601f1061272757610100808354040283529160200191612750565b820191905f5260205f20905b81548152906001019060200180831161273357829003601f168201915b5050505050815260200160018201805461276990614424565b80601f016020809104026020016040519081016040528092919081815260200182805461279590614424565b80156127e05780601f106127b7576101008083540402835291602001916127e0565b820191905f5260205f20905b8154815290600101906020018083116127c357829003601f168201915b505050505081526020016002820180546127f990614424565b80601f016020809104026020016040519081016040528092919081815260200182805461282590614424565b80156128705780601f1061284757610100808354040283529160200191612870565b820191905f5260205f20905b81548152906001019060200180831161285357829003601f168201915b5050505050815250509050806040015160185f8481526020019081526020015f20908161289d9190614ab8565b508373ffffffffffffffffffffffffffffffffffffffff167f4cc0a9c4a99ddc700de1af2c9f916a7cbfdb71f14801ccff94061ad1ef8a8040836040516128e491906137d1565b60405180910390a250505050565b5f60025f8381526020019081526020015f205f9054906101000a900473ffffffffffffffffffffffffffffffffffffffff169050919050565b5f8160405160200161293d91906146ac565b604051602081830303815290604052805190602001209050919050565b5f8160405160200161296c9190614f8c565b604051602081830303815290604052805190602001209050919050565b5f805f8061299685612ff3565b9250925092506001868285856040515f81526020016040526040516129be9493929190614fcc565b6020604051602081039080840390855afa1580156129de573d5f803e3d5ffd5b50505060206040510351935050505092915050565b5f815f01549050919050565b8173ffffffffffffffffffffffffffffffffffffffff168373ffffffffffffffffffffffffffffffffffffffff1603612a6d576040517f08c379a0000000000000000000000000000000000000000000000000000000008152600401612a6490615059565b60405180910390fd5b8060055f8573ffffffffffffffffffffffffffffffffffffffff1673ffffffffffffffffffffffffffffffffffffffff1681526020019081526020015f205f8473ffffffffffffffffffffffffffffffffffffffff1673ffffffffffffffffffffffffffffffffffffffff1681526020019081526020015f205f6101000a81548160ff0219169083151502179055508173ffffffffffffffffffffffffffffffffffffffff168373ffffffffffffffffffffffffffffffffffffffff167f17307eab39ab6107e8899845ad3d59bd9653f200f220920489ca2b5937696c3183604051612b5991906135e1565b60405180910390a3505050565b612b7184848461238a565b612b7d84848484613058565b612bbc576040517f08c379a0000000000000000000000000000000000000000000000000000000008152600401612bb3906150e7565b60405180910390fd5b50505050565b5f7f01ffc9a7000000000000000000000000000000000000000000000000000000007bffffffffffffffffffffffffffffffffffffffffffffffffffffffff1916827bffffffffffffffffffffffffffffffffffffffffffffffffffffffff1916149050919050565b5f8073ffffffffffffffffffffffffffffffffffffffff16612c4c836128f2565b73ffffffffffffffffffffffffffffffffffffffff1614159050919050565b612c77848484846131da565b6001811115612cbb576040517f08c379a0000000000000000000000000000000000000000000000000000000008152600401612cb290615175565b60405180910390fd5b5f8290505f73ffffffffffffffffffffffffffffffffffffffff168573ffffffffffffffffffffffffffffffffffffffff1603612d0057612cfb816131e0565b612d3f565b8373ffffffffffffffffffffffffffffffffffffffff168573ffffffffffffffffffffffffffffffffffffffff1614612d3e57612d3d8582613224565b5b5b5f73ffffffffffffffffffffffffffffffffffffffff168473ffffffffffffffffffffffffffffffffffffffff1603612d8057612d7b8161337a565b612dbf565b8473ffffffffffffffffffffffffffffffffffffffff168473ffffffffffffffffffffffffffffffffffffffff1614612dbe57612dbd848261343a565b5b5b5050505050565b50505050565b6001815f015f828254019250508190555050565b5f73ffffffffffffffffffffffffffffffffffffffff168273ffffffffffffffffffffffffffffffffffffffff1603612e4e576040517f08c379a0000000000000000000000000000000000000000000000000000000008152600401612e45906151dd565b60405180910390fd5b612e5781612c2b565b15612e97576040517f08c379a0000000000000000000000000000000000000000000000000000000008152600401612e8e90615245565b60405180910390fd5b612ea45f83836001612c6b565b612ead81612c2b565b15612eed576040517f08c379a0000000000000000000000000000000000000000000000000000000008152600401612ee490615245565b60405180910390fd5b600160035f8473ffffffffffffffffffffffffffffffffffffffff1673ffffffffffffffffffffffffffffffffffffffff1681526020019081526020015f205f82825401925050819055508160025f8381526020019081526020015f205f6101000a81548173ffffffffffffffffffffffffffffffffffffffff021916908373ffffffffffffffffffffffffffffffffffffffff160217905550808273ffffffffffffffffffffffffffffffffffffffff165f73ffffffffffffffffffffffffffffffffffffffff167fddf252ad1be2c89b69c2b068fc378daa952ba7f163c4a11628f55a4df523b3ef60405160405180910390a4612fef5f83836001612dc6565b5050565b5f805f604184511461303a576040517f08c379a0000000000000000000000000000000000000000000000000000000008152600401613031906152ad565b60405180910390fd5b602084015192506040840151915060608401515f1a90509193909250565b5f6130788473ffffffffffffffffffffffffffffffffffffffff166134b2565b156131cd578373ffffffffffffffffffffffffffffffffffffffff1663150b7a026130a1612239565b8786866040518563ffffffff1660e01b81526004016130c394939291906152cb565b6020604051808303815f875af19250505080156130fe57506040513d601f19601f820116820180604052508101906130fb9190615329565b60015b61317d573d805f811461312c576040519150601f19603f3d011682016040523d82523d5f602084013e613131565b606091505b505f815103613175576040517f08c379a000000000000000000000000000000000000000000000000000000000815260040161316c906150e7565b60405180910390fd5b805181602001fd5b63150b7a0260e01b7bffffffffffffffffffffffffffffffffffffffffffffffffffffffff1916817bffffffffffffffffffffffffffffffffffffffffffffffffffffffff1916149150506131d2565b600190505b949350505050565b50505050565b60088054905060095f8381526020019081526020015f2081905550600881908060018154018082558091505060019003905f5260205f20015f909190919091505550565b5f600161323084611188565b61323a9190615354565b90505f60075f8481526020019081526020015f20549050818114613311575f60065f8673ffffffffffffffffffffffffffffffffffffffff1673ffffffffffffffffffffffffffffffffffffffff1681526020019081526020015f205f8481526020019081526020015f205490508060065f8773ffffffffffffffffffffffffffffffffffffffff1673ffffffffffffffffffffffffffffffffffffffff1681526020019081526020015f205f8481526020019081526020015f20819055508160075f8381526020019081526020015f2081905550505b60075f8481526020019081526020015f205f905560065f8573ffffffffffffffffffffffffffffffffffffffff1673ffffffffffffffffffffffffffffffffffffffff1681526020019081526020015f205f8381526020019081526020015f205f905550505050565b5f600160088054905061338d9190615354565b90505f60095f8481526020019081526020015f205490505f600883815481106133b9576133b8614838565b5b905f5260205f200154905080600883815481106133d9576133d8614838565b5b905f5260205f2001819055508160095f8381526020019081526020015f208190555060095f8581526020019081526020015f205f9055600880548061342157613420615387565b5b600190038181905f5260205f20015f9055905550505050565b5f61344483611188565b90508160065f8573ffffffffffffffffffffffffffffffffffffffff1673ffffffffffffffffffffffffffffffffffffffff1681526020019081526020015f205f8381526020019081526020015f20819055508060075f8481526020019081526020015f2081905550505050565b5f808273ffffffffffffffffffffffffffffffffffffffff163b119050919050565b60405180608001604052805f73ffffffffffffffffffffffffffffffffffffffff1681526020015f81526020015f815260200161350f613515565b81525090565b60405180606001604052806060815260200160608152602001606081525090565b5f604051905090565b5f80fd5b5f80fd5b5f7fffffffff0000000000000000000000000000000000000000000000000000000082169050919050565b61357b81613547565b8114613585575f80fd5b50565b5f8135905061359681613572565b92915050565b5f602082840312156135b1576135b061353f565b5b5f6135be84828501613588565b91505092915050565b5f8115159050919050565b6135db816135c7565b82525050565b5f6020820190506135f45f8301846135d2565b92915050565b5f81519050919050565b5f82825260208201905092915050565b5f5b83811015613631578082015181840152602081019050613616565b5f8484015250505050565b5f601f19601f8301169050919050565b5f613656826135fa565b6136608185613604565b9350613670818560208601613614565b6136798161363c565b840191505092915050565b5f6020820190508181035f83015261369c818461364c565b905092915050565b5f819050919050565b6136b6816136a4565b81146136c0575f80fd5b50565b5f813590506136d1816136ad565b92915050565b5f602082840312156136ec576136eb61353f565b5b5f6136f9848285016136c3565b91505092915050565b5f73ffffffffffffffffffffffffffffffffffffffff82169050919050565b5f61372b82613702565b9050919050565b61373b81613721565b82525050565b5f6020820190506137545f830184613732565b92915050565b61376381613721565b811461376d575f80fd5b50565b5f8135905061377e8161375a565b92915050565b5f806040838503121561379a5761379961353f565b5b5f6137a785828601613770565b92505060206137b8858286016136c3565b9150509250929050565b6137cb816136a4565b82525050565b5f6020820190506137e45f8301846137c2565b92915050565b5f805f606084860312156138015761380061353f565b5b5f61380e86828701613770565b935050602061381f86828701613770565b9250506040613830868287016136c3565b9150509250925092565b5f819050919050565b61384c8161383a565b8114613856575f80fd5b50565b5f8135905061386781613843565b92915050565b5f80604083850312156138835761388261353f565b5b5f61389085828601613770565b92505060206138a185828601613859565b9150509250929050565b5f80fd5b5f80fd5b5f80fd5b5f8083601f8401126138cc576138cb6138ab565b5b8235905067ffffffffffffffff8111156138e9576138e86138af565b5b602083019150836001820283011115613905576139046138b3565b5b9250929050565b5f80602083850312156139225761392161353f565b5b5f83013567ffffffffffffffff81111561393f5761393e613543565b5b61394b858286016138b7565b92509250509250929050565b5f61396182613702565b9050919050565b61397181613957565b82525050565b5f60208201905061398a5f830184613968565b92915050565b5f8083601f8401126139a5576139a46138ab565b5b8235905067ffffffffffffffff8111156139c2576139c16138af565b5b6020830191508360018202830111156139de576139dd6138b3565b5b9250929050565b5f80602083850312156139fb576139fa61353f565b5b5f83013567ffffffffffffffff811115613a1857613a17613543565b5b613a2485828601613990565b92509250509250929050565b7f4e487b71000000000000000000000000000000000000000000000000000000005f52604160045260245ffd5b613a668261363c565b810181811067ffffffffffffffff82111715613a8557613a84613a30565b5b80604052505050565b5f613a97613536565b9050613aa38282613a5d565b919050565b5f67ffffffffffffffff821115613ac257613ac1613a30565b5b602082029050602081019050919050565b5f613ae5613ae084613aa8565b613a8e565b90508083825260208201905060208402830185811115613b0857613b076138b3565b5b835b81811015613b315780613b1d88826136c3565b845260208401935050602081019050613b0a565b5050509392505050565b5f82601f830112613b4f57613b4e6138ab565b5b8135613b5f848260208601613ad3565b91505092915050565b5f67ffffffffffffffff821115613b8257613b81613a30565b5b602082029050602081019050919050565b5f80fd5b5f67ffffffffffffffff821115613bb157613bb0613a30565b5b613bba8261363c565b9050602081019050919050565b828183375f83830152505050565b5f613be7613be284613b97565b613a8e565b905082815260208101848484011115613c0357613c02613b93565b5b613c0e848285613bc7565b509392505050565b5f82601f830112613c2a57613c296138ab565b5b8135613c3a848260208601613bd5565b91505092915050565b5f613c55613c5084613b68565b613a8e565b90508083825260208201905060208402830185811115613c7857613c776138b3565b5b835b81811015613cbf57803567ffffffffffffffff811115613c9d57613c9c6138ab565b5b808601613caa8982613c16565b85526020850194505050602081019050613c7a565b5050509392505050565b5f82601f830112613cdd57613cdc6138ab565b5b8135613ced848260208601613c43565b91505092915050565b5f805f8060808587031215613d0e57613d0d61353f565b5b5f85013567ffffffffffffffff811115613d2b57613d2a613543565b5b613d3787828801613b3b565b945050602085013567ffffffffffffffff811115613d5857613d57613543565b5b613d6487828801613cc9565b935050604085013567ffffffffffffffff811115613d8557613d84613543565b5b613d9187828801613cc9565b925050606085013567ffffffffffffffff811115613db257613db1613543565b5b613dbe87828801613cc9565b91505092959194509250565b613dd38161383a565b82525050565b5f602082019050613dec5f830184613dca565b92915050565b5f81519050919050565b5f82825260208201905092915050565b5f613e1682613df2565b613e208185613dfc565b9350613e30818560208601613614565b613e398161363c565b840191505092915050565b5f604082019050613e575f8301856135d2565b8181036020830152613e698184613e0c565b90509392505050565b5f60208284031215613e8757613e8661353f565b5b5f613e9484828501613770565b91505092915050565b5f67ffffffffffffffff821115613eb757613eb6613a30565b5b613ec08261363c565b9050602081019050919050565b5f613edf613eda84613e9d565b613a8e565b905082815260208101848484011115613efb57613efa613b93565b5b613f06848285613bc7565b509392505050565b5f82601f830112613f2257613f216138ab565b5b8135613f32848260208601613ecd565b91505092915050565b5f8060408385031215613f5157613f5061353f565b5b5f613f5e85828601613859565b925050602083013567ffffffffffffffff811115613f7f57613f7e613543565b5b613f8b85828601613f0e565b9150509250929050565b5f81519050919050565b5f82825260208201905092915050565b5f819050602082019050919050565b613fc781613721565b82525050565b613fd6816136a4565b82525050565b5f82825260208201905092915050565b5f613ff6826135fa565b6140008185613fdc565b9350614010818560208601613614565b6140198161363c565b840191505092915050565b5f606083015f8301518482035f86015261403e8282613fec565b915050602083015184820360208601526140588282613fec565b915050604083015184820360408601526140728282613fec565b9150508091505092915050565b5f608083015f8301516140945f860182613fbe565b5060208301516140a76020860182613fcd565b5060408301516140ba6040860182613fcd565b50606083015184820360608601526140d28282614024565b9150508091505092915050565b5f6140ea838361407f565b905092915050565b5f602082019050919050565b5f61410882613f95565b6141128185613f9f565b93508360208202850161412485613faf565b805f5b8581101561415f578484038952815161414085826140df565b945061414b836140f2565b925060208a01995050600181019050614127565b50829750879550505050505092915050565b5f6020820190508181035f83015261418981846140fe565b905092915050565b5f6060820190508181035f8301526141a9818661364c565b905081810360208301526141bd818561364c565b905081810360408301526141d1818461364c565b9050949350505050565b6141e4816135c7565b81146141ee575f80fd5b50565b5f813590506141ff816141db565b92915050565b5f806040838503121561421b5761421a61353f565b5b5f61422885828601613770565b9250506020614239858286016141f1565b9150509250929050565b5f805f806080858703121561425b5761425a61353f565b5b5f61426887828801613770565b945050602061427987828801613770565b935050604061428a878288016136c3565b925050606085013567ffffffffffffffff8111156142ab576142aa613543565b5b6142b787828801613f0e565b91505092959194509250565b5f805f80608085870312156142db576142da61353f565b5b5f6142e8878288016136c3565b945050602085013567ffffffffffffffff81111561430957614308613543565b5b61431587828801613c16565b935050604085013567ffffffffffffffff81111561433657614335613543565b5b61434287828801613c16565b925050606085013567ffffffffffffffff81111561436357614362613543565b5b61436f87828801613c16565b91505092959194509250565b5f80604083850312156143915761439061353f565b5b5f61439e85828601613859565b92505060206143af85828601613859565b9150509250929050565b5f80604083850312156143cf576143ce61353f565b5b5f6143dc85828601613770565b92505060206143ed85828601613770565b9150509250929050565b7f4e487b71000000000000000000000000000000000000000000000000000000005f52602260045260245ffd5b5f600282049050600182168061443b57607f821691505b60208210810361444e5761444d6143f7565b5b50919050565b7f4552433732313a20617070726f76616c20746f2063757272656e74206f776e655f8201527f7200000000000000000000000000000000000000000000000000000000000000602082015250565b5f6144ae602183613604565b91506144b982614454565b604082019050919050565b5f6020820190508181035f8301526144db816144a2565b9050919050565b7f4552433732313a20617070726f76652063616c6c6572206973206e6f7420746f5f8201527f6b656e206f776e6572206f7220617070726f76656420666f7220616c6c000000602082015250565b5f61453c603d83613604565b9150614547826144e2565b604082019050919050565b5f6020820190508181035f83015261456981614530565b9050919050565b7f4552433732313a2063616c6c6572206973206e6f7420746f6b656e206f776e655f8201527f72206f7220617070726f76656400000000000000000000000000000000000000602082015250565b5f6145ca602d83613604565b91506145d582614570565b604082019050919050565b5f6020820190508181035f8301526145f7816145be565b9050919050565b7f455243373231456e756d657261626c653a206f776e657220696e646578206f755f8201527f74206f6620626f756e6473000000000000000000000000000000000000000000602082015250565b5f614658602b83613604565b9150614663826145fe565b604082019050919050565b5f6020820190508181035f8301526146858161464c565b9050919050565b5f819050919050565b6146a66146a18261383a565b61468c565b82525050565b5f6146b78284614695565b60208201915081905092915050565b7f4e487b71000000000000000000000000000000000000000000000000000000005f52601260045260245ffd5b5f6146fd826136a4565b9150614708836136a4565b925082614718576147176146c6565b5b828206905092915050565b7f4e487b71000000000000000000000000000000000000000000000000000000005f52601160045260245ffd5b5f61475a826136a4565b9150614765836136a4565b925082820190508082111561477d5761477c614723565b5b92915050565b5f6040820190506147965f830185613dca565b6147a360208301846137c2565b9392505050565b7f455243373231456e756d657261626c653a20676c6f62616c20696e646578206f5f8201527f7574206f6620626f756e64730000000000000000000000000000000000000000602082015250565b5f614804602c83613604565b915061480f826147aa565b604082019050919050565b5f6020820190508181035f830152614831816147f8565b9050919050565b7f4e487b71000000000000000000000000000000000000000000000000000000005f52603260045260245ffd5b5f6148708385613604565b935061487d838584613bc7565b6148868361363c565b840190509392505050565b5f6020820190508181035f8301526148aa818486614865565b90509392505050565b7f4172726179206c656e67746873206d69736d61746368000000000000000000005f82015250565b5f6148e7601683613604565b91506148f2826148b3565b602082019050919050565b5f6020820190508181035f830152614914816148db565b9050919050565b5f819050815f5260205f209050919050565b5f6020601f8301049050919050565b5f82821b905092915050565b5f600883026149777fffffffffffffffffffffffffffffffffffffffffffffffffffffffffffffffff8261493c565b614981868361493c565b95508019841693508086168417925050509392505050565b5f819050919050565b5f6149bc6149b76149b2846136a4565b614999565b6136a4565b9050919050565b5f819050919050565b6149d5836149a2565b6149e96149e1826149c3565b848454614948565b825550505050565b5f90565b6149fd6149f1565b614a088184846149cc565b505050565b5b81811015614a2b57614a205f826149f5565b600181019050614a0e565b5050565b601f821115614a7057614a418161491b565b614a4a8461492d565b81016020851015614a59578190505b614a6d614a658561492d565b830182614a0d565b50505b505050565b5f82821c905092915050565b5f614a905f1984600802614a75565b1980831691505092915050565b5f614aa88383614a81565b9150826002028217905092915050565b614ac1826135fa565b67ffffffffffffffff811115614ada57614ad9613a30565b5b614ae48254614424565b614aef828285614a2f565b5f60209050601f831160018114614b20575f8415614b0e578287015190505b614b188582614a9d565b865550614b7f565b601f198416614b2e8661491b565b5f5b82811015614b5557848901518255600182019150602085019450602081019050614b30565b86831015614b725784890151614b6e601f891682614a81565b8355505b6001600288020188555050505b505050505050565b7f4552433732313a20696e76616c696420746f6b656e20494400000000000000005f82015250565b5f614bbb601883613604565b9150614bc682614b87565b602082019050919050565b5f6020820190508181035f830152614be881614baf565b9050919050565b7f4552433732313a2061646472657373207a65726f206973206e6f7420612076615f8201527f6c6964206f776e65720000000000000000000000000000000000000000000000602082015250565b5f614c49602983613604565b9150614c5482614bef565b604082019050919050565b5f6020820190508181035f830152614c7681614c3d565b9050919050565b5f614c888285614695565b602082019150614c988284614695565b6020820191508190509392505050565b7f496e76616c6964207365727665722073656564000000000000000000000000005f82015250565b5f614cdc601383613604565b9150614ce782614ca8565b602082019050919050565b5f6020820190508181035f830152614d0981614cd0565b9050919050565b7f496e76616c6964207369676e61747572650000000000000000000000000000005f82015250565b5f614d44601183613604565b9150614d4f82614d10565b602082019050919050565b5f6020820190508181035f830152614d7181614d38565b9050919050565b5f614d838286614695565b602082019150614d938285614695565b602082019150614da38284614695565b602082019150819050949350505050565b7f4f6e6c79206f776e65722063616e20636f6d6d697400000000000000000000005f82015250565b5f614de8601583613604565b9150614df382614db4565b602082019050919050565b5f6020820190508181035f830152614e1581614ddc565b9050919050565b7f4552433732313a207472616e736665722066726f6d20696e636f7272656374205f8201527f6f776e6572000000000000000000000000000000000000000000000000000000602082015250565b5f614e76602583613604565b9150614e8182614e1c565b604082019050919050565b5f6020820190508181035f830152614ea381614e6a565b9050919050565b7f4552433732313a207472616e7366657220746f20746865207a65726f206164645f8201527f7265737300000000000000000000000000000000000000000000000000000000602082015250565b5f614f04602483613604565b9150614f0f82614eaa565b604082019050919050565b5f6020820190508181035f830152614f3181614ef8565b9050919050565b5f81905092915050565b7f19457468657265756d205369676e6564204d6573736167653a0a3332000000005f82015250565b5f614f76601c83614f38565b9150614f8182614f42565b601c82019050919050565b5f614f9682614f6a565b9150614fa28284614695565b60208201915081905092915050565b5f60ff82169050919050565b614fc681614fb1565b82525050565b5f608082019050614fdf5f830187613dca565b614fec6020830186614fbd565b614ff96040830185613dca565b6150066060830184613dca565b95945050505050565b7f4552433732313a20617070726f766520746f2063616c6c6572000000000000005f82015250565b5f615043601983613604565b915061504e8261500f565b602082019050919050565b5f6020820190508181035f83015261507081615037565b9050919050565b7f4552433732313a207472616e7366657220746f206e6f6e2045524337323152655f8201527f63656976657220696d706c656d656e7465720000000000000000000000000000602082015250565b5f6150d1603283613604565b91506150dc82615077565b604082019050919050565b5f6020820190508181035f8301526150fe816150c5565b9050919050565b7f455243373231456e756d657261626c653a20636f6e73656375746976652074725f8201527f616e7366657273206e6f7420737570706f727465640000000000000000000000602082015250565b5f61515f603583613604565b915061516a82615105565b604082019050919050565b5f6020820190508181035f83015261518c81615153565b9050919050565b7f4552433732313a206d696e7420746f20746865207a65726f20616464726573735f82015250565b5f6151c7602083613604565b91506151d282615193565b602082019050919050565b5f6020820190508181035f8301526151f4816151bb565b9050919050565b7f4552433732313a20746f6b656e20616c7265616479206d696e746564000000005f82015250565b5f61522f601c83613604565b915061523a826151fb565b602082019050919050565b5f6020820190508181035f83015261525c81615223565b9050919050565b7f696e76616c6964207369676e6174757265206c656e67746800000000000000005f82015250565b5f615297601883613604565b91506152a282615263565b602082019050919050565b5f6020820190508181035f8301526152c48161528b565b9050919050565b5f6080820190506152de5f830187613732565b6152eb6020830186613732565b6152f860408301856137c2565b818103606083015261530a8184613e0c565b905095945050505050565b5f8151905061532381613572565b92915050565b5f6020828403121561533e5761533d61353f565b5b5f61534b84828501615315565b91505092915050565b5f61535e826136a4565b9150615369836136a4565b925082820390508181111561538157615380614723565b5b92915050565b7f4e487b71000000000000000000000000000000000000000000000000000000005f52603160045260245ffdfea264697066735822122040e0755dc832efdb8d238d1b914b939cefc28acfc53132d0e599d7119922daba64736f6c63430008160033",
  "immutableReferences": {},
  "source": "// SPDX-License-Identifier: MIT\r\n\r\npragma solidity >=0.4.22 <0.9.0;\r\n\r\nimport \"@openzeppelin/contracts/utils/cryptography/ECDSA.sol\";\r\nimport \"@openzeppelin/contracts/token/ERC721/extensions/ERC721Enumerable.sol\";\r\nimport \"@openzeppelin/contracts/utils/Counters.sol\";\r\nimport \"@chainlink/contracts/src/v0.8/automation/AutomationCompatible.sol\";\r\n\r\n//truffle compile\r\n//truffle migrate --network sepolia\r\n//truffle migrate --network sepolia --reset\r\n// \r\nstruct TokenInfo {\r\n    address owner;\r\n    uint256 tokenId;\r\n    uint256 luckyNumber;\r\n    Prize prize;\r\n}\r\n\r\nstruct Prize {\r\n    string name;\r\n    string description;\r\n    string imageURL; // URI (: IPFS)\r\n}\r\ncontract GachaNFTAuto is ERC721Enumerable,AutomationCompatibleInterface {\r\n    using ECDSA for bytes32;\r\n    using Counters for Counters.Counter;\r\n\r\n    Counters.Counter private _tokenIdCounter;  // Token ID counter for NFTs\r\n  \r\n//0xdB246570d317400612c3782F0a208c6c51Ae5b22\r\n//truffle migrate --network sepolia --reset\r\n    address payable public owner;\r\n    address payable public player;\r\n    uint256 public maxParticipants;\r\n    bytes32 public serverSeedHash;  // Server seed hash for commitment\r\n    bytes32 public serverSeed;      // Server seed to be revealed later\r\n    bytes32 public userSeed;\r\n    uint256 public luckyNumber;\r\n    bool public isRevealed;\r\n    bytes32 public salt;  // : \r\n    uint256 public revealDeadline;\r\n\r\n\r\n\r\n    // Store used userSeed\r\n    mapping(address => mapping(bytes32 => bool)) public usedUserSeeds;\r\n    mapping(uint256 => uint256) private tokenLuckyNumbers;   \r\n    // \r\n    mapping(uint256 => Prize) public prizeMapping;\r\n    mapping(uint256 => string) private _tokenURIs;\r\n    mapping(uint256 => uint256) private luckyNumberCounts;\r\n\r\n\r\n\r\n    // Events\r\n    event Participation(address indexed player, bytes32 userSeed);\r\n    event Commitment(bytes32 indexed serverSeedHash);\r\n    event Reveal(bytes32 serverSeed, uint256 luckyNumber);\r\n    event CommitRequested(address indexed user);\r\n    event DebugLogEvent(string);  \r\n    event NFTMinted(address indexed owner, uint256 tokenId);\r\n  event RequestCommit(address indexed requester, string requestId);\r\n\r\n  \r\n\r\n\r\nconstructor(uint256 _maxParticipants) ERC721(\"TokenName\", \"TokenSymbol\") public {\r\n    owner = payable(msg.sender);\r\n    maxParticipants = _maxParticipants;\r\n}\r\n\r\n// \r\n    function setPrize(uint256 luckyNumber, string memory name, string memory description, string memory imageURL) public {\r\n        // \r\n        Prize memory newPrize = Prize({\r\n            name: name,\r\n            description: description,\r\n            imageURL: imageURL\r\n        });\r\n\r\n        prizeMapping[luckyNumber] = newPrize;\r\n    }\r\n\r\n    // \r\n    function getPrize(uint256 luckyNumber) public view returns (string memory name, string memory description, string memory imageURL) {\r\n        Prize memory prize = prizeMapping[luckyNumber];\r\n        return (prize.name, prize.description, prize.imageURL);\r\n    }\r\n    function requestCommit(string calldata requestId) public {\r\n        // \r\n        emit RequestCommit(msg.sender, requestId);\r\n    }\r\n    // Owner commits a hashed server seed\r\n    function commit(bytes32 _serverSeedHash, bytes32 _salt) public {\r\n        require(msg.sender == owner, \"Only owner can commit\");\r\n        serverSeedHash = _serverSeedHash;\r\n        salt = _salt;\r\n        revealDeadline = block.timestamp + 1 minutes; // 1\r\n\r\n        emit Commitment(serverSeedHash);  // Emit Commitment event\r\n    }\r\n\r\n\r\n//  function participate(bytes32 _userSeed) public payable {\r\n//         userSeed = _userSeed;\r\n//         player = payable(msg.sender);\r\n//         usedUserSeeds[msg.sender][_userSeed] = true;\r\n//         emit Participation(player, userSeed);  \r\n//         emit CommitRequested(msg.sender);\r\n//     }\r\n function participate(bytes32 _userSeed, bytes memory _signature) public payable {\r\n    // 1. \r\n    bytes32 messageHash = getMessageHash(_userSeed);\r\n//    bytes32 message = keccak256(abi.encodePacked(msg.sender, _userSeed));\r\n    bytes32 ethSignedMessageHash = getEthSignedMessageHash(messageHash);\r\n    address recoveredAddress = recoverSigner(ethSignedMessageHash, _signature);\r\n\r\n    // 2. \r\n   // address recovered = recoverSigner(ethSignedMessageHash, _signature);\r\n\r\n    // 3. \r\n    require(recoveredAddress == msg.sender, \"Invalid signature\");       \r\n    userSeed = _userSeed;\r\n    player = payable(msg.sender);\r\n    usedUserSeeds[msg.sender][_userSeed] = true;\r\n    emit Participation(player, userSeed);  \r\n    emit CommitRequested(msg.sender);\r\n}\r\n\r\n\r\nevent RecoveredAddress(address indexed recovered);\r\nevent LogMessageHash(bytes32 indexed messageHash);\r\n   function getMessageHash(bytes32 _message) internal pure returns (bytes32) {\r\n        return keccak256(abi.encodePacked(_message));\r\n    }\r\n\r\n    function getEthSignedMessageHash(bytes32 _messageHash) internal pure returns (bytes32) {\r\n        return keccak256(abi.encodePacked(\"\\x19Ethereum Signed Message:\\n32\", _messageHash));\r\n    }\r\n\r\n    function recoverSigner(bytes32 _ethSignedMessageHash, bytes memory _signature) internal pure returns (address) {\r\n        (bytes32 r, bytes32 s, uint8 v) = splitSignature(_signature);\r\n        return ecrecover(_ethSignedMessageHash, v, r, s);\r\n    }\r\n\r\n    function splitSignature(bytes memory _signature) internal pure returns (bytes32 r, bytes32 s, uint8 v) {\r\n        require(_signature.length == 65, \"invalid signature length\");\r\n        assembly {\r\n            r := mload(add(_signature, 32))\r\n            s := mload(add(_signature, 64))\r\n            v := byte(0, mload(add(_signature, 96)))\r\n        }\r\n    }\r\n\r\n    function reveal(bytes32 _serverSeed, bytes memory signature) public {\r\n        require(serverSeedHash == keccak256(abi.encodePacked(_serverSeed, salt)), \"Invalid server seed\");\r\n        serverSeed = _serverSeed;\r\n\r\n        bytes32 messageHash = getMessageHash(_serverSeed);\r\n        bytes32 ethSignedMessageHash = getEthSignedMessageHash(messageHash);\r\n        address recoveredAddress = recoverSigner(ethSignedMessageHash, signature);\r\n\r\n        emit LogMessageHash(messageHash);\r\n        emit RecoveredAddress(recoveredAddress);\r\n\r\n        require(recoveredAddress == owner, \"Invalid signature\");\r\n        \r\n        bytes32 finalHash = keccak256(abi.encodePacked(serverSeed, userSeed, salt));\r\n        luckyNumber = uint256(finalHash) % 10;\r\n        luckyNumberCounts[luckyNumber] = luckyNumberCounts[luckyNumber] + 1;\r\n\r\n        emit Reveal(serverSeed, luckyNumber);\r\n         // mint NFT after the luckyNumber has been determined\r\n        mintNFT(player, luckyNumber);\r\n        \r\n    }\r\n // MintURI\r\nfunction mintNFT(address recipient, uint256 _luckyNumber) internal {\r\n    _tokenIdCounter.increment();\r\n    uint256 newTokenId = _tokenIdCounter.current();\r\n    _mint(recipient, newTokenId);\r\n    \r\n    tokenLuckyNumbers[newTokenId] = _luckyNumber;\r\n\r\n    // tokenURI\r\n    Prize memory prize = prizeMapping[_luckyNumber];\r\n    _tokenURIs[newTokenId] = prize.imageURL;\r\n        emit NFTMinted(recipient, newTokenId);\r\n\r\n}\r\n\r\n// IDURI\r\nfunction tokenURI(uint256 tokenId) public view override returns (string memory) {\r\n    return _tokenURIs[tokenId];\r\n}\r\nfunction getLuckyNumberForToken(uint256 tokenId) public view returns (uint256) {\r\n    return tokenLuckyNumbers[tokenId];\r\n}\r\n\r\nfunction setPrizesBulk(\r\n    uint256[] memory luckyNumbers, \r\n    string[] memory names, \r\n    string[] memory descriptions, \r\n    string[] memory imageURLs\r\n) public {\r\n    require(\r\n        luckyNumbers.length == names.length && \r\n        names.length == descriptions.length && \r\n        descriptions.length == imageURLs.length, \r\n        \"Array lengths mismatch\"\r\n    );\r\n\r\n    for (uint i = 0; i < luckyNumbers.length; i++) {\r\n        Prize memory newPrize = Prize({\r\n            name: names[i],\r\n            description: descriptions[i],\r\n            imageURL: imageURLs[i]\r\n        });\r\n\r\n        prizeMapping[luckyNumbers[i]] = newPrize;\r\n    }\r\n}\r\n function getAllTokensInfo() public view returns (TokenInfo[] memory) {\r\n        uint256 totalTokens = _tokenIdCounter.current();\r\n        TokenInfo[] memory tokens = new TokenInfo[](totalTokens);\r\n\r\n        for (uint256 i = 0; i < totalTokens; i++) {\r\n            uint256 tokenId = i + 1;  // ID1\r\n            address tokenOwner = ownerOf(tokenId);\r\n            uint256 luckyNumber = getLuckyNumberForToken(tokenId);\r\n            Prize memory prize = prizeMapping[luckyNumber];\r\n            tokens[i] = TokenInfo(tokenOwner, tokenId, luckyNumber, prize);\r\n        }\r\n        return tokens;\r\n    }\r\n\r\nfunction getLuckyNumberCount(uint256 _luckyNumber) public view returns (uint256) {\r\n    return luckyNumberCounts[_luckyNumber];\r\n}\r\n\r\n\r\n // Chainlink Automation Network\r\n    function checkUpkeep(bytes calldata /* checkData */) external override returns (bool upkeepNeeded, bytes memory /* performData */) {\r\n        // \r\n        // : revealDeadline\r\n        upkeepNeeded = (revealDeadline < block.timestamp) ;\r\n        return (upkeepNeeded, bytes(\"\"));\r\n    }\r\n\r\n    function performUpkeep(bytes calldata /* performData */) external override {\r\n        // checkUpkeeptrue\r\n   //     if (revealDeadline < block.timestamp) {\r\n              // \r\n    //uint256 luckyNumber = uint256(keccak256(abi.encodePacked(userSeed))) % 10;\r\n       bytes32 finalHash = keccak256(abi.encodePacked(userSeed));\r\n       luckyNumber = uint256(finalHash) % 10;\r\n        luckyNumberCounts[luckyNumber] = luckyNumberCounts[luckyNumber] + 1;\r\n\r\n\r\n    // NFT\r\n        mintNFT(player, luckyNumber);\r\n        emit Reveal(userSeed, luckyNumber);\r\n    }\r\n}\r\n",
  "sourcePath": "C:\\src\\truffle0\\contracts\\GachaNFTAuto.sol",
  "compiler": {
    "name": "solc",
    "version": "0.8.22+commit.4fc1097e.Emscripten.clang"
  },
  "schemaVersion": "3.4.16",
  "updatedAt": "2023-10-31T13:45:25.566Z",
  "networkType": "ethereum",
  "devdoc": {
    "events": {
      "Approval(address,address,uint256)": {
        "details": "Emitted when `owner` enables `approved` to manage the `tokenId` token."
      },
      "ApprovalForAll(address,address,bool)": {
        "details": "Emitted when `owner` enables or disables (`approved`) `operator` to manage all of its assets."
      },
      "Transfer(address,address,uint256)": {
        "details": "Emitted when `tokenId` token is transferred from `from` to `to`."
      }
    },
    "kind": "dev",
    "methods": {
      "approve(address,uint256)": {
        "details": "See {IERC721-approve}."
      },
      "balanceOf(address)": {
        "details": "See {IERC721-balanceOf}."
      },
      "getApproved(uint256)": {
        "details": "See {IERC721-getApproved}."
      },
      "isApprovedForAll(address,address)": {
        "details": "See {IERC721-isApprovedForAll}."
      },
      "name()": {
        "details": "See {IERC721Metadata-name}."
      },
      "ownerOf(uint256)": {
        "details": "See {IERC721-ownerOf}."
      },
      "safeTransferFrom(address,address,uint256)": {
        "details": "See {IERC721-safeTransferFrom}."
      },
      "safeTransferFrom(address,address,uint256,bytes)": {
        "details": "See {IERC721-safeTransferFrom}."
      },
      "setApprovalForAll(address,bool)": {
        "details": "See {IERC721-setApprovalForAll}."
      },
      "supportsInterface(bytes4)": {
        "details": "See {IERC165-supportsInterface}."
      },
      "symbol()": {
        "details": "See {IERC721Metadata-symbol}."
      },
      "tokenByIndex(uint256)": {
        "details": "See {IERC721Enumerable-tokenByIndex}."
      },
      "tokenOfOwnerByIndex(address,uint256)": {
        "details": "See {IERC721Enumerable-tokenOfOwnerByIndex}."
      },
      "tokenURI(uint256)": {
        "details": "See {IERC721Metadata-tokenURI}."
      },
      "totalSupply()": {
        "details": "See {IERC721Enumerable-totalSupply}."
      },
      "transferFrom(address,address,uint256)": {
        "details": "See {IERC721-transferFrom}."
      }
    },
    "version": 1
  },
  "userdoc": {
    "kind": "user",
    "methods": {},
    "version": 1
  }
}