{
  "contractName": "GachaNFT",
  "abi": [
    {
      "inputs": [
        {
          "internalType": "uint256",
          "name": "_maxParticipants",
          "type": "uint256"
        }
      ],
      "stateMutability": "nonpayable",
      "type": "constructor"
    },
    {
      "anonymous": false,
      "inputs": [
        {
          "indexed": true,
          "internalType": "address",
          "name": "owner",
          "type": "address"
        },
        {
          "indexed": true,
          "internalType": "address",
          "name": "approved",
          "type": "address"
        },
        {
          "indexed": true,
          "internalType": "uint256",
          "name": "tokenId",
          "type": "uint256"
        }
      ],
      "name": "Approval",
      "type": "event"
    },
    {
      "anonymous": false,
      "inputs": [
        {
          "indexed": true,
          "internalType": "address",
          "name": "owner",
          "type": "address"
        },
        {
          "indexed": true,
          "internalType": "address",
          "name": "operator",
          "type": "address"
        },
        {
          "indexed": false,
          "internalType": "bool",
          "name": "approved",
          "type": "bool"
        }
      ],
      "name": "ApprovalForAll",
      "type": "event"
    },
    {
      "anonymous": false,
      "inputs": [
        {
          "indexed": true,
          "internalType": "address",
          "name": "user",
          "type": "address"
        }
      ],
      "name": "CommitRequested",
      "type": "event"
    },
    {
      "anonymous": false,
      "inputs": [
        {
          "indexed": true,
          "internalType": "bytes32",
          "name": "serverSeedHash",
          "type": "bytes32"
        }
      ],
      "name": "Commitment",
      "type": "event"
    },
    {
      "anonymous": false,
      "inputs": [
        {
          "indexed": false,
          "internalType": "string",
          "name": "",
          "type": "string"
        }
      ],
      "name": "DebugLogEvent",
      "type": "event"
    },
    {
      "anonymous": false,
      "inputs": [
        {
          "indexed": true,
          "internalType": "bytes32",
          "name": "messageHash",
          "type": "bytes32"
        }
      ],
      "name": "LogMessageHash",
      "type": "event"
    },
    {
      "anonymous": false,
      "inputs": [
        {
          "indexed": true,
          "internalType": "address",
          "name": "owner",
          "type": "address"
        },
        {
          "indexed": false,
          "internalType": "uint256",
          "name": "tokenId",
          "type": "uint256"
        }
      ],
      "name": "NFTMinted",
      "type": "event"
    },
    {
      "anonymous": false,
      "inputs": [
        {
          "indexed": true,
          "internalType": "address",
          "name": "player",
          "type": "address"
        },
        {
          "indexed": false,
          "internalType": "bytes32",
          "name": "userSeed",
          "type": "bytes32"
        }
      ],
      "name": "Participation",
      "type": "event"
    },
    {
      "anonymous": false,
      "inputs": [
        {
          "indexed": true,
          "internalType": "address",
          "name": "recovered",
          "type": "address"
        }
      ],
      "name": "RecoveredAddress",
      "type": "event"
    },
    {
      "anonymous": false,
      "inputs": [
        {
          "indexed": true,
          "internalType": "address",
          "name": "requester",
          "type": "address"
        },
        {
          "indexed": false,
          "internalType": "string",
          "name": "requestId",
          "type": "string"
        }
      ],
      "name": "RequestCommit",
      "type": "event"
    },
    {
      "anonymous": false,
      "inputs": [
        {
          "indexed": false,
          "internalType": "bytes32",
          "name": "serverSeed",
          "type": "bytes32"
        },
        {
          "indexed": false,
          "internalType": "uint256",
          "name": "luckyNumber",
          "type": "uint256"
        }
      ],
      "name": "Reveal",
      "type": "event"
    },
    {
      "anonymous": false,
      "inputs": [
        {
          "indexed": true,
          "internalType": "address",
          "name": "from",
          "type": "address"
        },
        {
          "indexed": true,
          "internalType": "address",
          "name": "to",
          "type": "address"
        },
        {
          "indexed": true,
          "internalType": "uint256",
          "name": "tokenId",
          "type": "uint256"
        }
      ],
      "name": "Transfer",
      "type": "event"
    },
    {
      "inputs": [
        {
          "internalType": "address",
          "name": "to",
          "type": "address"
        },
        {
          "internalType": "uint256",
          "name": "tokenId",
          "type": "uint256"
        }
      ],
      "name": "approve",
      "outputs": [],
      "stateMutability": "nonpayable",
      "type": "function"
    },
    {
      "inputs": [
        {
          "internalType": "address",
          "name": "owner",
          "type": "address"
        }
      ],
      "name": "balanceOf",
      "outputs": [
        {
          "internalType": "uint256",
          "name": "",
          "type": "uint256"
        }
      ],
      "stateMutability": "view",
      "type": "function",
      "constant": true
    },
    {
      "inputs": [
        {
          "internalType": "uint256",
          "name": "tokenId",
          "type": "uint256"
        }
      ],
      "name": "getApproved",
      "outputs": [
        {
          "internalType": "address",
          "name": "",
          "type": "address"
        }
      ],
      "stateMutability": "view",
      "type": "function",
      "constant": true
    },
    {
      "inputs": [
        {
          "internalType": "address",
          "name": "owner",
          "type": "address"
        },
        {
          "internalType": "address",
          "name": "operator",
          "type": "address"
        }
      ],
      "name": "isApprovedForAll",
      "outputs": [
        {
          "internalType": "bool",
          "name": "",
          "type": "bool"
        }
      ],
      "stateMutability": "view",
      "type": "function",
      "constant": true
    },
    {
      "inputs": [],
      "name": "isRevealed",
      "outputs": [
        {
          "internalType": "bool",
          "name": "",
          "type": "bool"
        }
      ],
      "stateMutability": "view",
      "type": "function",
      "constant": true
    },
    {
      "inputs": [],
      "name": "luckyNumber",
      "outputs": [
        {
          "internalType": "uint256",
          "name": "",
          "type": "uint256"
        }
      ],
      "stateMutability": "view",
      "type": "function",
      "constant": true
    },
    {
      "inputs": [],
      "name": "maxParticipants",
      "outputs": [
        {
          "internalType": "uint256",
          "name": "",
          "type": "uint256"
        }
      ],
      "stateMutability": "view",
      "type": "function",
      "constant": true
    },
    {
      "inputs": [],
      "name": "name",
      "outputs": [
        {
          "internalType": "string",
          "name": "",
          "type": "string"
        }
      ],
      "stateMutability": "view",
      "type": "function",
      "constant": true
    },
    {
      "inputs": [],
      "name": "owner",
      "outputs": [
        {
          "internalType": "address payable",
          "name": "",
          "type": "address"
        }
      ],
      "stateMutability": "view",
      "type": "function",
      "constant": true
    },
    {
      "inputs": [
        {
          "internalType": "uint256",
          "name": "tokenId",
          "type": "uint256"
        }
      ],
      "name": "ownerOf",
      "outputs": [
        {
          "internalType": "address",
          "name": "",
          "type": "address"
        }
      ],
      "stateMutability": "view",
      "type": "function",
      "constant": true
    },
    {
      "inputs": [],
      "name": "player",
      "outputs": [
        {
          "internalType": "address payable",
          "name": "",
          "type": "address"
        }
      ],
      "stateMutability": "view",
      "type": "function",
      "constant": true
    },
    {
      "inputs": [
        {
          "internalType": "uint256",
          "name": "",
          "type": "uint256"
        }
      ],
      "name": "prizeMapping",
      "outputs": [
        {
          "internalType": "string",
          "name": "name",
          "type": "string"
        },
        {
          "internalType": "string",
          "name": "description",
          "type": "string"
        },
        {
          "internalType": "string",
          "name": "imageURL",
          "type": "string"
        }
      ],
      "stateMutability": "view",
      "type": "function",
      "constant": true
    },
    {
      "inputs": [
        {
          "internalType": "address",
          "name": "from",
          "type": "address"
        },
        {
          "internalType": "address",
          "name": "to",
          "type": "address"
        },
        {
          "internalType": "uint256",
          "name": "tokenId",
          "type": "uint256"
        }
      ],
      "name": "safeTransferFrom",
      "outputs": [],
      "stateMutability": "nonpayable",
      "type": "function"
    },
    {
      "inputs": [
        {
          "internalType": "address",
          "name": "from",
          "type": "address"
        },
        {
          "internalType": "address",
          "name": "to",
          "type": "address"
        },
        {
          "internalType": "uint256",
          "name": "tokenId",
          "type": "uint256"
        },
        {
          "internalType": "bytes",
          "name": "data",
          "type": "bytes"
        }
      ],
      "name": "safeTransferFrom",
      "outputs": [],
      "stateMutability": "nonpayable",
      "type": "function"
    },
    {
      "inputs": [],
      "name": "salt",
      "outputs": [
        {
          "internalType": "bytes32",
          "name": "",
          "type": "bytes32"
        }
      ],
      "stateMutability": "view",
      "type": "function",
      "constant": true
    },
    {
      "inputs": [],
      "name": "serverSeed",
      "outputs": [
        {
          "internalType": "bytes32",
          "name": "",
          "type": "bytes32"
        }
      ],
      "stateMutability": "view",
      "type": "function",
      "constant": true
    },
    {
      "inputs": [],
      "name": "serverSeedHash",
      "outputs": [
        {
          "internalType": "bytes32",
          "name": "",
          "type": "bytes32"
        }
      ],
      "stateMutability": "view",
      "type": "function",
      "constant": true
    },
    {
      "inputs": [
        {
          "internalType": "address",
          "name": "operator",
          "type": "address"
        },
        {
          "internalType": "bool",
          "name": "approved",
          "type": "bool"
        }
      ],
      "name": "setApprovalForAll",
      "outputs": [],
      "stateMutability": "nonpayable",
      "type": "function"
    },
    {
      "inputs": [
        {
          "internalType": "bytes4",
          "name": "interfaceId",
          "type": "bytes4"
        }
      ],
      "name": "supportsInterface",
      "outputs": [
        {
          "internalType": "bool",
          "name": "",
          "type": "bool"
        }
      ],
      "stateMutability": "view",
      "type": "function",
      "constant": true
    },
    {
      "inputs": [],
      "name": "symbol",
      "outputs": [
        {
          "internalType": "string",
          "name": "",
          "type": "string"
        }
      ],
      "stateMutability": "view",
      "type": "function",
      "constant": true
    },
    {
      "inputs": [
        {
          "internalType": "uint256",
          "name": "index",
          "type": "uint256"
        }
      ],
      "name": "tokenByIndex",
      "outputs": [
        {
          "internalType": "uint256",
          "name": "",
          "type": "uint256"
        }
      ],
      "stateMutability": "view",
      "type": "function",
      "constant": true
    },
    {
      "inputs": [
        {
          "internalType": "address",
          "name": "owner",
          "type": "address"
        },
        {
          "internalType": "uint256",
          "name": "index",
          "type": "uint256"
        }
      ],
      "name": "tokenOfOwnerByIndex",
      "outputs": [
        {
          "internalType": "uint256",
          "name": "",
          "type": "uint256"
        }
      ],
      "stateMutability": "view",
      "type": "function",
      "constant": true
    },
    {
      "inputs": [],
      "name": "totalSupply",
      "outputs": [
        {
          "internalType": "uint256",
          "name": "",
          "type": "uint256"
        }
      ],
      "stateMutability": "view",
      "type": "function",
      "constant": true
    },
    {
      "inputs": [
        {
          "internalType": "address",
          "name": "from",
          "type": "address"
        },
        {
          "internalType": "address",
          "name": "to",
          "type": "address"
        },
        {
          "internalType": "uint256",
          "name": "tokenId",
          "type": "uint256"
        }
      ],
      "name": "transferFrom",
      "outputs": [],
      "stateMutability": "nonpayable",
      "type": "function"
    },
    {
      "inputs": [
        {
          "internalType": "address",
          "name": "",
          "type": "address"
        },
        {
          "internalType": "bytes32",
          "name": "",
          "type": "bytes32"
        }
      ],
      "name": "usedUserSeeds",
      "outputs": [
        {
          "internalType": "bool",
          "name": "",
          "type": "bool"
        }
      ],
      "stateMutability": "view",
      "type": "function",
      "constant": true
    },
    {
      "inputs": [],
      "name": "userSeed",
      "outputs": [
        {
          "internalType": "bytes32",
          "name": "",
          "type": "bytes32"
        }
      ],
      "stateMutability": "view",
      "type": "function",
      "constant": true
    },
    {
      "inputs": [
        {
          "internalType": "uint256",
          "name": "luckyNumber",
          "type": "uint256"
        },
        {
          "internalType": "string",
          "name": "name",
          "type": "string"
        },
        {
          "internalType": "string",
          "name": "description",
          "type": "string"
        },
        {
          "internalType": "string",
          "name": "imageURL",
          "type": "string"
        }
      ],
      "name": "setPrize",
      "outputs": [],
      "stateMutability": "nonpayable",
      "type": "function"
    },
    {
      "inputs": [
        {
          "internalType": "uint256",
          "name": "luckyNumber",
          "type": "uint256"
        }
      ],
      "name": "getPrize",
      "outputs": [
        {
          "internalType": "string",
          "name": "name",
          "type": "string"
        },
        {
          "internalType": "string",
          "name": "description",
          "type": "string"
        },
        {
          "internalType": "string",
          "name": "imageURL",
          "type": "string"
        }
      ],
      "stateMutability": "view",
      "type": "function",
      "constant": true
    },
    {
      "inputs": [
        {
          "internalType": "string",
          "name": "requestId",
          "type": "string"
        }
      ],
      "name": "requestCommit",
      "outputs": [],
      "stateMutability": "nonpayable",
      "type": "function"
    },
    {
      "inputs": [
        {
          "internalType": "bytes32",
          "name": "_serverSeedHash",
          "type": "bytes32"
        },
        {
          "internalType": "bytes32",
          "name": "_salt",
          "type": "bytes32"
        }
      ],
      "name": "commit",
      "outputs": [],
      "stateMutability": "nonpayable",
      "type": "function"
    },
    {
      "inputs": [
        {
          "internalType": "bytes32",
          "name": "_userSeed",
          "type": "bytes32"
        },
        {
          "internalType": "bytes",
          "name": "_signature",
          "type": "bytes"
        }
      ],
      "name": "participate",
      "outputs": [],
      "stateMutability": "payable",
      "type": "function",
      "payable": true
    },
    {
      "inputs": [
        {
          "internalType": "bytes32",
          "name": "_serverSeed",
          "type": "bytes32"
        },
        {
          "internalType": "bytes",
          "name": "signature",
          "type": "bytes"
        }
      ],
      "name": "reveal",
      "outputs": [],
      "stateMutability": "nonpayable",
      "type": "function"
    },
    {
      "inputs": [
        {
          "internalType": "uint256",
          "name": "tokenId",
          "type": "uint256"
        }
      ],
      "name": "tokenURI",
      "outputs": [
        {
          "internalType": "string",
          "name": "",
          "type": "string"
        }
      ],
      "stateMutability": "view",
      "type": "function",
      "constant": true
    },
    {
      "inputs": [
        {
          "internalType": "uint256",
          "name": "tokenId",
          "type": "uint256"
        }
      ],
      "name": "getLuckyNumberForToken",
      "outputs": [
        {
          "internalType": "uint256",
          "name": "",
          "type": "uint256"
        }
      ],
      "stateMutability": "view",
      "type": "function",
      "constant": true
    },
    {
      "inputs": [
        {
          "internalType": "uint256[]",
          "name": "luckyNumbers",
          "type": "uint256[]"
        },
        {
          "internalType": "string[]",
          "name": "names",
          "type": "string[]"
        },
        {
          "internalType": "string[]",
          "name": "descriptions",
          "type": "string[]"
        },
        {
          "internalType": "string[]",
          "name": "imageURLs",
          "type": "string[]"
        }
      ],
      "name": "setPrizesBulk",
      "outputs": [],
      "stateMutability": "nonpayable",
      "type": "function"
    },
    {
      "inputs": [],
      "name": "getAllTokensInfo",
      "outputs": [
        {
          "components": [
            {
              "internalType": "address",
              "name": "owner",
              "type": "address"
            },
            {
              "internalType": "uint256",
              "name": "tokenId",
              "type": "uint256"
            },
            {
              "internalType": "uint256",
              "name": "luckyNumber",
              "type": "uint256"
            },
            {
              "components": [
                {
                  "internalType": "string",
                  "name": "name",
                  "type": "string"
                },
                {
                  "internalType": "string",
                  "name": "description",
                  "type": "string"
                },
                {
                  "internalType": "string",
                  "name": "imageURL",
                  "type": "string"
                }
              ],
              "internalType": "struct Prize",
              "name": "prize",
              "type": "tuple"
            }
          ],
          "internalType": "struct TokenInfo[]",
          "name": "",
          "type": "tuple[]"
        }
      ],
      "stateMutability": "view",
      "type": "function",
      "constant": true
    },
    {
      "inputs": [
        {
          "internalType": "uint256",
          "name": "_luckyNumber",
          "type": "uint256"
        }
      ],
      "name": "getLuckyNumberCount",
      "outputs": [
        {
          "internalType": "uint256",
          "name": "",
          "type": "uint256"
        }
      ],
      "stateMutability": "view",
      "type": "function",
      "constant": true
    }
  ],
  "bytecode": "0x60806040523480156200001157600080fd5b506040516200554e3803806200554e8339818101604052810190620000379190620001ed565b6040518060400160405280600981526020017f546f6b656e4e616d6500000000000000000000000000000000000000000000008152506040518060400160405280600b81526020017f546f6b656e53796d626f6c0000000000000000000000000000000000000000008152508160009080519060200190620000bb92919062000126565b508060019080519060200190620000d492919062000126565b50505033600b60006101000a81548173ffffffffffffffffffffffffffffffffffffffff021916908373ffffffffffffffffffffffffffffffffffffffff16021790555080600d8190555050620002a2565b828054620001349062000223565b90600052602060002090601f016020900481019282620001585760008555620001a4565b82601f106200017357805160ff1916838001178555620001a4565b82800160010185558215620001a4579182015b82811115620001a357825182559160200191906001019062000186565b5b509050620001b39190620001b7565b5090565b5b80821115620001d2576000816000905550600101620001b8565b5090565b600081519050620001e78162000288565b92915050565b6000602082840312156200020057600080fd5b60006200021084828501620001d6565b91505092915050565b6000819050919050565b600060028204905060018216806200023c57607f821691505b6020821081141562000253576200025262000259565b5b50919050565b7f4e487b7100000000000000000000000000000000000000000000000000000000600052602260045260246000fd5b620002938162000219565b81146200029f57600080fd5b50565b61529c80620002b26000396000f3fe60806040526004361061021a5760003560e01c806366bcb64211610123578063a1099bf2116100ab578063c87b56dd1161006f578063c87b56dd14610816578063ceb2d74514610853578063d428fa2e1461087c578063e3ce094d146108bb578063e985e9c5146108e45761021a565b8063a1099bf21461072f578063a22cb4651461076e578063b88d4fde14610797578063bf205ebc146107c0578063bfa0b133146107eb5761021a565b806385205108116100f257806385205108146106695780638da5cb5b1461069257806395d89b41146106bd578063984f0be3146106e85780639a24a25b146107045761021a565b806366bcb642146105ab57806368c282f2146105d657806370a08231146106015780637382901e1461063e5761021a565b80632f745c59116101a65780634f6ccce7116101755780634f6ccce7146104b457806354214f69146104f15780635bb46dff1461051c5780635fe8aa5e146105455780636352211e1461056e5761021a565b80632f745c59146103e65780633ecce9181461042357806342842e0e1461046057806348db5f89146104895761021a565b80630e178ef1116101ed5780630e178ef1146102ed5780630e40fa7b1461032a57806318160ddd1461036757806323b872dd1461039257806324924bf7146103bb5761021a565b806301ffc9a71461021f57806306fdde031461025c578063081812fc14610287578063095ea7b3146102c4575b600080fd5b34801561022b57600080fd5b5061024660048036038101906102419190613ce3565b610921565b6040516102539190614509565b60405180910390f35b34801561026857600080fd5b5061027161099b565b60405161027e91906145d1565b60405180910390f35b34801561029357600080fd5b506102ae60048036038101906102a99190613d7a565b610a2d565b6040516102bb9190614465565b60405180910390f35b3480156102d057600080fd5b506102eb60048036038101906102e69190613b54565b610a73565b005b3480156102f957600080fd5b50610314600480360381019061030f9190613d7a565b610b8b565b604051610321919061489f565b60405180910390f35b34801561033657600080fd5b50610351600480360381019061034c9190613d7a565b610ba8565b60405161035e919061489f565b60405180910390f35b34801561037357600080fd5b5061037c610bc5565b604051610389919061489f565b60405180910390f35b34801561039e57600080fd5b506103b960048036038101906103b49190613a12565b610bd2565b005b3480156103c757600080fd5b506103d0610c32565b6040516103dd919061489f565b60405180910390f35b3480156103f257600080fd5b5061040d60048036038101906104089190613b54565b610c38565b60405161041a919061489f565b60405180910390f35b34801561042f57600080fd5b5061044a60048036038101906104459190613b18565b610cdd565b6040516104579190614509565b60405180910390f35b34801561046c57600080fd5b5061048760048036038101906104829190613a12565b610d0c565b005b34801561049557600080fd5b5061049e610d2c565b6040516104ab9190614480565b60405180910390f35b3480156104c057600080fd5b506104db60048036038101906104d69190613d7a565b610d52565b6040516104e8919061489f565b60405180910390f35b3480156104fd57600080fd5b50610506610de9565b6040516105139190614509565b60405180910390f35b34801561052857600080fd5b50610543600480360381019061053e9190613d35565b610dfc565b005b34801561055157600080fd5b5061056c60048036038101906105679190613b90565b610e50565b005b34801561057a57600080fd5b5061059560048036038101906105909190613d7a565b611062565b6040516105a29190614465565b60405180910390f35b3480156105b757600080fd5b506105c06110e9565b6040516105cd9190614524565b60405180910390f35b3480156105e257600080fd5b506105eb6110ef565b6040516105f89190614524565b60405180910390f35b34801561060d57600080fd5b50610628600480360381019061062391906139ad565b6110f5565b604051610635919061489f565b60405180910390f35b34801561064a57600080fd5b506106536111ad565b6040516106609190614524565b60405180910390f35b34801561067557600080fd5b50610690600480360381019061068b9190613c8f565b6111b3565b005b34801561069e57600080fd5b506106a7611449565b6040516106b49190614480565b60405180910390f35b3480156106c957600080fd5b506106d261146f565b6040516106df91906145d1565b60405180910390f35b61070260048036038101906106fd9190613c8f565b611501565b005b34801561071057600080fd5b50610719611704565b60405161072691906144e7565b60405180910390f35b34801561073b57600080fd5b5061075660048036038101906107519190613d7a565b611a3b565b604051610765939291906145f3565b60405180910390f35b34801561077a57600080fd5b5061079560048036038101906107909190613adc565b611c35565b005b3480156107a357600080fd5b506107be60048036038101906107b99190613a61565b611c4b565b005b3480156107cc57600080fd5b506107d5611cad565b6040516107e2919061489f565b60405180910390f35b3480156107f757600080fd5b50610800611cb3565b60405161080d9190614524565b60405180910390f35b34801561082257600080fd5b5061083d60048036038101906108389190613d7a565b611cb9565b60405161084a91906145d1565b60405180910390f35b34801561085f57600080fd5b5061087a60048036038101906108759190613da3565b611d5e565b005b34801561088857600080fd5b506108a3600480360381019061089e9190613d7a565b611df2565b6040516108b2939291906145f3565b60405180910390f35b3480156108c757600080fd5b506108e260048036038101906108dd9190613c53565b611fb4565b005b3480156108f057600080fd5b5061090b600480360381019061090691906139d6565b612085565b6040516109189190614509565b60405180910390f35b60007f780e9d63000000000000000000000000000000000000000000000000000000007bffffffffffffffffffffffffffffffffffffffffffffffffffffffff1916827bffffffffffffffffffffffffffffffffffffffffffffffffffffffff19161480610994575061099382612119565b5b9050919050565b6060600080546109aa90614b8f565b80601f01602080910402602001604051908101604052809291908181526020018280546109d690614b8f565b8015610a235780601f106109f857610100808354040283529160200191610a23565b820191906000526020600020905b815481529060010190602001808311610a0657829003601f168201915b5050505050905090565b6000610a38826121fb565b6004600083815260200190815260200160002060009054906101000a900473ffffffffffffffffffffffffffffffffffffffff169050919050565b6000610a7e82611062565b90508073ffffffffffffffffffffffffffffffffffffffff168373ffffffffffffffffffffffffffffffffffffffff161415610aef576040517f08c379a0000000000000000000000000000000000000000000000000000000008152600401610ae6906147df565b60405180910390fd5b8073ffffffffffffffffffffffffffffffffffffffff16610b0e612246565b73ffffffffffffffffffffffffffffffffffffffff161480610b3d5750610b3c81610b37612246565b612085565b5b610b7c576040517f08c379a0000000000000000000000000000000000000000000000000000000008152600401610b73906147ff565b60405180910390fd5b610b86838361224e565b505050565b600060156000838152602001908152602001600020549050919050565b600060186000838152602001908152602001600020549050919050565b6000600880549050905090565b610be3610bdd612246565b82612307565b610c22576040517f08c379a0000000000000000000000000000000000000000000000000000000008152600401610c199061463f565b60405180910390fd5b610c2d83838361239c565b505050565b600d5481565b6000610c43836110f5565b8210610c84576040517f08c379a0000000000000000000000000000000000000000000000000000000008152600401610c7b9061465f565b60405180910390fd5b600660008473ffffffffffffffffffffffffffffffffffffffff1673ffffffffffffffffffffffffffffffffffffffff168152602001908152602001600020600083815260200190815260200160002054905092915050565b60146020528160005260406000206020528060005260406000206000915091509054906101000a900460ff1681565b610d2783838360405180602001604052806000815250611c4b565b505050565b600c60009054906101000a900473ffffffffffffffffffffffffffffffffffffffff1681565b6000610d5c610bc5565b8210610d9d576040517f08c379a0000000000000000000000000000000000000000000000000000000008152600401610d949061483f565b60405180910390fd5b60088281548110610dd7577f4e487b7100000000000000000000000000000000000000000000000000000000600052603260045260246000fd5b90600052602060002001549050919050565b601260009054906101000a900460ff1681565b3373ffffffffffffffffffffffffffffffffffffffff167f012b1127b60d15366b18ae35b2848ab5a402d272f830e92b37b1db38374a1c098383604051610e449291906145ad565b60405180910390a25050565b82518451148015610e62575081518351145b8015610e6f575080518251145b610eae576040517f08c379a0000000000000000000000000000000000000000000000000000000008152600401610ea5906146df565b60405180910390fd5b60005b845181101561105b5760006040518060600160405280868481518110610f00577f4e487b7100000000000000000000000000000000000000000000000000000000600052603260045260246000fd5b60200260200101518152602001858481518110610f46577f4e487b7100000000000000000000000000000000000000000000000000000000600052603260045260246000fd5b60200260200101518152602001848481518110610f8c577f4e487b7100000000000000000000000000000000000000000000000000000000600052603260045260246000fd5b602002602001015181525090508060166000888581518110610fd7577f4e487b7100000000000000000000000000000000000000000000000000000000600052603260045260246000fd5b6020026020010151815260200190815260200160002060008201518160000190805190602001906110099291906135f0565b5060208201518160010190805190602001906110269291906135f0565b5060408201518160020190805190602001906110439291906135f0565b5090505050808061105390614bf2565b915050610eb1565b5050505050565b60008061106e83612696565b9050600073ffffffffffffffffffffffffffffffffffffffff168173ffffffffffffffffffffffffffffffffffffffff1614156110e0576040517f08c379a00000000000000000000000000000000000000000000000000000000081526004016110d7906147bf565b60405180910390fd5b80915050919050565b60105481565b600f5481565b60008073ffffffffffffffffffffffffffffffffffffffff168273ffffffffffffffffffffffffffffffffffffffff161415611166576040517f08c379a000000000000000000000000000000000000000000000000000000000815260040161115d9061475f565b60405180910390fd5b600360008373ffffffffffffffffffffffffffffffffffffffff1673ffffffffffffffffffffffffffffffffffffffff168152602001908152602001600020549050919050565b600e5481565b816013546040516020016111c89291906143d6565b60405160208183030381529060405280519060200120600e5414611221576040517f08c379a00000000000000000000000000000000000000000000000000000000081526004016112189061481f565b60405180910390fd5b81600f819055506000611233836126d3565b9050600061124082612703565b9050600061124e8285612733565b9050827f5f23b605bd6c13580e1bd65c89aa5768674b0165fd8cc0a8a18819c7cd8a7c7860405160405180910390a28073ffffffffffffffffffffffffffffffffffffffff167f391f5edd7209ba797e8055bce97cab2d1a480a2849b0c7fe965c370457166dc460405160405180910390a2600b60009054906101000a900473ffffffffffffffffffffffffffffffffffffffff1673ffffffffffffffffffffffffffffffffffffffff168173ffffffffffffffffffffffffffffffffffffffff1614611350576040517f08c379a00000000000000000000000000000000000000000000000000000000081526004016113479061473f565b60405180910390fd5b6000600f5460105460135460405160200161136d93929190614402565b604051602081830303815290604052805190602001209050600a8160001c6113959190614c45565b6011819055506001601860006011548152602001908152602001600020546113bd9190614a26565b601860006011548152602001908152602001600020819055507f6765f1b8ca6c099f7378c6e9b12cf8afac970d483c3faf81745e4b40c26148db600f5460115460405161140b92919061453f565b60405180910390a1611441600c60009054906101000a900473ffffffffffffffffffffffffffffffffffffffff166011546127a2565b505050505050565b600b60009054906101000a900473ffffffffffffffffffffffffffffffffffffffff1681565b60606001805461147e90614b8f565b80601f01602080910402602001604051908101604052809291908181526020018280546114aa90614b8f565b80156114f75780601f106114cc576101008083540402835291602001916114f7565b820191906000526020600020905b8154815290600101906020018083116114da57829003601f168201915b5050505050905090565b600061150c836126d3565b9050600061151982612703565b905060006115278285612733565b90503373ffffffffffffffffffffffffffffffffffffffff168173ffffffffffffffffffffffffffffffffffffffff1614611597576040517f08c379a000000000000000000000000000000000000000000000000000000000815260040161158e9061473f565b60405180910390fd5b8460108190555033600c60006101000a81548173ffffffffffffffffffffffffffffffffffffffff021916908373ffffffffffffffffffffffffffffffffffffffff1602179055506001601460003373ffffffffffffffffffffffffffffffffffffffff1673ffffffffffffffffffffffffffffffffffffffff168152602001908152602001600020600087815260200190815260200160002060006101000a81548160ff021916908315150217905550600c60009054906101000a900473ffffffffffffffffffffffffffffffffffffffff1673ffffffffffffffffffffffffffffffffffffffff167fc197ebf15e8fe977ad5029df6077570283fa75a10103efc82970e4962d21eb306010546040516116b29190614524565b60405180910390a23373ffffffffffffffffffffffffffffffffffffffff167f4b904c2bfe136ea68afa5ff4de7e0c7101664ebd64570c7f6f6f8d8b533d0ef060405160405180910390a25050505050565b60606000611712600a612a34565b905060008167ffffffffffffffff811115611756577f4e487b7100000000000000000000000000000000000000000000000000000000600052604160045260246000fd5b60405190808252806020026020018201604052801561178f57816020015b61177c613676565b8152602001906001900390816117745790505b50905060005b82811015611a325760006001826117ac9190614a26565b905060006117b982611062565b905060006117c683610b8b565b90506000601660008381526020019081526020016000206040518060600160405290816000820180546117f890614b8f565b80601f016020809104026020016040519081016040528092919081815260200182805461182490614b8f565b80156118715780601f1061184657610100808354040283529160200191611871565b820191906000526020600020905b81548152906001019060200180831161185457829003601f168201915b5050505050815260200160018201805461188a90614b8f565b80601f01602080910402602001604051908101604052809291908181526020018280546118b690614b8f565b80156119035780601f106118d857610100808354040283529160200191611903565b820191906000526020600020905b8154815290600101906020018083116118e657829003601f168201915b5050505050815260200160028201805461191c90614b8f565b80601f016020809104026020016040519081016040528092919081815260200182805461194890614b8f565b80156119955780601f1061196a57610100808354040283529160200191611995565b820191906000526020600020905b81548152906001019060200180831161197857829003601f168201915b505050505081525050905060405180608001604052808473ffffffffffffffffffffffffffffffffffffffff16815260200185815260200183815260200182815250868681518110611a10577f4e487b7100000000000000000000000000000000000000000000000000000000600052603260045260246000fd5b6020026020010181905250505050508080611a2a90614bf2565b915050611795565b50809250505090565b6060806060600060166000868152602001908152602001600020604051806060016040529081600082018054611a7090614b8f565b80601f0160208091040260200160405190810160405280929190818152602001828054611a9c90614b8f565b8015611ae95780601f10611abe57610100808354040283529160200191611ae9565b820191906000526020600020905b815481529060010190602001808311611acc57829003601f168201915b50505050508152602001600182018054611b0290614b8f565b80601f0160208091040260200160405190810160405280929190818152602001828054611b2e90614b8f565b8015611b7b5780601f10611b5057610100808354040283529160200191611b7b565b820191906000526020600020905b815481529060010190602001808311611b5e57829003601f168201915b50505050508152602001600282018054611b9490614b8f565b80601f0160208091040260200160405190810160405280929190818152602001828054611bc090614b8f565b8015611c0d5780601f10611be257610100808354040283529160200191611c0d565b820191906000526020600020905b815481529060010190602001808311611bf057829003601f168201915b5050505050815250509050806000015181602001518260400151935093509350509193909250565b611c47611c40612246565b8383612a42565b5050565b611c5c611c56612246565b83612307565b611c9b576040517f08c379a0000000000000000000000000000000000000000000000000000000008152600401611c929061463f565b60405180910390fd5b611ca784848484612baf565b50505050565b60115481565b60135481565b6060601760008381526020019081526020016000208054611cd990614b8f565b80601f0160208091040260200160405190810160405280929190818152602001828054611d0590614b8f565b8015611d525780601f10611d2757610100808354040283529160200191611d52565b820191906000526020600020905b815481529060010190602001808311611d3557829003601f168201915b50505050509050919050565b6000604051806060016040528085815260200184815260200183815250905080601660008781526020019081526020016000206000820151816000019080519060200190611dad9291906135f0565b506020820151816001019080519060200190611dca9291906135f0565b506040820151816002019080519060200190611de79291906135f0565b509050505050505050565b6016602052806000526040600020600091509050806000018054611e1590614b8f565b80601f0160208091040260200160405190810160405280929190818152602001828054611e4190614b8f565b8015611e8e5780601f10611e6357610100808354040283529160200191611e8e565b820191906000526020600020905b815481529060010190602001808311611e7157829003601f168201915b505050505090806001018054611ea390614b8f565b80601f0160208091040260200160405190810160405280929190818152602001828054611ecf90614b8f565b8015611f1c5780601f10611ef157610100808354040283529160200191611f1c565b820191906000526020600020905b815481529060010190602001808311611eff57829003601f168201915b505050505090806002018054611f3190614b8f565b80601f0160208091040260200160405190810160405280929190818152602001828054611f5d90614b8f565b8015611faa5780601f10611f7f57610100808354040283529160200191611faa565b820191906000526020600020905b815481529060010190602001808311611f8d57829003601f168201915b5050505050905083565b600b60009054906101000a900473ffffffffffffffffffffffffffffffffffffffff1673ffffffffffffffffffffffffffffffffffffffff163373ffffffffffffffffffffffffffffffffffffffff1614612044576040517f08c379a000000000000000000000000000000000000000000000000000000000815260040161203b9061477f565b60405180910390fd5b81600e8190555080601381905550600e547f522250e8a5d48ed8b6afbdb88fc1bb8ce6735c729835065b6840033c1d406f9060405160405180910390a25050565b6000600560008473ffffffffffffffffffffffffffffffffffffffff1673ffffffffffffffffffffffffffffffffffffffff16815260200190815260200160002060008373ffffffffffffffffffffffffffffffffffffffff1673ffffffffffffffffffffffffffffffffffffffff16815260200190815260200160002060009054906101000a900460ff16905092915050565b60007f80ac58cd000000000000000000000000000000000000000000000000000000007bffffffffffffffffffffffffffffffffffffffffffffffffffffffff1916827bffffffffffffffffffffffffffffffffffffffffffffffffffffffff191614806121e457507f5b5e139f000000000000000000000000000000000000000000000000000000007bffffffffffffffffffffffffffffffffffffffffffffffffffffffff1916827bffffffffffffffffffffffffffffffffffffffffffffffffffffffff1916145b806121f457506121f382612c0b565b5b9050919050565b61220481612c75565b612243576040517f08c379a000000000000000000000000000000000000000000000000000000000815260040161223a906147bf565b60405180910390fd5b50565b600033905090565b816004600083815260200190815260200160002060006101000a81548173ffffffffffffffffffffffffffffffffffffffff021916908373ffffffffffffffffffffffffffffffffffffffff160217905550808273ffffffffffffffffffffffffffffffffffffffff166122c183611062565b73ffffffffffffffffffffffffffffffffffffffff167f8c5be1e5ebec7d5bd14f71427d1e84f3dd0314c0f7b2291e5b200ac8c7c3b92560405160405180910390a45050565b60008061231383611062565b90508073ffffffffffffffffffffffffffffffffffffffff168473ffffffffffffffffffffffffffffffffffffffff16148061235557506123548185612085565b5b8061239357508373ffffffffffffffffffffffffffffffffffffffff1661237b84610a2d565b73ffffffffffffffffffffffffffffffffffffffff16145b91505092915050565b8273ffffffffffffffffffffffffffffffffffffffff166123bc82611062565b73ffffffffffffffffffffffffffffffffffffffff1614612412576040517f08c379a00000000000000000000000000000000000000000000000000000000081526004016124099061469f565b60405180910390fd5b600073ffffffffffffffffffffffffffffffffffffffff168273ffffffffffffffffffffffffffffffffffffffff161415612482576040517f08c379a0000000000000000000000000000000000000000000000000000000008152600401612479906146ff565b60405180910390fd5b61248f8383836001612cb6565b8273ffffffffffffffffffffffffffffffffffffffff166124af82611062565b73ffffffffffffffffffffffffffffffffffffffff1614612505576040517f08c379a00000000000000000000000000000000000000000000000000000000081526004016124fc9061469f565b60405180910390fd5b6004600082815260200190815260200160002060006101000a81549073ffffffffffffffffffffffffffffffffffffffff02191690556001600360008573ffffffffffffffffffffffffffffffffffffffff1673ffffffffffffffffffffffffffffffffffffffff168152602001908152602001600020600082825403925050819055506001600360008473ffffffffffffffffffffffffffffffffffffffff1673ffffffffffffffffffffffffffffffffffffffff16815260200190815260200160002060008282540192505081905550816002600083815260200190815260200160002060006101000a81548173ffffffffffffffffffffffffffffffffffffffff021916908373ffffffffffffffffffffffffffffffffffffffff160217905550808273ffffffffffffffffffffffffffffffffffffffff168473ffffffffffffffffffffffffffffffffffffffff167fddf252ad1be2c89b69c2b068fc378daa952ba7f163c4a11628f55a4df523b3ef60405160405180910390a46126918383836001612e16565b505050565b60006002600083815260200190815260200160002060009054906101000a900473ffffffffffffffffffffffffffffffffffffffff169050919050565b6000816040516020016126e691906143bb565b604051602081830303815290604052805190602001209050919050565b600081604051602001612716919061443f565b604051602081830303815290604052805190602001209050919050565b60008060008061274285612e1c565b9250925092506001868285856040516000815260200160405260405161276b9493929190614568565b6020604051602081039080840390855afa15801561278d573d6000803e3d6000fd5b50505060206040510351935050505092915050565b6127ac600a612e84565b60006127b8600a612a34565b90506127c48382612e9a565b81601560008381526020019081526020016000208190555060006016600084815260200190815260200160002060405180606001604052908160008201805461280c90614b8f565b80601f016020809104026020016040519081016040528092919081815260200182805461283890614b8f565b80156128855780601f1061285a57610100808354040283529160200191612885565b820191906000526020600020905b81548152906001019060200180831161286857829003601f168201915b5050505050815260200160018201805461289e90614b8f565b80601f01602080910402602001604051908101604052809291908181526020018280546128ca90614b8f565b80156129175780601f106128ec57610100808354040283529160200191612917565b820191906000526020600020905b8154815290600101906020018083116128fa57829003601f168201915b5050505050815260200160028201805461293090614b8f565b80601f016020809104026020016040519081016040528092919081815260200182805461295c90614b8f565b80156129a95780601f1061297e576101008083540402835291602001916129a9565b820191906000526020600020905b81548152906001019060200180831161298c57829003601f168201915b505050505081525050905080604001516017600084815260200190815260200160002090805190602001906129df9291906135f0565b508373ffffffffffffffffffffffffffffffffffffffff167f4cc0a9c4a99ddc700de1af2c9f916a7cbfdb71f14801ccff94061ad1ef8a804083604051612a26919061489f565b60405180910390a250505050565b600081600001549050919050565b8173ffffffffffffffffffffffffffffffffffffffff168373ffffffffffffffffffffffffffffffffffffffff161415612ab1576040517f08c379a0000000000000000000000000000000000000000000000000000000008152600401612aa89061471f565b60405180910390fd5b80600560008573ffffffffffffffffffffffffffffffffffffffff1673ffffffffffffffffffffffffffffffffffffffff16815260200190815260200160002060008473ffffffffffffffffffffffffffffffffffffffff1673ffffffffffffffffffffffffffffffffffffffff16815260200190815260200160002060006101000a81548160ff0219169083151502179055508173ffffffffffffffffffffffffffffffffffffffff168373ffffffffffffffffffffffffffffffffffffffff167f17307eab39ab6107e8899845ad3d59bd9653f200f220920489ca2b5937696c3183604051612ba29190614509565b60405180910390a3505050565b612bba84848461239c565b612bc6848484846130b8565b612c05576040517f08c379a0000000000000000000000000000000000000000000000000000000008152600401612bfc9061467f565b60405180910390fd5b50505050565b60007f01ffc9a7000000000000000000000000000000000000000000000000000000007bffffffffffffffffffffffffffffffffffffffffffffffffffffffff1916827bffffffffffffffffffffffffffffffffffffffffffffffffffffffff1916149050919050565b60008073ffffffffffffffffffffffffffffffffffffffff16612c9783612696565b73ffffffffffffffffffffffffffffffffffffffff1614159050919050565b612cc28484848461324f565b6001811115612d06576040517f08c379a0000000000000000000000000000000000000000000000000000000008152600401612cfd9061485f565b60405180910390fd5b6000829050600073ffffffffffffffffffffffffffffffffffffffff168573ffffffffffffffffffffffffffffffffffffffff161415612d4e57612d4981613255565b612d8d565b8373ffffffffffffffffffffffffffffffffffffffff168573ffffffffffffffffffffffffffffffffffffffff1614612d8c57612d8b858261329e565b5b5b600073ffffffffffffffffffffffffffffffffffffffff168473ffffffffffffffffffffffffffffffffffffffff161415612dd057612dcb8161340b565b612e0f565b8473ffffffffffffffffffffffffffffffffffffffff168473ffffffffffffffffffffffffffffffffffffffff1614612e0e57612e0d848261354e565b5b5b5050505050565b50505050565b60008060006041845114612e65576040517f08c379a0000000000000000000000000000000000000000000000000000000008152600401612e5c9061487f565b60405180910390fd5b6020840151925060408401519150606084015160001a90509193909250565b6001816000016000828254019250508190555050565b600073ffffffffffffffffffffffffffffffffffffffff168273ffffffffffffffffffffffffffffffffffffffff161415612f0a576040517f08c379a0000000000000000000000000000000000000000000000000000000008152600401612f019061479f565b60405180910390fd5b612f1381612c75565b15612f53576040517f08c379a0000000000000000000000000000000000000000000000000000000008152600401612f4a906146bf565b60405180910390fd5b612f61600083836001612cb6565b612f6a81612c75565b15612faa576040517f08c379a0000000000000000000000000000000000000000000000000000000008152600401612fa1906146bf565b60405180910390fd5b6001600360008473ffffffffffffffffffffffffffffffffffffffff1673ffffffffffffffffffffffffffffffffffffffff16815260200190815260200160002060008282540192505081905550816002600083815260200190815260200160002060006101000a81548173ffffffffffffffffffffffffffffffffffffffff021916908373ffffffffffffffffffffffffffffffffffffffff160217905550808273ffffffffffffffffffffffffffffffffffffffff16600073ffffffffffffffffffffffffffffffffffffffff167fddf252ad1be2c89b69c2b068fc378daa952ba7f163c4a11628f55a4df523b3ef60405160405180910390a46130b4600083836001612e16565b5050565b60006130d98473ffffffffffffffffffffffffffffffffffffffff166135cd565b15613242578373ffffffffffffffffffffffffffffffffffffffff1663150b7a02613102612246565b8786866040518563ffffffff1660e01b8152600401613124949392919061449b565b602060405180830381600087803b15801561313e57600080fd5b505af192505050801561316f57506040513d601f19601f8201168201806040525081019061316c9190613d0c565b60015b6131f2573d806000811461319f576040519150601f19603f3d011682016040523d82523d6000602084013e6131a4565b606091505b506000815114156131ea576040517f08c379a00000000000000000000000000000000000000000000000000000000081526004016131e19061467f565b60405180910390fd5b805181602001fd5b63150b7a0260e01b7bffffffffffffffffffffffffffffffffffffffffffffffffffffffff1916817bffffffffffffffffffffffffffffffffffffffffffffffffffffffff191614915050613247565b600190505b949350505050565b50505050565b6008805490506009600083815260200190815260200160002081905550600881908060018154018082558091505060019003906000526020600020016000909190919091505550565b600060016132ab846110f5565b6132b59190614a7c565b905060006007600084815260200190815260200160002054905081811461339a576000600660008673ffffffffffffffffffffffffffffffffffffffff1673ffffffffffffffffffffffffffffffffffffffff168152602001908152602001600020600084815260200190815260200160002054905080600660008773ffffffffffffffffffffffffffffffffffffffff1673ffffffffffffffffffffffffffffffffffffffff168152602001908152602001600020600084815260200190815260200160002081905550816007600083815260200190815260200160002081905550505b6007600084815260200190815260200160002060009055600660008573ffffffffffffffffffffffffffffffffffffffff1673ffffffffffffffffffffffffffffffffffffffff16815260200190815260200160002060008381526020019081526020016000206000905550505050565b6000600160088054905061341f9190614a7c565b9050600060096000848152602001908152602001600020549050600060088381548110613475577f4e487b7100000000000000000000000000000000000000000000000000000000600052603260045260246000fd5b9060005260206000200154905080600883815481106134bd577f4e487b7100000000000000000000000000000000000000000000000000000000600052603260045260246000fd5b906000526020600020018190555081600960008381526020019081526020016000208190555060096000858152602001908152602001600020600090556008805480613532577f4e487b7100000000000000000000000000000000000000000000000000000000600052603160045260246000fd5b6001900381819060005260206000200160009055905550505050565b6000613559836110f5565b905081600660008573ffffffffffffffffffffffffffffffffffffffff1673ffffffffffffffffffffffffffffffffffffffff168152602001908152602001600020600083815260200190815260200160002081905550806007600084815260200190815260200160002081905550505050565b6000808273ffffffffffffffffffffffffffffffffffffffff163b119050919050565b8280546135fc90614b8f565b90600052602060002090601f01602090048101928261361e5760008555613665565b82601f1061363757805160ff1916838001178555613665565b82800160010185558215613665579182015b82811115613664578251825591602001919060010190613649565b5b50905061367291906136ba565b5090565b6040518060800160405280600073ffffffffffffffffffffffffffffffffffffffff16815260200160008152602001600081526020016136b46136d7565b81525090565b5b808211156136d35760008160009055506001016136bb565b5090565b60405180606001604052806060815260200160608152602001606081525090565b600061370b613706846148df565b6148ba565b9050808382526020820190508260005b8581101561374b5781358501613731888261396e565b84526020840193506020830192505060018101905061371b565b5050509392505050565b60006137686137638461490b565b6148ba565b9050808382526020820190508285602086028201111561378757600080fd5b60005b858110156137b7578161379d8882613998565b84526020840193506020830192505060018101905061378a565b5050509392505050565b60006137d46137cf84614937565b6148ba565b9050828152602081018484840111156137ec57600080fd5b6137f7848285614b4d565b509392505050565b600061381261380d84614968565b6148ba565b90508281526020810184848401111561382a57600080fd5b613835848285614b4d565b509392505050565b60008135905061384c816151f3565b92915050565b600082601f83011261386357600080fd5b81356138738482602086016136f8565b91505092915050565b600082601f83011261388d57600080fd5b813561389d848260208601613755565b91505092915050565b6000813590506138b58161520a565b92915050565b6000813590506138ca81615221565b92915050565b6000813590506138df81615238565b92915050565b6000815190506138f481615238565b92915050565b600082601f83011261390b57600080fd5b813561391b8482602086016137c1565b91505092915050565b60008083601f84011261393657600080fd5b8235905067ffffffffffffffff81111561394f57600080fd5b60208301915083600182028301111561396757600080fd5b9250929050565b600082601f83011261397f57600080fd5b813561398f8482602086016137ff565b91505092915050565b6000813590506139a78161524f565b92915050565b6000602082840312156139bf57600080fd5b60006139cd8482850161383d565b91505092915050565b600080604083850312156139e957600080fd5b60006139f78582860161383d565b9250506020613a088582860161383d565b9150509250929050565b600080600060608486031215613a2757600080fd5b6000613a358682870161383d565b9350506020613a468682870161383d565b9250506040613a5786828701613998565b9150509250925092565b60008060008060808587031215613a7757600080fd5b6000613a858782880161383d565b9450506020613a968782880161383d565b9350506040613aa787828801613998565b925050606085013567ffffffffffffffff811115613ac457600080fd5b613ad0878288016138fa565b91505092959194509250565b60008060408385031215613aef57600080fd5b6000613afd8582860161383d565b9250506020613b0e858286016138a6565b9150509250929050565b60008060408385031215613b2b57600080fd5b6000613b398582860161383d565b9250506020613b4a858286016138bb565b9150509250929050565b60008060408385031215613b6757600080fd5b6000613b758582860161383d565b9250506020613b8685828601613998565b9150509250929050565b60008060008060808587031215613ba657600080fd5b600085013567ffffffffffffffff811115613bc057600080fd5b613bcc8782880161387c565b945050602085013567ffffffffffffffff811115613be957600080fd5b613bf587828801613852565b935050604085013567ffffffffffffffff811115613c1257600080fd5b613c1e87828801613852565b925050606085013567ffffffffffffffff811115613c3b57600080fd5b613c4787828801613852565b91505092959194509250565b60008060408385031215613c6657600080fd5b6000613c74858286016138bb565b9250506020613c85858286016138bb565b9150509250929050565b60008060408385031215613ca257600080fd5b6000613cb0858286016138bb565b925050602083013567ffffffffffffffff811115613ccd57600080fd5b613cd9858286016138fa565b9150509250929050565b600060208284031215613cf557600080fd5b6000613d03848285016138d0565b91505092915050565b600060208284031215613d1e57600080fd5b6000613d2c848285016138e5565b91505092915050565b60008060208385031215613d4857600080fd5b600083013567ffffffffffffffff811115613d6257600080fd5b613d6e85828601613924565b92509250509250929050565b600060208284031215613d8c57600080fd5b6000613d9a84828501613998565b91505092915050565b60008060008060808587031215613db957600080fd5b6000613dc787828801613998565b945050602085013567ffffffffffffffff811115613de457600080fd5b613df08782880161396e565b935050604085013567ffffffffffffffff811115613e0d57600080fd5b613e198782880161396e565b925050606085013567ffffffffffffffff811115613e3657600080fd5b613e428782880161396e565b91505092959194509250565b6000613e5a838361432b565b905092915050565b613e6b81614ac2565b82525050565b613e7a81614ab0565b82525050565b613e8981614ab0565b82525050565b6000613e9a826149a9565b613ea481856149d7565b935083602082028501613eb685614999565b8060005b85811015613ef25784840389528151613ed38582613e4e565b9450613ede836149ca565b925060208a01995050600181019050613eba565b50829750879550505050505092915050565b613f0d81614ad4565b82525050565b613f1c81614ae0565b82525050565b613f33613f2e82614ae0565b614c3b565b82525050565b6000613f44826149b4565b613f4e81856149e8565b9350613f5e818560208601614b5c565b613f6781614d32565b840191505092915050565b6000613f7e8385614a0a565b9350613f8b838584614b4d565b613f9483614d32565b840190509392505050565b6000613faa826149bf565b613fb481856149f9565b9350613fc4818560208601614b5c565b613fcd81614d32565b840191505092915050565b6000613fe3826149bf565b613fed8185614a0a565b9350613ffd818560208601614b5c565b61400681614d32565b840191505092915050565b600061401e602d83614a0a565b915061402982614d43565b604082019050919050565b6000614041601c83614a1b565b915061404c82614d92565b601c82019050919050565b6000614064602b83614a0a565b915061406f82614dbb565b604082019050919050565b6000614087603283614a0a565b915061409282614e0a565b604082019050919050565b60006140aa602583614a0a565b91506140b582614e59565b604082019050919050565b60006140cd601c83614a0a565b91506140d882614ea8565b602082019050919050565b60006140f0601683614a0a565b91506140fb82614ed1565b602082019050919050565b6000614113602483614a0a565b915061411e82614efa565b604082019050919050565b6000614136601983614a0a565b915061414182614f49565b602082019050919050565b6000614159601183614a0a565b915061416482614f72565b602082019050919050565b600061417c602983614a0a565b915061418782614f9b565b604082019050919050565b600061419f601583614a0a565b91506141aa82614fea565b602082019050919050565b60006141c2602083614a0a565b91506141cd82615013565b602082019050919050565b60006141e5601883614a0a565b91506141f08261503c565b602082019050919050565b6000614208602183614a0a565b915061421382615065565b604082019050919050565b600061422b603d83614a0a565b9150614236826150b4565b604082019050919050565b600061424e601383614a0a565b915061425982615103565b602082019050919050565b6000614271602c83614a0a565b915061427c8261512c565b604082019050919050565b6000614294603583614a0a565b915061429f8261517b565b604082019050919050565b60006142b7601883614a0a565b91506142c2826151ca565b602082019050919050565b600060608301600083015184820360008601526142ea8282613f9f565b915050602083015184820360208601526143048282613f9f565b9150506040830151848203604086015261431e8282613f9f565b9150508091505092915050565b60006080830160008301516143436000860182613e71565b506020830151614356602086018261438e565b506040830151614369604086018261438e565b506060830151848203606086015261438182826142cd565b9150508091505092915050565b61439781614b36565b82525050565b6143a681614b36565b82525050565b6143b581614b40565b82525050565b60006143c78284613f22565b60208201915081905092915050565b60006143e28285613f22565b6020820191506143f28284613f22565b6020820191508190509392505050565b600061440e8286613f22565b60208201915061441e8285613f22565b60208201915061442e8284613f22565b602082019150819050949350505050565b600061444a82614034565b91506144568284613f22565b60208201915081905092915050565b600060208201905061447a6000830184613e80565b92915050565b60006020820190506144956000830184613e62565b92915050565b60006080820190506144b06000830187613e80565b6144bd6020830186613e80565b6144ca604083018561439d565b81810360608301526144dc8184613f39565b905095945050505050565b600060208201905081810360008301526145018184613e8f565b905092915050565b600060208201905061451e6000830184613f04565b92915050565b60006020820190506145396000830184613f13565b92915050565b60006040820190506145546000830185613f13565b614561602083018461439d565b9392505050565b600060808201905061457d6000830187613f13565b61458a60208301866143ac565b6145976040830185613f13565b6145a46060830184613f13565b95945050505050565b600060208201905081810360008301526145c8818486613f72565b90509392505050565b600060208201905081810360008301526145eb8184613fd8565b905092915050565b6000606082019050818103600083015261460d8186613fd8565b905081810360208301526146218185613fd8565b905081810360408301526146358184613fd8565b9050949350505050565b6000602082019050818103600083015261465881614011565b9050919050565b6000602082019050818103600083015261467881614057565b9050919050565b600060208201905081810360008301526146988161407a565b9050919050565b600060208201905081810360008301526146b88161409d565b9050919050565b600060208201905081810360008301526146d8816140c0565b9050919050565b600060208201905081810360008301526146f8816140e3565b9050919050565b6000602082019050818103600083015261471881614106565b9050919050565b6000602082019050818103600083015261473881614129565b9050919050565b600060208201905081810360008301526147588161414c565b9050919050565b600060208201905081810360008301526147788161416f565b9050919050565b6000602082019050818103600083015261479881614192565b9050919050565b600060208201905081810360008301526147b8816141b5565b9050919050565b600060208201905081810360008301526147d8816141d8565b9050919050565b600060208201905081810360008301526147f8816141fb565b9050919050565b600060208201905081810360008301526148188161421e565b9050919050565b6000602082019050818103600083015261483881614241565b9050919050565b6000602082019050818103600083015261485881614264565b9050919050565b6000602082019050818103600083015261487881614287565b9050919050565b60006020820190508181036000830152614898816142aa565b9050919050565b60006020820190506148b4600083018461439d565b92915050565b60006148c46148d5565b90506148d08282614bc1565b919050565b6000604051905090565b600067ffffffffffffffff8211156148fa576148f9614d03565b5b602082029050602081019050919050565b600067ffffffffffffffff82111561492657614925614d03565b5b602082029050602081019050919050565b600067ffffffffffffffff82111561495257614951614d03565b5b61495b82614d32565b9050602081019050919050565b600067ffffffffffffffff82111561498357614982614d03565b5b61498c82614d32565b9050602081019050919050565b6000819050602082019050919050565b600081519050919050565b600081519050919050565b600081519050919050565b6000602082019050919050565b600082825260208201905092915050565b600082825260208201905092915050565b600082825260208201905092915050565b600082825260208201905092915050565b600081905092915050565b6000614a3182614b36565b9150614a3c83614b36565b9250827fffffffffffffffffffffffffffffffffffffffffffffffffffffffffffffffff03821115614a7157614a70614c76565b5b828201905092915050565b6000614a8782614b36565b9150614a9283614b36565b925082821015614aa557614aa4614c76565b5b828203905092915050565b6000614abb82614b16565b9050919050565b6000614acd82614b16565b9050919050565b60008115159050919050565b6000819050919050565b60007fffffffff0000000000000000000000000000000000000000000000000000000082169050919050565b600073ffffffffffffffffffffffffffffffffffffffff82169050919050565b6000819050919050565b600060ff82169050919050565b82818337600083830152505050565b60005b83811015614b7a578082015181840152602081019050614b5f565b83811115614b89576000848401525b50505050565b60006002820490506001821680614ba757607f821691505b60208210811415614bbb57614bba614cd4565b5b50919050565b614bca82614d32565b810181811067ffffffffffffffff82111715614be957614be8614d03565b5b80604052505050565b6000614bfd82614b36565b91507fffffffffffffffffffffffffffffffffffffffffffffffffffffffffffffffff821415614c3057614c2f614c76565b5b600182019050919050565b6000819050919050565b6000614c5082614b36565b9150614c5b83614b36565b925082614c6b57614c6a614ca5565b5b828206905092915050565b7f4e487b7100000000000000000000000000000000000000000000000000000000600052601160045260246000fd5b7f4e487b7100000000000000000000000000000000000000000000000000000000600052601260045260246000fd5b7f4e487b7100000000000000000000000000000000000000000000000000000000600052602260045260246000fd5b7f4e487b7100000000000000000000000000000000000000000000000000000000600052604160045260246000fd5b6000601f19601f8301169050919050565b7f4552433732313a2063616c6c6572206973206e6f7420746f6b656e206f776e6560008201527f72206f7220617070726f76656400000000000000000000000000000000000000602082015250565b7f19457468657265756d205369676e6564204d6573736167653a0a333200000000600082015250565b7f455243373231456e756d657261626c653a206f776e657220696e646578206f7560008201527f74206f6620626f756e6473000000000000000000000000000000000000000000602082015250565b7f4552433732313a207472616e7366657220746f206e6f6e20455243373231526560008201527f63656976657220696d706c656d656e7465720000000000000000000000000000602082015250565b7f4552433732313a207472616e736665722066726f6d20696e636f72726563742060008201527f6f776e6572000000000000000000000000000000000000000000000000000000602082015250565b7f4552433732313a20746f6b656e20616c7265616479206d696e74656400000000600082015250565b7f4172726179206c656e67746873206d69736d6174636800000000000000000000600082015250565b7f4552433732313a207472616e7366657220746f20746865207a65726f2061646460008201527f7265737300000000000000000000000000000000000000000000000000000000602082015250565b7f4552433732313a20617070726f766520746f2063616c6c657200000000000000600082015250565b7f496e76616c6964207369676e6174757265000000000000000000000000000000600082015250565b7f4552433732313a2061646472657373207a65726f206973206e6f74206120766160008201527f6c6964206f776e65720000000000000000000000000000000000000000000000602082015250565b7f4f6e6c79206f776e65722063616e20636f6d6d69740000000000000000000000600082015250565b7f4552433732313a206d696e7420746f20746865207a65726f2061646472657373600082015250565b7f4552433732313a20696e76616c696420746f6b656e2049440000000000000000600082015250565b7f4552433732313a20617070726f76616c20746f2063757272656e74206f776e6560008201527f7200000000000000000000000000000000000000000000000000000000000000602082015250565b7f4552433732313a20617070726f76652063616c6c6572206973206e6f7420746f60008201527f6b656e206f776e6572206f7220617070726f76656420666f7220616c6c000000602082015250565b7f496e76616c696420736572766572207365656400000000000000000000000000600082015250565b7f455243373231456e756d657261626c653a20676c6f62616c20696e646578206f60008201527f7574206f6620626f756e64730000000000000000000000000000000000000000602082015250565b7f455243373231456e756d657261626c653a20636f6e736563757469766520747260008201527f616e7366657273206e6f7420737570706f727465640000000000000000000000602082015250565b7f696e76616c6964207369676e6174757265206c656e6774680000000000000000600082015250565b6151fc81614ab0565b811461520757600080fd5b50565b61521381614ad4565b811461521e57600080fd5b50565b61522a81614ae0565b811461523557600080fd5b50565b61524181614aea565b811461524c57600080fd5b50565b61525881614b36565b811461526357600080fd5b5056fea2646970667358221220cc3d0f0a4a30508ff74b1baabdf98d91167b9b69956fdc0421b2750a4469404e64736f6c63430008010033",
  "immutableReferences": {},
  "source": "// SPDX-License-Identifier: MIT\r\n\r\npragma solidity >=0.4.22 <0.9.0;\r\n\r\nimport \"@openzeppelin/contracts/utils/cryptography/ECDSA.sol\";\r\nimport \"@openzeppelin/contracts/token/ERC721/extensions/ERC721Enumerable.sol\";\r\nimport \"@openzeppelin/contracts/utils/Counters.sol\";\r\n//truffle compile\r\n//truffle migrate --network sepolia\r\n//truffle migrate --network sepolia --reset\r\n// \r\nstruct TokenInfo {\r\n    address owner;\r\n    uint256 tokenId;\r\n    uint256 luckyNumber;\r\n    Prize prize;\r\n}\r\n\r\nstruct Prize {\r\n    string name;\r\n    string description;\r\n    string imageURL; // URI (: IPFS)\r\n}\r\ncontract GachaNFT is ERC721Enumerable {\r\n    using ECDSA for bytes32;\r\n    using Counters for Counters.Counter;\r\n\r\n    Counters.Counter private _tokenIdCounter;  // Token ID counter for NFTs\r\n  \r\n//0xdB246570d317400612c3782F0a208c6c51Ae5b22\r\n//truffle migrate --network sepolia --reset\r\n    address payable public owner;\r\n    address payable public player;\r\n    uint256 public maxParticipants;\r\n    bytes32 public serverSeedHash;  // Server seed hash for commitment\r\n    bytes32 public serverSeed;      // Server seed to be revealed later\r\n    bytes32 public userSeed;\r\n    uint256 public luckyNumber;\r\n    bool public isRevealed;\r\n    bytes32 public salt;  // : \r\n\r\n\r\n\r\n    // Store used userSeed\r\n    mapping(address => mapping(bytes32 => bool)) public usedUserSeeds;\r\n    mapping(uint256 => uint256) private tokenLuckyNumbers;   \r\n    // \r\n    mapping(uint256 => Prize) public prizeMapping;\r\n    mapping(uint256 => string) private _tokenURIs;\r\n    mapping(uint256 => uint256) private luckyNumberCounts;\r\n\r\n\r\n\r\n    // Events\r\n    event Participation(address indexed player, bytes32 userSeed);\r\n    event Commitment(bytes32 indexed serverSeedHash);\r\n    event Reveal(bytes32 serverSeed, uint256 luckyNumber);\r\n    event CommitRequested(address indexed user);\r\n    event DebugLogEvent(string);  \r\n    event NFTMinted(address indexed owner, uint256 tokenId);\r\n  event RequestCommit(address indexed requester, string requestId);\r\n\r\n  \r\n\r\n\r\nconstructor(uint256 _maxParticipants) ERC721(\"TokenName\", \"TokenSymbol\") public {\r\n    owner = payable(msg.sender);\r\n    maxParticipants = _maxParticipants;\r\n}\r\n\r\n// \r\n    function setPrize(uint256 luckyNumber, string memory name, string memory description, string memory imageURL) public {\r\n        // \r\n        Prize memory newPrize = Prize({\r\n            name: name,\r\n            description: description,\r\n            imageURL: imageURL\r\n        });\r\n\r\n        prizeMapping[luckyNumber] = newPrize;\r\n    }\r\n\r\n    // \r\n    function getPrize(uint256 luckyNumber) public view returns (string memory name, string memory description, string memory imageURL) {\r\n        Prize memory prize = prizeMapping[luckyNumber];\r\n        return (prize.name, prize.description, prize.imageURL);\r\n    }\r\n  function requestCommit(string calldata requestId) public {\r\n        // \r\n        emit RequestCommit(msg.sender, requestId);\r\n    }\r\n    // Owner commits a hashed server seed\r\n    function commit(bytes32 _serverSeedHash, bytes32 _salt) public {\r\n        require(msg.sender == owner, \"Only owner can commit\");\r\n        serverSeedHash = _serverSeedHash;\r\n        salt = _salt;\r\n        emit Commitment(serverSeedHash);  // Emit Commitment event\r\n    }\r\n\r\n\r\n//  function participate(bytes32 _userSeed) public payable {\r\n//         userSeed = _userSeed;\r\n//         player = payable(msg.sender);\r\n//         usedUserSeeds[msg.sender][_userSeed] = true;\r\n//         emit Participation(player, userSeed);  \r\n//         emit CommitRequested(msg.sender);\r\n//     }\r\n function participate(bytes32 _userSeed, bytes memory _signature) public payable {\r\n    // 1. \r\n    bytes32 messageHash = getMessageHash(_userSeed);\r\n//    bytes32 message = keccak256(abi.encodePacked(msg.sender, _userSeed));\r\n    bytes32 ethSignedMessageHash = getEthSignedMessageHash(messageHash);\r\n    address recoveredAddress = recoverSigner(ethSignedMessageHash, _signature);\r\n\r\n    // 2. \r\n   // address recovered = recoverSigner(ethSignedMessageHash, _signature);\r\n\r\n    // 3. \r\n    require(recoveredAddress == msg.sender, \"Invalid signature\");       \r\n    userSeed = _userSeed;\r\n    player = payable(msg.sender);\r\n    usedUserSeeds[msg.sender][_userSeed] = true;\r\n    emit Participation(player, userSeed);  \r\n    emit CommitRequested(msg.sender);\r\n}\r\n\r\n\r\nevent RecoveredAddress(address indexed recovered);\r\nevent LogMessageHash(bytes32 indexed messageHash);\r\n   function getMessageHash(bytes32 _message) internal pure returns (bytes32) {\r\n        return keccak256(abi.encodePacked(_message));\r\n    }\r\n\r\n    function getEthSignedMessageHash(bytes32 _messageHash) internal pure returns (bytes32) {\r\n        return keccak256(abi.encodePacked(\"\\x19Ethereum Signed Message:\\n32\", _messageHash));\r\n    }\r\n\r\n    function recoverSigner(bytes32 _ethSignedMessageHash, bytes memory _signature) internal pure returns (address) {\r\n        (bytes32 r, bytes32 s, uint8 v) = splitSignature(_signature);\r\n        return ecrecover(_ethSignedMessageHash, v, r, s);\r\n    }\r\n\r\n    function splitSignature(bytes memory _signature) internal pure returns (bytes32 r, bytes32 s, uint8 v) {\r\n        require(_signature.length == 65, \"invalid signature length\");\r\n        assembly {\r\n            r := mload(add(_signature, 32))\r\n            s := mload(add(_signature, 64))\r\n            v := byte(0, mload(add(_signature, 96)))\r\n        }\r\n    }\r\n\r\n    function reveal(bytes32 _serverSeed, bytes memory signature) public {\r\n        require(serverSeedHash == keccak256(abi.encodePacked(_serverSeed, salt)), \"Invalid server seed\");\r\n        serverSeed = _serverSeed;\r\n\r\n        bytes32 messageHash = getMessageHash(_serverSeed);\r\n        bytes32 ethSignedMessageHash = getEthSignedMessageHash(messageHash);\r\n        address recoveredAddress = recoverSigner(ethSignedMessageHash, signature);\r\n\r\n        emit LogMessageHash(messageHash);\r\n        emit RecoveredAddress(recoveredAddress);\r\n\r\n        require(recoveredAddress == owner, \"Invalid signature\");\r\n        \r\n        bytes32 finalHash = keccak256(abi.encodePacked(serverSeed, userSeed, salt));\r\n        luckyNumber = uint256(finalHash) % 10;\r\n        luckyNumberCounts[luckyNumber] = luckyNumberCounts[luckyNumber] + 1;\r\n\r\n        emit Reveal(serverSeed, luckyNumber);\r\n         // mint NFT after the luckyNumber has been determined\r\n        mintNFT(player, luckyNumber);\r\n        \r\n    }\r\n // MintURI\r\nfunction mintNFT(address recipient, uint256 _luckyNumber) internal {\r\n    _tokenIdCounter.increment();\r\n    uint256 newTokenId = _tokenIdCounter.current();\r\n    _mint(recipient, newTokenId);\r\n    \r\n    tokenLuckyNumbers[newTokenId] = _luckyNumber;\r\n\r\n    // tokenURI\r\n    Prize memory prize = prizeMapping[_luckyNumber];\r\n    _tokenURIs[newTokenId] = prize.imageURL;\r\n        emit NFTMinted(recipient, newTokenId);\r\n\r\n}\r\n\r\n// IDURI\r\nfunction tokenURI(uint256 tokenId) public view override returns (string memory) {\r\n    return _tokenURIs[tokenId];\r\n}\r\nfunction getLuckyNumberForToken(uint256 tokenId) public view returns (uint256) {\r\n    return tokenLuckyNumbers[tokenId];\r\n}\r\n\r\nfunction setPrizesBulk(\r\n    uint256[] memory luckyNumbers, \r\n    string[] memory names, \r\n    string[] memory descriptions, \r\n    string[] memory imageURLs\r\n) public {\r\n    require(\r\n        luckyNumbers.length == names.length && \r\n        names.length == descriptions.length && \r\n        descriptions.length == imageURLs.length, \r\n        \"Array lengths mismatch\"\r\n    );\r\n\r\n    for (uint i = 0; i < luckyNumbers.length; i++) {\r\n        Prize memory newPrize = Prize({\r\n            name: names[i],\r\n            description: descriptions[i],\r\n            imageURL: imageURLs[i]\r\n        });\r\n\r\n        prizeMapping[luckyNumbers[i]] = newPrize;\r\n    }\r\n}\r\n function getAllTokensInfo() public view returns (TokenInfo[] memory) {\r\n        uint256 totalTokens = _tokenIdCounter.current();\r\n        TokenInfo[] memory tokens = new TokenInfo[](totalTokens);\r\n\r\n        for (uint256 i = 0; i < totalTokens; i++) {\r\n            uint256 tokenId = i + 1;  // ID1\r\n            address tokenOwner = ownerOf(tokenId);\r\n            uint256 luckyNumber = getLuckyNumberForToken(tokenId);\r\n            Prize memory prize = prizeMapping[luckyNumber];\r\n            tokens[i] = TokenInfo(tokenOwner, tokenId, luckyNumber, prize);\r\n        }\r\n        return tokens;\r\n    }\r\n\r\nfunction getLuckyNumberCount(uint256 _luckyNumber) public view returns (uint256) {\r\n    return luckyNumberCounts[_luckyNumber];\r\n}\r\n}\r\n",
  "sourcePath": "C:\\src\\truffle0\\contracts\\GachaNFT.sol",
  "compiler": {
    "name": "solc",
    "version": "0.8.1+commit.df193b15.Emscripten.clang"
  },
  "schemaVersion": "3.4.16",
  "updatedAt": "2023-10-31T03:54:26.277Z",
  "networkType": "ethereum",
  "devdoc": {
    "kind": "dev",
    "methods": {
      "approve(address,uint256)": {
        "details": "See {IERC721-approve}."
      },
      "balanceOf(address)": {
        "details": "See {IERC721-balanceOf}."
      },
      "getApproved(uint256)": {
        "details": "See {IERC721-getApproved}."
      },
      "isApprovedForAll(address,address)": {
        "details": "See {IERC721-isApprovedForAll}."
      },
      "name()": {
        "details": "See {IERC721Metadata-name}."
      },
      "ownerOf(uint256)": {
        "details": "See {IERC721-ownerOf}."
      },
      "safeTransferFrom(address,address,uint256)": {
        "details": "See {IERC721-safeTransferFrom}."
      },
      "safeTransferFrom(address,address,uint256,bytes)": {
        "details": "See {IERC721-safeTransferFrom}."
      },
      "setApprovalForAll(address,bool)": {
        "details": "See {IERC721-setApprovalForAll}."
      },
      "supportsInterface(bytes4)": {
        "details": "See {IERC165-supportsInterface}."
      },
      "symbol()": {
        "details": "See {IERC721Metadata-symbol}."
      },
      "tokenByIndex(uint256)": {
        "details": "See {IERC721Enumerable-tokenByIndex}."
      },
      "tokenOfOwnerByIndex(address,uint256)": {
        "details": "See {IERC721Enumerable-tokenOfOwnerByIndex}."
      },
      "tokenURI(uint256)": {
        "details": "See {IERC721Metadata-tokenURI}."
      },
      "totalSupply()": {
        "details": "See {IERC721Enumerable-totalSupply}."
      },
      "transferFrom(address,address,uint256)": {
        "details": "See {IERC721-transferFrom}."
      }
    },
    "version": 1
  },
  "userdoc": {
    "kind": "user",
    "methods": {},
    "version": 1
  }
}