{
  "contractName": "CommitmentScheme",
  "abi": [
    {
      "inputs": [],
      "stateMutability": "nonpayable",
      "type": "constructor"
    },
    {
      "anonymous": false,
      "inputs": [
        {
          "indexed": false,
          "internalType": "bytes32",
          "name": "commitment",
          "type": "bytes32"
        }
      ],
      "name": "Committed",
      "type": "event"
    },
    {
      "anonymous": false,
      "inputs": [],
      "name": "Reset",
      "type": "event"
    },
    {
      "anonymous": false,
      "inputs": [
        {
          "indexed": false,
          "internalType": "bytes32",
          "name": "revealedSeed",
          "type": "bytes32"
        }
      ],
      "name": "Revealed",
      "type": "event"
    },
    {
      "inputs": [],
      "name": "commitment",
      "outputs": [
        {
          "internalType": "bytes32",
          "name": "",
          "type": "bytes32"
        }
      ],
      "stateMutability": "view",
      "type": "function",
      "constant": true
    },
    {
      "inputs": [],
      "name": "revealDeadline",
      "outputs": [
        {
          "internalType": "uint256",
          "name": "",
          "type": "uint256"
        }
      ],
      "stateMutability": "view",
      "type": "function",
      "constant": true
    },
    {
      "inputs": [],
      "name": "revealed",
      "outputs": [
        {
          "internalType": "bool",
          "name": "",
          "type": "bool"
        }
      ],
      "stateMutability": "view",
      "type": "function",
      "constant": true
    },
    {
      "inputs": [],
      "name": "revealedSeed",
      "outputs": [
        {
          "internalType": "bytes32",
          "name": "",
          "type": "bytes32"
        }
      ],
      "stateMutability": "view",
      "type": "function",
      "constant": true
    },
    {
      "inputs": [
        {
          "internalType": "bytes32",
          "name": "_commitment",
          "type": "bytes32"
        },
        {
          "internalType": "bytes32",
          "name": "_seed",
          "type": "bytes32"
        }
      ],
      "name": "commit",
      "outputs": [],
      "stateMutability": "nonpayable",
      "type": "function"
    },
    {
      "inputs": [],
      "name": "reveal",
      "outputs": [],
      "stateMutability": "nonpayable",
      "type": "function"
    },
    {
      "inputs": [
        {
          "internalType": "bytes",
          "name": "",
          "type": "bytes"
        }
      ],
      "name": "checkUpkeep",
      "outputs": [
        {
          "internalType": "bool",
          "name": "upkeepNeeded",
          "type": "bool"
        },
        {
          "internalType": "bytes",
          "name": "",
          "type": "bytes"
        }
      ],
      "stateMutability": "view",
      "type": "function",
      "constant": true
    },
    {
      "inputs": [
        {
          "internalType": "bytes",
          "name": "",
          "type": "bytes"
        }
      ],
      "name": "performUpkeep",
      "outputs": [],
      "stateMutability": "nonpayable",
      "type": "function"
    },
    {
      "inputs": [],
      "name": "reset",
      "outputs": [],
      "stateMutability": "nonpayable",
      "type": "function"
    }
  ],
  "bytecode": "0x608060405234801561000f575f80fd5b505f60045f6101000a81548160ff0219169083151502179055506108b0806100365f395ff3fe608060405234801561000f575f80fd5b5060043610610091575f3560e01c80636e04ff0d116100645780636e04ff0d1461010b578063a475b5dd1461013c578063b14b28a314610146578063d826f88f14610164578063e3ce094d1461016e57610091565b80630a008a33146100955780631303a484146100b35780634585e33b146100d157806351830227146100ed575b5f80fd5b61009d61018a565b6040516100aa9190610447565b60405180910390f35b6100bb610190565b6040516100c89190610447565b60405180910390f35b6100eb60048036038101906100e691906104c9565b610196565b005b6100f56101ff565b604051610102919061052e565b60405180910390f35b610125600480360381019061012091906104c9565b610211565b6040516101339291906105d1565b60405180910390f35b61014461024f565b005b61014e610317565b60405161015b9190610617565b60405180910390f35b61016c61031d565b005b6101886004803603810190610183919061065a565b610385565b005b60025481565b60015481565b60035442101580156101b4575060045f9054906101000a900460ff16155b6101f3576040517f08c379a00000000000000000000000000000000000000000000000000000000081526004016101ea906106f2565b60405180910390fd5b6101fb61024f565b5050565b60045f9054906101000a900460ff1681565b5f60606003544210158015610232575060045f9054906101000a900460ff16155b91508160405180602001604052805f815250915091509250929050565b6001545f546040516020016102649190610730565b60405160208183030381529060405280519060200120146102ba576040517f08c379a00000000000000000000000000000000000000000000000000000000081526004016102b190610794565b60405180910390fd5b5f54600281905550600160045f6101000a81548160ff0219169083151502179055507fd5e62fe0c4e6bd40a7736fb2ab572a9a0f5e742f27741505011b9bc89c7ead1960025460405161030d9190610447565b60405180910390a1565b60035481565b5f801b5f819055505f801b6001819055505f801b6002819055505f6003819055505f60045f6101000a81548160ff0219169083151502179055507f6423db340205c829eeb91151b1c5d1dc6d7a2b8708b1621494e89ba90c87081e60405160405180910390a1565b60045f9054906101000a900460ff16156103d4576040517f08c379a00000000000000000000000000000000000000000000000000000000081526004016103cb906107fc565b60405180910390fd5b81600181905550805f81905550603c426103ee9190610847565b6003819055507f1d835fd041cc3bb34aa7ab8341f3008e52f9e9abe48577aab34a2ba101e5030f826040516104239190610447565b60405180910390a15050565b5f819050919050565b6104418161042f565b82525050565b5f60208201905061045a5f830184610438565b92915050565b5f80fd5b5f80fd5b5f80fd5b5f80fd5b5f80fd5b5f8083601f84011261048957610488610468565b5b8235905067ffffffffffffffff8111156104a6576104a561046c565b5b6020830191508360018202830111156104c2576104c1610470565b5b9250929050565b5f80602083850312156104df576104de610460565b5b5f83013567ffffffffffffffff8111156104fc576104fb610464565b5b61050885828601610474565b92509250509250929050565b5f8115159050919050565b61052881610514565b82525050565b5f6020820190506105415f83018461051f565b92915050565b5f81519050919050565b5f82825260208201905092915050565b5f5b8381101561057e578082015181840152602081019050610563565b5f8484015250505050565b5f601f19601f8301169050919050565b5f6105a382610547565b6105ad8185610551565b93506105bd818560208601610561565b6105c681610589565b840191505092915050565b5f6040820190506105e45f83018561051f565b81810360208301526105f68184610599565b90509392505050565b5f819050919050565b610611816105ff565b82525050565b5f60208201905061062a5f830184610608565b92915050565b6106398161042f565b8114610643575f80fd5b50565b5f8135905061065481610630565b92915050565b5f80604083850312156106705761066f610460565b5b5f61067d85828601610646565b925050602061068e85828601610646565b9150509250929050565b5f82825260208201905092915050565b7f55706b656570206e6f74206e65656465640000000000000000000000000000005f82015250565b5f6106dc601183610698565b91506106e7826106a8565b602082019050919050565b5f6020820190508181035f830152610709816106d0565b9050919050565b5f819050919050565b61072a6107258261042f565b610710565b82525050565b5f61073b8284610719565b60208201915081905092915050565b7f496e76616c6964207365656400000000000000000000000000000000000000005f82015250565b5f61077e600c83610698565b91506107898261074a565b602082019050919050565b5f6020820190508181035f8301526107ab81610772565b9050919050565b7f416c72656164792072657665616c6564000000000000000000000000000000005f82015250565b5f6107e6601083610698565b91506107f1826107b2565b602082019050919050565b5f6020820190508181035f830152610813816107da565b9050919050565b7f4e487b71000000000000000000000000000000000000000000000000000000005f52601160045260245ffd5b5f610851826105ff565b915061085c836105ff565b92508282019050808211156108745761087361081a565b5b9291505056fea26469706673582212203501462c3ec74bbfdb9142fe6f5e07ec9829f2681b937341b16e9fa2630a970f64736f6c63430008160033",
  "immutableReferences": {},
  "source": "// SPDX-License-Identifier: MIT\r\npragma solidity >=0.4.22 <0.9.0;\r\n\r\n//import \"@chainlink/contracts/src/v0.8/interfaces/KeeperCompatibleInterface.sol\";\r\nimport \"@chainlink/contracts/src/v0.8/automation/AutomationCompatible.sol\";\r\n\r\ncontract CommitmentScheme is AutomationCompatibleInterface{\r\n    bytes32 private storedSeed;\r\n    bytes32 public commitment;\r\n    bytes32 public revealedSeed;\r\n    uint256 public revealDeadline;\r\n    bool public revealed;\r\n\r\n    event Committed(bytes32 commitment);\r\n    event Revealed(bytes32 revealedSeed);\r\n    event Reset();\r\n\r\n    constructor() {\r\n        revealed = false;\r\n    }\r\n\r\n    function commit(bytes32 _commitment, bytes32 _seed) public {\r\n        require(!revealed, \"Already revealed\");\r\n        commitment = _commitment;\r\n        storedSeed = _seed;\r\n        revealDeadline = block.timestamp + 1 minutes; // 1\r\n        emit Committed(_commitment);\r\n    }\r\n\r\n    function reveal() public {\r\n        require(keccak256(abi.encodePacked(storedSeed)) == commitment, \"Invalid seed\");\r\n        revealedSeed = storedSeed;\r\n        revealed = true;\r\n        emit Revealed(revealedSeed);\r\n    }\r\n\r\n    function checkUpkeep(bytes calldata) external view override returns (bool upkeepNeeded, bytes memory) {\r\n        upkeepNeeded = block.timestamp >= revealDeadline && !revealed;\r\n        return (upkeepNeeded, bytes(\"\"));\r\n    }\r\n\r\n    function performUpkeep(bytes calldata) external override {\r\n        require(block.timestamp >= revealDeadline && !revealed, \"Upkeep not needed\");\r\n        reveal();\r\n    }\r\n     function reset() public {\r\n        // \r\n       //require(msg.sender == owner, \"Only the owner can reset the contract\");\r\n\r\n        storedSeed = 0x0;\r\n        commitment = 0x0;\r\n        revealedSeed = 0x0;\r\n        revealDeadline = 0;\r\n        revealed = false;\r\n\r\n        emit Reset();\r\n    }\r\n}\r\n",
  "sourcePath": "C:\\src\\truffle0\\contracts\\CommitmentScheme.sol",
  "compiler": {
    "name": "solc",
    "version": "0.8.22+commit.4fc1097e.Emscripten.clang"
  },
  "schemaVersion": "3.4.16",
  "updatedAt": "2023-10-31T13:46:13.260Z",
  "networkType": "ethereum",
  "devdoc": {
    "kind": "dev",
    "methods": {},
    "version": 1
  },
  "userdoc": {
    "kind": "user",
    "methods": {},
    "version": 1
  }
}