{
  "contractName": "GachaNFTProb",
  "abi": [
    {
      "inputs": [
        {
          "internalType": "uint256",
          "name": "_maxParticipants",
          "type": "uint256"
        }
      ],
      "stateMutability": "nonpayable",
      "type": "constructor"
    },
    {
      "anonymous": false,
      "inputs": [
        {
          "indexed": true,
          "internalType": "address",
          "name": "owner",
          "type": "address"
        },
        {
          "indexed": true,
          "internalType": "address",
          "name": "approved",
          "type": "address"
        },
        {
          "indexed": true,
          "internalType": "uint256",
          "name": "tokenId",
          "type": "uint256"
        }
      ],
      "name": "Approval",
      "type": "event"
    },
    {
      "anonymous": false,
      "inputs": [
        {
          "indexed": true,
          "internalType": "address",
          "name": "owner",
          "type": "address"
        },
        {
          "indexed": true,
          "internalType": "address",
          "name": "operator",
          "type": "address"
        },
        {
          "indexed": false,
          "internalType": "bool",
          "name": "approved",
          "type": "bool"
        }
      ],
      "name": "ApprovalForAll",
      "type": "event"
    },
    {
      "anonymous": false,
      "inputs": [
        {
          "indexed": true,
          "internalType": "address",
          "name": "user",
          "type": "address"
        }
      ],
      "name": "CommitRequested",
      "type": "event"
    },
    {
      "anonymous": false,
      "inputs": [
        {
          "indexed": true,
          "internalType": "bytes32",
          "name": "serverSeedHash",
          "type": "bytes32"
        }
      ],
      "name": "Commitment",
      "type": "event"
    },
    {
      "anonymous": false,
      "inputs": [
        {
          "indexed": false,
          "internalType": "string",
          "name": "",
          "type": "string"
        }
      ],
      "name": "DebugLogEvent",
      "type": "event"
    },
    {
      "anonymous": false,
      "inputs": [
        {
          "indexed": true,
          "internalType": "bytes32",
          "name": "messageHash",
          "type": "bytes32"
        }
      ],
      "name": "LogMessageHash",
      "type": "event"
    },
    {
      "anonymous": false,
      "inputs": [
        {
          "indexed": true,
          "internalType": "address",
          "name": "owner",
          "type": "address"
        },
        {
          "indexed": false,
          "internalType": "uint256",
          "name": "tokenId",
          "type": "uint256"
        }
      ],
      "name": "NFTMinted",
      "type": "event"
    },
    {
      "anonymous": false,
      "inputs": [
        {
          "indexed": true,
          "internalType": "address",
          "name": "player",
          "type": "address"
        },
        {
          "indexed": false,
          "internalType": "bytes32",
          "name": "userSeed",
          "type": "bytes32"
        }
      ],
      "name": "Participation",
      "type": "event"
    },
    {
      "anonymous": false,
      "inputs": [
        {
          "indexed": true,
          "internalType": "address",
          "name": "recovered",
          "type": "address"
        }
      ],
      "name": "RecoveredAddress",
      "type": "event"
    },
    {
      "anonymous": false,
      "inputs": [
        {
          "indexed": true,
          "internalType": "address",
          "name": "requester",
          "type": "address"
        },
        {
          "indexed": false,
          "internalType": "string",
          "name": "requestId",
          "type": "string"
        }
      ],
      "name": "RequestCommit",
      "type": "event"
    },
    {
      "anonymous": false,
      "inputs": [
        {
          "indexed": false,
          "internalType": "bytes32",
          "name": "serverSeed",
          "type": "bytes32"
        },
        {
          "indexed": false,
          "internalType": "uint256",
          "name": "luckyNumber",
          "type": "uint256"
        }
      ],
      "name": "Reveal",
      "type": "event"
    },
    {
      "anonymous": false,
      "inputs": [
        {
          "indexed": true,
          "internalType": "address",
          "name": "from",
          "type": "address"
        },
        {
          "indexed": true,
          "internalType": "address",
          "name": "to",
          "type": "address"
        },
        {
          "indexed": true,
          "internalType": "uint256",
          "name": "tokenId",
          "type": "uint256"
        }
      ],
      "name": "Transfer",
      "type": "event"
    },
    {
      "inputs": [],
      "name": "MAX_LUCKY_NUMBERS",
      "outputs": [
        {
          "internalType": "uint256",
          "name": "",
          "type": "uint256"
        }
      ],
      "stateMutability": "view",
      "type": "function",
      "constant": true
    },
    {
      "inputs": [
        {
          "internalType": "address",
          "name": "to",
          "type": "address"
        },
        {
          "internalType": "uint256",
          "name": "tokenId",
          "type": "uint256"
        }
      ],
      "name": "approve",
      "outputs": [],
      "stateMutability": "nonpayable",
      "type": "function"
    },
    {
      "inputs": [
        {
          "internalType": "address",
          "name": "owner",
          "type": "address"
        }
      ],
      "name": "balanceOf",
      "outputs": [
        {
          "internalType": "uint256",
          "name": "",
          "type": "uint256"
        }
      ],
      "stateMutability": "view",
      "type": "function",
      "constant": true
    },
    {
      "inputs": [
        {
          "internalType": "uint256",
          "name": "tokenId",
          "type": "uint256"
        }
      ],
      "name": "getApproved",
      "outputs": [
        {
          "internalType": "address",
          "name": "",
          "type": "address"
        }
      ],
      "stateMutability": "view",
      "type": "function",
      "constant": true
    },
    {
      "inputs": [
        {
          "internalType": "address",
          "name": "owner",
          "type": "address"
        },
        {
          "internalType": "address",
          "name": "operator",
          "type": "address"
        }
      ],
      "name": "isApprovedForAll",
      "outputs": [
        {
          "internalType": "bool",
          "name": "",
          "type": "bool"
        }
      ],
      "stateMutability": "view",
      "type": "function",
      "constant": true
    },
    {
      "inputs": [],
      "name": "isRevealed",
      "outputs": [
        {
          "internalType": "bool",
          "name": "",
          "type": "bool"
        }
      ],
      "stateMutability": "view",
      "type": "function",
      "constant": true
    },
    {
      "inputs": [],
      "name": "luckyNumber",
      "outputs": [
        {
          "internalType": "uint256",
          "name": "",
          "type": "uint256"
        }
      ],
      "stateMutability": "view",
      "type": "function",
      "constant": true
    },
    {
      "inputs": [],
      "name": "maxParticipants",
      "outputs": [
        {
          "internalType": "uint256",
          "name": "",
          "type": "uint256"
        }
      ],
      "stateMutability": "view",
      "type": "function",
      "constant": true
    },
    {
      "inputs": [],
      "name": "name",
      "outputs": [
        {
          "internalType": "string",
          "name": "",
          "type": "string"
        }
      ],
      "stateMutability": "view",
      "type": "function",
      "constant": true
    },
    {
      "inputs": [],
      "name": "owner",
      "outputs": [
        {
          "internalType": "address payable",
          "name": "",
          "type": "address"
        }
      ],
      "stateMutability": "view",
      "type": "function",
      "constant": true
    },
    {
      "inputs": [
        {
          "internalType": "uint256",
          "name": "tokenId",
          "type": "uint256"
        }
      ],
      "name": "ownerOf",
      "outputs": [
        {
          "internalType": "address",
          "name": "",
          "type": "address"
        }
      ],
      "stateMutability": "view",
      "type": "function",
      "constant": true
    },
    {
      "inputs": [],
      "name": "player",
      "outputs": [
        {
          "internalType": "address payable",
          "name": "",
          "type": "address"
        }
      ],
      "stateMutability": "view",
      "type": "function",
      "constant": true
    },
    {
      "inputs": [
        {
          "internalType": "uint256",
          "name": "",
          "type": "uint256"
        }
      ],
      "name": "prizeMapping",
      "outputs": [
        {
          "internalType": "string",
          "name": "name",
          "type": "string"
        },
        {
          "internalType": "string",
          "name": "description",
          "type": "string"
        },
        {
          "internalType": "string",
          "name": "imageURL",
          "type": "string"
        }
      ],
      "stateMutability": "view",
      "type": "function",
      "constant": true
    },
    {
      "inputs": [
        {
          "internalType": "uint256",
          "name": "",
          "type": "uint256"
        }
      ],
      "name": "prizeProbabilities",
      "outputs": [
        {
          "internalType": "uint256",
          "name": "",
          "type": "uint256"
        }
      ],
      "stateMutability": "view",
      "type": "function",
      "constant": true
    },
    {
      "inputs": [],
      "name": "revealDeadline",
      "outputs": [
        {
          "internalType": "uint256",
          "name": "",
          "type": "uint256"
        }
      ],
      "stateMutability": "view",
      "type": "function",
      "constant": true
    },
    {
      "inputs": [
        {
          "internalType": "address",
          "name": "from",
          "type": "address"
        },
        {
          "internalType": "address",
          "name": "to",
          "type": "address"
        },
        {
          "internalType": "uint256",
          "name": "tokenId",
          "type": "uint256"
        }
      ],
      "name": "safeTransferFrom",
      "outputs": [],
      "stateMutability": "nonpayable",
      "type": "function"
    },
    {
      "inputs": [
        {
          "internalType": "address",
          "name": "from",
          "type": "address"
        },
        {
          "internalType": "address",
          "name": "to",
          "type": "address"
        },
        {
          "internalType": "uint256",
          "name": "tokenId",
          "type": "uint256"
        },
        {
          "internalType": "bytes",
          "name": "data",
          "type": "bytes"
        }
      ],
      "name": "safeTransferFrom",
      "outputs": [],
      "stateMutability": "nonpayable",
      "type": "function"
    },
    {
      "inputs": [],
      "name": "salt",
      "outputs": [
        {
          "internalType": "bytes32",
          "name": "",
          "type": "bytes32"
        }
      ],
      "stateMutability": "view",
      "type": "function",
      "constant": true
    },
    {
      "inputs": [],
      "name": "serverSeed",
      "outputs": [
        {
          "internalType": "bytes32",
          "name": "",
          "type": "bytes32"
        }
      ],
      "stateMutability": "view",
      "type": "function",
      "constant": true
    },
    {
      "inputs": [],
      "name": "serverSeedHash",
      "outputs": [
        {
          "internalType": "bytes32",
          "name": "",
          "type": "bytes32"
        }
      ],
      "stateMutability": "view",
      "type": "function",
      "constant": true
    },
    {
      "inputs": [
        {
          "internalType": "address",
          "name": "operator",
          "type": "address"
        },
        {
          "internalType": "bool",
          "name": "approved",
          "type": "bool"
        }
      ],
      "name": "setApprovalForAll",
      "outputs": [],
      "stateMutability": "nonpayable",
      "type": "function"
    },
    {
      "inputs": [
        {
          "internalType": "bytes4",
          "name": "interfaceId",
          "type": "bytes4"
        }
      ],
      "name": "supportsInterface",
      "outputs": [
        {
          "internalType": "bool",
          "name": "",
          "type": "bool"
        }
      ],
      "stateMutability": "view",
      "type": "function",
      "constant": true
    },
    {
      "inputs": [],
      "name": "symbol",
      "outputs": [
        {
          "internalType": "string",
          "name": "",
          "type": "string"
        }
      ],
      "stateMutability": "view",
      "type": "function",
      "constant": true
    },
    {
      "inputs": [
        {
          "internalType": "uint256",
          "name": "index",
          "type": "uint256"
        }
      ],
      "name": "tokenByIndex",
      "outputs": [
        {
          "internalType": "uint256",
          "name": "",
          "type": "uint256"
        }
      ],
      "stateMutability": "view",
      "type": "function",
      "constant": true
    },
    {
      "inputs": [
        {
          "internalType": "address",
          "name": "owner",
          "type": "address"
        },
        {
          "internalType": "uint256",
          "name": "index",
          "type": "uint256"
        }
      ],
      "name": "tokenOfOwnerByIndex",
      "outputs": [
        {
          "internalType": "uint256",
          "name": "",
          "type": "uint256"
        }
      ],
      "stateMutability": "view",
      "type": "function",
      "constant": true
    },
    {
      "inputs": [],
      "name": "totalProbability",
      "outputs": [
        {
          "internalType": "uint256",
          "name": "",
          "type": "uint256"
        }
      ],
      "stateMutability": "view",
      "type": "function",
      "constant": true
    },
    {
      "inputs": [],
      "name": "totalSupply",
      "outputs": [
        {
          "internalType": "uint256",
          "name": "",
          "type": "uint256"
        }
      ],
      "stateMutability": "view",
      "type": "function",
      "constant": true
    },
    {
      "inputs": [
        {
          "internalType": "address",
          "name": "from",
          "type": "address"
        },
        {
          "internalType": "address",
          "name": "to",
          "type": "address"
        },
        {
          "internalType": "uint256",
          "name": "tokenId",
          "type": "uint256"
        }
      ],
      "name": "transferFrom",
      "outputs": [],
      "stateMutability": "nonpayable",
      "type": "function"
    },
    {
      "inputs": [
        {
          "internalType": "address",
          "name": "",
          "type": "address"
        },
        {
          "internalType": "bytes32",
          "name": "",
          "type": "bytes32"
        }
      ],
      "name": "usedUserSeeds",
      "outputs": [
        {
          "internalType": "bool",
          "name": "",
          "type": "bool"
        }
      ],
      "stateMutability": "view",
      "type": "function",
      "constant": true
    },
    {
      "inputs": [],
      "name": "userSeed",
      "outputs": [
        {
          "internalType": "bytes32",
          "name": "",
          "type": "bytes32"
        }
      ],
      "stateMutability": "view",
      "type": "function",
      "constant": true
    },
    {
      "inputs": [
        {
          "internalType": "uint256",
          "name": "luckyNumber",
          "type": "uint256"
        },
        {
          "internalType": "string",
          "name": "name",
          "type": "string"
        },
        {
          "internalType": "string",
          "name": "description",
          "type": "string"
        },
        {
          "internalType": "string",
          "name": "imageURL",
          "type": "string"
        }
      ],
      "name": "setPrize",
      "outputs": [],
      "stateMutability": "nonpayable",
      "type": "function"
    },
    {
      "inputs": [
        {
          "internalType": "uint256",
          "name": "luckyNumber",
          "type": "uint256"
        }
      ],
      "name": "getPrize",
      "outputs": [
        {
          "internalType": "string",
          "name": "name",
          "type": "string"
        },
        {
          "internalType": "string",
          "name": "description",
          "type": "string"
        },
        {
          "internalType": "string",
          "name": "imageURL",
          "type": "string"
        }
      ],
      "stateMutability": "view",
      "type": "function",
      "constant": true
    },
    {
      "inputs": [
        {
          "internalType": "string",
          "name": "requestId",
          "type": "string"
        }
      ],
      "name": "requestCommit",
      "outputs": [],
      "stateMutability": "nonpayable",
      "type": "function"
    },
    {
      "inputs": [
        {
          "internalType": "bytes32",
          "name": "_serverSeedHash",
          "type": "bytes32"
        },
        {
          "internalType": "bytes32",
          "name": "_salt",
          "type": "bytes32"
        }
      ],
      "name": "commit",
      "outputs": [],
      "stateMutability": "nonpayable",
      "type": "function"
    },
    {
      "inputs": [
        {
          "internalType": "bytes32",
          "name": "_userSeed",
          "type": "bytes32"
        },
        {
          "internalType": "bytes",
          "name": "_signature",
          "type": "bytes"
        }
      ],
      "name": "participate",
      "outputs": [],
      "stateMutability": "payable",
      "type": "function",
      "payable": true
    },
    {
      "inputs": [
        {
          "internalType": "bytes32",
          "name": "_serverSeed",
          "type": "bytes32"
        },
        {
          "internalType": "bytes",
          "name": "signature",
          "type": "bytes"
        }
      ],
      "name": "reveal",
      "outputs": [],
      "stateMutability": "nonpayable",
      "type": "function"
    },
    {
      "inputs": [
        {
          "internalType": "uint256",
          "name": "tokenId",
          "type": "uint256"
        }
      ],
      "name": "tokenURI",
      "outputs": [
        {
          "internalType": "string",
          "name": "",
          "type": "string"
        }
      ],
      "stateMutability": "view",
      "type": "function",
      "constant": true
    },
    {
      "inputs": [
        {
          "internalType": "uint256",
          "name": "tokenId",
          "type": "uint256"
        }
      ],
      "name": "getLuckyNumberForToken",
      "outputs": [
        {
          "internalType": "uint256",
          "name": "",
          "type": "uint256"
        }
      ],
      "stateMutability": "view",
      "type": "function",
      "constant": true
    },
    {
      "inputs": [
        {
          "internalType": "uint256[]",
          "name": "luckyNumbers",
          "type": "uint256[]"
        },
        {
          "internalType": "string[]",
          "name": "names",
          "type": "string[]"
        },
        {
          "internalType": "string[]",
          "name": "descriptions",
          "type": "string[]"
        },
        {
          "internalType": "string[]",
          "name": "imageURLs",
          "type": "string[]"
        }
      ],
      "name": "setPrizesBulk",
      "outputs": [],
      "stateMutability": "nonpayable",
      "type": "function"
    },
    {
      "inputs": [],
      "name": "getAllTokensInfo",
      "outputs": [
        {
          "components": [
            {
              "internalType": "address",
              "name": "owner",
              "type": "address"
            },
            {
              "internalType": "uint256",
              "name": "tokenId",
              "type": "uint256"
            },
            {
              "internalType": "uint256",
              "name": "luckyNumber",
              "type": "uint256"
            },
            {
              "components": [
                {
                  "internalType": "string",
                  "name": "name",
                  "type": "string"
                },
                {
                  "internalType": "string",
                  "name": "description",
                  "type": "string"
                },
                {
                  "internalType": "string",
                  "name": "imageURL",
                  "type": "string"
                }
              ],
              "internalType": "struct Prize",
              "name": "prize",
              "type": "tuple"
            }
          ],
          "internalType": "struct TokenInfo[]",
          "name": "",
          "type": "tuple[]"
        }
      ],
      "stateMutability": "view",
      "type": "function",
      "constant": true
    },
    {
      "inputs": [
        {
          "internalType": "uint256",
          "name": "_luckyNumber",
          "type": "uint256"
        }
      ],
      "name": "getLuckyNumberCount",
      "outputs": [
        {
          "internalType": "uint256",
          "name": "",
          "type": "uint256"
        }
      ],
      "stateMutability": "view",
      "type": "function",
      "constant": true
    },
    {
      "inputs": [
        {
          "internalType": "bytes",
          "name": "",
          "type": "bytes"
        }
      ],
      "name": "checkUpkeep",
      "outputs": [
        {
          "internalType": "bool",
          "name": "upkeepNeeded",
          "type": "bool"
        },
        {
          "internalType": "bytes",
          "name": "",
          "type": "bytes"
        }
      ],
      "stateMutability": "nonpayable",
      "type": "function"
    },
    {
      "inputs": [
        {
          "internalType": "bytes",
          "name": "",
          "type": "bytes"
        }
      ],
      "name": "performUpkeep",
      "outputs": [],
      "stateMutability": "nonpayable",
      "type": "function"
    },
    {
      "inputs": [
        {
          "internalType": "uint256",
          "name": "luckyNumber",
          "type": "uint256"
        },
        {
          "internalType": "uint256",
          "name": "probability",
          "type": "uint256"
        }
      ],
      "name": "setPrizeProbability",
      "outputs": [],
      "stateMutability": "nonpayable",
      "type": "function"
    },
    {
      "inputs": [
        {
          "internalType": "uint256[]",
          "name": "luckyNumbers",
          "type": "uint256[]"
        },
        {
          "internalType": "uint256[]",
          "name": "probabilities",
          "type": "uint256[]"
        }
      ],
      "name": "setPrizeProbabilitiesBulk",
      "outputs": [],
      "stateMutability": "nonpayable",
      "type": "function"
    }
  ],
  "bytecode": "0x60806040525f60155534801562000014575f80fd5b5060405162005f7838038062005f7883398181016040528101906200003a919062000155565b6040518060400160405280600981526020017f546f6b656e4e616d6500000000000000000000000000000000000000000000008152506040518060400160405280600b81526020017f546f6b656e53796d626f6c000000000000000000000000000000000000000000815250815f9081620000b69190620003e0565b508060019081620000c89190620003e0565b50505033600b5f6101000a81548173ffffffffffffffffffffffffffffffffffffffff021916908373ffffffffffffffffffffffffffffffffffffffff16021790555080600d8190555050620004c4565b5f80fd5b5f819050919050565b62000131816200011d565b81146200013c575f80fd5b50565b5f815190506200014f8162000126565b92915050565b5f602082840312156200016d576200016c62000119565b5b5f6200017c848285016200013f565b91505092915050565b5f81519050919050565b7f4e487b71000000000000000000000000000000000000000000000000000000005f52604160045260245ffd5b7f4e487b71000000000000000000000000000000000000000000000000000000005f52602260045260245ffd5b5f60028204905060018216806200020157607f821691505b602082108103620002175762000216620001bc565b5b50919050565b5f819050815f5260205f209050919050565b5f6020601f8301049050919050565b5f82821b905092915050565b5f600883026200027b7fffffffffffffffffffffffffffffffffffffffffffffffffffffffffffffffff826200023e565b6200028786836200023e565b95508019841693508086168417925050509392505050565b5f819050919050565b5f620002c8620002c2620002bc846200011d565b6200029f565b6200011d565b9050919050565b5f819050919050565b620002e383620002a8565b620002fb620002f282620002cf565b8484546200024a565b825550505050565b5f90565b6200031162000303565b6200031e818484620002d8565b505050565b5b818110156200034557620003395f8262000307565b60018101905062000324565b5050565b601f82111562000394576200035e816200021d565b62000369846200022f565b8101602085101562000379578190505b6200039162000388856200022f565b83018262000323565b50505b505050565b5f82821c905092915050565b5f620003b65f198460080262000399565b1980831691505092915050565b5f620003d08383620003a5565b9150826002028217905092915050565b620003eb8262000185565b67ffffffffffffffff8111156200040757620004066200018f565b5b620004138254620001e9565b6200042082828562000349565b5f60209050601f83116001811462000456575f841562000441578287015190505b6200044d8582620003c3565b865550620004bc565b601f19841662000466866200021d565b5f5b828110156200048f5784890151825560018201915060208501945060208101905062000468565b86831015620004af5784890151620004ab601f891682620003a5565b8355505b6001600288020188555050505b505050505050565b615aa680620004d25f395ff3fe608060405260043610610271575f3560e01c80636352211e1161014e5780639a24a25b116100c0578063bfa0b13311610079578063bfa0b13314610992578063c87b56dd146109bc578063ceb2d745146109f8578063d428fa2e14610a20578063e3ce094d14610a5e578063e985e9c514610a8657610271565b80639a24a25b14610886578063a1099bf2146108b0578063a22cb465146108ee578063b14b28a314610916578063b88d4fde14610940578063bf205ebc1461096857610271565b806370a082311161011257806370a08231146107885780637382901e146107c457806385205108146107ee5780638da5cb5b1461081657806395d89b4114610840578063984f0be31461086a57610271565b80636352211e1461069357806365c4b5ce146106cf57806366bcb642146106f757806368c282f2146107215780636e04ff0d1461074b57610271565b806342842e0e116101e75780634dbd2cca116101ab5780634dbd2cca146105795780634f6ccce7146105a157806354214f69146105dd5780635bb46dff146106075780635dea44971461062f5780635fe8aa5e1461066b57610271565b806342842e0e146104ab578063454e0657146104d35780634585e33b146104fd57806348db5f891461052557806349c7f6591461054f57610271565b80630e40fa7b116102395780630e40fa7b1461037b57806318160ddd146103b757806323b872dd146103e157806324924bf7146104095780632f745c59146104335780633ecce9181461046f57610271565b806301ffc9a71461027557806306fdde03146102b1578063081812fc146102db578063095ea7b3146103175780630e178ef11461033f575b5f80fd5b348015610280575f80fd5b5061029b60048036038101906102969190613a6c565b610ac2565b6040516102a89190613ab1565b60405180910390f35b3480156102bc575f80fd5b506102c5610b3b565b6040516102d29190613b54565b60405180910390f35b3480156102e6575f80fd5b5061030160048036038101906102fc9190613ba7565b610bca565b60405161030e9190613c11565b60405180910390f35b348015610322575f80fd5b5061033d60048036038101906103389190613c54565b610c0c565b005b34801561034a575f80fd5b5061036560048036038101906103609190613ba7565b610d22565b6040516103729190613ca1565b60405180910390f35b348015610386575f80fd5b506103a1600480360381019061039c9190613ba7565b610d3c565b6040516103ae9190613ca1565b60405180910390f35b3480156103c2575f80fd5b506103cb610d56565b6040516103d89190613ca1565b60405180910390f35b3480156103ec575f80fd5b5061040760048036038101906104029190613cba565b610d62565b005b348015610414575f80fd5b5061041d610dc2565b60405161042a9190613ca1565b60405180910390f35b34801561043e575f80fd5b5061045960048036038101906104549190613c54565b610dc8565b6040516104669190613ca1565b60405180910390f35b34801561047a575f80fd5b5061049560048036038101906104909190613d3d565b610e68565b6040516104a29190613ab1565b60405180910390f35b3480156104b6575f80fd5b506104d160048036038101906104cc9190613cba565b610e92565b005b3480156104de575f80fd5b506104e7610eb1565b6040516104f49190613ca1565b60405180910390f35b348015610508575f80fd5b50610523600480360381019061051e9190613ddc565b610eb6565b005b348015610530575f80fd5b50610539610f9d565b6040516105469190613e47565b60405180910390f35b34801561055a575f80fd5b50610563610fc2565b6040516105709190613ca1565b60405180910390f35b348015610584575f80fd5b5061059f600480360381019061059a9190613e60565b610fc8565b005b3480156105ac575f80fd5b506105c760048036038101906105c29190613ba7565b61113c565b6040516105d49190613ca1565b60405180910390f35b3480156105e8575f80fd5b506105f16111aa565b6040516105fe9190613ab1565b60405180910390f35b348015610612575f80fd5b5061062d60048036038101906106289190613ef3565b6111bc565b005b34801561063a575f80fd5b5061065560048036038101906106509190613ba7565b611210565b6040516106629190613ca1565b60405180910390f35b348015610676575f80fd5b50610691600480360381019061068c9190614204565b611225565b005b34801561069e575f80fd5b506106b960048036038101906106b49190613ba7565b61137e565b6040516106c69190613c11565b60405180910390f35b3480156106da575f80fd5b506106f560048036038101906106f091906142d8565b611402565b005b348015610702575f80fd5b5061070b611627565b604051610718919061435d565b60405180910390f35b34801561072c575f80fd5b5061073561162d565b604051610742919061435d565b60405180910390f35b348015610756575f80fd5b50610771600480360381019061076c9190613ddc565b611633565b60405161077f9291906143c8565b60405180910390f35b348015610793575f80fd5b506107ae60048036038101906107a991906143f6565b611658565b6040516107bb9190613ca1565b60405180910390f35b3480156107cf575f80fd5b506107d861170c565b6040516107e5919061435d565b60405180910390f35b3480156107f9575f80fd5b50610814600480360381019061080f91906144bf565b611712565b005b348015610821575f80fd5b5061082a61199d565b6040516108379190613e47565b60405180910390f35b34801561084b575f80fd5b506108546119c2565b6040516108619190613b54565b60405180910390f35b610884600480360381019061087f91906144bf565b611a52565b005b348015610891575f80fd5b5061089a611c4b565b6040516108a791906146f5565b60405180910390f35b3480156108bb575f80fd5b506108d660048036038101906108d19190613ba7565b611f20565b6040516108e593929190614715565b60405180910390f35b3480156108f9575f80fd5b50610914600480360381019061090f9190614789565b61210f565b005b348015610921575f80fd5b5061092a612125565b6040516109379190613ca1565b60405180910390f35b34801561094b575f80fd5b50610966600480360381019061096191906147c7565b61212b565b005b348015610973575f80fd5b5061097c61218d565b6040516109899190613ca1565b60405180910390f35b34801561099d575f80fd5b506109a6612193565b6040516109b3919061435d565b60405180910390f35b3480156109c7575f80fd5b506109e260048036038101906109dd9190613ba7565b612199565b6040516109ef9190613b54565b60405180910390f35b348015610a03575f80fd5b50610a1e6004803603810190610a199190614847565b61223a565b005b348015610a2b575f80fd5b50610a466004803603810190610a419190613ba7565b6122b4565b604051610a5593929190614715565b60405180910390f35b348015610a69575f80fd5b50610a846004803603810190610a7f91906148ff565b61246c565b005b348015610a91575f80fd5b50610aac6004803603810190610aa7919061493d565b61254f565b604051610ab99190613ab1565b60405180910390f35b5f7f780e9d63000000000000000000000000000000000000000000000000000000007bffffffffffffffffffffffffffffffffffffffffffffffffffffffff1916827bffffffffffffffffffffffffffffffffffffffffffffffffffffffff19161480610b345750610b33826125dd565b5b9050919050565b60605f8054610b49906149a8565b80601f0160208091040260200160405190810160405280929190818152602001828054610b75906149a8565b8015610bc05780601f10610b9757610100808354040283529160200191610bc0565b820191905f5260205f20905b815481529060010190602001808311610ba357829003601f168201915b5050505050905090565b5f610bd4826126be565b60045f8381526020019081526020015f205f9054906101000a900473ffffffffffffffffffffffffffffffffffffffff169050919050565b5f610c168261137e565b90508073ffffffffffffffffffffffffffffffffffffffff168373ffffffffffffffffffffffffffffffffffffffff1603610c86576040517f08c379a0000000000000000000000000000000000000000000000000000000008152600401610c7d90614a48565b60405180910390fd5b8073ffffffffffffffffffffffffffffffffffffffff16610ca5612709565b73ffffffffffffffffffffffffffffffffffffffff161480610cd45750610cd381610cce612709565b61254f565b5b610d13576040517f08c379a0000000000000000000000000000000000000000000000000000000008152600401610d0a90614ad6565b60405180910390fd5b610d1d8383612710565b505050565b5f60185f8381526020019081526020015f20549050919050565b5f601b5f8381526020019081526020015f20549050919050565b5f600880549050905090565b610d73610d6d612709565b826127c6565b610db2576040517f08c379a0000000000000000000000000000000000000000000000000000000008152600401610da990614b64565b60405180910390fd5b610dbd83838361285a565b505050565b600d5481565b5f610dd283611658565b8210610e13576040517f08c379a0000000000000000000000000000000000000000000000000000000008152600401610e0a90614bf2565b60405180910390fd5b60065f8473ffffffffffffffffffffffffffffffffffffffff1673ffffffffffffffffffffffffffffffffffffffff1681526020019081526020015f205f8381526020019081526020015f2054905092915050565b6017602052815f5260405f20602052805f5260405f205f915091509054906101000a900460ff1681565b610eac83838360405180602001604052805f81525061212b565b505050565b600a81565b5f601054604051602001610eca9190614c30565b604051602081830303815290604052805190602001209050600a815f1c610ef19190614c77565b6011819055506001601b5f60115481526020019081526020015f2054610f179190614cd4565b601b5f60115481526020019081526020015f2081905550610f5b600c5f9054906101000a900473ffffffffffffffffffffffffffffffffffffffff16601154612b46565b7f6765f1b8ca6c099f7378c6e9b12cf8afac970d483c3faf81745e4b40c26148db601054601154604051610f90929190614d07565b60405180910390a1505050565b600c5f9054906101000a900473ffffffffffffffffffffffffffffffffffffffff1681565b60155481565b600a821061100b576040517f08c379a000000000000000000000000000000000000000000000000000000000815260040161100290614d78565b60405180910390fd5b600b5f9054906101000a900473ffffffffffffffffffffffffffffffffffffffff1673ffffffffffffffffffffffffffffffffffffffff163373ffffffffffffffffffffffffffffffffffffffff161461109a576040517f08c379a000000000000000000000000000000000000000000000000000000000815260040161109190614de0565b60405180910390fd5b60165f8381526020019081526020015f205460155f8282546110bc9190614dfe565b925050819055508060165f8481526020019081526020015f20819055508060155f8282546110ea9190614cd4565b925050819055506127106015541115611138576040517f08c379a000000000000000000000000000000000000000000000000000000000815260040161112f90614e7b565b60405180910390fd5b5050565b5f611145610d56565b8210611186576040517f08c379a000000000000000000000000000000000000000000000000000000000815260040161117d90614f09565b60405180910390fd5b6008828154811061119a57611199614f27565b5b905f5260205f2001549050919050565b60125f9054906101000a900460ff1681565b3373ffffffffffffffffffffffffffffffffffffffff167f012b1127b60d15366b18ae35b2848ab5a402d272f830e92b37b1db38374a1c098383604051611204929190614f80565b60405180910390a25050565b6016602052805f5260405f205f915090505481565b82518451148015611237575081518351145b8015611244575080518251145b611283576040517f08c379a000000000000000000000000000000000000000000000000000000000815260040161127a90614fec565b60405180910390fd5b5f5b8451811015611377575f60405180606001604052808684815181106112ad576112ac614f27565b5b602002602001015181526020018584815181106112cd576112cc614f27565b5b602002602001015181526020018484815181106112ed576112ec614f27565b5b602002602001015181525090508060195f88858151811061131157611310614f27565b5b602002602001015181526020019081526020015f205f820151815f01908161133991906151a7565b50602082015181600101908161134f91906151a7565b50604082015181600201908161136591906151a7565b50905050508080600101915050611285565b5050505050565b5f8061138983612dc2565b90505f73ffffffffffffffffffffffffffffffffffffffff168173ffffffffffffffffffffffffffffffffffffffff16036113f9576040517f08c379a00000000000000000000000000000000000000000000000000000000081526004016113f0906152c0565b60405180910390fd5b80915050919050565b8051825114611446576040517f08c379a000000000000000000000000000000000000000000000000000000000815260040161143d90614fec565b60405180910390fd5b600b5f9054906101000a900473ffffffffffffffffffffffffffffffffffffffff1673ffffffffffffffffffffffffffffffffffffffff163373ffffffffffffffffffffffffffffffffffffffff16146114d5576040517f08c379a00000000000000000000000000000000000000000000000000000000081526004016114cc90614de0565b60405180910390fd5b5f805b835181101561157357600a8482815181106114f6576114f5614f27565b5b60200260200101511061153e576040517f08c379a000000000000000000000000000000000000000000000000000000000815260040161153590614d78565b60405180910390fd5b82818151811061155157611550614f27565b5b6020026020010151826115649190614cd4565b915080806001019150506114d8565b5061271081146115b8576040517f08c379a00000000000000000000000000000000000000000000000000000000081526004016115af90615328565b60405180910390fd5b5f5b835181101561161a578281815181106115d6576115d5614f27565b5b602002602001015160165f8684815181106115f4576115f3614f27565b5b602002602001015181526020019081526020015f208190555080806001019150506115ba565b5080601581905550505050565b60105481565b600f5481565b5f6060426014541091508160405180602001604052805f815250915091509250929050565b5f8073ffffffffffffffffffffffffffffffffffffffff168273ffffffffffffffffffffffffffffffffffffffff16036116c7576040517f08c379a00000000000000000000000000000000000000000000000000000000081526004016116be906153b6565b60405180910390fd5b60035f8373ffffffffffffffffffffffffffffffffffffffff1673ffffffffffffffffffffffffffffffffffffffff1681526020019081526020015f20549050919050565b600e5481565b816013546040516020016117279291906153d4565b60405160208183030381529060405280519060200120600e5414611780576040517f08c379a000000000000000000000000000000000000000000000000000000000815260040161177790615449565b60405180910390fd5b81600f819055505f61179183612dfb565b90505f61179d82612e2a565b90505f6117aa8285612e59565b9050827f5f23b605bd6c13580e1bd65c89aa5768674b0165fd8cc0a8a18819c7cd8a7c7860405160405180910390a28073ffffffffffffffffffffffffffffffffffffffff167f391f5edd7209ba797e8055bce97cab2d1a480a2849b0c7fe965c370457166dc460405160405180910390a2600b5f9054906101000a900473ffffffffffffffffffffffffffffffffffffffff1673ffffffffffffffffffffffffffffffffffffffff168173ffffffffffffffffffffffffffffffffffffffff16146118ab576040517f08c379a00000000000000000000000000000000000000000000000000000000081526004016118a2906154b1565b60405180910390fd5b5f600f546010546013546040516020016118c7939291906154cf565b604051602081830303815290604052805190602001209050600a815f1c6118ee9190614c77565b6011819055506001601b5f60115481526020019081526020015f20546119149190614cd4565b601b5f60115481526020019081526020015f20819055507f6765f1b8ca6c099f7378c6e9b12cf8afac970d483c3faf81745e4b40c26148db600f54601154604051611960929190614d07565b60405180910390a1611995600c5f9054906101000a900473ffffffffffffffffffffffffffffffffffffffff16601154612b46565b505050505050565b600b5f9054906101000a900473ffffffffffffffffffffffffffffffffffffffff1681565b6060600180546119d1906149a8565b80601f01602080910402602001604051908101604052809291908181526020018280546119fd906149a8565b8015611a485780601f10611a1f57610100808354040283529160200191611a48565b820191905f5260205f20905b815481529060010190602001808311611a2b57829003601f168201915b5050505050905090565b5f611a5c83612dfb565b90505f611a6882612e2a565b90505f611a758285612e59565b90503373ffffffffffffffffffffffffffffffffffffffff168173ffffffffffffffffffffffffffffffffffffffff1614611ae5576040517f08c379a0000000000000000000000000000000000000000000000000000000008152600401611adc906154b1565b60405180910390fd5b8460108190555033600c5f6101000a81548173ffffffffffffffffffffffffffffffffffffffff021916908373ffffffffffffffffffffffffffffffffffffffff160217905550600160175f3373ffffffffffffffffffffffffffffffffffffffff1673ffffffffffffffffffffffffffffffffffffffff1681526020019081526020015f205f8781526020019081526020015f205f6101000a81548160ff021916908315150217905550600c5f9054906101000a900473ffffffffffffffffffffffffffffffffffffffff1673ffffffffffffffffffffffffffffffffffffffff167fc197ebf15e8fe977ad5029df6077570283fa75a10103efc82970e4962d21eb30601054604051611bf9919061435d565b60405180910390a23373ffffffffffffffffffffffffffffffffffffffff167f4b904c2bfe136ea68afa5ff4de7e0c7101664ebd64570c7f6f6f8d8b533d0ef060405160405180910390a25050505050565b60605f611c58600a612ec3565b90505f8167ffffffffffffffff811115611c7557611c74613f3e565b5b604051908082528060200260200182016040528015611cae57816020015b611c9b6139a4565b815260200190600190039081611c935790505b5090505f5b82811015611f17575f600182611cc99190614cd4565b90505f611cd58261137e565b90505f611ce183610d22565b90505f60195f8381526020019081526020015f206040518060600160405290815f82018054611d0f906149a8565b80601f0160208091040260200160405190810160405280929190818152602001828054611d3b906149a8565b8015611d865780601f10611d5d57610100808354040283529160200191611d86565b820191905f5260205f20905b815481529060010190602001808311611d6957829003601f168201915b50505050508152602001600182018054611d9f906149a8565b80601f0160208091040260200160405190810160405280929190818152602001828054611dcb906149a8565b8015611e165780601f10611ded57610100808354040283529160200191611e16565b820191905f5260205f20905b815481529060010190602001808311611df957829003601f168201915b50505050508152602001600282018054611e2f906149a8565b80601f0160208091040260200160405190810160405280929190818152602001828054611e5b906149a8565b8015611ea65780601f10611e7d57610100808354040283529160200191611ea6565b820191905f5260205f20905b815481529060010190602001808311611e8957829003601f168201915b505050505081525050905060405180608001604052808473ffffffffffffffffffffffffffffffffffffffff16815260200185815260200183815260200182815250868681518110611efb57611efa614f27565b5b6020026020010181905250505050508080600101915050611cb3565b50809250505090565b60608060605f60195f8681526020019081526020015f206040518060600160405290815f82018054611f51906149a8565b80601f0160208091040260200160405190810160405280929190818152602001828054611f7d906149a8565b8015611fc85780601f10611f9f57610100808354040283529160200191611fc8565b820191905f5260205f20905b815481529060010190602001808311611fab57829003601f168201915b50505050508152602001600182018054611fe1906149a8565b80601f016020809104026020016040519081016040528092919081815260200182805461200d906149a8565b80156120585780601f1061202f57610100808354040283529160200191612058565b820191905f5260205f20905b81548152906001019060200180831161203b57829003601f168201915b50505050508152602001600282018054612071906149a8565b80601f016020809104026020016040519081016040528092919081815260200182805461209d906149a8565b80156120e85780601f106120bf576101008083540402835291602001916120e8565b820191905f5260205f20905b8154815290600101906020018083116120cb57829003601f168201915b5050505050815250509050805f015181602001518260400151935093509350509193909250565b61212161211a612709565b8383612ecf565b5050565b60145481565b61213c612136612709565b836127c6565b61217b576040517f08c379a000000000000000000000000000000000000000000000000000000000815260040161217290614b64565b60405180910390fd5b61218784848484613036565b50505050565b60115481565b60135481565b6060601a5f8381526020019081526020015f2080546121b7906149a8565b80601f01602080910402602001604051908101604052809291908181526020018280546121e3906149a8565b801561222e5780601f106122055761010080835404028352916020019161222e565b820191905f5260205f20905b81548152906001019060200180831161221157829003601f168201915b50505050509050919050565b5f60405180606001604052808581526020018481526020018381525090508060195f8781526020019081526020015f205f820151815f01908161227d91906151a7565b50602082015181600101908161229391906151a7565b5060408201518160020190816122a991906151a7565b509050505050505050565b6019602052805f5260405f205f91509050805f0180546122d3906149a8565b80601f01602080910402602001604051908101604052809291908181526020018280546122ff906149a8565b801561234a5780601f106123215761010080835404028352916020019161234a565b820191905f5260205f20905b81548152906001019060200180831161232d57829003601f168201915b50505050509080600101805461235f906149a8565b80601f016020809104026020016040519081016040528092919081815260200182805461238b906149a8565b80156123d65780601f106123ad576101008083540402835291602001916123d6565b820191905f5260205f20905b8154815290600101906020018083116123b957829003601f168201915b5050505050908060020180546123eb906149a8565b80601f0160208091040260200160405190810160405280929190818152602001828054612417906149a8565b80156124625780601f1061243957610100808354040283529160200191612462565b820191905f5260205f20905b81548152906001019060200180831161244557829003601f168201915b5050505050905083565b600b5f9054906101000a900473ffffffffffffffffffffffffffffffffffffffff1673ffffffffffffffffffffffffffffffffffffffff163373ffffffffffffffffffffffffffffffffffffffff16146124fb576040517f08c379a00000000000000000000000000000000000000000000000000000000081526004016124f290614de0565b60405180910390fd5b81600e8190555080601381905550603c426125169190614cd4565b601481905550600e547f522250e8a5d48ed8b6afbdb88fc1bb8ce6735c729835065b6840033c1d406f9060405160405180910390a25050565b5f60055f8473ffffffffffffffffffffffffffffffffffffffff1673ffffffffffffffffffffffffffffffffffffffff1681526020019081526020015f205f8373ffffffffffffffffffffffffffffffffffffffff1673ffffffffffffffffffffffffffffffffffffffff1681526020019081526020015f205f9054906101000a900460ff16905092915050565b5f7f80ac58cd000000000000000000000000000000000000000000000000000000007bffffffffffffffffffffffffffffffffffffffffffffffffffffffff1916827bffffffffffffffffffffffffffffffffffffffffffffffffffffffff191614806126a757507f5b5e139f000000000000000000000000000000000000000000000000000000007bffffffffffffffffffffffffffffffffffffffffffffffffffffffff1916827bffffffffffffffffffffffffffffffffffffffffffffffffffffffff1916145b806126b757506126b682613092565b5b9050919050565b6126c7816130fb565b612706576040517f08c379a00000000000000000000000000000000000000000000000000000000081526004016126fd906152c0565b60405180910390fd5b50565b5f33905090565b8160045f8381526020019081526020015f205f6101000a81548173ffffffffffffffffffffffffffffffffffffffff021916908373ffffffffffffffffffffffffffffffffffffffff160217905550808273ffffffffffffffffffffffffffffffffffffffff166127808361137e565b73ffffffffffffffffffffffffffffffffffffffff167f8c5be1e5ebec7d5bd14f71427d1e84f3dd0314c0f7b2291e5b200ac8c7c3b92560405160405180910390a45050565b5f806127d18361137e565b90508073ffffffffffffffffffffffffffffffffffffffff168473ffffffffffffffffffffffffffffffffffffffff1614806128135750612812818561254f565b5b8061285157508373ffffffffffffffffffffffffffffffffffffffff1661283984610bca565b73ffffffffffffffffffffffffffffffffffffffff16145b91505092915050565b8273ffffffffffffffffffffffffffffffffffffffff1661287a8261137e565b73ffffffffffffffffffffffffffffffffffffffff16146128d0576040517f08c379a00000000000000000000000000000000000000000000000000000000081526004016128c79061557b565b60405180910390fd5b5f73ffffffffffffffffffffffffffffffffffffffff168273ffffffffffffffffffffffffffffffffffffffff160361293e576040517f08c379a000000000000000000000000000000000000000000000000000000000815260040161293590615609565b60405180910390fd5b61294b838383600161313b565b8273ffffffffffffffffffffffffffffffffffffffff1661296b8261137e565b73ffffffffffffffffffffffffffffffffffffffff16146129c1576040517f08c379a00000000000000000000000000000000000000000000000000000000081526004016129b89061557b565b60405180910390fd5b60045f8281526020019081526020015f205f6101000a81549073ffffffffffffffffffffffffffffffffffffffff0219169055600160035f8573ffffffffffffffffffffffffffffffffffffffff1673ffffffffffffffffffffffffffffffffffffffff1681526020019081526020015f205f8282540392505081905550600160035f8473ffffffffffffffffffffffffffffffffffffffff1673ffffffffffffffffffffffffffffffffffffffff1681526020019081526020015f205f82825401925050819055508160025f8381526020019081526020015f205f6101000a81548173ffffffffffffffffffffffffffffffffffffffff021916908373ffffffffffffffffffffffffffffffffffffffff160217905550808273ffffffffffffffffffffffffffffffffffffffff168473ffffffffffffffffffffffffffffffffffffffff167fddf252ad1be2c89b69c2b068fc378daa952ba7f163c4a11628f55a4df523b3ef60405160405180910390a4612b418383836001613296565b505050565b612b50600a61329c565b5f612b5b600a612ec3565b9050612b6783826132b0565b8160185f8381526020019081526020015f20819055505f60195f8481526020019081526020015f206040518060600160405290815f82018054612ba9906149a8565b80601f0160208091040260200160405190810160405280929190818152602001828054612bd5906149a8565b8015612c205780601f10612bf757610100808354040283529160200191612c20565b820191905f5260205f20905b815481529060010190602001808311612c0357829003601f168201915b50505050508152602001600182018054612c39906149a8565b80601f0160208091040260200160405190810160405280929190818152602001828054612c65906149a8565b8015612cb05780601f10612c8757610100808354040283529160200191612cb0565b820191905f5260205f20905b815481529060010190602001808311612c9357829003601f168201915b50505050508152602001600282018054612cc9906149a8565b80601f0160208091040260200160405190810160405280929190818152602001828054612cf5906149a8565b8015612d405780601f10612d1757610100808354040283529160200191612d40565b820191905f5260205f20905b815481529060010190602001808311612d2357829003601f168201915b50505050508152505090508060400151601a5f8481526020019081526020015f209081612d6d91906151a7565b508373ffffffffffffffffffffffffffffffffffffffff167f4cc0a9c4a99ddc700de1af2c9f916a7cbfdb71f14801ccff94061ad1ef8a804083604051612db49190613ca1565b60405180910390a250505050565b5f60025f8381526020019081526020015f205f9054906101000a900473ffffffffffffffffffffffffffffffffffffffff169050919050565b5f81604051602001612e0d9190614c30565b604051602081830303815290604052805190602001209050919050565b5f81604051602001612e3c919061567b565b604051602081830303815290604052805190602001209050919050565b5f805f80612e66856134c3565b9250925092506001868285856040515f8152602001604052604051612e8e94939291906156bb565b6020604051602081039080840390855afa158015612eae573d5f803e3d5ffd5b50505060206040510351935050505092915050565b5f815f01549050919050565b8173ffffffffffffffffffffffffffffffffffffffff168373ffffffffffffffffffffffffffffffffffffffff1603612f3d576040517f08c379a0000000000000000000000000000000000000000000000000000000008152600401612f3490615748565b60405180910390fd5b8060055f8573ffffffffffffffffffffffffffffffffffffffff1673ffffffffffffffffffffffffffffffffffffffff1681526020019081526020015f205f8473ffffffffffffffffffffffffffffffffffffffff1673ffffffffffffffffffffffffffffffffffffffff1681526020019081526020015f205f6101000a81548160ff0219169083151502179055508173ffffffffffffffffffffffffffffffffffffffff168373ffffffffffffffffffffffffffffffffffffffff167f17307eab39ab6107e8899845ad3d59bd9653f200f220920489ca2b5937696c31836040516130299190613ab1565b60405180910390a3505050565b61304184848461285a565b61304d84848484613528565b61308c576040517f08c379a0000000000000000000000000000000000000000000000000000000008152600401613083906157d6565b60405180910390fd5b50505050565b5f7f01ffc9a7000000000000000000000000000000000000000000000000000000007bffffffffffffffffffffffffffffffffffffffffffffffffffffffff1916827bffffffffffffffffffffffffffffffffffffffffffffffffffffffff1916149050919050565b5f8073ffffffffffffffffffffffffffffffffffffffff1661311c83612dc2565b73ffffffffffffffffffffffffffffffffffffffff1614159050919050565b613147848484846136aa565b600181111561318b576040517f08c379a000000000000000000000000000000000000000000000000000000000815260040161318290615864565b60405180910390fd5b5f8290505f73ffffffffffffffffffffffffffffffffffffffff168573ffffffffffffffffffffffffffffffffffffffff16036131d0576131cb816136b0565b61320f565b8373ffffffffffffffffffffffffffffffffffffffff168573ffffffffffffffffffffffffffffffffffffffff161461320e5761320d85826136f4565b5b5b5f73ffffffffffffffffffffffffffffffffffffffff168473ffffffffffffffffffffffffffffffffffffffff16036132505761324b8161384a565b61328f565b8473ffffffffffffffffffffffffffffffffffffffff168473ffffffffffffffffffffffffffffffffffffffff161461328e5761328d848261390a565b5b5b5050505050565b50505050565b6001815f015f828254019250508190555050565b5f73ffffffffffffffffffffffffffffffffffffffff168273ffffffffffffffffffffffffffffffffffffffff160361331e576040517f08c379a0000000000000000000000000000000000000000000000000000000008152600401613315906158cc565b60405180910390fd5b613327816130fb565b15613367576040517f08c379a000000000000000000000000000000000000000000000000000000000815260040161335e90615934565b60405180910390fd5b6133745f8383600161313b565b61337d816130fb565b156133bd576040517f08c379a00000000000000000000000000000000000000000000000000000000081526004016133b490615934565b60405180910390fd5b600160035f8473ffffffffffffffffffffffffffffffffffffffff1673ffffffffffffffffffffffffffffffffffffffff1681526020019081526020015f205f82825401925050819055508160025f8381526020019081526020015f205f6101000a81548173ffffffffffffffffffffffffffffffffffffffff021916908373ffffffffffffffffffffffffffffffffffffffff160217905550808273ffffffffffffffffffffffffffffffffffffffff165f73ffffffffffffffffffffffffffffffffffffffff167fddf252ad1be2c89b69c2b068fc378daa952ba7f163c4a11628f55a4df523b3ef60405160405180910390a46134bf5f83836001613296565b5050565b5f805f604184511461350a576040517f08c379a00000000000000000000000000000000000000000000000000000000081526004016135019061599c565b60405180910390fd5b602084015192506040840151915060608401515f1a90509193909250565b5f6135488473ffffffffffffffffffffffffffffffffffffffff16613982565b1561369d578373ffffffffffffffffffffffffffffffffffffffff1663150b7a02613571612709565b8786866040518563ffffffff1660e01b815260040161359394939291906159ba565b6020604051808303815f875af19250505080156135ce57506040513d601f19601f820116820180604052508101906135cb9190615a18565b60015b61364d573d805f81146135fc576040519150601f19603f3d011682016040523d82523d5f602084013e613601565b606091505b505f815103613645576040517f08c379a000000000000000000000000000000000000000000000000000000000815260040161363c906157d6565b60405180910390fd5b805181602001fd5b63150b7a0260e01b7bffffffffffffffffffffffffffffffffffffffffffffffffffffffff1916817bffffffffffffffffffffffffffffffffffffffffffffffffffffffff1916149150506136a2565b600190505b949350505050565b50505050565b60088054905060095f8381526020019081526020015f2081905550600881908060018154018082558091505060019003905f5260205f20015f909190919091505550565b5f600161370084611658565b61370a9190614dfe565b90505f60075f8481526020019081526020015f205490508181146137e1575f60065f8673ffffffffffffffffffffffffffffffffffffffff1673ffffffffffffffffffffffffffffffffffffffff1681526020019081526020015f205f8481526020019081526020015f205490508060065f8773ffffffffffffffffffffffffffffffffffffffff1673ffffffffffffffffffffffffffffffffffffffff1681526020019081526020015f205f8481526020019081526020015f20819055508160075f8381526020019081526020015f2081905550505b60075f8481526020019081526020015f205f905560065f8573ffffffffffffffffffffffffffffffffffffffff1673ffffffffffffffffffffffffffffffffffffffff1681526020019081526020015f205f8381526020019081526020015f205f905550505050565b5f600160088054905061385d9190614dfe565b90505f60095f8481526020019081526020015f205490505f6008838154811061388957613888614f27565b5b905f5260205f200154905080600883815481106138a9576138a8614f27565b5b905f5260205f2001819055508160095f8381526020019081526020015f208190555060095f8581526020019081526020015f205f905560088054806138f1576138f0615a43565b5b600190038181905f5260205f20015f9055905550505050565b5f61391483611658565b90508160065f8573ffffffffffffffffffffffffffffffffffffffff1673ffffffffffffffffffffffffffffffffffffffff1681526020019081526020015f205f8381526020019081526020015f20819055508060075f8481526020019081526020015f2081905550505050565b5f808273ffffffffffffffffffffffffffffffffffffffff163b119050919050565b60405180608001604052805f73ffffffffffffffffffffffffffffffffffffffff1681526020015f81526020015f81526020016139df6139e5565b81525090565b60405180606001604052806060815260200160608152602001606081525090565b5f604051905090565b5f80fd5b5f80fd5b5f7fffffffff0000000000000000000000000000000000000000000000000000000082169050919050565b613a4b81613a17565b8114613a55575f80fd5b50565b5f81359050613a6681613a42565b92915050565b5f60208284031215613a8157613a80613a0f565b5b5f613a8e84828501613a58565b91505092915050565b5f8115159050919050565b613aab81613a97565b82525050565b5f602082019050613ac45f830184613aa2565b92915050565b5f81519050919050565b5f82825260208201905092915050565b5f5b83811015613b01578082015181840152602081019050613ae6565b5f8484015250505050565b5f601f19601f8301169050919050565b5f613b2682613aca565b613b308185613ad4565b9350613b40818560208601613ae4565b613b4981613b0c565b840191505092915050565b5f6020820190508181035f830152613b6c8184613b1c565b905092915050565b5f819050919050565b613b8681613b74565b8114613b90575f80fd5b50565b5f81359050613ba181613b7d565b92915050565b5f60208284031215613bbc57613bbb613a0f565b5b5f613bc984828501613b93565b91505092915050565b5f73ffffffffffffffffffffffffffffffffffffffff82169050919050565b5f613bfb82613bd2565b9050919050565b613c0b81613bf1565b82525050565b5f602082019050613c245f830184613c02565b92915050565b613c3381613bf1565b8114613c3d575f80fd5b50565b5f81359050613c4e81613c2a565b92915050565b5f8060408385031215613c6a57613c69613a0f565b5b5f613c7785828601613c40565b9250506020613c8885828601613b93565b9150509250929050565b613c9b81613b74565b82525050565b5f602082019050613cb45f830184613c92565b92915050565b5f805f60608486031215613cd157613cd0613a0f565b5b5f613cde86828701613c40565b9350506020613cef86828701613c40565b9250506040613d0086828701613b93565b9150509250925092565b5f819050919050565b613d1c81613d0a565b8114613d26575f80fd5b50565b5f81359050613d3781613d13565b92915050565b5f8060408385031215613d5357613d52613a0f565b5b5f613d6085828601613c40565b9250506020613d7185828601613d29565b9150509250929050565b5f80fd5b5f80fd5b5f80fd5b5f8083601f840112613d9c57613d9b613d7b565b5b8235905067ffffffffffffffff811115613db957613db8613d7f565b5b602083019150836001820283011115613dd557613dd4613d83565b5b9250929050565b5f8060208385031215613df257613df1613a0f565b5b5f83013567ffffffffffffffff811115613e0f57613e0e613a13565b5b613e1b85828601613d87565b92509250509250929050565b5f613e3182613bd2565b9050919050565b613e4181613e27565b82525050565b5f602082019050613e5a5f830184613e38565b92915050565b5f8060408385031215613e7657613e75613a0f565b5b5f613e8385828601613b93565b9250506020613e9485828601613b93565b9150509250929050565b5f8083601f840112613eb357613eb2613d7b565b5b8235905067ffffffffffffffff811115613ed057613ecf613d7f565b5b602083019150836001820283011115613eec57613eeb613d83565b5b9250929050565b5f8060208385031215613f0957613f08613a0f565b5b5f83013567ffffffffffffffff811115613f2657613f25613a13565b5b613f3285828601613e9e565b92509250509250929050565b7f4e487b71000000000000000000000000000000000000000000000000000000005f52604160045260245ffd5b613f7482613b0c565b810181811067ffffffffffffffff82111715613f9357613f92613f3e565b5b80604052505050565b5f613fa5613a06565b9050613fb18282613f6b565b919050565b5f67ffffffffffffffff821115613fd057613fcf613f3e565b5b602082029050602081019050919050565b5f613ff3613fee84613fb6565b613f9c565b9050808382526020820190506020840283018581111561401657614015613d83565b5b835b8181101561403f578061402b8882613b93565b845260208401935050602081019050614018565b5050509392505050565b5f82601f83011261405d5761405c613d7b565b5b813561406d848260208601613fe1565b91505092915050565b5f67ffffffffffffffff8211156140905761408f613f3e565b5b602082029050602081019050919050565b5f80fd5b5f67ffffffffffffffff8211156140bf576140be613f3e565b5b6140c882613b0c565b9050602081019050919050565b828183375f83830152505050565b5f6140f56140f0846140a5565b613f9c565b905082815260208101848484011115614111576141106140a1565b5b61411c8482856140d5565b509392505050565b5f82601f83011261413857614137613d7b565b5b81356141488482602086016140e3565b91505092915050565b5f61416361415e84614076565b613f9c565b9050808382526020820190506020840283018581111561418657614185613d83565b5b835b818110156141cd57803567ffffffffffffffff8111156141ab576141aa613d7b565b5b8086016141b88982614124565b85526020850194505050602081019050614188565b5050509392505050565b5f82601f8301126141eb576141ea613d7b565b5b81356141fb848260208601614151565b91505092915050565b5f805f806080858703121561421c5761421b613a0f565b5b5f85013567ffffffffffffffff81111561423957614238613a13565b5b61424587828801614049565b945050602085013567ffffffffffffffff81111561426657614265613a13565b5b614272878288016141d7565b935050604085013567ffffffffffffffff81111561429357614292613a13565b5b61429f878288016141d7565b925050606085013567ffffffffffffffff8111156142c0576142bf613a13565b5b6142cc878288016141d7565b91505092959194509250565b5f80604083850312156142ee576142ed613a0f565b5b5f83013567ffffffffffffffff81111561430b5761430a613a13565b5b61431785828601614049565b925050602083013567ffffffffffffffff81111561433857614337613a13565b5b61434485828601614049565b9150509250929050565b61435781613d0a565b82525050565b5f6020820190506143705f83018461434e565b92915050565b5f81519050919050565b5f82825260208201905092915050565b5f61439a82614376565b6143a48185614380565b93506143b4818560208601613ae4565b6143bd81613b0c565b840191505092915050565b5f6040820190506143db5f830185613aa2565b81810360208301526143ed8184614390565b90509392505050565b5f6020828403121561440b5761440a613a0f565b5b5f61441884828501613c40565b91505092915050565b5f67ffffffffffffffff82111561443b5761443a613f3e565b5b61444482613b0c565b9050602081019050919050565b5f61446361445e84614421565b613f9c565b90508281526020810184848401111561447f5761447e6140a1565b5b61448a8482856140d5565b509392505050565b5f82601f8301126144a6576144a5613d7b565b5b81356144b6848260208601614451565b91505092915050565b5f80604083850312156144d5576144d4613a0f565b5b5f6144e285828601613d29565b925050602083013567ffffffffffffffff81111561450357614502613a13565b5b61450f85828601614492565b9150509250929050565b5f81519050919050565b5f82825260208201905092915050565b5f819050602082019050919050565b61454b81613bf1565b82525050565b61455a81613b74565b82525050565b5f82825260208201905092915050565b5f61457a82613aca565b6145848185614560565b9350614594818560208601613ae4565b61459d81613b0c565b840191505092915050565b5f606083015f8301518482035f8601526145c28282614570565b915050602083015184820360208601526145dc8282614570565b915050604083015184820360408601526145f68282614570565b9150508091505092915050565b5f608083015f8301516146185f860182614542565b50602083015161462b6020860182614551565b50604083015161463e6040860182614551565b506060830151848203606086015261465682826145a8565b9150508091505092915050565b5f61466e8383614603565b905092915050565b5f602082019050919050565b5f61468c82614519565b6146968185614523565b9350836020820285016146a885614533565b805f5b858110156146e357848403895281516146c48582614663565b94506146cf83614676565b925060208a019950506001810190506146ab565b50829750879550505050505092915050565b5f6020820190508181035f83015261470d8184614682565b905092915050565b5f6060820190508181035f83015261472d8186613b1c565b905081810360208301526147418185613b1c565b905081810360408301526147558184613b1c565b9050949350505050565b61476881613a97565b8114614772575f80fd5b50565b5f813590506147838161475f565b92915050565b5f806040838503121561479f5761479e613a0f565b5b5f6147ac85828601613c40565b92505060206147bd85828601614775565b9150509250929050565b5f805f80608085870312156147df576147de613a0f565b5b5f6147ec87828801613c40565b94505060206147fd87828801613c40565b935050604061480e87828801613b93565b925050606085013567ffffffffffffffff81111561482f5761482e613a13565b5b61483b87828801614492565b91505092959194509250565b5f805f806080858703121561485f5761485e613a0f565b5b5f61486c87828801613b93565b945050602085013567ffffffffffffffff81111561488d5761488c613a13565b5b61489987828801614124565b935050604085013567ffffffffffffffff8111156148ba576148b9613a13565b5b6148c687828801614124565b925050606085013567ffffffffffffffff8111156148e7576148e6613a13565b5b6148f387828801614124565b91505092959194509250565b5f806040838503121561491557614914613a0f565b5b5f61492285828601613d29565b925050602061493385828601613d29565b9150509250929050565b5f806040838503121561495357614952613a0f565b5b5f61496085828601613c40565b925050602061497185828601613c40565b9150509250929050565b7f4e487b71000000000000000000000000000000000000000000000000000000005f52602260045260245ffd5b5f60028204905060018216806149bf57607f821691505b6020821081036149d2576149d161497b565b5b50919050565b7f4552433732313a20617070726f76616c20746f2063757272656e74206f776e655f8201527f7200000000000000000000000000000000000000000000000000000000000000602082015250565b5f614a32602183613ad4565b9150614a3d826149d8565b604082019050919050565b5f6020820190508181035f830152614a5f81614a26565b9050919050565b7f4552433732313a20617070726f76652063616c6c6572206973206e6f7420746f5f8201527f6b656e206f776e6572206f7220617070726f76656420666f7220616c6c000000602082015250565b5f614ac0603d83613ad4565b9150614acb82614a66565b604082019050919050565b5f6020820190508181035f830152614aed81614ab4565b9050919050565b7f4552433732313a2063616c6c6572206973206e6f7420746f6b656e206f776e655f8201527f72206f7220617070726f76656400000000000000000000000000000000000000602082015250565b5f614b4e602d83613ad4565b9150614b5982614af4565b604082019050919050565b5f6020820190508181035f830152614b7b81614b42565b9050919050565b7f455243373231456e756d657261626c653a206f776e657220696e646578206f755f8201527f74206f6620626f756e6473000000000000000000000000000000000000000000602082015250565b5f614bdc602b83613ad4565b9150614be782614b82565b604082019050919050565b5f6020820190508181035f830152614c0981614bd0565b9050919050565b5f819050919050565b614c2a614c2582613d0a565b614c10565b82525050565b5f614c3b8284614c19565b60208201915081905092915050565b7f4e487b71000000000000000000000000000000000000000000000000000000005f52601260045260245ffd5b5f614c8182613b74565b9150614c8c83613b74565b925082614c9c57614c9b614c4a565b5b828206905092915050565b7f4e487b71000000000000000000000000000000000000000000000000000000005f52601160045260245ffd5b5f614cde82613b74565b9150614ce983613b74565b9250828201905080821115614d0157614d00614ca7565b5b92915050565b5f604082019050614d1a5f83018561434e565b614d276020830184613c92565b9392505050565b7f496e76616c6964206c75636b79206e756d6265720000000000000000000000005f82015250565b5f614d62601483613ad4565b9150614d6d82614d2e565b602082019050919050565b5f6020820190508181035f830152614d8f81614d56565b9050919050565b7f4f6e6c79206f776e65722063616e20636f6d6d697400000000000000000000005f82015250565b5f614dca601583613ad4565b9150614dd582614d96565b602082019050919050565b5f6020820190508181035f830152614df781614dbe565b9050919050565b5f614e0882613b74565b9150614e1383613b74565b9250828203905081811115614e2b57614e2a614ca7565b5b92915050565b7f546f74616c2070726f626162696c6974792065786365656473203130302500005f82015250565b5f614e65601e83613ad4565b9150614e7082614e31565b602082019050919050565b5f6020820190508181035f830152614e9281614e59565b9050919050565b7f455243373231456e756d657261626c653a20676c6f62616c20696e646578206f5f8201527f7574206f6620626f756e64730000000000000000000000000000000000000000602082015250565b5f614ef3602c83613ad4565b9150614efe82614e99565b604082019050919050565b5f6020820190508181035f830152614f2081614ee7565b9050919050565b7f4e487b71000000000000000000000000000000000000000000000000000000005f52603260045260245ffd5b5f614f5f8385613ad4565b9350614f6c8385846140d5565b614f7583613b0c565b840190509392505050565b5f6020820190508181035f830152614f99818486614f54565b90509392505050565b7f4172726179206c656e67746873206d69736d61746368000000000000000000005f82015250565b5f614fd6601683613ad4565b9150614fe182614fa2565b602082019050919050565b5f6020820190508181035f83015261500381614fca565b9050919050565b5f819050815f5260205f209050919050565b5f6020601f8301049050919050565b5f82821b905092915050565b5f600883026150667fffffffffffffffffffffffffffffffffffffffffffffffffffffffffffffffff8261502b565b615070868361502b565b95508019841693508086168417925050509392505050565b5f819050919050565b5f6150ab6150a66150a184613b74565b615088565b613b74565b9050919050565b5f819050919050565b6150c483615091565b6150d86150d0826150b2565b848454615037565b825550505050565b5f90565b6150ec6150e0565b6150f78184846150bb565b505050565b5b8181101561511a5761510f5f826150e4565b6001810190506150fd565b5050565b601f82111561515f576151308161500a565b6151398461501c565b81016020851015615148578190505b61515c6151548561501c565b8301826150fc565b50505b505050565b5f82821c905092915050565b5f61517f5f1984600802615164565b1980831691505092915050565b5f6151978383615170565b9150826002028217905092915050565b6151b082613aca565b67ffffffffffffffff8111156151c9576151c8613f3e565b5b6151d382546149a8565b6151de82828561511e565b5f60209050601f83116001811461520f575f84156151fd578287015190505b615207858261518c565b86555061526e565b601f19841661521d8661500a565b5f5b828110156152445784890151825560018201915060208501945060208101905061521f565b86831015615261578489015161525d601f891682615170565b8355505b6001600288020188555050505b505050505050565b7f4552433732313a20696e76616c696420746f6b656e20494400000000000000005f82015250565b5f6152aa601883613ad4565b91506152b582615276565b602082019050919050565b5f6020820190508181035f8301526152d78161529e565b9050919050565b7f546f74616c2070726f626162696c697479206d757374206265203130302500005f82015250565b5f615312601e83613ad4565b915061531d826152de565b602082019050919050565b5f6020820190508181035f83015261533f81615306565b9050919050565b7f4552433732313a2061646472657373207a65726f206973206e6f7420612076615f8201527f6c6964206f776e65720000000000000000000000000000000000000000000000602082015250565b5f6153a0602983613ad4565b91506153ab82615346565b604082019050919050565b5f6020820190508181035f8301526153cd81615394565b9050919050565b5f6153df8285614c19565b6020820191506153ef8284614c19565b6020820191508190509392505050565b7f496e76616c6964207365727665722073656564000000000000000000000000005f82015250565b5f615433601383613ad4565b915061543e826153ff565b602082019050919050565b5f6020820190508181035f83015261546081615427565b9050919050565b7f496e76616c6964207369676e61747572650000000000000000000000000000005f82015250565b5f61549b601183613ad4565b91506154a682615467565b602082019050919050565b5f6020820190508181035f8301526154c88161548f565b9050919050565b5f6154da8286614c19565b6020820191506154ea8285614c19565b6020820191506154fa8284614c19565b602082019150819050949350505050565b7f4552433732313a207472616e736665722066726f6d20696e636f7272656374205f8201527f6f776e6572000000000000000000000000000000000000000000000000000000602082015250565b5f615565602583613ad4565b91506155708261550b565b604082019050919050565b5f6020820190508181035f83015261559281615559565b9050919050565b7f4552433732313a207472616e7366657220746f20746865207a65726f206164645f8201527f7265737300000000000000000000000000000000000000000000000000000000602082015250565b5f6155f3602483613ad4565b91506155fe82615599565b604082019050919050565b5f6020820190508181035f830152615620816155e7565b9050919050565b5f81905092915050565b7f19457468657265756d205369676e6564204d6573736167653a0a3332000000005f82015250565b5f615665601c83615627565b915061567082615631565b601c82019050919050565b5f61568582615659565b91506156918284614c19565b60208201915081905092915050565b5f60ff82169050919050565b6156b5816156a0565b82525050565b5f6080820190506156ce5f83018761434e565b6156db60208301866156ac565b6156e8604083018561434e565b6156f5606083018461434e565b95945050505050565b7f4552433732313a20617070726f766520746f2063616c6c6572000000000000005f82015250565b5f615732601983613ad4565b915061573d826156fe565b602082019050919050565b5f6020820190508181035f83015261575f81615726565b9050919050565b7f4552433732313a207472616e7366657220746f206e6f6e2045524337323152655f8201527f63656976657220696d706c656d656e7465720000000000000000000000000000602082015250565b5f6157c0603283613ad4565b91506157cb82615766565b604082019050919050565b5f6020820190508181035f8301526157ed816157b4565b9050919050565b7f455243373231456e756d657261626c653a20636f6e73656375746976652074725f8201527f616e7366657273206e6f7420737570706f727465640000000000000000000000602082015250565b5f61584e603583613ad4565b9150615859826157f4565b604082019050919050565b5f6020820190508181035f83015261587b81615842565b9050919050565b7f4552433732313a206d696e7420746f20746865207a65726f20616464726573735f82015250565b5f6158b6602083613ad4565b91506158c182615882565b602082019050919050565b5f6020820190508181035f8301526158e3816158aa565b9050919050565b7f4552433732313a20746f6b656e20616c7265616479206d696e746564000000005f82015250565b5f61591e601c83613ad4565b9150615929826158ea565b602082019050919050565b5f6020820190508181035f83015261594b81615912565b9050919050565b7f696e76616c6964207369676e6174757265206c656e67746800000000000000005f82015250565b5f615986601883613ad4565b915061599182615952565b602082019050919050565b5f6020820190508181035f8301526159b38161597a565b9050919050565b5f6080820190506159cd5f830187613c02565b6159da6020830186613c02565b6159e76040830185613c92565b81810360608301526159f98184614390565b905095945050505050565b5f81519050615a1281613a42565b92915050565b5f60208284031215615a2d57615a2c613a0f565b5b5f615a3a84828501615a04565b91505092915050565b7f4e487b71000000000000000000000000000000000000000000000000000000005f52603160045260245ffdfea2646970667358221220da2eedfadda16cb8c367dda911b9f3b0a6a050b229fd5da50c7d730fc8c7f23064736f6c63430008170033",
  "immutableReferences": {},
  "source": "// SPDX-License-Identifier: MIT\r\n\r\npragma solidity >=0.4.22 <0.9.0;\r\n\r\nimport \"@openzeppelin/contracts/utils/cryptography/ECDSA.sol\";\r\nimport \"@openzeppelin/contracts/token/ERC721/extensions/ERC721Enumerable.sol\";\r\nimport \"@openzeppelin/contracts/utils/Counters.sol\";\r\nimport \"@chainlink/contracts/src/v0.8/automation/AutomationCompatible.sol\";\r\n\r\n//truffle compile\r\n//truffle migrate --network sepolia\r\n//truffle migrate --network sepolia --reset\r\n// \r\nstruct TokenInfo {\r\n    address owner;\r\n    uint256 tokenId;\r\n    uint256 luckyNumber;\r\n    Prize prize;\r\n}\r\n\r\nstruct Prize {\r\n    string name;\r\n    string description;\r\n    string imageURL; // URI (: IPFS)\r\n}\r\n\r\ncontract GachaNFTProb is ERC721Enumerable,AutomationCompatibleInterface {\r\n    using ECDSA for bytes32;\r\n    using Counters for Counters.Counter;\r\n\r\n    Counters.Counter private _tokenIdCounter;  // Token ID counter for NFTs\r\n  \r\n//0xdB246570d317400612c3782F0a208c6c51Ae5b22\r\n//truffle migrate --network sepolia --reset\r\n    address payable public owner;\r\n    address payable public player;\r\n    uint256 public maxParticipants;\r\n    bytes32 public serverSeedHash;  // Server seed hash for commitment\r\n    bytes32 public serverSeed;      // Server seed to be revealed later\r\n    bytes32 public userSeed;\r\n    uint256 public luckyNumber;\r\n    bool public isRevealed;\r\n    bytes32 public salt;  // : \r\n    uint256 public revealDeadline;\r\n    uint256 public totalProbability = 0; // \r\n    uint256 public constant MAX_LUCKY_NUMBERS = 10; // \r\n\r\n    mapping(uint256 => uint256) public prizeProbabilities; // \r\n\r\n\r\n\r\n    // Store used userSeed\r\n    mapping(address => mapping(bytes32 => bool)) public usedUserSeeds;\r\n    mapping(uint256 => uint256) private tokenLuckyNumbers;   \r\n    // \r\n    mapping(uint256 => Prize) public prizeMapping;\r\n    mapping(uint256 => string) private _tokenURIs;\r\n    mapping(uint256 => uint256) private luckyNumberCounts;\r\n\r\n\r\n\r\n    // Events\r\n    event Participation(address indexed player, bytes32 userSeed);\r\n    event Commitment(bytes32 indexed serverSeedHash);\r\n    event Reveal(bytes32 serverSeed, uint256 luckyNumber);\r\n    event CommitRequested(address indexed user);\r\n    event DebugLogEvent(string);  \r\n    event NFTMinted(address indexed owner, uint256 tokenId);\r\n  event RequestCommit(address indexed requester, string requestId);\r\n\r\n  \r\n\r\n\r\nconstructor(uint256 _maxParticipants) ERC721(\"TokenName\", \"TokenSymbol\") public {\r\n    owner = payable(msg.sender);\r\n    maxParticipants = _maxParticipants;\r\n}\r\n\r\n// \r\n    function setPrize(uint256 luckyNumber, string memory name, string memory description, string memory imageURL) public {\r\n        // \r\n        Prize memory newPrize = Prize({\r\n            name: name,\r\n            description: description,\r\n            imageURL: imageURL\r\n        });\r\n\r\n        prizeMapping[luckyNumber] = newPrize;\r\n    }\r\n\r\n    // \r\n    function getPrize(uint256 luckyNumber) public view returns (string memory name, string memory description, string memory imageURL) {\r\n        Prize memory prize = prizeMapping[luckyNumber];\r\n        return (prize.name, prize.description, prize.imageURL);\r\n    }\r\n    function requestCommit(string calldata requestId) public {\r\n        // \r\n        emit RequestCommit(msg.sender, requestId);\r\n    }\r\n    // Owner commits a hashed server seed\r\n    function commit(bytes32 _serverSeedHash, bytes32 _salt) public {\r\n        require(msg.sender == owner, \"Only owner can commit\");\r\n        serverSeedHash = _serverSeedHash;\r\n        salt = _salt;\r\n        revealDeadline = block.timestamp + 1 minutes; // 1\r\n\r\n        emit Commitment(serverSeedHash);  // Emit Commitment event\r\n    }\r\n\r\n\r\n//  function participate(bytes32 _userSeed) public payable {\r\n//         userSeed = _userSeed;\r\n//         player = payable(msg.sender);\r\n//         usedUserSeeds[msg.sender][_userSeed] = true;\r\n//         emit Participation(player, userSeed);  \r\n//         emit CommitRequested(msg.sender);\r\n//     }\r\n function participate(bytes32 _userSeed, bytes memory _signature) public payable {\r\n    // 1. \r\n    bytes32 messageHash = getMessageHash(_userSeed);\r\n//    bytes32 message = keccak256(abi.encodePacked(msg.sender, _userSeed));\r\n    bytes32 ethSignedMessageHash = getEthSignedMessageHash(messageHash);\r\n    address recoveredAddress = recoverSigner(ethSignedMessageHash, _signature);\r\n\r\n    // 2. \r\n   // address recovered = recoverSigner(ethSignedMessageHash, _signature);\r\n\r\n    // 3. \r\n    require(recoveredAddress == msg.sender, \"Invalid signature\");       \r\n    userSeed = _userSeed;\r\n    player = payable(msg.sender);\r\n    usedUserSeeds[msg.sender][_userSeed] = true;\r\n    emit Participation(player, userSeed);  \r\n    emit CommitRequested(msg.sender);\r\n}\r\n\r\n\r\nevent RecoveredAddress(address indexed recovered);\r\nevent LogMessageHash(bytes32 indexed messageHash);\r\n   function getMessageHash(bytes32 _message) internal pure returns (bytes32) {\r\n        return keccak256(abi.encodePacked(_message));\r\n    }\r\n\r\n    function getEthSignedMessageHash(bytes32 _messageHash) internal pure returns (bytes32) {\r\n        return keccak256(abi.encodePacked(\"\\x19Ethereum Signed Message:\\n32\", _messageHash));\r\n    }\r\n\r\n    function recoverSigner(bytes32 _ethSignedMessageHash, bytes memory _signature) internal pure returns (address) {\r\n        (bytes32 r, bytes32 s, uint8 v) = splitSignature(_signature);\r\n        return ecrecover(_ethSignedMessageHash, v, r, s);\r\n    }\r\n\r\n    function splitSignature(bytes memory _signature) internal pure returns (bytes32 r, bytes32 s, uint8 v) {\r\n        require(_signature.length == 65, \"invalid signature length\");\r\n        assembly {\r\n            r := mload(add(_signature, 32))\r\n            s := mload(add(_signature, 64))\r\n            v := byte(0, mload(add(_signature, 96)))\r\n        }\r\n    }\r\n\r\n    function reveal(bytes32 _serverSeed, bytes memory signature) public {\r\n        require(serverSeedHash == keccak256(abi.encodePacked(_serverSeed, salt)), \"Invalid server seed\");\r\n        serverSeed = _serverSeed;\r\n\r\n        bytes32 messageHash = getMessageHash(_serverSeed);\r\n        bytes32 ethSignedMessageHash = getEthSignedMessageHash(messageHash);\r\n        address recoveredAddress = recoverSigner(ethSignedMessageHash, signature);\r\n\r\n        emit LogMessageHash(messageHash);\r\n        emit RecoveredAddress(recoveredAddress);\r\n\r\n        require(recoveredAddress == owner, \"Invalid signature\");\r\n        \r\n        bytes32 finalHash = keccak256(abi.encodePacked(serverSeed, userSeed, salt));\r\n        luckyNumber = uint256(finalHash) % 10;\r\n        luckyNumberCounts[luckyNumber] = luckyNumberCounts[luckyNumber] + 1;\r\n\r\n        emit Reveal(serverSeed, luckyNumber);\r\n         // mint NFT after the luckyNumber has been determined\r\n        mintNFT(player, luckyNumber);\r\n        \r\n    }\r\n // MintURI\r\nfunction mintNFT(address recipient, uint256 _luckyNumber) internal {\r\n    _tokenIdCounter.increment();\r\n    uint256 newTokenId = _tokenIdCounter.current();\r\n    _mint(recipient, newTokenId);\r\n    \r\n    tokenLuckyNumbers[newTokenId] = _luckyNumber;\r\n\r\n    // tokenURI\r\n    Prize memory prize = prizeMapping[_luckyNumber];\r\n    _tokenURIs[newTokenId] = prize.imageURL;\r\n        emit NFTMinted(recipient, newTokenId);\r\n\r\n}\r\n\r\n// IDURI\r\nfunction tokenURI(uint256 tokenId) public view override returns (string memory) {\r\n    return _tokenURIs[tokenId];\r\n}\r\nfunction getLuckyNumberForToken(uint256 tokenId) public view returns (uint256) {\r\n    return tokenLuckyNumbers[tokenId];\r\n}\r\n\r\nfunction setPrizesBulk(\r\n    uint256[] memory luckyNumbers, \r\n    string[] memory names, \r\n    string[] memory descriptions, \r\n    string[] memory imageURLs\r\n) public {\r\n    require(\r\n        luckyNumbers.length == names.length && \r\n        names.length == descriptions.length && \r\n        descriptions.length == imageURLs.length, \r\n        \"Array lengths mismatch\"\r\n    );\r\n\r\n    for (uint i = 0; i < luckyNumbers.length; i++) {\r\n        Prize memory newPrize = Prize({\r\n            name: names[i],\r\n            description: descriptions[i],\r\n            imageURL: imageURLs[i]\r\n        });\r\n\r\n        prizeMapping[luckyNumbers[i]] = newPrize;\r\n    }\r\n}\r\n function getAllTokensInfo() public view returns (TokenInfo[] memory) {\r\n        uint256 totalTokens = _tokenIdCounter.current();\r\n        TokenInfo[] memory tokens = new TokenInfo[](totalTokens);\r\n\r\n        for (uint256 i = 0; i < totalTokens; i++) {\r\n            uint256 tokenId = i + 1;  // ID1\r\n            address tokenOwner = ownerOf(tokenId);\r\n            uint256 luckyNumber = getLuckyNumberForToken(tokenId);\r\n            Prize memory prize = prizeMapping[luckyNumber];\r\n            tokens[i] = TokenInfo(tokenOwner, tokenId, luckyNumber, prize);\r\n        }\r\n        return tokens;\r\n    }\r\n\r\nfunction getLuckyNumberCount(uint256 _luckyNumber) public view returns (uint256) {\r\n    return luckyNumberCounts[_luckyNumber];\r\n}\r\n\r\n\r\n // Chainlink Automation Network\r\n    function checkUpkeep(bytes calldata /* checkData */) external override returns (bool upkeepNeeded, bytes memory /* performData */) {\r\n        // \r\n        // : revealDeadline\r\n        upkeepNeeded = (revealDeadline < block.timestamp) ;\r\n        return (upkeepNeeded, bytes(\"\"));\r\n    }\r\n\r\n    function performUpkeep(bytes calldata /* performData */) external override {\r\n        // checkUpkeeptrue\r\n   //     if (revealDeadline < block.timestamp) {\r\n              // \r\n    //uint256 luckyNumber = uint256(keccak256(abi.encodePacked(userSeed))) % 10;\r\n       bytes32 finalHash = keccak256(abi.encodePacked(userSeed));\r\n       luckyNumber = uint256(finalHash) % 10;\r\n       luckyNumberCounts[luckyNumber] = luckyNumberCounts[luckyNumber] + 1;\r\n\r\n\r\n    // NFT\r\n        mintNFT(player, luckyNumber);\r\n        emit Reveal(userSeed, luckyNumber);\r\n    }\r\n\r\nfunction setPrizeProbability(uint256 luckyNumber, uint256 probability) public {\r\n    require(luckyNumber < MAX_LUCKY_NUMBERS, \"Invalid lucky number\");\r\n        require(msg.sender == owner, \"Only owner can commit\");\r\n\r\n    // Adjust total probability\r\n    totalProbability -= prizeProbabilities[luckyNumber];\r\n    prizeProbabilities[luckyNumber] = probability;\r\n    totalProbability += probability;\r\n\r\n    require(totalProbability <= 10000, \"Total probability exceeds 100%\");\r\n}\r\n\r\n\r\nfunction setPrizeProbabilitiesBulk(\r\n    uint256[] memory luckyNumbers, \r\n    uint256[] memory probabilities\r\n) public  {\r\n    require(luckyNumbers.length == probabilities.length, \"Array lengths mismatch\");\r\n    require(msg.sender == owner, \"Only owner can commit\");\r\n\r\n    uint256 newTotalProbability = 0;\r\n    for (uint256 i = 0; i < luckyNumbers.length; i++) {\r\n        require(luckyNumbers[i] < MAX_LUCKY_NUMBERS, \"Invalid lucky number\");\r\n        newTotalProbability += probabilities[i];\r\n    }\r\n\r\n    require(newTotalProbability == 10000, \"Total probability must be 100%\");\r\n\r\n    for (uint256 i = 0; i < luckyNumbers.length; i++) {\r\n        prizeProbabilities[luckyNumbers[i]] = probabilities[i];\r\n    }\r\n\r\n    totalProbability = newTotalProbability;\r\n}\r\n\r\n\r\nfunction generateLuckyNumber() internal view returns (uint256) {\r\n    uint256 random = uint256(keccak256(abi.encodePacked(block.timestamp, msg.sender))) % totalProbability;\r\n    uint256 cumulativeProbability = 0;\r\n\r\n    for (uint256 i = 0; i < MAX_LUCKY_NUMBERS; i++) {\r\n        cumulativeProbability += prizeProbabilities[i];\r\n        if (random < cumulativeProbability) {\r\n            return i;\r\n        }\r\n    }\r\n\r\n    return MAX_LUCKY_NUMBERS - 1;\r\n}\r\n\r\n\r\n\r\n}\r\n",
  "sourcePath": "C:\\src\\truffle0\\contracts\\GachaNFTProb.sol",
  "compiler": {
    "name": "solc",
    "version": "0.8.23+commit.f704f362.Emscripten.clang"
  },
  "schemaVersion": "3.4.16",
  "updatedAt": "2024-01-02T11:58:37.834Z",
  "networkType": "ethereum",
  "devdoc": {
    "events": {
      "Approval(address,address,uint256)": {
        "details": "Emitted when `owner` enables `approved` to manage the `tokenId` token."
      },
      "ApprovalForAll(address,address,bool)": {
        "details": "Emitted when `owner` enables or disables (`approved`) `operator` to manage all of its assets."
      },
      "Transfer(address,address,uint256)": {
        "details": "Emitted when `tokenId` token is transferred from `from` to `to`."
      }
    },
    "kind": "dev",
    "methods": {
      "approve(address,uint256)": {
        "details": "See {IERC721-approve}."
      },
      "balanceOf(address)": {
        "details": "See {IERC721-balanceOf}."
      },
      "getApproved(uint256)": {
        "details": "See {IERC721-getApproved}."
      },
      "isApprovedForAll(address,address)": {
        "details": "See {IERC721-isApprovedForAll}."
      },
      "name()": {
        "details": "See {IERC721Metadata-name}."
      },
      "ownerOf(uint256)": {
        "details": "See {IERC721-ownerOf}."
      },
      "safeTransferFrom(address,address,uint256)": {
        "details": "See {IERC721-safeTransferFrom}."
      },
      "safeTransferFrom(address,address,uint256,bytes)": {
        "details": "See {IERC721-safeTransferFrom}."
      },
      "setApprovalForAll(address,bool)": {
        "details": "See {IERC721-setApprovalForAll}."
      },
      "supportsInterface(bytes4)": {
        "details": "See {IERC165-supportsInterface}."
      },
      "symbol()": {
        "details": "See {IERC721Metadata-symbol}."
      },
      "tokenByIndex(uint256)": {
        "details": "See {IERC721Enumerable-tokenByIndex}."
      },
      "tokenOfOwnerByIndex(address,uint256)": {
        "details": "See {IERC721Enumerable-tokenOfOwnerByIndex}."
      },
      "tokenURI(uint256)": {
        "details": "See {IERC721Metadata-tokenURI}."
      },
      "totalSupply()": {
        "details": "See {IERC721Enumerable-totalSupply}."
      },
      "transferFrom(address,address,uint256)": {
        "details": "See {IERC721-transferFrom}."
      }
    },
    "version": 1
  },
  "userdoc": {
    "kind": "user",
    "methods": {},
    "version": 1
  }
}