{
  "contractName": "MultiNFTMerkle",
  "abi": [
    {
      "inputs": [
        {
          "internalType": "bytes32",
          "name": "_merkleRoot",
          "type": "bytes32"
        }
      ],
      "stateMutability": "nonpayable",
      "type": "constructor"
    },
    {
      "anonymous": false,
      "inputs": [
        {
          "indexed": true,
          "internalType": "address",
          "name": "account",
          "type": "address"
        },
        {
          "indexed": true,
          "internalType": "address",
          "name": "operator",
          "type": "address"
        },
        {
          "indexed": false,
          "internalType": "bool",
          "name": "approved",
          "type": "bool"
        }
      ],
      "name": "ApprovalForAll",
      "type": "event"
    },
    {
      "anonymous": false,
      "inputs": [
        {
          "indexed": true,
          "internalType": "address",
          "name": "previousOwner",
          "type": "address"
        },
        {
          "indexed": true,
          "internalType": "address",
          "name": "newOwner",
          "type": "address"
        }
      ],
      "name": "OwnershipTransferred",
      "type": "event"
    },
    {
      "anonymous": false,
      "inputs": [
        {
          "indexed": true,
          "internalType": "address",
          "name": "operator",
          "type": "address"
        },
        {
          "indexed": true,
          "internalType": "address",
          "name": "from",
          "type": "address"
        },
        {
          "indexed": true,
          "internalType": "address",
          "name": "to",
          "type": "address"
        },
        {
          "indexed": false,
          "internalType": "uint256[]",
          "name": "ids",
          "type": "uint256[]"
        },
        {
          "indexed": false,
          "internalType": "uint256[]",
          "name": "values",
          "type": "uint256[]"
        }
      ],
      "name": "TransferBatch",
      "type": "event"
    },
    {
      "anonymous": false,
      "inputs": [
        {
          "indexed": true,
          "internalType": "address",
          "name": "operator",
          "type": "address"
        },
        {
          "indexed": true,
          "internalType": "address",
          "name": "from",
          "type": "address"
        },
        {
          "indexed": true,
          "internalType": "address",
          "name": "to",
          "type": "address"
        },
        {
          "indexed": false,
          "internalType": "uint256",
          "name": "id",
          "type": "uint256"
        },
        {
          "indexed": false,
          "internalType": "uint256",
          "name": "value",
          "type": "uint256"
        }
      ],
      "name": "TransferSingle",
      "type": "event"
    },
    {
      "anonymous": false,
      "inputs": [
        {
          "indexed": false,
          "internalType": "string",
          "name": "value",
          "type": "string"
        },
        {
          "indexed": true,
          "internalType": "uint256",
          "name": "id",
          "type": "uint256"
        }
      ],
      "name": "URI",
      "type": "event"
    },
    {
      "inputs": [
        {
          "internalType": "address",
          "name": "account",
          "type": "address"
        },
        {
          "internalType": "uint256",
          "name": "id",
          "type": "uint256"
        }
      ],
      "name": "balanceOf",
      "outputs": [
        {
          "internalType": "uint256",
          "name": "",
          "type": "uint256"
        }
      ],
      "stateMutability": "view",
      "type": "function",
      "constant": true
    },
    {
      "inputs": [
        {
          "internalType": "address[]",
          "name": "accounts",
          "type": "address[]"
        },
        {
          "internalType": "uint256[]",
          "name": "ids",
          "type": "uint256[]"
        }
      ],
      "name": "balanceOfBatch",
      "outputs": [
        {
          "internalType": "uint256[]",
          "name": "",
          "type": "uint256[]"
        }
      ],
      "stateMutability": "view",
      "type": "function",
      "constant": true
    },
    {
      "inputs": [
        {
          "internalType": "address",
          "name": "",
          "type": "address"
        }
      ],
      "name": "claimed",
      "outputs": [
        {
          "internalType": "bool",
          "name": "",
          "type": "bool"
        }
      ],
      "stateMutability": "view",
      "type": "function",
      "constant": true
    },
    {
      "inputs": [
        {
          "internalType": "address",
          "name": "account",
          "type": "address"
        },
        {
          "internalType": "address",
          "name": "operator",
          "type": "address"
        }
      ],
      "name": "isApprovedForAll",
      "outputs": [
        {
          "internalType": "bool",
          "name": "",
          "type": "bool"
        }
      ],
      "stateMutability": "view",
      "type": "function",
      "constant": true
    },
    {
      "inputs": [],
      "name": "merkleRoot",
      "outputs": [
        {
          "internalType": "bytes32",
          "name": "",
          "type": "bytes32"
        }
      ],
      "stateMutability": "view",
      "type": "function",
      "constant": true
    },
    {
      "inputs": [],
      "name": "owner",
      "outputs": [
        {
          "internalType": "address",
          "name": "",
          "type": "address"
        }
      ],
      "stateMutability": "view",
      "type": "function",
      "constant": true
    },
    {
      "inputs": [],
      "name": "renounceOwnership",
      "outputs": [],
      "stateMutability": "nonpayable",
      "type": "function"
    },
    {
      "inputs": [
        {
          "internalType": "address",
          "name": "from",
          "type": "address"
        },
        {
          "internalType": "address",
          "name": "to",
          "type": "address"
        },
        {
          "internalType": "uint256[]",
          "name": "ids",
          "type": "uint256[]"
        },
        {
          "internalType": "uint256[]",
          "name": "amounts",
          "type": "uint256[]"
        },
        {
          "internalType": "bytes",
          "name": "data",
          "type": "bytes"
        }
      ],
      "name": "safeBatchTransferFrom",
      "outputs": [],
      "stateMutability": "nonpayable",
      "type": "function"
    },
    {
      "inputs": [
        {
          "internalType": "address",
          "name": "from",
          "type": "address"
        },
        {
          "internalType": "address",
          "name": "to",
          "type": "address"
        },
        {
          "internalType": "uint256",
          "name": "id",
          "type": "uint256"
        },
        {
          "internalType": "uint256",
          "name": "amount",
          "type": "uint256"
        },
        {
          "internalType": "bytes",
          "name": "data",
          "type": "bytes"
        }
      ],
      "name": "safeTransferFrom",
      "outputs": [],
      "stateMutability": "nonpayable",
      "type": "function"
    },
    {
      "inputs": [
        {
          "internalType": "address",
          "name": "operator",
          "type": "address"
        },
        {
          "internalType": "bool",
          "name": "approved",
          "type": "bool"
        }
      ],
      "name": "setApprovalForAll",
      "outputs": [],
      "stateMutability": "nonpayable",
      "type": "function"
    },
    {
      "inputs": [
        {
          "internalType": "bytes4",
          "name": "interfaceId",
          "type": "bytes4"
        }
      ],
      "name": "supportsInterface",
      "outputs": [
        {
          "internalType": "bool",
          "name": "",
          "type": "bool"
        }
      ],
      "stateMutability": "view",
      "type": "function",
      "constant": true
    },
    {
      "inputs": [
        {
          "internalType": "address",
          "name": "newOwner",
          "type": "address"
        }
      ],
      "name": "transferOwnership",
      "outputs": [],
      "stateMutability": "nonpayable",
      "type": "function"
    },
    {
      "inputs": [
        {
          "internalType": "uint256",
          "name": "",
          "type": "uint256"
        }
      ],
      "name": "uri",
      "outputs": [
        {
          "internalType": "string",
          "name": "",
          "type": "string"
        }
      ],
      "stateMutability": "view",
      "type": "function",
      "constant": true
    },
    {
      "inputs": [
        {
          "internalType": "bytes32",
          "name": "_merkleRoot",
          "type": "bytes32"
        }
      ],
      "name": "updateMerkleRoot",
      "outputs": [],
      "stateMutability": "nonpayable",
      "type": "function"
    },
    {
      "inputs": [
        {
          "internalType": "bytes32[]",
          "name": "merkleProof",
          "type": "bytes32[]"
        }
      ],
      "name": "verifyWhitelist",
      "outputs": [],
      "stateMutability": "nonpayable",
      "type": "function"
    },
    {
      "inputs": [
        {
          "internalType": "address",
          "name": "from",
          "type": "address"
        },
        {
          "internalType": "address",
          "name": "to",
          "type": "address"
        },
        {
          "internalType": "uint256",
          "name": "tokenId",
          "type": "uint256"
        },
        {
          "internalType": "uint256",
          "name": "amount",
          "type": "uint256"
        }
      ],
      "name": "adminTransfer",
      "outputs": [],
      "stateMutability": "nonpayable",
      "type": "function"
    },
    {
      "inputs": [
        {
          "internalType": "address",
          "name": "account",
          "type": "address"
        },
        {
          "internalType": "uint256",
          "name": "id",
          "type": "uint256"
        },
        {
          "internalType": "uint256",
          "name": "amount",
          "type": "uint256"
        },
        {
          "internalType": "bytes",
          "name": "data",
          "type": "bytes"
        }
      ],
      "name": "mint",
      "outputs": [],
      "stateMutability": "nonpayable",
      "type": "function"
    },
    {
      "inputs": [
        {
          "internalType": "string",
          "name": "newuri",
          "type": "string"
        }
      ],
      "name": "setURI",
      "outputs": [],
      "stateMutability": "nonpayable",
      "type": "function"
    }
  ],
  "bytecode": "0x60806040523480156200001157600080fd5b506040516200391238038062003912833981810160405281019062000037919062000242565b604051806060016040528060258152602001620038ed6025913962000062816200009160201b60201c565b506200008362000077620000ad60201b60201c565b620000b560201b60201c565b8060048190555050620002f7565b8060029080519060200190620000a99291906200017b565b5050565b600033905090565b6000600360009054906101000a900473ffffffffffffffffffffffffffffffffffffffff16905081600360006101000a81548173ffffffffffffffffffffffffffffffffffffffff021916908373ffffffffffffffffffffffffffffffffffffffff1602179055508173ffffffffffffffffffffffffffffffffffffffff168173ffffffffffffffffffffffffffffffffffffffff167f8be0079c531659141344cd1fd0a4f28419497f9722a3daafe3b4186f6b6457e060405160405180910390a35050565b828054620001899062000278565b90600052602060002090601f016020900481019282620001ad5760008555620001f9565b82601f10620001c857805160ff1916838001178555620001f9565b82800160010185558215620001f9579182015b82811115620001f8578251825591602001919060010190620001db565b5b5090506200020891906200020c565b5090565b5b80821115620002275760008160009055506001016200020d565b5090565b6000815190506200023c81620002dd565b92915050565b6000602082840312156200025557600080fd5b600062000265848285016200022b565b91505092915050565b6000819050919050565b600060028204905060018216806200029157607f821691505b60208210811415620002a857620002a7620002ae565b5b50919050565b7f4e487b7100000000000000000000000000000000000000000000000000000000600052602260045260246000fd5b620002e8816200026e565b8114620002f457600080fd5b50565b6135e680620003076000396000f3fe608060405234801561001057600080fd5b50600436106101155760003560e01c8063715018a6116100a2578063bc7aa8bc11610071578063bc7aa8bc146102c8578063c884ef83146102e4578063e985e9c514610314578063f242432a14610344578063f2fde38b1461036057610115565b8063715018a614610268578063731133e9146102725780638da5cb5b1461028e578063a22cb465146102ac57610115565b806316b76df5116100e957806316b76df5146101c65780632eb2c2d6146101e25780632eb4a7ab146101fe5780634783f0ef1461021c5780634e1273f41461023857610115565b8062fdd58e1461011a57806301ffc9a71461014a57806302fe53051461017a5780630e89341c14610196575b600080fd5b610134600480360381019061012f919061231d565b61037c565b6040516101419190612c4a565b60405180910390f35b610164600480360381019061015f91906124ae565b610445565b6040516101719190612a12565b60405180910390f35b610194600480360381019061018f9190612500565b610527565b005b6101b060048036038101906101ab9190612541565b61053b565b6040516101bd9190612a48565b60405180910390f35b6101e060048036038101906101db9190612440565b6105cf565b005b6101fc60048036038101906101f79190612130565b610771565b005b610206610812565b6040516102139190612a2d565b60405180910390f35b61023660048036038101906102319190612485565b610818565b005b610252600480360381019061024d91906123d4565b61082a565b60405161025f91906129b9565b60405180910390f35b6102706109db565b005b61028c60048036038101906102879190612359565b6109ef565b005b610296610a8d565b6040516102a391906128dc565b60405180910390f35b6102c660048036038101906102c191906122e1565b610ab7565b005b6102e260048036038101906102dd91906121ef565b610acd565b005b6102fe60048036038101906102f991906120cb565b610af7565b60405161030b9190612a12565b60405180910390f35b61032e600480360381019061032991906120f4565b610b17565b60405161033b9190612a12565b60405180910390f35b61035e60048036038101906103599190612252565b610bab565b005b61037a600480360381019061037591906120cb565b610c4c565b005b60008073ffffffffffffffffffffffffffffffffffffffff168373ffffffffffffffffffffffffffffffffffffffff1614156103ed576040517f08c379a00000000000000000000000000000000000000000000000000000000081526004016103e490612aaa565b60405180910390fd5b60008083815260200190815260200160002060008473ffffffffffffffffffffffffffffffffffffffff1673ffffffffffffffffffffffffffffffffffffffff16815260200190815260200160002054905092915050565b60007fd9b67a26000000000000000000000000000000000000000000000000000000007bffffffffffffffffffffffffffffffffffffffffffffffffffffffff1916827bffffffffffffffffffffffffffffffffffffffffffffffffffffffff1916148061051057507f0e89341c000000000000000000000000000000000000000000000000000000007bffffffffffffffffffffffffffffffffffffffffffffffffffffffff1916827bffffffffffffffffffffffffffffffffffffffffffffffffffffffff1916145b80610520575061051f82610cd0565b5b9050919050565b61052f610d3a565b61053881610db8565b50565b60606002805461054a90612ef4565b80601f016020809104026020016040519081016040528092919081815260200182805461057690612ef4565b80156105c35780601f10610598576101008083540402835291602001916105c3565b820191906000526020600020905b8154815290600101906020018083116105a657829003601f168201915b50505050509050919050565b600560003373ffffffffffffffffffffffffffffffffffffffff1673ffffffffffffffffffffffffffffffffffffffff16815260200190815260200160002060009054906101000a900460ff161561065c576040517f08c379a000000000000000000000000000000000000000000000000000000000815260040161065390612b4a565b60405180910390fd5b60003360405160200161066f91906128c1565b6040516020818303038152906040528051906020012090506106d5838380806020026020016040519081016040528093929190818152602001838360200280828437600081840152601f19601f8201169050808301925050505050505060045483610dd2565b610714576040517f08c379a000000000000000000000000000000000000000000000000000000000815260040161070b90612b8a565b60405180910390fd5b6001600560003373ffffffffffffffffffffffffffffffffffffffff1673ffffffffffffffffffffffffffffffffffffffff16815260200190815260200160002060006101000a81548160ff021916908315150217905550505050565b610779610de9565b73ffffffffffffffffffffffffffffffffffffffff168573ffffffffffffffffffffffffffffffffffffffff1614806107bf57506107be856107b9610de9565b610b17565b5b6107fe576040517f08c379a00000000000000000000000000000000000000000000000000000000081526004016107f590612aca565b60405180910390fd5b61080b8585858585610df1565b5050505050565b60045481565b610820610d3a565b8060048190555050565b60608151835114610870576040517f08c379a000000000000000000000000000000000000000000000000000000000815260040161086790612bca565b60405180910390fd5b6000835167ffffffffffffffff8111156108b3577f4e487b7100000000000000000000000000000000000000000000000000000000600052604160045260246000fd5b6040519080825280602002602001820160405280156108e15781602001602082028036833780820191505090505b50905060005b84518110156109d05761097a85828151811061092c577f4e487b7100000000000000000000000000000000000000000000000000000000600052603260045260246000fd5b602002602001015185838151811061096d577f4e487b7100000000000000000000000000000000000000000000000000000000600052603260045260246000fd5b602002602001015161037c565b8282815181106109b3577f4e487b7100000000000000000000000000000000000000000000000000000000600052603260045260246000fd5b602002602001018181525050806109c990612f57565b90506108e7565b508091505092915050565b6109e3610d3a565b6109ed600061115f565b565b600560003373ffffffffffffffffffffffffffffffffffffffff1673ffffffffffffffffffffffffffffffffffffffff16815260200190815260200160002060009054906101000a900460ff16610a7b576040517f08c379a0000000000000000000000000000000000000000000000000000000008152600401610a7290612b0a565b60405180910390fd5b610a8784848484611225565b50505050565b6000600360009054906101000a900473ffffffffffffffffffffffffffffffffffffffff16905090565b610ac9610ac2610de9565b83836113d6565b5050565b610ad5610d3a565b610af18484848460405180602001604052806000815250610bab565b50505050565b60056020528060005260406000206000915054906101000a900460ff1681565b6000600160008473ffffffffffffffffffffffffffffffffffffffff1673ffffffffffffffffffffffffffffffffffffffff16815260200190815260200160002060008373ffffffffffffffffffffffffffffffffffffffff1673ffffffffffffffffffffffffffffffffffffffff16815260200190815260200160002060009054906101000a900460ff16905092915050565b610bb3610de9565b73ffffffffffffffffffffffffffffffffffffffff168573ffffffffffffffffffffffffffffffffffffffff161480610bf95750610bf885610bf3610de9565b610b17565b5b610c38576040517f08c379a0000000000000000000000000000000000000000000000000000000008152600401610c2f90612aca565b60405180910390fd5b610c458585858585611543565b5050505050565b610c54610d3a565b600073ffffffffffffffffffffffffffffffffffffffff168173ffffffffffffffffffffffffffffffffffffffff161415610cc4576040517f08c379a0000000000000000000000000000000000000000000000000000000008152600401610cbb90612a8a565b60405180910390fd5b610ccd8161115f565b50565b60007f01ffc9a7000000000000000000000000000000000000000000000000000000007bffffffffffffffffffffffffffffffffffffffffffffffffffffffff1916827bffffffffffffffffffffffffffffffffffffffffffffffffffffffff1916149050919050565b610d42610de9565b73ffffffffffffffffffffffffffffffffffffffff16610d60610a8d565b73ffffffffffffffffffffffffffffffffffffffff1614610db6576040517f08c379a0000000000000000000000000000000000000000000000000000000008152600401610dad90612b6a565b60405180910390fd5b565b8060029080519060200190610dce929190611d64565b5050565b600082610ddf85846117df565b1490509392505050565b600033905090565b8151835114610e35576040517f08c379a0000000000000000000000000000000000000000000000000000000008152600401610e2c90612bea565b60405180910390fd5b600073ffffffffffffffffffffffffffffffffffffffff168473ffffffffffffffffffffffffffffffffffffffff161415610ea5576040517f08c379a0000000000000000000000000000000000000000000000000000000008152600401610e9c90612aea565b60405180910390fd5b6000610eaf610de9565b9050610ebf81878787878761185b565b60005b84518110156110bc576000858281518110610f06577f4e487b7100000000000000000000000000000000000000000000000000000000600052603260045260246000fd5b602002602001015190506000858381518110610f4b577f4e487b7100000000000000000000000000000000000000000000000000000000600052603260045260246000fd5b60200260200101519050600080600084815260200190815260200160002060008b73ffffffffffffffffffffffffffffffffffffffff1673ffffffffffffffffffffffffffffffffffffffff16815260200190815260200160002054905081811015610fec576040517f08c379a0000000000000000000000000000000000000000000000000000000008152600401610fe390612b2a565b60405180910390fd5b81810360008085815260200190815260200160002060008c73ffffffffffffffffffffffffffffffffffffffff1673ffffffffffffffffffffffffffffffffffffffff168152602001908152602001600020819055508160008085815260200190815260200160002060008b73ffffffffffffffffffffffffffffffffffffffff1673ffffffffffffffffffffffffffffffffffffffff16815260200190815260200160002060008282546110a19190612dde565b92505081905550505050806110b590612f57565b9050610ec2565b508473ffffffffffffffffffffffffffffffffffffffff168673ffffffffffffffffffffffffffffffffffffffff168273ffffffffffffffffffffffffffffffffffffffff167f4a39dc06d4c0dbc64b70af90fd698a233a518aa5d07e595d983b8c0526c8f7fb87876040516111339291906129db565b60405180910390a4611149818787878787611863565b61115781878787878761186b565b505050505050565b6000600360009054906101000a900473ffffffffffffffffffffffffffffffffffffffff16905081600360006101000a81548173ffffffffffffffffffffffffffffffffffffffff021916908373ffffffffffffffffffffffffffffffffffffffff1602179055508173ffffffffffffffffffffffffffffffffffffffff168173ffffffffffffffffffffffffffffffffffffffff167f8be0079c531659141344cd1fd0a4f28419497f9722a3daafe3b4186f6b6457e060405160405180910390a35050565b600073ffffffffffffffffffffffffffffffffffffffff168473ffffffffffffffffffffffffffffffffffffffff161415611295576040517f08c379a000000000000000000000000000000000000000000000000000000000815260040161128c90612c0a565b60405180910390fd5b600061129f610de9565b905060006112ac85611a52565b905060006112b985611a52565b90506112ca8360008985858961185b565b8460008088815260200190815260200160002060008973ffffffffffffffffffffffffffffffffffffffff1673ffffffffffffffffffffffffffffffffffffffff16815260200190815260200160002060008282546113299190612dde565b925050819055508673ffffffffffffffffffffffffffffffffffffffff16600073ffffffffffffffffffffffffffffffffffffffff168473ffffffffffffffffffffffffffffffffffffffff167fc3d58168c5ae7397731d063d5bbf3d657854427343f4c083240f7aacaa2d0f6289896040516113a7929190612c65565b60405180910390a46113be83600089858589611863565b6113cd83600089898989611b18565b50505050505050565b8173ffffffffffffffffffffffffffffffffffffffff168373ffffffffffffffffffffffffffffffffffffffff161415611445576040517f08c379a000000000000000000000000000000000000000000000000000000000815260040161143c90612baa565b60405180910390fd5b80600160008573ffffffffffffffffffffffffffffffffffffffff1673ffffffffffffffffffffffffffffffffffffffff16815260200190815260200160002060008473ffffffffffffffffffffffffffffffffffffffff1673ffffffffffffffffffffffffffffffffffffffff16815260200190815260200160002060006101000a81548160ff0219169083151502179055508173ffffffffffffffffffffffffffffffffffffffff168373ffffffffffffffffffffffffffffffffffffffff167f17307eab39ab6107e8899845ad3d59bd9653f200f220920489ca2b5937696c31836040516115369190612a12565b60405180910390a3505050565b600073ffffffffffffffffffffffffffffffffffffffff168473ffffffffffffffffffffffffffffffffffffffff1614156115b3576040517f08c379a00000000000000000000000000000000000000000000000000000000081526004016115aa90612aea565b60405180910390fd5b60006115bd610de9565b905060006115ca85611a52565b905060006115d785611a52565b90506115e783898985858961185b565b600080600088815260200190815260200160002060008a73ffffffffffffffffffffffffffffffffffffffff1673ffffffffffffffffffffffffffffffffffffffff1681526020019081526020016000205490508581101561167e576040517f08c379a000000000000000000000000000000000000000000000000000000000815260040161167590612b2a565b60405180910390fd5b85810360008089815260200190815260200160002060008b73ffffffffffffffffffffffffffffffffffffffff1673ffffffffffffffffffffffffffffffffffffffff168152602001908152602001600020819055508560008089815260200190815260200160002060008a73ffffffffffffffffffffffffffffffffffffffff1673ffffffffffffffffffffffffffffffffffffffff16815260200190815260200160002060008282546117339190612dde565b925050819055508773ffffffffffffffffffffffffffffffffffffffff168973ffffffffffffffffffffffffffffffffffffffff168573ffffffffffffffffffffffffffffffffffffffff167fc3d58168c5ae7397731d063d5bbf3d657854427343f4c083240f7aacaa2d0f628a8a6040516117b0929190612c65565b60405180910390a46117c6848a8a86868a611863565b6117d4848a8a8a8a8a611b18565b505050505050505050565b60008082905060005b84518110156118505761183b8286838151811061182e577f4e487b7100000000000000000000000000000000000000000000000000000000600052603260045260246000fd5b6020026020010151611cff565b9150808061184890612f57565b9150506117e8565b508091505092915050565b505050505050565b505050505050565b61188a8473ffffffffffffffffffffffffffffffffffffffff16611d2a565b15611a4a578373ffffffffffffffffffffffffffffffffffffffff1663bc197c8187878686866040518663ffffffff1660e01b81526004016118d09594939291906128f7565b602060405180830381600087803b1580156118ea57600080fd5b505af192505050801561191b57506040513d601f19601f8201168201806040525081019061191891906124d7565b60015b6119c157611927613051565b806308c379a01415611984575061193c6134a7565b806119475750611986565b806040517f08c379a000000000000000000000000000000000000000000000000000000000815260040161197b9190612a48565b60405180910390fd5b505b6040517f08c379a00000000000000000000000000000000000000000000000000000000081526004016119b890612c2a565b60405180910390fd5b63bc197c8160e01b7bffffffffffffffffffffffffffffffffffffffffffffffffffffffff1916817bffffffffffffffffffffffffffffffffffffffffffffffffffffffff191614611a48576040517f08c379a0000000000000000000000000000000000000000000000000000000008152600401611a3f90612a6a565b60405180910390fd5b505b505050505050565b60606000600167ffffffffffffffff811115611a97577f4e487b7100000000000000000000000000000000000000000000000000000000600052604160045260246000fd5b604051908082528060200260200182016040528015611ac55781602001602082028036833780820191505090505b5090508281600081518110611b03577f4e487b7100000000000000000000000000000000000000000000000000000000600052603260045260246000fd5b60200260200101818152505080915050919050565b611b378473ffffffffffffffffffffffffffffffffffffffff16611d2a565b15611cf7578373ffffffffffffffffffffffffffffffffffffffff1663f23a6e6187878686866040518663ffffffff1660e01b8152600401611b7d95949392919061295f565b602060405180830381600087803b158015611b9757600080fd5b505af1925050508015611bc857506040513d601f19601f82011682018060405250810190611bc591906124d7565b60015b611c6e57611bd4613051565b806308c379a01415611c315750611be96134a7565b80611bf45750611c33565b806040517f08c379a0000000000000000000000000000000000000000000000000000000008152600401611c289190612a48565b60405180910390fd5b505b6040517f08c379a0000000000000000000000000000000000000000000000000000000008152600401611c6590612c2a565b60405180910390fd5b63f23a6e6160e01b7bffffffffffffffffffffffffffffffffffffffffffffffffffffffff1916817bffffffffffffffffffffffffffffffffffffffffffffffffffffffff191614611cf5576040517f08c379a0000000000000000000000000000000000000000000000000000000008152600401611cec90612a6a565b60405180910390fd5b505b505050505050565b6000818310611d1757611d128284611d4d565b611d22565b611d218383611d4d565b5b905092915050565b6000808273ffffffffffffffffffffffffffffffffffffffff163b119050919050565b600082600052816020526040600020905092915050565b828054611d7090612ef4565b90600052602060002090601f016020900481019282611d925760008555611dd9565b82601f10611dab57805160ff1916838001178555611dd9565b82800160010185558215611dd9579182015b82811115611dd8578251825591602001919060010190611dbd565b5b509050611de69190611dea565b5090565b5b80821115611e03576000816000905550600101611deb565b5090565b6000611e1a611e1584612cb3565b612c8e565b90508083825260208201905082856020860282011115611e3957600080fd5b60005b85811015611e695781611e4f8882611f5b565b845260208401935060208301925050600181019050611e3c565b5050509392505050565b6000611e86611e8184612cdf565b612c8e565b90508083825260208201905082856020860282011115611ea557600080fd5b60005b85811015611ed55781611ebb88826120b6565b845260208401935060208301925050600181019050611ea8565b5050509392505050565b6000611ef2611eed84612d0b565b612c8e565b905082815260208101848484011115611f0a57600080fd5b611f15848285612eb2565b509392505050565b6000611f30611f2b84612d3c565b612c8e565b905082815260208101848484011115611f4857600080fd5b611f53848285612eb2565b509392505050565b600081359050611f6a8161353d565b92915050565b600082601f830112611f8157600080fd5b8135611f91848260208601611e07565b91505092915050565b60008083601f840112611fac57600080fd5b8235905067ffffffffffffffff811115611fc557600080fd5b602083019150836020820283011115611fdd57600080fd5b9250929050565b600082601f830112611ff557600080fd5b8135612005848260208601611e73565b91505092915050565b60008135905061201d81613554565b92915050565b6000813590506120328161356b565b92915050565b60008135905061204781613582565b92915050565b60008151905061205c81613582565b92915050565b600082601f83011261207357600080fd5b8135612083848260208601611edf565b91505092915050565b600082601f83011261209d57600080fd5b81356120ad848260208601611f1d565b91505092915050565b6000813590506120c581613599565b92915050565b6000602082840312156120dd57600080fd5b60006120eb84828501611f5b565b91505092915050565b6000806040838503121561210757600080fd5b600061211585828601611f5b565b925050602061212685828601611f5b565b9150509250929050565b600080600080600060a0868803121561214857600080fd5b600061215688828901611f5b565b955050602061216788828901611f5b565b945050604086013567ffffffffffffffff81111561218457600080fd5b61219088828901611fe4565b935050606086013567ffffffffffffffff8111156121ad57600080fd5b6121b988828901611fe4565b925050608086013567ffffffffffffffff8111156121d657600080fd5b6121e288828901612062565b9150509295509295909350565b6000806000806080858703121561220557600080fd5b600061221387828801611f5b565b945050602061222487828801611f5b565b9350506040612235878288016120b6565b9250506060612246878288016120b6565b91505092959194509250565b600080600080600060a0868803121561226a57600080fd5b600061227888828901611f5b565b955050602061228988828901611f5b565b945050604061229a888289016120b6565b93505060606122ab888289016120b6565b925050608086013567ffffffffffffffff8111156122c857600080fd5b6122d488828901612062565b9150509295509295909350565b600080604083850312156122f457600080fd5b600061230285828601611f5b565b92505060206123138582860161200e565b9150509250929050565b6000806040838503121561233057600080fd5b600061233e85828601611f5b565b925050602061234f858286016120b6565b9150509250929050565b6000806000806080858703121561236f57600080fd5b600061237d87828801611f5b565b945050602061238e878288016120b6565b935050604061239f878288016120b6565b925050606085013567ffffffffffffffff8111156123bc57600080fd5b6123c887828801612062565b91505092959194509250565b600080604083850312156123e757600080fd5b600083013567ffffffffffffffff81111561240157600080fd5b61240d85828601611f70565b925050602083013567ffffffffffffffff81111561242a57600080fd5b61243685828601611fe4565b9150509250929050565b6000806020838503121561245357600080fd5b600083013567ffffffffffffffff81111561246d57600080fd5b61247985828601611f9a565b92509250509250929050565b60006020828403121561249757600080fd5b60006124a584828501612023565b91505092915050565b6000602082840312156124c057600080fd5b60006124ce84828501612038565b91505092915050565b6000602082840312156124e957600080fd5b60006124f78482850161204d565b91505092915050565b60006020828403121561251257600080fd5b600082013567ffffffffffffffff81111561252c57600080fd5b6125388482850161208c565b91505092915050565b60006020828403121561255357600080fd5b6000612561848285016120b6565b91505092915050565b600061257683836128a3565b60208301905092915050565b61258b81612e34565b82525050565b6125a261259d82612e34565b612fa0565b82525050565b60006125b382612d7d565b6125bd8185612dab565b93506125c883612d6d565b8060005b838110156125f95781516125e0888261256a565b97506125eb83612d9e565b9250506001810190506125cc565b5085935050505092915050565b61260f81612e46565b82525050565b61261e81612e52565b82525050565b600061262f82612d88565b6126398185612dbc565b9350612649818560208601612ec1565b61265281613073565b840191505092915050565b600061266882612d93565b6126728185612dcd565b9350612682818560208601612ec1565b61268b81613073565b840191505092915050565b60006126a3602883612dcd565b91506126ae8261309e565b604082019050919050565b60006126c6602683612dcd565b91506126d1826130ed565b604082019050919050565b60006126e9602a83612dcd565b91506126f48261313c565b604082019050919050565b600061270c602e83612dcd565b91506127178261318b565b604082019050919050565b600061272f602583612dcd565b915061273a826131da565b604082019050919050565b6000612752600f83612dcd565b915061275d82613229565b602082019050919050565b6000612775602a83612dcd565b915061278082613252565b604082019050919050565b6000612798600f83612dcd565b91506127a3826132a1565b602082019050919050565b60006127bb602083612dcd565b91506127c6826132ca565b602082019050919050565b60006127de600d83612dcd565b91506127e9826132f3565b602082019050919050565b6000612801602983612dcd565b915061280c8261331c565b604082019050919050565b6000612824602983612dcd565b915061282f8261336b565b604082019050919050565b6000612847602883612dcd565b9150612852826133ba565b604082019050919050565b600061286a602183612dcd565b915061287582613409565b604082019050919050565b600061288d603483612dcd565b915061289882613458565b604082019050919050565b6128ac81612ea8565b82525050565b6128bb81612ea8565b82525050565b60006128cd8284612591565b60148201915081905092915050565b60006020820190506128f16000830184612582565b92915050565b600060a08201905061290c6000830188612582565b6129196020830187612582565b818103604083015261292b81866125a8565b9050818103606083015261293f81856125a8565b905081810360808301526129538184612624565b90509695505050505050565b600060a0820190506129746000830188612582565b6129816020830187612582565b61298e60408301866128b2565b61299b60608301856128b2565b81810360808301526129ad8184612624565b90509695505050505050565b600060208201905081810360008301526129d381846125a8565b905092915050565b600060408201905081810360008301526129f581856125a8565b90508181036020830152612a0981846125a8565b90509392505050565b6000602082019050612a276000830184612606565b92915050565b6000602082019050612a426000830184612615565b92915050565b60006020820190508181036000830152612a62818461265d565b905092915050565b60006020820190508181036000830152612a8381612696565b9050919050565b60006020820190508181036000830152612aa3816126b9565b9050919050565b60006020820190508181036000830152612ac3816126dc565b9050919050565b60006020820190508181036000830152612ae3816126ff565b9050919050565b60006020820190508181036000830152612b0381612722565b9050919050565b60006020820190508181036000830152612b2381612745565b9050919050565b60006020820190508181036000830152612b4381612768565b9050919050565b60006020820190508181036000830152612b638161278b565b9050919050565b60006020820190508181036000830152612b83816127ae565b9050919050565b60006020820190508181036000830152612ba3816127d1565b9050919050565b60006020820190508181036000830152612bc3816127f4565b9050919050565b60006020820190508181036000830152612be381612817565b9050919050565b60006020820190508181036000830152612c038161283a565b9050919050565b60006020820190508181036000830152612c238161285d565b9050919050565b60006020820190508181036000830152612c4381612880565b9050919050565b6000602082019050612c5f60008301846128b2565b92915050565b6000604082019050612c7a60008301856128b2565b612c8760208301846128b2565b9392505050565b6000612c98612ca9565b9050612ca48282612f26565b919050565b6000604051905090565b600067ffffffffffffffff821115612cce57612ccd613022565b5b602082029050602081019050919050565b600067ffffffffffffffff821115612cfa57612cf9613022565b5b602082029050602081019050919050565b600067ffffffffffffffff821115612d2657612d25613022565b5b612d2f82613073565b9050602081019050919050565b600067ffffffffffffffff821115612d5757612d56613022565b5b612d6082613073565b9050602081019050919050565b6000819050602082019050919050565b600081519050919050565b600081519050919050565b600081519050919050565b6000602082019050919050565b600082825260208201905092915050565b600082825260208201905092915050565b600082825260208201905092915050565b6000612de982612ea8565b9150612df483612ea8565b9250827fffffffffffffffffffffffffffffffffffffffffffffffffffffffffffffffff03821115612e2957612e28612fc4565b5b828201905092915050565b6000612e3f82612e88565b9050919050565b60008115159050919050565b6000819050919050565b60007fffffffff0000000000000000000000000000000000000000000000000000000082169050919050565b600073ffffffffffffffffffffffffffffffffffffffff82169050919050565b6000819050919050565b82818337600083830152505050565b60005b83811015612edf578082015181840152602081019050612ec4565b83811115612eee576000848401525b50505050565b60006002820490506001821680612f0c57607f821691505b60208210811415612f2057612f1f612ff3565b5b50919050565b612f2f82613073565b810181811067ffffffffffffffff82111715612f4e57612f4d613022565b5b80604052505050565b6000612f6282612ea8565b91507fffffffffffffffffffffffffffffffffffffffffffffffffffffffffffffffff821415612f9557612f94612fc4565b5b600182019050919050565b6000612fab82612fb2565b9050919050565b6000612fbd82613084565b9050919050565b7f4e487b7100000000000000000000000000000000000000000000000000000000600052601160045260246000fd5b7f4e487b7100000000000000000000000000000000000000000000000000000000600052602260045260246000fd5b7f4e487b7100000000000000000000000000000000000000000000000000000000600052604160045260246000fd5b600060033d11156130705760046000803e61306d600051613091565b90505b90565b6000601f19601f8301169050919050565b60008160601b9050919050565b60008160e01c9050919050565b7f455243313135353a204552433131353552656365697665722072656a6563746560008201527f6420746f6b656e73000000000000000000000000000000000000000000000000602082015250565b7f4f776e61626c653a206e6577206f776e657220697320746865207a65726f206160008201527f6464726573730000000000000000000000000000000000000000000000000000602082015250565b7f455243313135353a2061646472657373207a65726f206973206e6f742061207660008201527f616c6964206f776e657200000000000000000000000000000000000000000000602082015250565b7f455243313135353a2063616c6c6572206973206e6f7420746f6b656e206f776e60008201527f6572206f7220617070726f766564000000000000000000000000000000000000602082015250565b7f455243313135353a207472616e7366657220746f20746865207a65726f20616460008201527f6472657373000000000000000000000000000000000000000000000000000000602082015250565b7f4e6f742077686974656c69737465640000000000000000000000000000000000600082015250565b7f455243313135353a20696e73756666696369656e742062616c616e636520666f60008201527f72207472616e7366657200000000000000000000000000000000000000000000602082015250565b7f416c726561647920636c61696d65640000000000000000000000000000000000600082015250565b7f4f776e61626c653a2063616c6c6572206973206e6f7420746865206f776e6572600082015250565b7f496e76616c69642070726f6f6600000000000000000000000000000000000000600082015250565b7f455243313135353a2073657474696e6720617070726f76616c2073746174757360008201527f20666f722073656c660000000000000000000000000000000000000000000000602082015250565b7f455243313135353a206163636f756e747320616e6420696473206c656e67746860008201527f206d69736d617463680000000000000000000000000000000000000000000000602082015250565b7f455243313135353a2069647320616e6420616d6f756e7473206c656e6774682060008201527f6d69736d61746368000000000000000000000000000000000000000000000000602082015250565b7f455243313135353a206d696e7420746f20746865207a65726f2061646472657360008201527f7300000000000000000000000000000000000000000000000000000000000000602082015250565b7f455243313135353a207472616e7366657220746f206e6f6e2d4552433131353560008201527f526563656976657220696d706c656d656e746572000000000000000000000000602082015250565b600060443d10156134b75761353a565b6134bf612ca9565b60043d036004823e80513d602482011167ffffffffffffffff821117156134e757505061353a565b808201805167ffffffffffffffff811115613505575050505061353a565b80602083010160043d03850181111561352257505050505061353a565b61353182602001850186612f26565b82955050505050505b90565b61354681612e34565b811461355157600080fd5b50565b61355d81612e46565b811461356857600080fd5b50565b61357481612e52565b811461357f57600080fd5b50565b61358b81612e5c565b811461359657600080fd5b50565b6135a281612ea8565b81146135ad57600080fd5b5056fea2646970667358221220107ff0512d33ec53ffc3e77cd54489ef1e27af4b903b42513b519a67c96b183b64736f6c6343000801003368747470733a2f2f6d796170692e636f6d2f6170692f746f6b656e2f7b69647d2e6a736f6e",
  "immutableReferences": {},
  "source": "// SPDX-License-Identifier: MIT\r\npragma solidity ^0.8.0;\r\n\r\nimport \"@openzeppelin/contracts/token/ERC1155/ERC1155.sol\";\r\nimport \"@openzeppelin/contracts/access/Ownable.sol\";\r\nimport \"@openzeppelin/contracts/utils/cryptography/MerkleProof.sol\";\r\n\r\ncontract MultiNFTMerkle is ERC1155, Ownable {\r\n    bytes32 public merkleRoot;\r\n    mapping(address => bool) public claimed;\r\n\r\n    constructor(bytes32 _merkleRoot) ERC1155(\"https://myapi.com/api/token/{id}.json\") {\r\n        merkleRoot = _merkleRoot;\r\n    }\r\n\r\n    function updateMerkleRoot(bytes32 _merkleRoot) external onlyOwner {\r\n        merkleRoot = _merkleRoot;\r\n    }\r\n\r\n    function verifyWhitelist(bytes32[] calldata merkleProof) external {\r\n        require(!claimed[msg.sender], \"Already claimed\");\r\n\r\n        bytes32 leaf = keccak256(abi.encodePacked(msg.sender));\r\n        require(MerkleProof.verify(merkleProof, merkleRoot, leaf), \"Invalid proof\");\r\n\r\n        claimed[msg.sender] = true;\r\n    }\r\n    /**\r\n     * ID\r\n     * @param from \r\n     * @param to \r\n     * @param tokenId ID\r\n     * @param amount \r\n     */\r\n \r\n    function adminTransfer(address from, address to, uint256 tokenId, uint256 amount) external onlyOwner {\r\n        safeTransferFrom(from, to, tokenId, amount, \"\");\r\n    }\r\n\r\n    modifier onlyWhitelisted() {\r\n        require(claimed[msg.sender], \"Not whitelisted\");\r\n        _;\r\n    }\r\n\r\n    function mint(address account, uint256 id, uint256 amount, bytes memory data) public onlyWhitelisted {\r\n        _mint(account, id, amount, data);\r\n    }\r\n\r\n    function setURI(string memory newuri) external onlyOwner {\r\n        _setURI(newuri);\r\n    }\r\n}\r\n",
  "sourcePath": "C:\\src\\truffle0\\contracts\\MultiNFTMerkle.sol",
  "compiler": {
    "name": "solc",
    "version": "0.8.1+commit.df193b15.Emscripten.clang"
  },
  "schemaVersion": "3.4.16",
  "updatedAt": "2023-10-06T08:44:57.328Z",
  "networkType": "ethereum",
  "devdoc": {
    "kind": "dev",
    "methods": {
      "adminTransfer(address,address,uint256,uint256)": {
        "params": {
          "amount": "",
          "from": "",
          "to": "",
          "tokenId": "ID"
        }
      },
      "balanceOf(address,uint256)": {
        "details": "See {IERC1155-balanceOf}. Requirements: - `account` cannot be the zero address."
      },
      "balanceOfBatch(address[],uint256[])": {
        "details": "See {IERC1155-balanceOfBatch}. Requirements: - `accounts` and `ids` must have the same length."
      },
      "isApprovedForAll(address,address)": {
        "details": "See {IERC1155-isApprovedForAll}."
      },
      "owner()": {
        "details": "Returns the address of the current owner."
      },
      "renounceOwnership()": {
        "details": "Leaves the contract without owner. It will not be possible to call `onlyOwner` functions. Can only be called by the current owner. NOTE: Renouncing ownership will leave the contract without an owner, thereby disabling any functionality that is only available to the owner."
      },
      "safeBatchTransferFrom(address,address,uint256[],uint256[],bytes)": {
        "details": "See {IERC1155-safeBatchTransferFrom}."
      },
      "safeTransferFrom(address,address,uint256,uint256,bytes)": {
        "details": "See {IERC1155-safeTransferFrom}."
      },
      "setApprovalForAll(address,bool)": {
        "details": "See {IERC1155-setApprovalForAll}."
      },
      "supportsInterface(bytes4)": {
        "details": "See {IERC165-supportsInterface}."
      },
      "transferOwnership(address)": {
        "details": "Transfers ownership of the contract to a new account (`newOwner`). Can only be called by the current owner."
      },
      "uri(uint256)": {
        "details": "See {IERC1155MetadataURI-uri}. This implementation returns the same URI for *all* token types. It relies on the token type ID substitution mechanism https://eips.ethereum.org/EIPS/eip-1155#metadata[defined in the EIP]. Clients calling this function must replace the `\\{id\\}` substring with the actual token type ID."
      }
    },
    "version": 1
  },
  "userdoc": {
    "kind": "user",
    "methods": {
      "adminTransfer(address,address,uint256,uint256)": {
        "notice": "ID"
      }
    },
    "version": 1
  }
}