{
  "contractName": "MultiNFT",
  "abi": [
    {
      "inputs": [],
      "stateMutability": "nonpayable",
      "type": "constructor"
    },
    {
      "anonymous": false,
      "inputs": [
        {
          "indexed": true,
          "internalType": "address",
          "name": "account",
          "type": "address"
        },
        {
          "indexed": true,
          "internalType": "address",
          "name": "operator",
          "type": "address"
        },
        {
          "indexed": false,
          "internalType": "bool",
          "name": "approved",
          "type": "bool"
        }
      ],
      "name": "ApprovalForAll",
      "type": "event"
    },
    {
      "anonymous": false,
      "inputs": [
        {
          "indexed": true,
          "internalType": "address",
          "name": "previousOwner",
          "type": "address"
        },
        {
          "indexed": true,
          "internalType": "address",
          "name": "newOwner",
          "type": "address"
        }
      ],
      "name": "OwnershipTransferred",
      "type": "event"
    },
    {
      "anonymous": false,
      "inputs": [
        {
          "indexed": true,
          "internalType": "address",
          "name": "operator",
          "type": "address"
        },
        {
          "indexed": true,
          "internalType": "address",
          "name": "from",
          "type": "address"
        },
        {
          "indexed": true,
          "internalType": "address",
          "name": "to",
          "type": "address"
        },
        {
          "indexed": false,
          "internalType": "uint256[]",
          "name": "ids",
          "type": "uint256[]"
        },
        {
          "indexed": false,
          "internalType": "uint256[]",
          "name": "values",
          "type": "uint256[]"
        }
      ],
      "name": "TransferBatch",
      "type": "event"
    },
    {
      "anonymous": false,
      "inputs": [
        {
          "indexed": true,
          "internalType": "address",
          "name": "operator",
          "type": "address"
        },
        {
          "indexed": true,
          "internalType": "address",
          "name": "from",
          "type": "address"
        },
        {
          "indexed": true,
          "internalType": "address",
          "name": "to",
          "type": "address"
        },
        {
          "indexed": false,
          "internalType": "uint256",
          "name": "id",
          "type": "uint256"
        },
        {
          "indexed": false,
          "internalType": "uint256",
          "name": "value",
          "type": "uint256"
        }
      ],
      "name": "TransferSingle",
      "type": "event"
    },
    {
      "anonymous": false,
      "inputs": [
        {
          "indexed": false,
          "internalType": "string",
          "name": "value",
          "type": "string"
        },
        {
          "indexed": true,
          "internalType": "uint256",
          "name": "id",
          "type": "uint256"
        }
      ],
      "name": "URI",
      "type": "event"
    },
    {
      "inputs": [
        {
          "internalType": "address",
          "name": "account",
          "type": "address"
        },
        {
          "internalType": "uint256",
          "name": "id",
          "type": "uint256"
        }
      ],
      "name": "balanceOf",
      "outputs": [
        {
          "internalType": "uint256",
          "name": "",
          "type": "uint256"
        }
      ],
      "stateMutability": "view",
      "type": "function"
    },
    {
      "inputs": [
        {
          "internalType": "address[]",
          "name": "accounts",
          "type": "address[]"
        },
        {
          "internalType": "uint256[]",
          "name": "ids",
          "type": "uint256[]"
        }
      ],
      "name": "balanceOfBatch",
      "outputs": [
        {
          "internalType": "uint256[]",
          "name": "",
          "type": "uint256[]"
        }
      ],
      "stateMutability": "view",
      "type": "function"
    },
    {
      "inputs": [
        {
          "internalType": "address",
          "name": "account",
          "type": "address"
        },
        {
          "internalType": "address",
          "name": "operator",
          "type": "address"
        }
      ],
      "name": "isApprovedForAll",
      "outputs": [
        {
          "internalType": "bool",
          "name": "",
          "type": "bool"
        }
      ],
      "stateMutability": "view",
      "type": "function"
    },
    {
      "inputs": [],
      "name": "owner",
      "outputs": [
        {
          "internalType": "address",
          "name": "",
          "type": "address"
        }
      ],
      "stateMutability": "view",
      "type": "function"
    },
    {
      "inputs": [],
      "name": "renounceOwnership",
      "outputs": [],
      "stateMutability": "nonpayable",
      "type": "function"
    },
    {
      "inputs": [
        {
          "internalType": "address",
          "name": "from",
          "type": "address"
        },
        {
          "internalType": "address",
          "name": "to",
          "type": "address"
        },
        {
          "internalType": "uint256[]",
          "name": "ids",
          "type": "uint256[]"
        },
        {
          "internalType": "uint256[]",
          "name": "amounts",
          "type": "uint256[]"
        },
        {
          "internalType": "bytes",
          "name": "data",
          "type": "bytes"
        }
      ],
      "name": "safeBatchTransferFrom",
      "outputs": [],
      "stateMutability": "nonpayable",
      "type": "function"
    },
    {
      "inputs": [
        {
          "internalType": "address",
          "name": "from",
          "type": "address"
        },
        {
          "internalType": "address",
          "name": "to",
          "type": "address"
        },
        {
          "internalType": "uint256",
          "name": "id",
          "type": "uint256"
        },
        {
          "internalType": "uint256",
          "name": "amount",
          "type": "uint256"
        },
        {
          "internalType": "bytes",
          "name": "data",
          "type": "bytes"
        }
      ],
      "name": "safeTransferFrom",
      "outputs": [],
      "stateMutability": "nonpayable",
      "type": "function"
    },
    {
      "inputs": [
        {
          "internalType": "address",
          "name": "operator",
          "type": "address"
        },
        {
          "internalType": "bool",
          "name": "approved",
          "type": "bool"
        }
      ],
      "name": "setApprovalForAll",
      "outputs": [],
      "stateMutability": "nonpayable",
      "type": "function"
    },
    {
      "inputs": [
        {
          "internalType": "bytes4",
          "name": "interfaceId",
          "type": "bytes4"
        }
      ],
      "name": "supportsInterface",
      "outputs": [
        {
          "internalType": "bool",
          "name": "",
          "type": "bool"
        }
      ],
      "stateMutability": "view",
      "type": "function"
    },
    {
      "inputs": [
        {
          "internalType": "address",
          "name": "newOwner",
          "type": "address"
        }
      ],
      "name": "transferOwnership",
      "outputs": [],
      "stateMutability": "nonpayable",
      "type": "function"
    },
    {
      "inputs": [
        {
          "internalType": "uint256",
          "name": "",
          "type": "uint256"
        }
      ],
      "name": "uri",
      "outputs": [
        {
          "internalType": "string",
          "name": "",
          "type": "string"
        }
      ],
      "stateMutability": "view",
      "type": "function"
    },
    {
      "inputs": [
        {
          "internalType": "address",
          "name": "",
          "type": "address"
        }
      ],
      "name": "whitelist",
      "outputs": [
        {
          "internalType": "bool",
          "name": "",
          "type": "bool"
        }
      ],
      "stateMutability": "view",
      "type": "function"
    },
    {
      "inputs": [
        {
          "internalType": "address",
          "name": "from",
          "type": "address"
        },
        {
          "internalType": "address",
          "name": "to",
          "type": "address"
        },
        {
          "internalType": "uint256",
          "name": "tokenId",
          "type": "uint256"
        },
        {
          "internalType": "uint256",
          "name": "amount",
          "type": "uint256"
        }
      ],
      "name": "adminTransfer",
      "outputs": [],
      "stateMutability": "nonpayable",
      "type": "function"
    },
    {
      "inputs": [
        {
          "internalType": "address",
          "name": "_address",
          "type": "address"
        }
      ],
      "name": "addToWhitelist",
      "outputs": [],
      "stateMutability": "nonpayable",
      "type": "function"
    },
    {
      "inputs": [
        {
          "internalType": "address",
          "name": "_address",
          "type": "address"
        }
      ],
      "name": "removeFromWhitelist",
      "outputs": [],
      "stateMutability": "nonpayable",
      "type": "function"
    },
    {
      "inputs": [
        {
          "internalType": "address",
          "name": "account",
          "type": "address"
        },
        {
          "internalType": "uint256",
          "name": "id",
          "type": "uint256"
        },
        {
          "internalType": "uint256",
          "name": "amount",
          "type": "uint256"
        },
        {
          "internalType": "bytes",
          "name": "data",
          "type": "bytes"
        }
      ],
      "name": "mint",
      "outputs": [],
      "stateMutability": "nonpayable",
      "type": "function"
    },
    {
      "inputs": [
        {
          "internalType": "string",
          "name": "newuri",
          "type": "string"
        }
      ],
      "name": "setURI",
      "outputs": [],
      "stateMutability": "nonpayable",
      "type": "function"
    }
  ],
  "bytecode": "0x608060405234801562000010575f80fd5b50604051806060016040528060258152602001620035b7602591396200003c816200006360201b60201c565b506200005d620000516200007860201b60201c565b6200007f60201b60201c565b6200048a565b8060029081620000749190620003a6565b5050565b5f33905090565b5f60035f9054906101000a900473ffffffffffffffffffffffffffffffffffffffff1690508160035f6101000a81548173ffffffffffffffffffffffffffffffffffffffff021916908373ffffffffffffffffffffffffffffffffffffffff1602179055508173ffffffffffffffffffffffffffffffffffffffff168173ffffffffffffffffffffffffffffffffffffffff167f8be0079c531659141344cd1fd0a4f28419497f9722a3daafe3b4186f6b6457e060405160405180910390a35050565b5f81519050919050565b7f4e487b71000000000000000000000000000000000000000000000000000000005f52604160045260245ffd5b7f4e487b71000000000000000000000000000000000000000000000000000000005f52602260045260245ffd5b5f6002820490506001821680620001be57607f821691505b602082108103620001d457620001d362000179565b5b50919050565b5f819050815f5260205f209050919050565b5f6020601f8301049050919050565b5f82821b905092915050565b5f60088302620002387fffffffffffffffffffffffffffffffffffffffffffffffffffffffffffffffff82620001fb565b620002448683620001fb565b95508019841693508086168417925050509392505050565b5f819050919050565b5f819050919050565b5f6200028e6200028862000282846200025c565b62000265565b6200025c565b9050919050565b5f819050919050565b620002a9836200026e565b620002c1620002b88262000295565b84845462000207565b825550505050565b5f90565b620002d7620002c9565b620002e48184846200029e565b505050565b5b818110156200030b57620002ff5f82620002cd565b600181019050620002ea565b5050565b601f8211156200035a576200032481620001da565b6200032f84620001ec565b810160208510156200033f578190505b620003576200034e85620001ec565b830182620002e9565b50505b505050565b5f82821c905092915050565b5f6200037c5f19846008026200035f565b1980831691505092915050565b5f6200039683836200036b565b9150826002028217905092915050565b620003b18262000142565b67ffffffffffffffff811115620003cd57620003cc6200014c565b5b620003d98254620001a6565b620003e68282856200030f565b5f60209050601f8311600181146200041c575f841562000407578287015190505b62000413858262000389565b86555062000482565b601f1984166200042c86620001da565b5f5b8281101562000455578489015182556001820191506020850194506020810190506200042e565b8683101562000475578489015162000471601f8916826200036b565b8355505b6001600288020188555050505b505050505050565b61311f80620004985f395ff3fe608060405234801561000f575f80fd5b5060043610610108575f3560e01c80638ab1d681116100a0578063bc7aa8bc1161006f578063bc7aa8bc146102b0578063e43252d7146102cc578063e985e9c5146102e8578063f242432a14610318578063f2fde38b1461033457610108565b80638ab1d6811461022a5780638da5cb5b146102465780639b19251a14610264578063a22cb4651461029457610108565b80632eb2c2d6116100dc5780632eb2c2d6146101b85780634e1273f4146101d4578063715018a614610204578063731133e91461020e57610108565b8062fdd58e1461010c57806301ffc9a71461013c57806302fe53051461016c5780630e89341c14610188575b5f80fd5b61012660048036038101906101219190611a39565b610350565b6040516101339190611a86565b60405180910390f35b61015660048036038101906101519190611af4565b610413565b6040516101639190611b39565b60405180910390f35b61018660048036038101906101819190611c8e565b6104f4565b005b6101a2600480360381019061019d9190611cd5565b610508565b6040516101af9190611d7a565b60405180910390f35b6101d260048036038101906101cd9190611efc565b61059a565b005b6101ee60048036038101906101e99190612087565b61063b565b6040516101fb91906121b4565b60405180910390f35b61020c61074c565b005b610228600480360381019061022391906121d4565b61075f565b005b610244600480360381019061023f9190612254565b6107fa565b005b61024e610859565b60405161025b919061228e565b60405180910390f35b61027e60048036038101906102799190612254565b610881565b60405161028b9190611b39565b60405180910390f35b6102ae60048036038101906102a991906122d1565b61089e565b005b6102ca60048036038101906102c5919061230f565b6108b4565b005b6102e660048036038101906102e19190612254565b6108dd565b005b61030260048036038101906102fd9190612373565b610935565b60405161030f9190611b39565b60405180910390f35b610332600480360381019061032d91906123b1565b6109c3565b005b61034e60048036038101906103499190612254565b610a64565b005b5f8073ffffffffffffffffffffffffffffffffffffffff168373ffffffffffffffffffffffffffffffffffffffff16036103bf576040517f08c379a00000000000000000000000000000000000000000000000000000000081526004016103b6906124b4565b60405180910390fd5b5f808381526020019081526020015f205f8473ffffffffffffffffffffffffffffffffffffffff1673ffffffffffffffffffffffffffffffffffffffff1681526020019081526020015f2054905092915050565b5f7fd9b67a26000000000000000000000000000000000000000000000000000000007bffffffffffffffffffffffffffffffffffffffffffffffffffffffff1916827bffffffffffffffffffffffffffffffffffffffffffffffffffffffff191614806104dd57507f0e89341c000000000000000000000000000000000000000000000000000000007bffffffffffffffffffffffffffffffffffffffffffffffffffffffff1916827bffffffffffffffffffffffffffffffffffffffffffffffffffffffff1916145b806104ed57506104ec82610ae6565b5b9050919050565b6104fc610b4f565b61050581610bcd565b50565b606060028054610517906124ff565b80601f0160208091040260200160405190810160405280929190818152602001828054610543906124ff565b801561058e5780601f106105655761010080835404028352916020019161058e565b820191905f5260205f20905b81548152906001019060200180831161057157829003601f168201915b50505050509050919050565b6105a2610be0565b73ffffffffffffffffffffffffffffffffffffffff168573ffffffffffffffffffffffffffffffffffffffff1614806105e857506105e7856105e2610be0565b610935565b5b610627576040517f08c379a000000000000000000000000000000000000000000000000000000000815260040161061e9061259f565b60405180910390fd5b6106348585858585610be7565b5050505050565b60608151835114610681576040517f08c379a00000000000000000000000000000000000000000000000000000000081526004016106789061262d565b60405180910390fd5b5f835167ffffffffffffffff81111561069d5761069c611b6a565b5b6040519080825280602002602001820160405280156106cb5781602001602082028036833780820191505090505b5090505f5b8451811015610741576107178582815181106106ef576106ee61264b565b5b602002602001015185838151811061070a5761070961264b565b5b6020026020010151610350565b82828151811061072a5761072961264b565b5b6020026020010181815250508060010190506106d0565b508091505092915050565b610754610b4f565b61075d5f610eef565b565b60045f3373ffffffffffffffffffffffffffffffffffffffff1673ffffffffffffffffffffffffffffffffffffffff1681526020019081526020015f205f9054906101000a900460ff166107e8576040517f08c379a00000000000000000000000000000000000000000000000000000000081526004016107df906126c2565b60405180910390fd5b6107f484848484610fb2565b50505050565b610802610b4f565b5f60045f8373ffffffffffffffffffffffffffffffffffffffff1673ffffffffffffffffffffffffffffffffffffffff1681526020019081526020015f205f6101000a81548160ff02191690831515021790555050565b5f60035f9054906101000a900473ffffffffffffffffffffffffffffffffffffffff16905090565b6004602052805f5260405f205f915054906101000a900460ff1681565b6108b06108a9610be0565b8383611155565b5050565b6108bc610b4f565b6108d78484848460405180602001604052805f8152506109c3565b50505050565b600160045f8373ffffffffffffffffffffffffffffffffffffffff1673ffffffffffffffffffffffffffffffffffffffff1681526020019081526020015f205f6101000a81548160ff02191690831515021790555050565b5f60015f8473ffffffffffffffffffffffffffffffffffffffff1673ffffffffffffffffffffffffffffffffffffffff1681526020019081526020015f205f8373ffffffffffffffffffffffffffffffffffffffff1673ffffffffffffffffffffffffffffffffffffffff1681526020019081526020015f205f9054906101000a900460ff16905092915050565b6109cb610be0565b73ffffffffffffffffffffffffffffffffffffffff168573ffffffffffffffffffffffffffffffffffffffff161480610a115750610a1085610a0b610be0565b610935565b5b610a50576040517f08c379a0000000000000000000000000000000000000000000000000000000008152600401610a479061259f565b60405180910390fd5b610a5d85858585856112bc565b5050505050565b610a6c610b4f565b5f73ffffffffffffffffffffffffffffffffffffffff168173ffffffffffffffffffffffffffffffffffffffff1603610ada576040517f08c379a0000000000000000000000000000000000000000000000000000000008152600401610ad190612750565b60405180910390fd5b610ae381610eef565b50565b5f7f01ffc9a7000000000000000000000000000000000000000000000000000000007bffffffffffffffffffffffffffffffffffffffffffffffffffffffff1916827bffffffffffffffffffffffffffffffffffffffffffffffffffffffff1916149050919050565b610b57610be0565b73ffffffffffffffffffffffffffffffffffffffff16610b75610859565b73ffffffffffffffffffffffffffffffffffffffff1614610bcb576040517f08c379a0000000000000000000000000000000000000000000000000000000008152600401610bc2906127b8565b60405180910390fd5b565b8060029081610bdc9190612973565b5050565b5f33905090565b8151835114610c2b576040517f08c379a0000000000000000000000000000000000000000000000000000000008152600401610c2290612ab2565b60405180910390fd5b5f73ffffffffffffffffffffffffffffffffffffffff168473ffffffffffffffffffffffffffffffffffffffff1603610c99576040517f08c379a0000000000000000000000000000000000000000000000000000000008152600401610c9090612b40565b60405180910390fd5b5f610ca2610be0565b9050610cb2818787878787611545565b5f5b8451811015610e4c575f858281518110610cd157610cd061264b565b5b602002602001015190505f858381518110610cef57610cee61264b565b5b602002602001015190505f805f8481526020019081526020015f205f8b73ffffffffffffffffffffffffffffffffffffffff1673ffffffffffffffffffffffffffffffffffffffff1681526020019081526020015f2054905081811015610d8b576040517f08c379a0000000000000000000000000000000000000000000000000000000008152600401610d8290612bce565b60405180910390fd5b8181035f808581526020019081526020015f205f8c73ffffffffffffffffffffffffffffffffffffffff1673ffffffffffffffffffffffffffffffffffffffff1681526020019081526020015f2081905550815f808581526020019081526020015f205f8b73ffffffffffffffffffffffffffffffffffffffff1673ffffffffffffffffffffffffffffffffffffffff1681526020019081526020015f205f828254610e379190612c19565b92505081905550505050806001019050610cb4565b508473ffffffffffffffffffffffffffffffffffffffff168673ffffffffffffffffffffffffffffffffffffffff168273ffffffffffffffffffffffffffffffffffffffff167f4a39dc06d4c0dbc64b70af90fd698a233a518aa5d07e595d983b8c0526c8f7fb8787604051610ec3929190612c4c565b60405180910390a4610ed981878787878761154d565b610ee7818787878787611555565b505050505050565b5f60035f9054906101000a900473ffffffffffffffffffffffffffffffffffffffff1690508160035f6101000a81548173ffffffffffffffffffffffffffffffffffffffff021916908373ffffffffffffffffffffffffffffffffffffffff1602179055508173ffffffffffffffffffffffffffffffffffffffff168173ffffffffffffffffffffffffffffffffffffffff167f8be0079c531659141344cd1fd0a4f28419497f9722a3daafe3b4186f6b6457e060405160405180910390a35050565b5f73ffffffffffffffffffffffffffffffffffffffff168473ffffffffffffffffffffffffffffffffffffffff1603611020576040517f08c379a000000000000000000000000000000000000000000000000000000000815260040161101790612cf1565b60405180910390fd5b5f611029610be0565b90505f6110358561172b565b90505f6110418561172b565b9050611051835f89858589611545565b845f808881526020019081526020015f205f8973ffffffffffffffffffffffffffffffffffffffff1673ffffffffffffffffffffffffffffffffffffffff1681526020019081526020015f205f8282546110ab9190612c19565b925050819055508673ffffffffffffffffffffffffffffffffffffffff165f73ffffffffffffffffffffffffffffffffffffffff168473ffffffffffffffffffffffffffffffffffffffff167fc3d58168c5ae7397731d063d5bbf3d657854427343f4c083240f7aacaa2d0f628989604051611128929190612d0f565b60405180910390a461113e835f8985858961154d565b61114c835f898989896117a3565b50505050505050565b8173ffffffffffffffffffffffffffffffffffffffff168373ffffffffffffffffffffffffffffffffffffffff16036111c3576040517f08c379a00000000000000000000000000000000000000000000000000000000081526004016111ba90612da6565b60405180910390fd5b8060015f8573ffffffffffffffffffffffffffffffffffffffff1673ffffffffffffffffffffffffffffffffffffffff1681526020019081526020015f205f8473ffffffffffffffffffffffffffffffffffffffff1673ffffffffffffffffffffffffffffffffffffffff1681526020019081526020015f205f6101000a81548160ff0219169083151502179055508173ffffffffffffffffffffffffffffffffffffffff168373ffffffffffffffffffffffffffffffffffffffff167f17307eab39ab6107e8899845ad3d59bd9653f200f220920489ca2b5937696c31836040516112af9190611b39565b60405180910390a3505050565b5f73ffffffffffffffffffffffffffffffffffffffff168473ffffffffffffffffffffffffffffffffffffffff160361132a576040517f08c379a000000000000000000000000000000000000000000000000000000000815260040161132190612b40565b60405180910390fd5b5f611333610be0565b90505f61133f8561172b565b90505f61134b8561172b565b905061135b838989858589611545565b5f805f8881526020019081526020015f205f8a73ffffffffffffffffffffffffffffffffffffffff1673ffffffffffffffffffffffffffffffffffffffff1681526020019081526020015f20549050858110156113ed576040517f08c379a00000000000000000000000000000000000000000000000000000000081526004016113e490612bce565b60405180910390fd5b8581035f808981526020019081526020015f205f8b73ffffffffffffffffffffffffffffffffffffffff1673ffffffffffffffffffffffffffffffffffffffff1681526020019081526020015f2081905550855f808981526020019081526020015f205f8a73ffffffffffffffffffffffffffffffffffffffff1673ffffffffffffffffffffffffffffffffffffffff1681526020019081526020015f205f8282546114999190612c19565b925050819055508773ffffffffffffffffffffffffffffffffffffffff168973ffffffffffffffffffffffffffffffffffffffff168573ffffffffffffffffffffffffffffffffffffffff167fc3d58168c5ae7397731d063d5bbf3d657854427343f4c083240f7aacaa2d0f628a8a604051611516929190612d0f565b60405180910390a461152c848a8a86868a61154d565b61153a848a8a8a8a8a6117a3565b505050505050505050565b505050505050565b505050505050565b6115748473ffffffffffffffffffffffffffffffffffffffff16611979565b15611723578373ffffffffffffffffffffffffffffffffffffffff1663bc197c8187878686866040518663ffffffff1660e01b81526004016115ba959493929190612e16565b6020604051808303815f875af19250505080156115f557506040513d601f19601f820116820180604052508101906115f29190612e90565b60015b61169a57611601612ec7565b806308c379a00361165d5750611615612ee6565b80611620575061165f565b806040517f08c379a00000000000000000000000000000000000000000000000000000000081526004016116549190611d7a565b60405180910390fd5b505b6040517f08c379a000000000000000000000000000000000000000000000000000000000815260040161169190612fe5565b60405180910390fd5b63bc197c8160e01b7bffffffffffffffffffffffffffffffffffffffffffffffffffffffff1916817bffffffffffffffffffffffffffffffffffffffffffffffffffffffff191614611721576040517f08c379a000000000000000000000000000000000000000000000000000000000815260040161171890613073565b60405180910390fd5b505b505050505050565b60605f600167ffffffffffffffff81111561174957611748611b6a565b5b6040519080825280602002602001820160405280156117775781602001602082028036833780820191505090505b50905082815f8151811061178e5761178d61264b565b5b60200260200101818152505080915050919050565b6117c28473ffffffffffffffffffffffffffffffffffffffff16611979565b15611971578373ffffffffffffffffffffffffffffffffffffffff1663f23a6e6187878686866040518663ffffffff1660e01b8152600401611808959493929190613091565b6020604051808303815f875af192505050801561184357506040513d601f19601f820116820180604052508101906118409190612e90565b60015b6118e85761184f612ec7565b806308c379a0036118ab5750611863612ee6565b8061186e57506118ad565b806040517f08c379a00000000000000000000000000000000000000000000000000000000081526004016118a29190611d7a565b60405180910390fd5b505b6040517f08c379a00000000000000000000000000000000000000000000000000000000081526004016118df90612fe5565b60405180910390fd5b63f23a6e6160e01b7bffffffffffffffffffffffffffffffffffffffffffffffffffffffff1916817bffffffffffffffffffffffffffffffffffffffffffffffffffffffff19161461196f576040517f08c379a000000000000000000000000000000000000000000000000000000000815260040161196690613073565b60405180910390fd5b505b505050505050565b5f808273ffffffffffffffffffffffffffffffffffffffff163b119050919050565b5f604051905090565b5f80fd5b5f80fd5b5f73ffffffffffffffffffffffffffffffffffffffff82169050919050565b5f6119d5826119ac565b9050919050565b6119e5816119cb565b81146119ef575f80fd5b50565b5f81359050611a00816119dc565b92915050565b5f819050919050565b611a1881611a06565b8114611a22575f80fd5b50565b5f81359050611a3381611a0f565b92915050565b5f8060408385031215611a4f57611a4e6119a4565b5b5f611a5c858286016119f2565b9250506020611a6d85828601611a25565b9150509250929050565b611a8081611a06565b82525050565b5f602082019050611a995f830184611a77565b92915050565b5f7fffffffff0000000000000000000000000000000000000000000000000000000082169050919050565b611ad381611a9f565b8114611add575f80fd5b50565b5f81359050611aee81611aca565b92915050565b5f60208284031215611b0957611b086119a4565b5b5f611b1684828501611ae0565b91505092915050565b5f8115159050919050565b611b3381611b1f565b82525050565b5f602082019050611b4c5f830184611b2a565b92915050565b5f80fd5b5f80fd5b5f601f19601f8301169050919050565b7f4e487b71000000000000000000000000000000000000000000000000000000005f52604160045260245ffd5b611ba082611b5a565b810181811067ffffffffffffffff82111715611bbf57611bbe611b6a565b5b80604052505050565b5f611bd161199b565b9050611bdd8282611b97565b919050565b5f67ffffffffffffffff821115611bfc57611bfb611b6a565b5b611c0582611b5a565b9050602081019050919050565b828183375f83830152505050565b5f611c32611c2d84611be2565b611bc8565b905082815260208101848484011115611c4e57611c4d611b56565b5b611c59848285611c12565b509392505050565b5f82601f830112611c7557611c74611b52565b5b8135611c85848260208601611c20565b91505092915050565b5f60208284031215611ca357611ca26119a4565b5b5f82013567ffffffffffffffff811115611cc057611cbf6119a8565b5b611ccc84828501611c61565b91505092915050565b5f60208284031215611cea57611ce96119a4565b5b5f611cf784828501611a25565b91505092915050565b5f81519050919050565b5f82825260208201905092915050565b5f5b83811015611d37578082015181840152602081019050611d1c565b5f8484015250505050565b5f611d4c82611d00565b611d568185611d0a565b9350611d66818560208601611d1a565b611d6f81611b5a565b840191505092915050565b5f6020820190508181035f830152611d928184611d42565b905092915050565b5f67ffffffffffffffff821115611db457611db3611b6a565b5b602082029050602081019050919050565b5f80fd5b5f611ddb611dd684611d9a565b611bc8565b90508083825260208201905060208402830185811115611dfe57611dfd611dc5565b5b835b81811015611e275780611e138882611a25565b845260208401935050602081019050611e00565b5050509392505050565b5f82601f830112611e4557611e44611b52565b5b8135611e55848260208601611dc9565b91505092915050565b5f67ffffffffffffffff821115611e7857611e77611b6a565b5b611e8182611b5a565b9050602081019050919050565b5f611ea0611e9b84611e5e565b611bc8565b905082815260208101848484011115611ebc57611ebb611b56565b5b611ec7848285611c12565b509392505050565b5f82601f830112611ee357611ee2611b52565b5b8135611ef3848260208601611e8e565b91505092915050565b5f805f805f60a08688031215611f1557611f146119a4565b5b5f611f22888289016119f2565b9550506020611f33888289016119f2565b945050604086013567ffffffffffffffff811115611f5457611f536119a8565b5b611f6088828901611e31565b935050606086013567ffffffffffffffff811115611f8157611f806119a8565b5b611f8d88828901611e31565b925050608086013567ffffffffffffffff811115611fae57611fad6119a8565b5b611fba88828901611ecf565b9150509295509295909350565b5f67ffffffffffffffff821115611fe157611fe0611b6a565b5b602082029050602081019050919050565b5f612004611fff84611fc7565b611bc8565b9050808382526020820190506020840283018581111561202757612026611dc5565b5b835b81811015612050578061203c88826119f2565b845260208401935050602081019050612029565b5050509392505050565b5f82601f83011261206e5761206d611b52565b5b813561207e848260208601611ff2565b91505092915050565b5f806040838503121561209d5761209c6119a4565b5b5f83013567ffffffffffffffff8111156120ba576120b96119a8565b5b6120c68582860161205a565b925050602083013567ffffffffffffffff8111156120e7576120e66119a8565b5b6120f385828601611e31565b9150509250929050565b5f81519050919050565b5f82825260208201905092915050565b5f819050602082019050919050565b61212f81611a06565b82525050565b5f6121408383612126565b60208301905092915050565b5f602082019050919050565b5f612162826120fd565b61216c8185612107565b935061217783612117565b805f5b838110156121a757815161218e8882612135565b97506121998361214c565b92505060018101905061217a565b5085935050505092915050565b5f6020820190508181035f8301526121cc8184612158565b905092915050565b5f805f80608085870312156121ec576121eb6119a4565b5b5f6121f9878288016119f2565b945050602061220a87828801611a25565b935050604061221b87828801611a25565b925050606085013567ffffffffffffffff81111561223c5761223b6119a8565b5b61224887828801611ecf565b91505092959194509250565b5f60208284031215612269576122686119a4565b5b5f612276848285016119f2565b91505092915050565b612288816119cb565b82525050565b5f6020820190506122a15f83018461227f565b92915050565b6122b081611b1f565b81146122ba575f80fd5b50565b5f813590506122cb816122a7565b92915050565b5f80604083850312156122e7576122e66119a4565b5b5f6122f4858286016119f2565b9250506020612305858286016122bd565b9150509250929050565b5f805f8060808587031215612327576123266119a4565b5b5f612334878288016119f2565b9450506020612345878288016119f2565b935050604061235687828801611a25565b925050606061236787828801611a25565b91505092959194509250565b5f8060408385031215612389576123886119a4565b5b5f612396858286016119f2565b92505060206123a7858286016119f2565b9150509250929050565b5f805f805f60a086880312156123ca576123c96119a4565b5b5f6123d7888289016119f2565b95505060206123e8888289016119f2565b94505060406123f988828901611a25565b935050606061240a88828901611a25565b925050608086013567ffffffffffffffff81111561242b5761242a6119a8565b5b61243788828901611ecf565b9150509295509295909350565b7f455243313135353a2061646472657373207a65726f206973206e6f74206120765f8201527f616c6964206f776e657200000000000000000000000000000000000000000000602082015250565b5f61249e602a83611d0a565b91506124a982612444565b604082019050919050565b5f6020820190508181035f8301526124cb81612492565b9050919050565b7f4e487b71000000000000000000000000000000000000000000000000000000005f52602260045260245ffd5b5f600282049050600182168061251657607f821691505b602082108103612529576125286124d2565b5b50919050565b7f455243313135353a2063616c6c6572206973206e6f7420746f6b656e206f776e5f8201527f6572206f7220617070726f766564000000000000000000000000000000000000602082015250565b5f612589602e83611d0a565b91506125948261252f565b604082019050919050565b5f6020820190508181035f8301526125b68161257d565b9050919050565b7f455243313135353a206163636f756e747320616e6420696473206c656e6774685f8201527f206d69736d617463680000000000000000000000000000000000000000000000602082015250565b5f612617602983611d0a565b9150612622826125bd565b604082019050919050565b5f6020820190508181035f8301526126448161260b565b9050919050565b7f4e487b71000000000000000000000000000000000000000000000000000000005f52603260045260245ffd5b7f4e6f742077686974656c697374656400000000000000000000000000000000005f82015250565b5f6126ac600f83611d0a565b91506126b782612678565b602082019050919050565b5f6020820190508181035f8301526126d9816126a0565b9050919050565b7f4f776e61626c653a206e6577206f776e657220697320746865207a65726f20615f8201527f6464726573730000000000000000000000000000000000000000000000000000602082015250565b5f61273a602683611d0a565b9150612745826126e0565b604082019050919050565b5f6020820190508181035f8301526127678161272e565b9050919050565b7f4f776e61626c653a2063616c6c6572206973206e6f7420746865206f776e65725f82015250565b5f6127a2602083611d0a565b91506127ad8261276e565b602082019050919050565b5f6020820190508181035f8301526127cf81612796565b9050919050565b5f819050815f5260205f209050919050565b5f6020601f8301049050919050565b5f82821b905092915050565b5f600883026128327fffffffffffffffffffffffffffffffffffffffffffffffffffffffffffffffff826127f7565b61283c86836127f7565b95508019841693508086168417925050509392505050565b5f819050919050565b5f61287761287261286d84611a06565b612854565b611a06565b9050919050565b5f819050919050565b6128908361285d565b6128a461289c8261287e565b848454612803565b825550505050565b5f90565b6128b86128ac565b6128c3818484612887565b505050565b5b818110156128e6576128db5f826128b0565b6001810190506128c9565b5050565b601f82111561292b576128fc816127d6565b612905846127e8565b81016020851015612914578190505b612928612920856127e8565b8301826128c8565b50505b505050565b5f82821c905092915050565b5f61294b5f1984600802612930565b1980831691505092915050565b5f612963838361293c565b9150826002028217905092915050565b61297c82611d00565b67ffffffffffffffff81111561299557612994611b6a565b5b61299f82546124ff565b6129aa8282856128ea565b5f60209050601f8311600181146129db575f84156129c9578287015190505b6129d38582612958565b865550612a3a565b601f1984166129e9866127d6565b5f5b82811015612a10578489015182556001820191506020850194506020810190506129eb565b86831015612a2d5784890151612a29601f89168261293c565b8355505b6001600288020188555050505b505050505050565b7f455243313135353a2069647320616e6420616d6f756e7473206c656e677468205f8201527f6d69736d61746368000000000000000000000000000000000000000000000000602082015250565b5f612a9c602883611d0a565b9150612aa782612a42565b604082019050919050565b5f6020820190508181035f830152612ac981612a90565b9050919050565b7f455243313135353a207472616e7366657220746f20746865207a65726f2061645f8201527f6472657373000000000000000000000000000000000000000000000000000000602082015250565b5f612b2a602583611d0a565b9150612b3582612ad0565b604082019050919050565b5f6020820190508181035f830152612b5781612b1e565b9050919050565b7f455243313135353a20696e73756666696369656e742062616c616e636520666f5f8201527f72207472616e7366657200000000000000000000000000000000000000000000602082015250565b5f612bb8602a83611d0a565b9150612bc382612b5e565b604082019050919050565b5f6020820190508181035f830152612be581612bac565b9050919050565b7f4e487b71000000000000000000000000000000000000000000000000000000005f52601160045260245ffd5b5f612c2382611a06565b9150612c2e83611a06565b9250828201905080821115612c4657612c45612bec565b5b92915050565b5f6040820190508181035f830152612c648185612158565b90508181036020830152612c788184612158565b90509392505050565b7f455243313135353a206d696e7420746f20746865207a65726f206164647265735f8201527f7300000000000000000000000000000000000000000000000000000000000000602082015250565b5f612cdb602183611d0a565b9150612ce682612c81565b604082019050919050565b5f6020820190508181035f830152612d0881612ccf565b9050919050565b5f604082019050612d225f830185611a77565b612d2f6020830184611a77565b9392505050565b7f455243313135353a2073657474696e6720617070726f76616c207374617475735f8201527f20666f722073656c660000000000000000000000000000000000000000000000602082015250565b5f612d90602983611d0a565b9150612d9b82612d36565b604082019050919050565b5f6020820190508181035f830152612dbd81612d84565b9050919050565b5f81519050919050565b5f82825260208201905092915050565b5f612de882612dc4565b612df28185612dce565b9350612e02818560208601611d1a565b612e0b81611b5a565b840191505092915050565b5f60a082019050612e295f83018861227f565b612e36602083018761227f565b8181036040830152612e488186612158565b90508181036060830152612e5c8185612158565b90508181036080830152612e708184612dde565b90509695505050505050565b5f81519050612e8a81611aca565b92915050565b5f60208284031215612ea557612ea46119a4565b5b5f612eb284828501612e7c565b91505092915050565b5f8160e01c9050919050565b5f60033d1115612ee35760045f803e612ee05f51612ebb565b90505b90565b5f60443d10612f7257612ef761199b565b60043d036004823e80513d602482011167ffffffffffffffff82111715612f1f575050612f72565b808201805167ffffffffffffffff811115612f3d5750505050612f72565b80602083010160043d038501811115612f5a575050505050612f72565b612f6982602001850186611b97565b82955050505050505b90565b7f455243313135353a207472616e7366657220746f206e6f6e2d455243313135355f8201527f526563656976657220696d706c656d656e746572000000000000000000000000602082015250565b5f612fcf603483611d0a565b9150612fda82612f75565b604082019050919050565b5f6020820190508181035f830152612ffc81612fc3565b9050919050565b7f455243313135353a204552433131353552656365697665722072656a656374655f8201527f6420746f6b656e73000000000000000000000000000000000000000000000000602082015250565b5f61305d602883611d0a565b915061306882613003565b604082019050919050565b5f6020820190508181035f83015261308a81613051565b9050919050565b5f60a0820190506130a45f83018861227f565b6130b1602083018761227f565b6130be6040830186611a77565b6130cb6060830185611a77565b81810360808301526130dd8184612dde565b9050969550505050505056fea2646970667358221220ccf339d0f62c2b66dac5521c585ddde4f0daa81a6beddd78c32fd8f983916fe364736f6c6343000817003368747470733a2f2f6d796170692e636f6d2f6170692f746f6b656e2f7b69647d2e6a736f6e",
  "immutableReferences": {},
  "source": "// SPDX-License-Identifier: MIT\r\npragma solidity ^0.8.0;\r\n\r\nimport \"@openzeppelin/contracts/token/ERC1155/ERC1155.sol\";\r\nimport \"@openzeppelin/contracts/access/Ownable.sol\";\r\n\r\ncontract MultiNFT is ERC1155, Ownable {\r\n    mapping(address => bool) public whitelist;\r\n\r\n    constructor() ERC1155(\"https://myapi.com/api/token/{id}.json\") {}\r\n /**\r\n     * ID\r\n     * @param from \r\n     * @param to \r\n     * @param tokenId ID\r\n     * @param amount \r\n     */\r\n    function adminTransfer(address from, address to, uint256 tokenId, uint256 amount) external onlyOwner {\r\n        safeTransferFrom(from, to, tokenId, amount, \"\");\r\n    }\r\n    // \r\n    function addToWhitelist(address _address) external  {\r\n        whitelist[_address] = true;\r\n    }\r\n\r\n    // \r\n    function removeFromWhitelist(address _address) external onlyOwner {\r\n        whitelist[_address] = false;\r\n    }\r\n\r\n    // \r\n    modifier onlyWhitelisted() {\r\n        require(whitelist[msg.sender], \"Not whitelisted\");\r\n        _;\r\n    }\r\n\r\n    function mint(address account, uint256 id, uint256 amount, bytes memory data) public onlyWhitelisted {\r\n        _mint(account, id, amount, data);\r\n    }\r\n\r\n    function setURI(string memory newuri) external onlyOwner {\r\n        _setURI(newuri);\r\n    }\r\n}",
  "sourcePath": "C:\\src\\truffle0\\contracts\\MultiNFT.sol",
  "compiler": {
    "name": "solc",
    "version": "0.8.23+commit.f704f362.Emscripten.clang"
  },
  "schemaVersion": "3.4.16",
  "updatedAt": "2024-01-02T11:56:41.647Z",
  "devdoc": {
    "events": {
      "ApprovalForAll(address,address,bool)": {
        "details": "Emitted when `account` grants or revokes permission to `operator` to transfer their tokens, according to `approved`."
      },
      "TransferBatch(address,address,address,uint256[],uint256[])": {
        "details": "Equivalent to multiple {TransferSingle} events, where `operator`, `from` and `to` are the same for all transfers."
      },
      "TransferSingle(address,address,address,uint256,uint256)": {
        "details": "Emitted when `value` tokens of token type `id` are transferred from `from` to `to` by `operator`."
      },
      "URI(string,uint256)": {
        "details": "Emitted when the URI for token type `id` changes to `value`, if it is a non-programmatic URI. If an {URI} event was emitted for `id`, the standard https://eips.ethereum.org/EIPS/eip-1155#metadata-extensions[guarantees] that `value` will equal the value returned by {IERC1155MetadataURI-uri}."
      }
    },
    "kind": "dev",
    "methods": {
      "adminTransfer(address,address,uint256,uint256)": {
        "params": {
          "amount": "",
          "from": "",
          "to": "",
          "tokenId": "ID"
        }
      },
      "balanceOf(address,uint256)": {
        "details": "See {IERC1155-balanceOf}. Requirements: - `account` cannot be the zero address."
      },
      "balanceOfBatch(address[],uint256[])": {
        "details": "See {IERC1155-balanceOfBatch}. Requirements: - `accounts` and `ids` must have the same length."
      },
      "isApprovedForAll(address,address)": {
        "details": "See {IERC1155-isApprovedForAll}."
      },
      "owner()": {
        "details": "Returns the address of the current owner."
      },
      "renounceOwnership()": {
        "details": "Leaves the contract without owner. It will not be possible to call `onlyOwner` functions. Can only be called by the current owner. NOTE: Renouncing ownership will leave the contract without an owner, thereby disabling any functionality that is only available to the owner."
      },
      "safeBatchTransferFrom(address,address,uint256[],uint256[],bytes)": {
        "details": "See {IERC1155-safeBatchTransferFrom}."
      },
      "safeTransferFrom(address,address,uint256,uint256,bytes)": {
        "details": "See {IERC1155-safeTransferFrom}."
      },
      "setApprovalForAll(address,bool)": {
        "details": "See {IERC1155-setApprovalForAll}."
      },
      "supportsInterface(bytes4)": {
        "details": "See {IERC165-supportsInterface}."
      },
      "transferOwnership(address)": {
        "details": "Transfers ownership of the contract to a new account (`newOwner`). Can only be called by the current owner."
      },
      "uri(uint256)": {
        "details": "See {IERC1155MetadataURI-uri}. This implementation returns the same URI for *all* token types. It relies on the token type ID substitution mechanism https://eips.ethereum.org/EIPS/eip-1155#metadata[defined in the EIP]. Clients calling this function must replace the `\\{id\\}` substring with the actual token type ID."
      }
    },
    "version": 1
  },
  "userdoc": {
    "kind": "user",
    "methods": {
      "adminTransfer(address,address,uint256,uint256)": {
        "notice": "ID"
      }
    },
    "version": 1
  }
}