{
  "contractName": "WhitelistedNFT",
  "abi": [
    {
      "inputs": [
        {
          "internalType": "string",
          "name": "_name",
          "type": "string"
        },
        {
          "internalType": "string",
          "name": "_symbol",
          "type": "string"
        },
        {
          "internalType": "bytes32",
          "name": "_merkleRoot",
          "type": "bytes32"
        }
      ],
      "stateMutability": "nonpayable",
      "type": "constructor"
    },
    {
      "anonymous": false,
      "inputs": [
        {
          "indexed": true,
          "internalType": "address",
          "name": "owner",
          "type": "address"
        },
        {
          "indexed": true,
          "internalType": "address",
          "name": "approved",
          "type": "address"
        },
        {
          "indexed": true,
          "internalType": "uint256",
          "name": "tokenId",
          "type": "uint256"
        }
      ],
      "name": "Approval",
      "type": "event"
    },
    {
      "anonymous": false,
      "inputs": [
        {
          "indexed": true,
          "internalType": "address",
          "name": "owner",
          "type": "address"
        },
        {
          "indexed": true,
          "internalType": "address",
          "name": "operator",
          "type": "address"
        },
        {
          "indexed": false,
          "internalType": "bool",
          "name": "approved",
          "type": "bool"
        }
      ],
      "name": "ApprovalForAll",
      "type": "event"
    },
    {
      "anonymous": false,
      "inputs": [
        {
          "indexed": true,
          "internalType": "address",
          "name": "previousOwner",
          "type": "address"
        },
        {
          "indexed": true,
          "internalType": "address",
          "name": "newOwner",
          "type": "address"
        }
      ],
      "name": "OwnershipTransferred",
      "type": "event"
    },
    {
      "anonymous": false,
      "inputs": [
        {
          "indexed": true,
          "internalType": "address",
          "name": "from",
          "type": "address"
        },
        {
          "indexed": true,
          "internalType": "address",
          "name": "to",
          "type": "address"
        },
        {
          "indexed": true,
          "internalType": "uint256",
          "name": "tokenId",
          "type": "uint256"
        }
      ],
      "name": "Transfer",
      "type": "event"
    },
    {
      "inputs": [
        {
          "internalType": "address",
          "name": "to",
          "type": "address"
        },
        {
          "internalType": "uint256",
          "name": "tokenId",
          "type": "uint256"
        }
      ],
      "name": "approve",
      "outputs": [],
      "stateMutability": "nonpayable",
      "type": "function"
    },
    {
      "inputs": [
        {
          "internalType": "address",
          "name": "owner",
          "type": "address"
        }
      ],
      "name": "balanceOf",
      "outputs": [
        {
          "internalType": "uint256",
          "name": "",
          "type": "uint256"
        }
      ],
      "stateMutability": "view",
      "type": "function",
      "constant": true
    },
    {
      "inputs": [
        {
          "internalType": "address",
          "name": "",
          "type": "address"
        }
      ],
      "name": "claimed",
      "outputs": [
        {
          "internalType": "bool",
          "name": "",
          "type": "bool"
        }
      ],
      "stateMutability": "view",
      "type": "function",
      "constant": true
    },
    {
      "inputs": [
        {
          "internalType": "uint256",
          "name": "tokenId",
          "type": "uint256"
        }
      ],
      "name": "getApproved",
      "outputs": [
        {
          "internalType": "address",
          "name": "",
          "type": "address"
        }
      ],
      "stateMutability": "view",
      "type": "function",
      "constant": true
    },
    {
      "inputs": [
        {
          "internalType": "address",
          "name": "owner",
          "type": "address"
        },
        {
          "internalType": "address",
          "name": "operator",
          "type": "address"
        }
      ],
      "name": "isApprovedForAll",
      "outputs": [
        {
          "internalType": "bool",
          "name": "",
          "type": "bool"
        }
      ],
      "stateMutability": "view",
      "type": "function",
      "constant": true
    },
    {
      "inputs": [],
      "name": "merkleRoot",
      "outputs": [
        {
          "internalType": "bytes32",
          "name": "",
          "type": "bytes32"
        }
      ],
      "stateMutability": "view",
      "type": "function",
      "constant": true
    },
    {
      "inputs": [],
      "name": "name",
      "outputs": [
        {
          "internalType": "string",
          "name": "",
          "type": "string"
        }
      ],
      "stateMutability": "view",
      "type": "function",
      "constant": true
    },
    {
      "inputs": [],
      "name": "owner",
      "outputs": [
        {
          "internalType": "address",
          "name": "",
          "type": "address"
        }
      ],
      "stateMutability": "view",
      "type": "function",
      "constant": true
    },
    {
      "inputs": [
        {
          "internalType": "uint256",
          "name": "tokenId",
          "type": "uint256"
        }
      ],
      "name": "ownerOf",
      "outputs": [
        {
          "internalType": "address",
          "name": "",
          "type": "address"
        }
      ],
      "stateMutability": "view",
      "type": "function",
      "constant": true
    },
    {
      "inputs": [],
      "name": "renounceOwnership",
      "outputs": [],
      "stateMutability": "nonpayable",
      "type": "function"
    },
    {
      "inputs": [
        {
          "internalType": "address",
          "name": "from",
          "type": "address"
        },
        {
          "internalType": "address",
          "name": "to",
          "type": "address"
        },
        {
          "internalType": "uint256",
          "name": "tokenId",
          "type": "uint256"
        }
      ],
      "name": "safeTransferFrom",
      "outputs": [],
      "stateMutability": "nonpayable",
      "type": "function"
    },
    {
      "inputs": [
        {
          "internalType": "address",
          "name": "from",
          "type": "address"
        },
        {
          "internalType": "address",
          "name": "to",
          "type": "address"
        },
        {
          "internalType": "uint256",
          "name": "tokenId",
          "type": "uint256"
        },
        {
          "internalType": "bytes",
          "name": "data",
          "type": "bytes"
        }
      ],
      "name": "safeTransferFrom",
      "outputs": [],
      "stateMutability": "nonpayable",
      "type": "function"
    },
    {
      "inputs": [
        {
          "internalType": "address",
          "name": "operator",
          "type": "address"
        },
        {
          "internalType": "bool",
          "name": "approved",
          "type": "bool"
        }
      ],
      "name": "setApprovalForAll",
      "outputs": [],
      "stateMutability": "nonpayable",
      "type": "function"
    },
    {
      "inputs": [
        {
          "internalType": "bytes4",
          "name": "interfaceId",
          "type": "bytes4"
        }
      ],
      "name": "supportsInterface",
      "outputs": [
        {
          "internalType": "bool",
          "name": "",
          "type": "bool"
        }
      ],
      "stateMutability": "view",
      "type": "function",
      "constant": true
    },
    {
      "inputs": [],
      "name": "symbol",
      "outputs": [
        {
          "internalType": "string",
          "name": "",
          "type": "string"
        }
      ],
      "stateMutability": "view",
      "type": "function",
      "constant": true
    },
    {
      "inputs": [
        {
          "internalType": "uint256",
          "name": "index",
          "type": "uint256"
        }
      ],
      "name": "tokenByIndex",
      "outputs": [
        {
          "internalType": "uint256",
          "name": "",
          "type": "uint256"
        }
      ],
      "stateMutability": "view",
      "type": "function",
      "constant": true
    },
    {
      "inputs": [
        {
          "internalType": "address",
          "name": "owner",
          "type": "address"
        },
        {
          "internalType": "uint256",
          "name": "index",
          "type": "uint256"
        }
      ],
      "name": "tokenOfOwnerByIndex",
      "outputs": [
        {
          "internalType": "uint256",
          "name": "",
          "type": "uint256"
        }
      ],
      "stateMutability": "view",
      "type": "function",
      "constant": true
    },
    {
      "inputs": [
        {
          "internalType": "uint256",
          "name": "tokenId",
          "type": "uint256"
        }
      ],
      "name": "tokenURI",
      "outputs": [
        {
          "internalType": "string",
          "name": "",
          "type": "string"
        }
      ],
      "stateMutability": "view",
      "type": "function",
      "constant": true
    },
    {
      "inputs": [],
      "name": "totalSupply",
      "outputs": [
        {
          "internalType": "uint256",
          "name": "",
          "type": "uint256"
        }
      ],
      "stateMutability": "view",
      "type": "function",
      "constant": true
    },
    {
      "inputs": [
        {
          "internalType": "address",
          "name": "from",
          "type": "address"
        },
        {
          "internalType": "address",
          "name": "to",
          "type": "address"
        },
        {
          "internalType": "uint256",
          "name": "tokenId",
          "type": "uint256"
        }
      ],
      "name": "transferFrom",
      "outputs": [],
      "stateMutability": "nonpayable",
      "type": "function"
    },
    {
      "inputs": [
        {
          "internalType": "address",
          "name": "newOwner",
          "type": "address"
        }
      ],
      "name": "transferOwnership",
      "outputs": [],
      "stateMutability": "nonpayable",
      "type": "function"
    },
    {
      "inputs": [
        {
          "internalType": "uint256",
          "name": "tokenId",
          "type": "uint256"
        },
        {
          "internalType": "bytes32[]",
          "name": "merkleProof",
          "type": "bytes32[]"
        }
      ],
      "name": "claim",
      "outputs": [],
      "stateMutability": "nonpayable",
      "type": "function"
    },
    {
      "inputs": [
        {
          "internalType": "bytes32",
          "name": "_merkleRoot",
          "type": "bytes32"
        }
      ],
      "name": "setMerkleRoot",
      "outputs": [],
      "stateMutability": "nonpayable",
      "type": "function"
    }
  ],
  "bytecode": "0x60806040523480156200001157600080fd5b5060405162003d2c38038062003d2c8339818101604052810190620000379190620002a4565b82828160009080519060200190620000519291906200016b565b5080600190805190602001906200006a9291906200016b565b5050506200008d620000816200009d60201b60201c565b620000a560201b60201c565b80600b81905550505050620004c0565b600033905090565b6000600a60009054906101000a900473ffffffffffffffffffffffffffffffffffffffff16905081600a60006101000a81548173ffffffffffffffffffffffffffffffffffffffff021916908373ffffffffffffffffffffffffffffffffffffffff1602179055508173ffffffffffffffffffffffffffffffffffffffff168173ffffffffffffffffffffffffffffffffffffffff167f8be0079c531659141344cd1fd0a4f28419497f9722a3daafe3b4186f6b6457e060405160405180910390a35050565b8280546200017990620003cb565b90600052602060002090601f0160209004810192826200019d5760008555620001e9565b82601f10620001b857805160ff1916838001178555620001e9565b82800160010185558215620001e9579182015b82811115620001e8578251825591602001919060010190620001cb565b5b509050620001f89190620001fc565b5090565b5b8082111562000217576000816000905550600101620001fd565b5090565b6000620002326200022c8462000355565b6200032c565b9050828152602081018484840111156200024b57600080fd5b6200025884828562000395565b509392505050565b6000815190506200027181620004a6565b92915050565b600082601f8301126200028957600080fd5b81516200029b8482602086016200021b565b91505092915050565b600080600060608486031215620002ba57600080fd5b600084015167ffffffffffffffff811115620002d557600080fd5b620002e38682870162000277565b935050602084015167ffffffffffffffff8111156200030157600080fd5b6200030f8682870162000277565b9250506040620003228682870162000260565b9150509250925092565b6000620003386200034b565b905062000346828262000401565b919050565b6000604051905090565b600067ffffffffffffffff82111562000373576200037262000466565b5b6200037e8262000495565b9050602081019050919050565b6000819050919050565b60005b83811015620003b557808201518184015260208101905062000398565b83811115620003c5576000848401525b50505050565b60006002820490506001821680620003e457607f821691505b60208210811415620003fb57620003fa62000437565b5b50919050565b6200040c8262000495565b810181811067ffffffffffffffff821117156200042e576200042d62000466565b5b80604052505050565b7f4e487b7100000000000000000000000000000000000000000000000000000000600052602260045260246000fd5b7f4e487b7100000000000000000000000000000000000000000000000000000000600052604160045260246000fd5b6000601f19601f8301169050919050565b620004b1816200038b565b8114620004bd57600080fd5b50565b61385c80620004d06000396000f3fe608060405234801561001057600080fd5b506004361061014d5760003560e01c80636352211e116100c3578063a22cb4651161007c578063a22cb4651461039e578063b88d4fde146103ba578063c87b56dd146103d6578063c884ef8314610406578063e985e9c514610436578063f2fde38b146104665761014d565b80636352211e146102dc57806370a082311461030c578063715018a61461033c5780637cb64759146103465780638da5cb5b1461036257806395d89b41146103805761014d565b806323b872dd1161011557806323b872dd1461020a5780632eb4a7ab146102265780632f52ebb7146102445780632f745c591461026057806342842e0e146102905780634f6ccce7146102ac5761014d565b806301ffc9a71461015257806306fdde0314610182578063081812fc146101a0578063095ea7b3146101d057806318160ddd146101ec575b600080fd5b61016c6004803603810190610167919061288f565b610482565b6040516101799190612d74565b60405180910390f35b61018a6104fc565b6040516101979190612daa565b60405180910390f35b6101ba60048036038101906101b591906128e1565b61058e565b6040516101c79190612d0d565b60405180910390f35b6101ea60048036038101906101e5919061282a565b6105d4565b005b6101f46106ec565b604051610201919061300c565b60405180910390f35b610224600480360381019061021f9190612724565b6106f9565b005b61022e610759565b60405161023b9190612d8f565b60405180910390f35b61025e6004803603810190610259919061290a565b61075f565b005b61027a6004803603810190610275919061282a565b61090c565b604051610287919061300c565b60405180910390f35b6102aa60048036038101906102a59190612724565b6109b1565b005b6102c660048036038101906102c191906128e1565b6109d1565b6040516102d3919061300c565b60405180910390f35b6102f660048036038101906102f191906128e1565b610a68565b6040516103039190612d0d565b60405180910390f35b610326600480360381019061032191906126bf565b610aef565b604051610333919061300c565b60405180910390f35b610344610ba7565b005b610360600480360381019061035b9190612866565b610bbb565b005b61036a610bcd565b6040516103779190612d0d565b60405180910390f35b610388610bf7565b6040516103959190612daa565b60405180910390f35b6103b860048036038101906103b391906127ee565b610c89565b005b6103d460048036038101906103cf9190612773565b610c9f565b005b6103f060048036038101906103eb91906128e1565b610d01565b6040516103fd9190612daa565b60405180910390f35b610420600480360381019061041b91906126bf565b610d69565b60405161042d9190612d74565b60405180910390f35b610450600480360381019061044b91906126e8565b610d89565b60405161045d9190612d74565b60405180910390f35b610480600480360381019061047b91906126bf565b610e1d565b005b60007f780e9d63000000000000000000000000000000000000000000000000000000007bffffffffffffffffffffffffffffffffffffffffffffffffffffffff1916827bffffffffffffffffffffffffffffffffffffffffffffffffffffffff191614806104f557506104f482610ea1565b5b9050919050565b60606000805461050b906131b4565b80601f0160208091040260200160405190810160405280929190818152602001828054610537906131b4565b80156105845780601f1061055957610100808354040283529160200191610584565b820191906000526020600020905b81548152906001019060200180831161056757829003601f168201915b5050505050905090565b600061059982610f83565b6004600083815260200190815260200160002060009054906101000a900473ffffffffffffffffffffffffffffffffffffffff169050919050565b60006105df82610a68565b90508073ffffffffffffffffffffffffffffffffffffffff168373ffffffffffffffffffffffffffffffffffffffff161415610650576040517f08c379a000000000000000000000000000000000000000000000000000000000815260040161064790612f6c565b60405180910390fd5b8073ffffffffffffffffffffffffffffffffffffffff1661066f610fce565b73ffffffffffffffffffffffffffffffffffffffff16148061069e575061069d81610698610fce565b610d89565b5b6106dd576040517f08c379a00000000000000000000000000000000000000000000000000000000081526004016106d490612f8c565b60405180910390fd5b6106e78383610fd6565b505050565b6000600880549050905090565b61070a610704610fce565b8261108f565b610749576040517f08c379a000000000000000000000000000000000000000000000000000000000815260040161074090612dcc565b60405180910390fd5b610754838383611124565b505050565b600b5481565b600c60003373ffffffffffffffffffffffffffffffffffffffff1673ffffffffffffffffffffffffffffffffffffffff16815260200190815260200160002060009054906101000a900460ff16156107ec576040517f08c379a00000000000000000000000000000000000000000000000000000000081526004016107e390612f0c565b60405180910390fd5b6000336040516020016107ff9190612cce565b604051602081830303815290604052805190602001209050610865838380806020026020016040519081016040528093929190818152602001838360200280828437600081840152601f19601f82011690508083019250505050505050600b548361141e565b6108a4576040517f08c379a000000000000000000000000000000000000000000000000000000000815260040161089b90612fec565b60405180910390fd5b6001600c60003373ffffffffffffffffffffffffffffffffffffffff1673ffffffffffffffffffffffffffffffffffffffff16815260200190815260200160002060006101000a81548160ff0219169083151502179055506109063385611435565b50505050565b600061091783610aef565b8210610958576040517f08c379a000000000000000000000000000000000000000000000000000000000815260040161094f90612dec565b60405180910390fd5b600660008473ffffffffffffffffffffffffffffffffffffffff1673ffffffffffffffffffffffffffffffffffffffff168152602001908152602001600020600083815260200190815260200160002054905092915050565b6109cc83838360405180602001604052806000815250610c9f565b505050565b60006109db6106ec565b8210610a1c576040517f08c379a0000000000000000000000000000000000000000000000000000000008152600401610a1390612fac565b60405180910390fd5b60088281548110610a56577f4e487b7100000000000000000000000000000000000000000000000000000000600052603260045260246000fd5b90600052602060002001549050919050565b600080610a7483611453565b9050600073ffffffffffffffffffffffffffffffffffffffff168173ffffffffffffffffffffffffffffffffffffffff161415610ae6576040517f08c379a0000000000000000000000000000000000000000000000000000000008152600401610add90612f4c565b60405180910390fd5b80915050919050565b60008073ffffffffffffffffffffffffffffffffffffffff168273ffffffffffffffffffffffffffffffffffffffff161415610b60576040517f08c379a0000000000000000000000000000000000000000000000000000000008152600401610b5790612ecc565b60405180910390fd5b600360008373ffffffffffffffffffffffffffffffffffffffff1673ffffffffffffffffffffffffffffffffffffffff168152602001908152602001600020549050919050565b610baf611490565b610bb9600061150e565b565b610bc3611490565b80600b8190555050565b6000600a60009054906101000a900473ffffffffffffffffffffffffffffffffffffffff16905090565b606060018054610c06906131b4565b80601f0160208091040260200160405190810160405280929190818152602001828054610c32906131b4565b8015610c7f5780601f10610c5457610100808354040283529160200191610c7f565b820191906000526020600020905b815481529060010190602001808311610c6257829003601f168201915b5050505050905090565b610c9b610c94610fce565b83836115d4565b5050565b610cb0610caa610fce565b8361108f565b610cef576040517f08c379a0000000000000000000000000000000000000000000000000000000008152600401610ce690612dcc565b60405180910390fd5b610cfb84848484611741565b50505050565b6060610d0c82610f83565b6000610d1661179d565b90506000815111610d365760405180602001604052806000815250610d61565b80610d40846117b4565b604051602001610d51929190612ce9565b6040516020818303038152906040525b915050919050565b600c6020528060005260406000206000915054906101000a900460ff1681565b6000600560008473ffffffffffffffffffffffffffffffffffffffff1673ffffffffffffffffffffffffffffffffffffffff16815260200190815260200160002060008373ffffffffffffffffffffffffffffffffffffffff1673ffffffffffffffffffffffffffffffffffffffff16815260200190815260200160002060009054906101000a900460ff16905092915050565b610e25611490565b600073ffffffffffffffffffffffffffffffffffffffff168173ffffffffffffffffffffffffffffffffffffffff161415610e95576040517f08c379a0000000000000000000000000000000000000000000000000000000008152600401610e8c90612e2c565b60405180910390fd5b610e9e8161150e565b50565b60007f80ac58cd000000000000000000000000000000000000000000000000000000007bffffffffffffffffffffffffffffffffffffffffffffffffffffffff1916827bffffffffffffffffffffffffffffffffffffffffffffffffffffffff19161480610f6c57507f5b5e139f000000000000000000000000000000000000000000000000000000007bffffffffffffffffffffffffffffffffffffffffffffffffffffffff1916827bffffffffffffffffffffffffffffffffffffffffffffffffffffffff1916145b80610f7c5750610f7b826118d8565b5b9050919050565b610f8c81611942565b610fcb576040517f08c379a0000000000000000000000000000000000000000000000000000000008152600401610fc290612f4c565b60405180910390fd5b50565b600033905090565b816004600083815260200190815260200160002060006101000a81548173ffffffffffffffffffffffffffffffffffffffff021916908373ffffffffffffffffffffffffffffffffffffffff160217905550808273ffffffffffffffffffffffffffffffffffffffff1661104983610a68565b73ffffffffffffffffffffffffffffffffffffffff167f8c5be1e5ebec7d5bd14f71427d1e84f3dd0314c0f7b2291e5b200ac8c7c3b92560405160405180910390a45050565b60008061109b83610a68565b90508073ffffffffffffffffffffffffffffffffffffffff168473ffffffffffffffffffffffffffffffffffffffff1614806110dd57506110dc8185610d89565b5b8061111b57508373ffffffffffffffffffffffffffffffffffffffff166111038461058e565b73ffffffffffffffffffffffffffffffffffffffff16145b91505092915050565b8273ffffffffffffffffffffffffffffffffffffffff1661114482610a68565b73ffffffffffffffffffffffffffffffffffffffff161461119a576040517f08c379a000000000000000000000000000000000000000000000000000000000815260040161119190612e4c565b60405180910390fd5b600073ffffffffffffffffffffffffffffffffffffffff168273ffffffffffffffffffffffffffffffffffffffff16141561120a576040517f08c379a000000000000000000000000000000000000000000000000000000000815260040161120190612e8c565b60405180910390fd5b6112178383836001611983565b8273ffffffffffffffffffffffffffffffffffffffff1661123782610a68565b73ffffffffffffffffffffffffffffffffffffffff161461128d576040517f08c379a000000000000000000000000000000000000000000000000000000000815260040161128490612e4c565b60405180910390fd5b6004600082815260200190815260200160002060006101000a81549073ffffffffffffffffffffffffffffffffffffffff02191690556001600360008573ffffffffffffffffffffffffffffffffffffffff1673ffffffffffffffffffffffffffffffffffffffff168152602001908152602001600020600082825403925050819055506001600360008473ffffffffffffffffffffffffffffffffffffffff1673ffffffffffffffffffffffffffffffffffffffff16815260200190815260200160002060008282540192505081905550816002600083815260200190815260200160002060006101000a81548173ffffffffffffffffffffffffffffffffffffffff021916908373ffffffffffffffffffffffffffffffffffffffff160217905550808273ffffffffffffffffffffffffffffffffffffffff168473ffffffffffffffffffffffffffffffffffffffff167fddf252ad1be2c89b69c2b068fc378daa952ba7f163c4a11628f55a4df523b3ef60405160405180910390a46114198383836001611ae3565b505050565b60008261142b8584611ae9565b1490509392505050565b61144f828260405180602001604052806000815250611b65565b5050565b60006002600083815260200190815260200160002060009054906101000a900473ffffffffffffffffffffffffffffffffffffffff169050919050565b611498610fce565b73ffffffffffffffffffffffffffffffffffffffff166114b6610bcd565b73ffffffffffffffffffffffffffffffffffffffff161461150c576040517f08c379a000000000000000000000000000000000000000000000000000000000815260040161150390612f2c565b60405180910390fd5b565b6000600a60009054906101000a900473ffffffffffffffffffffffffffffffffffffffff16905081600a60006101000a81548173ffffffffffffffffffffffffffffffffffffffff021916908373ffffffffffffffffffffffffffffffffffffffff1602179055508173ffffffffffffffffffffffffffffffffffffffff168173ffffffffffffffffffffffffffffffffffffffff167f8be0079c531659141344cd1fd0a4f28419497f9722a3daafe3b4186f6b6457e060405160405180910390a35050565b8173ffffffffffffffffffffffffffffffffffffffff168373ffffffffffffffffffffffffffffffffffffffff161415611643576040517f08c379a000000000000000000000000000000000000000000000000000000000815260040161163a90612eac565b60405180910390fd5b80600560008573ffffffffffffffffffffffffffffffffffffffff1673ffffffffffffffffffffffffffffffffffffffff16815260200190815260200160002060008473ffffffffffffffffffffffffffffffffffffffff1673ffffffffffffffffffffffffffffffffffffffff16815260200190815260200160002060006101000a81548160ff0219169083151502179055508173ffffffffffffffffffffffffffffffffffffffff168373ffffffffffffffffffffffffffffffffffffffff167f17307eab39ab6107e8899845ad3d59bd9653f200f220920489ca2b5937696c31836040516117349190612d74565b60405180910390a3505050565b61174c848484611124565b61175884848484611bc0565b611797576040517f08c379a000000000000000000000000000000000000000000000000000000000815260040161178e90612e0c565b60405180910390fd5b50505050565b606060405180602001604052806000815250905090565b6060600060016117c384611d57565b01905060008167ffffffffffffffff811115611808577f4e487b7100000000000000000000000000000000000000000000000000000000600052604160045260246000fd5b6040519080825280601f01601f19166020018201604052801561183a5781602001600182028036833780820191505090505b509050600082602001820190505b6001156118cd578080600190039150507f3031323334353637383961626364656600000000000000000000000000000000600a86061a8153600a85816118b7577f4e487b7100000000000000000000000000000000000000000000000000000000600052601260045260246000fd5b04945060008514156118c8576118cd565b611848565b819350505050919050565b60007f01ffc9a7000000000000000000000000000000000000000000000000000000007bffffffffffffffffffffffffffffffffffffffffffffffffffffffff1916827bffffffffffffffffffffffffffffffffffffffffffffffffffffffff1916149050919050565b60008073ffffffffffffffffffffffffffffffffffffffff1661196483611453565b73ffffffffffffffffffffffffffffffffffffffff1614159050919050565b61198f84848484611f8e565b60018111156119d3576040517f08c379a00000000000000000000000000000000000000000000000000000000081526004016119ca90612fcc565b60405180910390fd5b6000829050600073ffffffffffffffffffffffffffffffffffffffff168573ffffffffffffffffffffffffffffffffffffffff161415611a1b57611a1681611f94565b611a5a565b8373ffffffffffffffffffffffffffffffffffffffff168573ffffffffffffffffffffffffffffffffffffffff1614611a5957611a588582611fdd565b5b5b600073ffffffffffffffffffffffffffffffffffffffff168473ffffffffffffffffffffffffffffffffffffffff161415611a9d57611a988161214a565b611adc565b8473ffffffffffffffffffffffffffffffffffffffff168473ffffffffffffffffffffffffffffffffffffffff1614611adb57611ada848261228d565b5b5b5050505050565b50505050565b60008082905060005b8451811015611b5a57611b4582868381518110611b38577f4e487b7100000000000000000000000000000000000000000000000000000000600052603260045260246000fd5b602002602001015161230c565b91508080611b5290613217565b915050611af2565b508091505092915050565b611b6f8383612337565b611b7c6000848484611bc0565b611bbb576040517f08c379a0000000000000000000000000000000000000000000000000000000008152600401611bb290612e0c565b60405180910390fd5b505050565b6000611be18473ffffffffffffffffffffffffffffffffffffffff16612555565b15611d4a578373ffffffffffffffffffffffffffffffffffffffff1663150b7a02611c0a610fce565b8786866040518563ffffffff1660e01b8152600401611c2c9493929190612d28565b602060405180830381600087803b158015611c4657600080fd5b505af1925050508015611c7757506040513d601f19601f82011682018060405250810190611c7491906128b8565b60015b611cfa573d8060008114611ca7576040519150601f19603f3d011682016040523d82523d6000602084013e611cac565b606091505b50600081511415611cf2576040517f08c379a0000000000000000000000000000000000000000000000000000000008152600401611ce990612e0c565b60405180910390fd5b805181602001fd5b63150b7a0260e01b7bffffffffffffffffffffffffffffffffffffffffffffffffffffffff1916817bffffffffffffffffffffffffffffffffffffffffffffffffffffffff191614915050611d4f565b600190505b949350505050565b600080600090507a184f03e93ff9f4daa797ed6e38ed64bf6a1f0100000000000000008310611ddb577a184f03e93ff9f4daa797ed6e38ed64bf6a1f0100000000000000008381611dd1577f4e487b7100000000000000000000000000000000000000000000000000000000600052601260045260246000fd5b0492506040810190505b6d04ee2d6d415b85acef81000000008310611e3e576d04ee2d6d415b85acef81000000008381611e34577f4e487b7100000000000000000000000000000000000000000000000000000000600052601260045260246000fd5b0492506020810190505b662386f26fc100008310611e9357662386f26fc100008381611e89577f4e487b7100000000000000000000000000000000000000000000000000000000600052601260045260246000fd5b0492506010810190505b6305f5e1008310611ee2576305f5e1008381611ed8577f4e487b7100000000000000000000000000000000000000000000000000000000600052601260045260246000fd5b0492506008810190505b6127108310611f2d576127108381611f23577f4e487b7100000000000000000000000000000000000000000000000000000000600052601260045260246000fd5b0492506004810190505b60648310611f765760648381611f6c577f4e487b7100000000000000000000000000000000000000000000000000000000600052601260045260246000fd5b0492506002810190505b600a8310611f85576001810190505b80915050919050565b50505050565b6008805490506009600083815260200190815260200160002081905550600881908060018154018082558091505060019003906000526020600020016000909190919091505550565b60006001611fea84610aef565b611ff491906130c0565b90506000600760008481526020019081526020016000205490508181146120d9576000600660008673ffffffffffffffffffffffffffffffffffffffff1673ffffffffffffffffffffffffffffffffffffffff168152602001908152602001600020600084815260200190815260200160002054905080600660008773ffffffffffffffffffffffffffffffffffffffff1673ffffffffffffffffffffffffffffffffffffffff168152602001908152602001600020600084815260200190815260200160002081905550816007600083815260200190815260200160002081905550505b6007600084815260200190815260200160002060009055600660008573ffffffffffffffffffffffffffffffffffffffff1673ffffffffffffffffffffffffffffffffffffffff16815260200190815260200160002060008381526020019081526020016000206000905550505050565b6000600160088054905061215e91906130c0565b90506000600960008481526020019081526020016000205490506000600883815481106121b4577f4e487b7100000000000000000000000000000000000000000000000000000000600052603260045260246000fd5b9060005260206000200154905080600883815481106121fc577f4e487b7100000000000000000000000000000000000000000000000000000000600052603260045260246000fd5b906000526020600020018190555081600960008381526020019081526020016000208190555060096000858152602001908152602001600020600090556008805480612271577f4e487b7100000000000000000000000000000000000000000000000000000000600052603160045260246000fd5b6001900381819060005260206000200160009055905550505050565b600061229883610aef565b905081600660008573ffffffffffffffffffffffffffffffffffffffff1673ffffffffffffffffffffffffffffffffffffffff168152602001908152602001600020600083815260200190815260200160002081905550806007600084815260200190815260200160002081905550505050565b60008183106123245761231f8284612578565b61232f565b61232e8383612578565b5b905092915050565b600073ffffffffffffffffffffffffffffffffffffffff168273ffffffffffffffffffffffffffffffffffffffff1614156123a7576040517f08c379a000000000000000000000000000000000000000000000000000000000815260040161239e90612eec565b60405180910390fd5b6123b081611942565b156123f0576040517f08c379a00000000000000000000000000000000000000000000000000000000081526004016123e790612e6c565b60405180910390fd5b6123fe600083836001611983565b61240781611942565b15612447576040517f08c379a000000000000000000000000000000000000000000000000000000000815260040161243e90612e6c565b60405180910390fd5b6001600360008473ffffffffffffffffffffffffffffffffffffffff1673ffffffffffffffffffffffffffffffffffffffff16815260200190815260200160002060008282540192505081905550816002600083815260200190815260200160002060006101000a81548173ffffffffffffffffffffffffffffffffffffffff021916908373ffffffffffffffffffffffffffffffffffffffff160217905550808273ffffffffffffffffffffffffffffffffffffffff16600073ffffffffffffffffffffffffffffffffffffffff167fddf252ad1be2c89b69c2b068fc378daa952ba7f163c4a11628f55a4df523b3ef60405160405180910390a4612551600083836001611ae3565b5050565b6000808273ffffffffffffffffffffffffffffffffffffffff163b119050919050565b600082600052816020526040600020905092915050565b60006125a261259d8461304c565b613027565b9050828152602081018484840111156125ba57600080fd5b6125c5848285613172565b509392505050565b6000813590506125dc816137b3565b92915050565b60008083601f8401126125f457600080fd5b8235905067ffffffffffffffff81111561260d57600080fd5b60208301915083602082028301111561262557600080fd5b9250929050565b60008135905061263b816137ca565b92915050565b600081359050612650816137e1565b92915050565b600081359050612665816137f8565b92915050565b60008151905061267a816137f8565b92915050565b600082601f83011261269157600080fd5b81356126a184826020860161258f565b91505092915050565b6000813590506126b98161380f565b92915050565b6000602082840312156126d157600080fd5b60006126df848285016125cd565b91505092915050565b600080604083850312156126fb57600080fd5b6000612709858286016125cd565b925050602061271a858286016125cd565b9150509250929050565b60008060006060848603121561273957600080fd5b6000612747868287016125cd565b9350506020612758868287016125cd565b9250506040612769868287016126aa565b9150509250925092565b6000806000806080858703121561278957600080fd5b6000612797878288016125cd565b94505060206127a8878288016125cd565b93505060406127b9878288016126aa565b925050606085013567ffffffffffffffff8111156127d657600080fd5b6127e287828801612680565b91505092959194509250565b6000806040838503121561280157600080fd5b600061280f858286016125cd565b92505060206128208582860161262c565b9150509250929050565b6000806040838503121561283d57600080fd5b600061284b858286016125cd565b925050602061285c858286016126aa565b9150509250929050565b60006020828403121561287857600080fd5b600061288684828501612641565b91505092915050565b6000602082840312156128a157600080fd5b60006128af84828501612656565b91505092915050565b6000602082840312156128ca57600080fd5b60006128d88482850161266b565b91505092915050565b6000602082840312156128f357600080fd5b6000612901848285016126aa565b91505092915050565b60008060006040848603121561291f57600080fd5b600061292d868287016126aa565b935050602084013567ffffffffffffffff81111561294a57600080fd5b612956868287016125e2565b92509250509250925092565b61296b816130f4565b82525050565b61298261297d826130f4565b613260565b82525050565b61299181613106565b82525050565b6129a081613112565b82525050565b60006129b18261307d565b6129bb8185613093565b93506129cb818560208601613181565b6129d481613311565b840191505092915050565b60006129ea82613088565b6129f481856130a4565b9350612a04818560208601613181565b612a0d81613311565b840191505092915050565b6000612a2382613088565b612a2d81856130b5565b9350612a3d818560208601613181565b80840191505092915050565b6000612a56602d836130a4565b9150612a618261332f565b604082019050919050565b6000612a79602b836130a4565b9150612a848261337e565b604082019050919050565b6000612a9c6032836130a4565b9150612aa7826133cd565b604082019050919050565b6000612abf6026836130a4565b9150612aca8261341c565b604082019050919050565b6000612ae26025836130a4565b9150612aed8261346b565b604082019050919050565b6000612b05601c836130a4565b9150612b10826134ba565b602082019050919050565b6000612b286024836130a4565b9150612b33826134e3565b604082019050919050565b6000612b4b6019836130a4565b9150612b5682613532565b602082019050919050565b6000612b6e6029836130a4565b9150612b798261355b565b604082019050919050565b6000612b916020836130a4565b9150612b9c826135aa565b602082019050919050565b6000612bb4600f836130a4565b9150612bbf826135d3565b602082019050919050565b6000612bd76020836130a4565b9150612be2826135fc565b602082019050919050565b6000612bfa6018836130a4565b9150612c0582613625565b602082019050919050565b6000612c1d6021836130a4565b9150612c288261364e565b604082019050919050565b6000612c40603d836130a4565b9150612c4b8261369d565b604082019050919050565b6000612c63602c836130a4565b9150612c6e826136ec565b604082019050919050565b6000612c866035836130a4565b9150612c918261373b565b604082019050919050565b6000612ca96014836130a4565b9150612cb48261378a565b602082019050919050565b612cc881613168565b82525050565b6000612cda8284612971565b60148201915081905092915050565b6000612cf58285612a18565b9150612d018284612a18565b91508190509392505050565b6000602082019050612d226000830184612962565b92915050565b6000608082019050612d3d6000830187612962565b612d4a6020830186612962565b612d576040830185612cbf565b8181036060830152612d6981846129a6565b905095945050505050565b6000602082019050612d896000830184612988565b92915050565b6000602082019050612da46000830184612997565b92915050565b60006020820190508181036000830152612dc481846129df565b905092915050565b60006020820190508181036000830152612de581612a49565b9050919050565b60006020820190508181036000830152612e0581612a6c565b9050919050565b60006020820190508181036000830152612e2581612a8f565b9050919050565b60006020820190508181036000830152612e4581612ab2565b9050919050565b60006020820190508181036000830152612e6581612ad5565b9050919050565b60006020820190508181036000830152612e8581612af8565b9050919050565b60006020820190508181036000830152612ea581612b1b565b9050919050565b60006020820190508181036000830152612ec581612b3e565b9050919050565b60006020820190508181036000830152612ee581612b61565b9050919050565b60006020820190508181036000830152612f0581612b84565b9050919050565b60006020820190508181036000830152612f2581612ba7565b9050919050565b60006020820190508181036000830152612f4581612bca565b9050919050565b60006020820190508181036000830152612f6581612bed565b9050919050565b60006020820190508181036000830152612f8581612c10565b9050919050565b60006020820190508181036000830152612fa581612c33565b9050919050565b60006020820190508181036000830152612fc581612c56565b9050919050565b60006020820190508181036000830152612fe581612c79565b9050919050565b6000602082019050818103600083015261300581612c9c565b9050919050565b60006020820190506130216000830184612cbf565b92915050565b6000613031613042565b905061303d82826131e6565b919050565b6000604051905090565b600067ffffffffffffffff821115613067576130666132e2565b5b61307082613311565b9050602081019050919050565b600081519050919050565b600081519050919050565b600082825260208201905092915050565b600082825260208201905092915050565b600081905092915050565b60006130cb82613168565b91506130d683613168565b9250828210156130e9576130e8613284565b5b828203905092915050565b60006130ff82613148565b9050919050565b60008115159050919050565b6000819050919050565b60007fffffffff0000000000000000000000000000000000000000000000000000000082169050919050565b600073ffffffffffffffffffffffffffffffffffffffff82169050919050565b6000819050919050565b82818337600083830152505050565b60005b8381101561319f578082015181840152602081019050613184565b838111156131ae576000848401525b50505050565b600060028204905060018216806131cc57607f821691505b602082108114156131e0576131df6132b3565b5b50919050565b6131ef82613311565b810181811067ffffffffffffffff8211171561320e5761320d6132e2565b5b80604052505050565b600061322282613168565b91507fffffffffffffffffffffffffffffffffffffffffffffffffffffffffffffffff82141561325557613254613284565b5b600182019050919050565b600061326b82613272565b9050919050565b600061327d82613322565b9050919050565b7f4e487b7100000000000000000000000000000000000000000000000000000000600052601160045260246000fd5b7f4e487b7100000000000000000000000000000000000000000000000000000000600052602260045260246000fd5b7f4e487b7100000000000000000000000000000000000000000000000000000000600052604160045260246000fd5b6000601f19601f8301169050919050565b60008160601b9050919050565b7f4552433732313a2063616c6c6572206973206e6f7420746f6b656e206f776e6560008201527f72206f7220617070726f76656400000000000000000000000000000000000000602082015250565b7f455243373231456e756d657261626c653a206f776e657220696e646578206f7560008201527f74206f6620626f756e6473000000000000000000000000000000000000000000602082015250565b7f4552433732313a207472616e7366657220746f206e6f6e20455243373231526560008201527f63656976657220696d706c656d656e7465720000000000000000000000000000602082015250565b7f4f776e61626c653a206e6577206f776e657220697320746865207a65726f206160008201527f6464726573730000000000000000000000000000000000000000000000000000602082015250565b7f4552433732313a207472616e736665722066726f6d20696e636f72726563742060008201527f6f776e6572000000000000000000000000000000000000000000000000000000602082015250565b7f4552433732313a20746f6b656e20616c7265616479206d696e74656400000000600082015250565b7f4552433732313a207472616e7366657220746f20746865207a65726f2061646460008201527f7265737300000000000000000000000000000000000000000000000000000000602082015250565b7f4552433732313a20617070726f766520746f2063616c6c657200000000000000600082015250565b7f4552433732313a2061646472657373207a65726f206973206e6f74206120766160008201527f6c6964206f776e65720000000000000000000000000000000000000000000000602082015250565b7f4552433732313a206d696e7420746f20746865207a65726f2061646472657373600082015250565b7f416c726561647920636c61696d65640000000000000000000000000000000000600082015250565b7f4f776e61626c653a2063616c6c6572206973206e6f7420746865206f776e6572600082015250565b7f4552433732313a20696e76616c696420746f6b656e2049440000000000000000600082015250565b7f4552433732313a20617070726f76616c20746f2063757272656e74206f776e6560008201527f7200000000000000000000000000000000000000000000000000000000000000602082015250565b7f4552433732313a20617070726f76652063616c6c6572206973206e6f7420746f60008201527f6b656e206f776e6572206f7220617070726f76656420666f7220616c6c000000602082015250565b7f455243373231456e756d657261626c653a20676c6f62616c20696e646578206f60008201527f7574206f6620626f756e64730000000000000000000000000000000000000000602082015250565b7f455243373231456e756d657261626c653a20636f6e736563757469766520747260008201527f616e7366657273206e6f7420737570706f727465640000000000000000000000602082015250565b7f496e76616c6964204d65726b6c652050726f6f66000000000000000000000000600082015250565b6137bc816130f4565b81146137c757600080fd5b50565b6137d381613106565b81146137de57600080fd5b50565b6137ea81613112565b81146137f557600080fd5b50565b6138018161311c565b811461380c57600080fd5b50565b61381881613168565b811461382357600080fd5b5056fea2646970667358221220bf0e67f3305f2d4e3729d6fa9823bc856e2902f21762dfde45381f2c43d1485d64736f6c63430008010033",
  "immutableReferences": {},
  "source": "// SPDX-License-Identifier: MIT\r\npragma solidity >=0.4.22 <0.9.0;\r\n\r\nimport \"@openzeppelin/contracts/token/ERC721/extensions/ERC721Enumerable.sol\";\r\nimport \"@openzeppelin/contracts/utils/cryptography/MerkleProof.sol\";\r\nimport \"@openzeppelin/contracts/access/Ownable.sol\";\r\n\r\ncontract WhitelistedNFT is ERC721Enumerable, Ownable {\r\n    bytes32 public merkleRoot;\r\n\r\n    mapping(address => bool) public claimed;\r\n\r\n    constructor(string memory _name, string memory _symbol, bytes32 _merkleRoot) \r\n        ERC721(_name, _symbol) \r\n    {\r\n        merkleRoot = _merkleRoot;\r\n    }\r\n\r\n    function claim(uint256 tokenId, bytes32[] calldata merkleProof) external {\r\n        // Ensure this user hasn't claimed a token already\r\n        require(!claimed[msg.sender], \"Already claimed\");\r\n\r\n        // Verify the merkle proof\r\n        bytes32 leaf = keccak256(abi.encodePacked(msg.sender));\r\n        require(MerkleProof.verify(merkleProof, merkleRoot, leaf), \"Invalid Merkle Proof\");\r\n\r\n        // Mark as claimed and mint the NFT to the sender\r\n        claimed[msg.sender] = true;\r\n        _safeMint(msg.sender, tokenId);\r\n    }\r\n\r\n    function setMerkleRoot(bytes32 _merkleRoot) external onlyOwner {\r\n        merkleRoot = _merkleRoot;\r\n    }\r\n}\r\n",
  "sourcePath": "C:\\src\\truffle0\\contracts\\WhitelistedNFT.sol",
  "compiler": {
    "name": "solc",
    "version": "0.8.1+commit.df193b15.Emscripten.clang"
  },
  "schemaVersion": "3.4.16",
  "updatedAt": "2023-10-06T08:44:52.795Z",
  "networkType": "ethereum",
  "devdoc": {
    "kind": "dev",
    "methods": {
      "approve(address,uint256)": {
        "details": "See {IERC721-approve}."
      },
      "balanceOf(address)": {
        "details": "See {IERC721-balanceOf}."
      },
      "getApproved(uint256)": {
        "details": "See {IERC721-getApproved}."
      },
      "isApprovedForAll(address,address)": {
        "details": "See {IERC721-isApprovedForAll}."
      },
      "name()": {
        "details": "See {IERC721Metadata-name}."
      },
      "owner()": {
        "details": "Returns the address of the current owner."
      },
      "ownerOf(uint256)": {
        "details": "See {IERC721-ownerOf}."
      },
      "renounceOwnership()": {
        "details": "Leaves the contract without owner. It will not be possible to call `onlyOwner` functions. Can only be called by the current owner. NOTE: Renouncing ownership will leave the contract without an owner, thereby disabling any functionality that is only available to the owner."
      },
      "safeTransferFrom(address,address,uint256)": {
        "details": "See {IERC721-safeTransferFrom}."
      },
      "safeTransferFrom(address,address,uint256,bytes)": {
        "details": "See {IERC721-safeTransferFrom}."
      },
      "setApprovalForAll(address,bool)": {
        "details": "See {IERC721-setApprovalForAll}."
      },
      "supportsInterface(bytes4)": {
        "details": "See {IERC165-supportsInterface}."
      },
      "symbol()": {
        "details": "See {IERC721Metadata-symbol}."
      },
      "tokenByIndex(uint256)": {
        "details": "See {IERC721Enumerable-tokenByIndex}."
      },
      "tokenOfOwnerByIndex(address,uint256)": {
        "details": "See {IERC721Enumerable-tokenOfOwnerByIndex}."
      },
      "tokenURI(uint256)": {
        "details": "See {IERC721Metadata-tokenURI}."
      },
      "totalSupply()": {
        "details": "See {IERC721Enumerable-totalSupply}."
      },
      "transferFrom(address,address,uint256)": {
        "details": "See {IERC721-transferFrom}."
      },
      "transferOwnership(address)": {
        "details": "Transfers ownership of the contract to a new account (`newOwner`). Can only be called by the current owner."
      }
    },
    "version": 1
  },
  "userdoc": {
    "kind": "user",
    "methods": {},
    "version": 1
  }
}