{
  "contractName": "GachaNFT",
  "abi": [
    {
      "inputs": [
        {
          "internalType": "uint256",
          "name": "_maxParticipants",
          "type": "uint256"
        }
      ],
      "stateMutability": "nonpayable",
      "type": "constructor"
    },
    {
      "anonymous": false,
      "inputs": [
        {
          "indexed": true,
          "internalType": "address",
          "name": "owner",
          "type": "address"
        },
        {
          "indexed": true,
          "internalType": "address",
          "name": "approved",
          "type": "address"
        },
        {
          "indexed": true,
          "internalType": "uint256",
          "name": "tokenId",
          "type": "uint256"
        }
      ],
      "name": "Approval",
      "type": "event"
    },
    {
      "anonymous": false,
      "inputs": [
        {
          "indexed": true,
          "internalType": "address",
          "name": "owner",
          "type": "address"
        },
        {
          "indexed": true,
          "internalType": "address",
          "name": "operator",
          "type": "address"
        },
        {
          "indexed": false,
          "internalType": "bool",
          "name": "approved",
          "type": "bool"
        }
      ],
      "name": "ApprovalForAll",
      "type": "event"
    },
    {
      "anonymous": false,
      "inputs": [
        {
          "indexed": true,
          "internalType": "address",
          "name": "user",
          "type": "address"
        }
      ],
      "name": "CommitRequested",
      "type": "event"
    },
    {
      "anonymous": false,
      "inputs": [
        {
          "indexed": true,
          "internalType": "bytes32",
          "name": "serverSeedHash",
          "type": "bytes32"
        }
      ],
      "name": "Commitment",
      "type": "event"
    },
    {
      "anonymous": false,
      "inputs": [
        {
          "indexed": false,
          "internalType": "string",
          "name": "",
          "type": "string"
        }
      ],
      "name": "DebugLogEvent",
      "type": "event"
    },
    {
      "anonymous": false,
      "inputs": [
        {
          "indexed": true,
          "internalType": "bytes32",
          "name": "messageHash",
          "type": "bytes32"
        }
      ],
      "name": "LogMessageHash",
      "type": "event"
    },
    {
      "anonymous": false,
      "inputs": [
        {
          "indexed": true,
          "internalType": "address",
          "name": "owner",
          "type": "address"
        },
        {
          "indexed": false,
          "internalType": "uint256",
          "name": "tokenId",
          "type": "uint256"
        }
      ],
      "name": "NFTMinted",
      "type": "event"
    },
    {
      "anonymous": false,
      "inputs": [
        {
          "indexed": true,
          "internalType": "address",
          "name": "player",
          "type": "address"
        },
        {
          "indexed": false,
          "internalType": "bytes32",
          "name": "userSeed",
          "type": "bytes32"
        }
      ],
      "name": "Participation",
      "type": "event"
    },
    {
      "anonymous": false,
      "inputs": [
        {
          "indexed": true,
          "internalType": "address",
          "name": "recovered",
          "type": "address"
        }
      ],
      "name": "RecoveredAddress",
      "type": "event"
    },
    {
      "anonymous": false,
      "inputs": [
        {
          "indexed": true,
          "internalType": "address",
          "name": "requester",
          "type": "address"
        },
        {
          "indexed": false,
          "internalType": "string",
          "name": "requestId",
          "type": "string"
        }
      ],
      "name": "RequestCommit",
      "type": "event"
    },
    {
      "anonymous": false,
      "inputs": [
        {
          "indexed": false,
          "internalType": "bytes32",
          "name": "serverSeed",
          "type": "bytes32"
        },
        {
          "indexed": false,
          "internalType": "uint256",
          "name": "luckyNumber",
          "type": "uint256"
        }
      ],
      "name": "Reveal",
      "type": "event"
    },
    {
      "anonymous": false,
      "inputs": [
        {
          "indexed": true,
          "internalType": "address",
          "name": "from",
          "type": "address"
        },
        {
          "indexed": true,
          "internalType": "address",
          "name": "to",
          "type": "address"
        },
        {
          "indexed": true,
          "internalType": "uint256",
          "name": "tokenId",
          "type": "uint256"
        }
      ],
      "name": "Transfer",
      "type": "event"
    },
    {
      "inputs": [
        {
          "internalType": "address",
          "name": "to",
          "type": "address"
        },
        {
          "internalType": "uint256",
          "name": "tokenId",
          "type": "uint256"
        }
      ],
      "name": "approve",
      "outputs": [],
      "stateMutability": "nonpayable",
      "type": "function"
    },
    {
      "inputs": [
        {
          "internalType": "address",
          "name": "owner",
          "type": "address"
        }
      ],
      "name": "balanceOf",
      "outputs": [
        {
          "internalType": "uint256",
          "name": "",
          "type": "uint256"
        }
      ],
      "stateMutability": "view",
      "type": "function"
    },
    {
      "inputs": [
        {
          "internalType": "uint256",
          "name": "tokenId",
          "type": "uint256"
        }
      ],
      "name": "getApproved",
      "outputs": [
        {
          "internalType": "address",
          "name": "",
          "type": "address"
        }
      ],
      "stateMutability": "view",
      "type": "function"
    },
    {
      "inputs": [
        {
          "internalType": "address",
          "name": "owner",
          "type": "address"
        },
        {
          "internalType": "address",
          "name": "operator",
          "type": "address"
        }
      ],
      "name": "isApprovedForAll",
      "outputs": [
        {
          "internalType": "bool",
          "name": "",
          "type": "bool"
        }
      ],
      "stateMutability": "view",
      "type": "function"
    },
    {
      "inputs": [],
      "name": "isRevealed",
      "outputs": [
        {
          "internalType": "bool",
          "name": "",
          "type": "bool"
        }
      ],
      "stateMutability": "view",
      "type": "function"
    },
    {
      "inputs": [],
      "name": "luckyNumber",
      "outputs": [
        {
          "internalType": "uint256",
          "name": "",
          "type": "uint256"
        }
      ],
      "stateMutability": "view",
      "type": "function"
    },
    {
      "inputs": [],
      "name": "maxParticipants",
      "outputs": [
        {
          "internalType": "uint256",
          "name": "",
          "type": "uint256"
        }
      ],
      "stateMutability": "view",
      "type": "function"
    },
    {
      "inputs": [],
      "name": "name",
      "outputs": [
        {
          "internalType": "string",
          "name": "",
          "type": "string"
        }
      ],
      "stateMutability": "view",
      "type": "function"
    },
    {
      "inputs": [],
      "name": "owner",
      "outputs": [
        {
          "internalType": "address payable",
          "name": "",
          "type": "address"
        }
      ],
      "stateMutability": "view",
      "type": "function"
    },
    {
      "inputs": [
        {
          "internalType": "uint256",
          "name": "tokenId",
          "type": "uint256"
        }
      ],
      "name": "ownerOf",
      "outputs": [
        {
          "internalType": "address",
          "name": "",
          "type": "address"
        }
      ],
      "stateMutability": "view",
      "type": "function"
    },
    {
      "inputs": [],
      "name": "player",
      "outputs": [
        {
          "internalType": "address payable",
          "name": "",
          "type": "address"
        }
      ],
      "stateMutability": "view",
      "type": "function"
    },
    {
      "inputs": [
        {
          "internalType": "uint256",
          "name": "",
          "type": "uint256"
        }
      ],
      "name": "prizeMapping",
      "outputs": [
        {
          "internalType": "string",
          "name": "name",
          "type": "string"
        },
        {
          "internalType": "string",
          "name": "description",
          "type": "string"
        },
        {
          "internalType": "string",
          "name": "imageURL",
          "type": "string"
        }
      ],
      "stateMutability": "view",
      "type": "function"
    },
    {
      "inputs": [
        {
          "internalType": "address",
          "name": "from",
          "type": "address"
        },
        {
          "internalType": "address",
          "name": "to",
          "type": "address"
        },
        {
          "internalType": "uint256",
          "name": "tokenId",
          "type": "uint256"
        }
      ],
      "name": "safeTransferFrom",
      "outputs": [],
      "stateMutability": "nonpayable",
      "type": "function"
    },
    {
      "inputs": [
        {
          "internalType": "address",
          "name": "from",
          "type": "address"
        },
        {
          "internalType": "address",
          "name": "to",
          "type": "address"
        },
        {
          "internalType": "uint256",
          "name": "tokenId",
          "type": "uint256"
        },
        {
          "internalType": "bytes",
          "name": "data",
          "type": "bytes"
        }
      ],
      "name": "safeTransferFrom",
      "outputs": [],
      "stateMutability": "nonpayable",
      "type": "function"
    },
    {
      "inputs": [],
      "name": "salt",
      "outputs": [
        {
          "internalType": "bytes32",
          "name": "",
          "type": "bytes32"
        }
      ],
      "stateMutability": "view",
      "type": "function"
    },
    {
      "inputs": [],
      "name": "serverSeed",
      "outputs": [
        {
          "internalType": "bytes32",
          "name": "",
          "type": "bytes32"
        }
      ],
      "stateMutability": "view",
      "type": "function"
    },
    {
      "inputs": [],
      "name": "serverSeedHash",
      "outputs": [
        {
          "internalType": "bytes32",
          "name": "",
          "type": "bytes32"
        }
      ],
      "stateMutability": "view",
      "type": "function"
    },
    {
      "inputs": [
        {
          "internalType": "address",
          "name": "operator",
          "type": "address"
        },
        {
          "internalType": "bool",
          "name": "approved",
          "type": "bool"
        }
      ],
      "name": "setApprovalForAll",
      "outputs": [],
      "stateMutability": "nonpayable",
      "type": "function"
    },
    {
      "inputs": [
        {
          "internalType": "bytes4",
          "name": "interfaceId",
          "type": "bytes4"
        }
      ],
      "name": "supportsInterface",
      "outputs": [
        {
          "internalType": "bool",
          "name": "",
          "type": "bool"
        }
      ],
      "stateMutability": "view",
      "type": "function"
    },
    {
      "inputs": [],
      "name": "symbol",
      "outputs": [
        {
          "internalType": "string",
          "name": "",
          "type": "string"
        }
      ],
      "stateMutability": "view",
      "type": "function"
    },
    {
      "inputs": [
        {
          "internalType": "uint256",
          "name": "index",
          "type": "uint256"
        }
      ],
      "name": "tokenByIndex",
      "outputs": [
        {
          "internalType": "uint256",
          "name": "",
          "type": "uint256"
        }
      ],
      "stateMutability": "view",
      "type": "function"
    },
    {
      "inputs": [
        {
          "internalType": "address",
          "name": "owner",
          "type": "address"
        },
        {
          "internalType": "uint256",
          "name": "index",
          "type": "uint256"
        }
      ],
      "name": "tokenOfOwnerByIndex",
      "outputs": [
        {
          "internalType": "uint256",
          "name": "",
          "type": "uint256"
        }
      ],
      "stateMutability": "view",
      "type": "function"
    },
    {
      "inputs": [],
      "name": "totalSupply",
      "outputs": [
        {
          "internalType": "uint256",
          "name": "",
          "type": "uint256"
        }
      ],
      "stateMutability": "view",
      "type": "function"
    },
    {
      "inputs": [
        {
          "internalType": "address",
          "name": "from",
          "type": "address"
        },
        {
          "internalType": "address",
          "name": "to",
          "type": "address"
        },
        {
          "internalType": "uint256",
          "name": "tokenId",
          "type": "uint256"
        }
      ],
      "name": "transferFrom",
      "outputs": [],
      "stateMutability": "nonpayable",
      "type": "function"
    },
    {
      "inputs": [
        {
          "internalType": "address",
          "name": "",
          "type": "address"
        },
        {
          "internalType": "bytes32",
          "name": "",
          "type": "bytes32"
        }
      ],
      "name": "usedUserSeeds",
      "outputs": [
        {
          "internalType": "bool",
          "name": "",
          "type": "bool"
        }
      ],
      "stateMutability": "view",
      "type": "function"
    },
    {
      "inputs": [],
      "name": "userSeed",
      "outputs": [
        {
          "internalType": "bytes32",
          "name": "",
          "type": "bytes32"
        }
      ],
      "stateMutability": "view",
      "type": "function"
    },
    {
      "inputs": [
        {
          "internalType": "uint256",
          "name": "luckyNumber",
          "type": "uint256"
        },
        {
          "internalType": "string",
          "name": "name",
          "type": "string"
        },
        {
          "internalType": "string",
          "name": "description",
          "type": "string"
        },
        {
          "internalType": "string",
          "name": "imageURL",
          "type": "string"
        }
      ],
      "name": "setPrize",
      "outputs": [],
      "stateMutability": "nonpayable",
      "type": "function"
    },
    {
      "inputs": [
        {
          "internalType": "uint256",
          "name": "luckyNumber",
          "type": "uint256"
        }
      ],
      "name": "getPrize",
      "outputs": [
        {
          "internalType": "string",
          "name": "name",
          "type": "string"
        },
        {
          "internalType": "string",
          "name": "description",
          "type": "string"
        },
        {
          "internalType": "string",
          "name": "imageURL",
          "type": "string"
        }
      ],
      "stateMutability": "view",
      "type": "function"
    },
    {
      "inputs": [
        {
          "internalType": "string",
          "name": "requestId",
          "type": "string"
        }
      ],
      "name": "requestCommit",
      "outputs": [],
      "stateMutability": "nonpayable",
      "type": "function"
    },
    {
      "inputs": [
        {
          "internalType": "bytes32",
          "name": "_serverSeedHash",
          "type": "bytes32"
        },
        {
          "internalType": "bytes32",
          "name": "_salt",
          "type": "bytes32"
        }
      ],
      "name": "commit",
      "outputs": [],
      "stateMutability": "nonpayable",
      "type": "function"
    },
    {
      "inputs": [
        {
          "internalType": "bytes32",
          "name": "_userSeed",
          "type": "bytes32"
        },
        {
          "internalType": "bytes",
          "name": "_signature",
          "type": "bytes"
        }
      ],
      "name": "participate",
      "outputs": [],
      "stateMutability": "payable",
      "type": "function"
    },
    {
      "inputs": [
        {
          "internalType": "bytes32",
          "name": "_serverSeed",
          "type": "bytes32"
        },
        {
          "internalType": "bytes",
          "name": "signature",
          "type": "bytes"
        }
      ],
      "name": "reveal",
      "outputs": [],
      "stateMutability": "nonpayable",
      "type": "function"
    },
    {
      "inputs": [
        {
          "internalType": "uint256",
          "name": "tokenId",
          "type": "uint256"
        }
      ],
      "name": "tokenURI",
      "outputs": [
        {
          "internalType": "string",
          "name": "",
          "type": "string"
        }
      ],
      "stateMutability": "view",
      "type": "function"
    },
    {
      "inputs": [
        {
          "internalType": "uint256",
          "name": "tokenId",
          "type": "uint256"
        }
      ],
      "name": "getLuckyNumberForToken",
      "outputs": [
        {
          "internalType": "uint256",
          "name": "",
          "type": "uint256"
        }
      ],
      "stateMutability": "view",
      "type": "function"
    },
    {
      "inputs": [
        {
          "internalType": "uint256[]",
          "name": "luckyNumbers",
          "type": "uint256[]"
        },
        {
          "internalType": "string[]",
          "name": "names",
          "type": "string[]"
        },
        {
          "internalType": "string[]",
          "name": "descriptions",
          "type": "string[]"
        },
        {
          "internalType": "string[]",
          "name": "imageURLs",
          "type": "string[]"
        }
      ],
      "name": "setPrizesBulk",
      "outputs": [],
      "stateMutability": "nonpayable",
      "type": "function"
    },
    {
      "inputs": [],
      "name": "getAllTokensInfo",
      "outputs": [
        {
          "components": [
            {
              "internalType": "address",
              "name": "owner",
              "type": "address"
            },
            {
              "internalType": "uint256",
              "name": "tokenId",
              "type": "uint256"
            },
            {
              "internalType": "uint256",
              "name": "luckyNumber",
              "type": "uint256"
            },
            {
              "components": [
                {
                  "internalType": "string",
                  "name": "name",
                  "type": "string"
                },
                {
                  "internalType": "string",
                  "name": "description",
                  "type": "string"
                },
                {
                  "internalType": "string",
                  "name": "imageURL",
                  "type": "string"
                }
              ],
              "internalType": "struct Prize",
              "name": "prize",
              "type": "tuple"
            }
          ],
          "internalType": "struct TokenInfo[]",
          "name": "",
          "type": "tuple[]"
        }
      ],
      "stateMutability": "view",
      "type": "function"
    },
    {
      "inputs": [
        {
          "internalType": "uint256",
          "name": "_luckyNumber",
          "type": "uint256"
        }
      ],
      "name": "getLuckyNumberCount",
      "outputs": [
        {
          "internalType": "uint256",
          "name": "",
          "type": "uint256"
        }
      ],
      "stateMutability": "view",
      "type": "function"
    }
  ],
  "bytecode": "0x608060405234801562000010575f80fd5b506040516200561538038062005615833981810160405281019062000036919062000151565b6040518060400160405280600981526020017f546f6b656e4e616d6500000000000000000000000000000000000000000000008152506040518060400160405280600b81526020017f546f6b656e53796d626f6c000000000000000000000000000000000000000000815250815f9081620000b29190620003dc565b508060019081620000c49190620003dc565b50505033600b5f6101000a81548173ffffffffffffffffffffffffffffffffffffffff021916908373ffffffffffffffffffffffffffffffffffffffff16021790555080600d8190555050620004c0565b5f80fd5b5f819050919050565b6200012d8162000119565b811462000138575f80fd5b50565b5f815190506200014b8162000122565b92915050565b5f6020828403121562000169576200016862000115565b5b5f62000178848285016200013b565b91505092915050565b5f81519050919050565b7f4e487b71000000000000000000000000000000000000000000000000000000005f52604160045260245ffd5b7f4e487b71000000000000000000000000000000000000000000000000000000005f52602260045260245ffd5b5f6002820490506001821680620001fd57607f821691505b602082108103620002135762000212620001b8565b5b50919050565b5f819050815f5260205f209050919050565b5f6020601f8301049050919050565b5f82821b905092915050565b5f60088302620002777fffffffffffffffffffffffffffffffffffffffffffffffffffffffffffffffff826200023a565b6200028386836200023a565b95508019841693508086168417925050509392505050565b5f819050919050565b5f620002c4620002be620002b88462000119565b6200029b565b62000119565b9050919050565b5f819050919050565b620002df83620002a4565b620002f7620002ee82620002cb565b84845462000246565b825550505050565b5f90565b6200030d620002ff565b6200031a818484620002d4565b505050565b5b818110156200034157620003355f8262000303565b60018101905062000320565b5050565b601f82111562000390576200035a8162000219565b62000365846200022b565b8101602085101562000375578190505b6200038d62000384856200022b565b8301826200031f565b50505b505050565b5f82821c905092915050565b5f620003b25f198460080262000395565b1980831691505092915050565b5f620003cc8383620003a1565b9150826002028217905092915050565b620003e78262000181565b67ffffffffffffffff8111156200040357620004026200018b565b5b6200040f8254620001e5565b6200041c82828562000345565b5f60209050601f83116001811462000452575f84156200043d578287015190505b620004498582620003bf565b865550620004b8565b601f198416620004628662000219565b5f5b828110156200048b5784890151825560018201915060208501945060208101905062000464565b86831015620004ab5784890151620004a7601f891682620003a1565b8355505b6001600288020188555050505b505050505050565b61514780620004ce5f395ff3fe608060405260043610610219575f3560e01c806366bcb64211610122578063a1099bf2116100aa578063c87b56dd1161006e578063c87b56dd146107f5578063ceb2d74514610831578063d428fa2e14610859578063e3ce094d14610897578063e985e9c5146108bf57610219565b8063a1099bf214610713578063a22cb46514610751578063b88d4fde14610779578063bf205ebc146107a1578063bfa0b133146107cb57610219565b806385205108116100f157806385205108146106515780638da5cb5b1461067957806395d89b41146106a3578063984f0be3146106cd5780639a24a25b146106e957610219565b806366bcb6421461059757806368c282f2146105c157806370a08231146105eb5780637382901e1461062757610219565b80632f745c59116101a55780634f6ccce7116101745780634f6ccce7146104a557806354214f69146104e15780635bb46dff1461050b5780635fe8aa5e146105335780636352211e1461055b57610219565b80632f745c59146103db5780633ecce9181461041757806342842e0e1461045357806348db5f891461047b57610219565b80630e178ef1116101ec5780630e178ef1146102e75780630e40fa7b1461032357806318160ddd1461035f57806323b872dd1461038957806324924bf7146103b157610219565b806301ffc9a71461021d57806306fdde0314610259578063081812fc14610283578063095ea7b3146102bf575b5f80fd5b348015610228575f80fd5b50610243600480360381019061023e91906133c7565b6108fb565b604051610250919061340c565b60405180910390f35b348015610264575f80fd5b5061026d610974565b60405161027a91906134af565b60405180910390f35b34801561028e575f80fd5b506102a960048036038101906102a49190613502565b610a03565b6040516102b6919061356c565b60405180910390f35b3480156102ca575f80fd5b506102e560048036038101906102e091906135af565b610a45565b005b3480156102f2575f80fd5b5061030d60048036038101906103089190613502565b610b5b565b60405161031a91906135fc565b60405180910390f35b34801561032e575f80fd5b5061034960048036038101906103449190613502565b610b75565b60405161035691906135fc565b60405180910390f35b34801561036a575f80fd5b50610373610b8f565b60405161038091906135fc565b60405180910390f35b348015610394575f80fd5b506103af60048036038101906103aa9190613615565b610b9b565b005b3480156103bc575f80fd5b506103c5610bfb565b6040516103d291906135fc565b60405180910390f35b3480156103e6575f80fd5b5061040160048036038101906103fc91906135af565b610c01565b60405161040e91906135fc565b60405180910390f35b348015610422575f80fd5b5061043d60048036038101906104389190613698565b610ca1565b60405161044a919061340c565b60405180910390f35b34801561045e575f80fd5b5061047960048036038101906104749190613615565b610ccb565b005b348015610486575f80fd5b5061048f610cea565b60405161049c91906136f6565b60405180910390f35b3480156104b0575f80fd5b506104cb60048036038101906104c69190613502565b610d0f565b6040516104d891906135fc565b60405180910390f35b3480156104ec575f80fd5b506104f5610d7d565b604051610502919061340c565b60405180910390f35b348015610516575f80fd5b50610531600480360381019061052c9190613770565b610d8f565b005b34801561053e575f80fd5b5061055960048036038101906105549190613a81565b610de3565b005b348015610566575f80fd5b50610581600480360381019061057c9190613502565b610f3c565b60405161058e919061356c565b60405180910390f35b3480156105a2575f80fd5b506105ab610fc0565b6040516105b89190613b64565b60405180910390f35b3480156105cc575f80fd5b506105d5610fc6565b6040516105e29190613b64565b60405180910390f35b3480156105f6575f80fd5b50610611600480360381019061060c9190613b7d565b610fcc565b60405161061e91906135fc565b60405180910390f35b348015610632575f80fd5b5061063b611080565b6040516106489190613b64565b60405180910390f35b34801561065c575f80fd5b5061067760048036038101906106729190613c46565b611086565b005b348015610684575f80fd5b5061068d611311565b60405161069a91906136f6565b60405180910390f35b3480156106ae575f80fd5b506106b7611336565b6040516106c491906134af565b60405180910390f35b6106e760048036038101906106e29190613c46565b6113c6565b005b3480156106f4575f80fd5b506106fd6115bf565b60405161070a9190613e7c565b60405180910390f35b34801561071e575f80fd5b5061073960048036038101906107349190613502565b611894565b60405161074893929190613e9c565b60405180910390f35b34801561075c575f80fd5b5061077760048036038101906107729190613f10565b611a83565b005b348015610784575f80fd5b5061079f600480360381019061079a9190613f4e565b611a99565b005b3480156107ac575f80fd5b506107b5611afb565b6040516107c291906135fc565b60405180910390f35b3480156107d6575f80fd5b506107df611b01565b6040516107ec9190613b64565b60405180910390f35b348015610800575f80fd5b5061081b60048036038101906108169190613502565b611b07565b60405161082891906134af565b60405180910390f35b34801561083c575f80fd5b5061085760048036038101906108529190613fce565b611ba8565b005b348015610864575f80fd5b5061087f600480360381019061087a9190613502565b611c22565b60405161088e93929190613e9c565b60405180910390f35b3480156108a2575f80fd5b506108bd60048036038101906108b89190614086565b611dda565b005b3480156108ca575f80fd5b506108e560048036038101906108e091906140c4565b611eaa565b6040516108f2919061340c565b60405180910390f35b5f7f780e9d63000000000000000000000000000000000000000000000000000000007bffffffffffffffffffffffffffffffffffffffffffffffffffffffff1916827bffffffffffffffffffffffffffffffffffffffffffffffffffffffff1916148061096d575061096c82611f38565b5b9050919050565b60605f80546109829061412f565b80601f01602080910402602001604051908101604052809291908181526020018280546109ae9061412f565b80156109f95780601f106109d0576101008083540402835291602001916109f9565b820191905f5260205f20905b8154815290600101906020018083116109dc57829003601f168201915b5050505050905090565b5f610a0d82612019565b60045f8381526020019081526020015f205f9054906101000a900473ffffffffffffffffffffffffffffffffffffffff169050919050565b5f610a4f82610f3c565b90508073ffffffffffffffffffffffffffffffffffffffff168373ffffffffffffffffffffffffffffffffffffffff1603610abf576040517f08c379a0000000000000000000000000000000000000000000000000000000008152600401610ab6906141cf565b60405180910390fd5b8073ffffffffffffffffffffffffffffffffffffffff16610ade612064565b73ffffffffffffffffffffffffffffffffffffffff161480610b0d5750610b0c81610b07612064565b611eaa565b5b610b4c576040517f08c379a0000000000000000000000000000000000000000000000000000000008152600401610b439061425d565b60405180910390fd5b610b56838361206b565b505050565b5f60155f8381526020019081526020015f20549050919050565b5f60185f8381526020019081526020015f20549050919050565b5f600880549050905090565b610bac610ba6612064565b82612121565b610beb576040517f08c379a0000000000000000000000000000000000000000000000000000000008152600401610be2906142eb565b60405180910390fd5b610bf68383836121b5565b505050565b600d5481565b5f610c0b83610fcc565b8210610c4c576040517f08c379a0000000000000000000000000000000000000000000000000000000008152600401610c4390614379565b60405180910390fd5b60065f8473ffffffffffffffffffffffffffffffffffffffff1673ffffffffffffffffffffffffffffffffffffffff1681526020019081526020015f205f8381526020019081526020015f2054905092915050565b6014602052815f5260405f20602052805f5260405f205f915091509054906101000a900460ff1681565b610ce583838360405180602001604052805f815250611a99565b505050565b600c5f9054906101000a900473ffffffffffffffffffffffffffffffffffffffff1681565b5f610d18610b8f565b8210610d59576040517f08c379a0000000000000000000000000000000000000000000000000000000008152600401610d5090614407565b60405180910390fd5b60088281548110610d6d57610d6c614425565b5b905f5260205f2001549050919050565b60125f9054906101000a900460ff1681565b3373ffffffffffffffffffffffffffffffffffffffff167f012b1127b60d15366b18ae35b2848ab5a402d272f830e92b37b1db38374a1c098383604051610dd792919061447e565b60405180910390a25050565b82518451148015610df5575081518351145b8015610e02575080518251145b610e41576040517f08c379a0000000000000000000000000000000000000000000000000000000008152600401610e38906144ea565b60405180910390fd5b5f5b8451811015610f35575f6040518060600160405280868481518110610e6b57610e6a614425565b5b60200260200101518152602001858481518110610e8b57610e8a614425565b5b60200260200101518152602001848481518110610eab57610eaa614425565b5b602002602001015181525090508060165f888581518110610ecf57610ece614425565b5b602002602001015181526020019081526020015f205f820151815f019081610ef791906146a5565b506020820151816001019081610f0d91906146a5565b506040820151816002019081610f2391906146a5565b50905050508080600101915050610e43565b5050505050565b5f80610f47836124a1565b90505f73ffffffffffffffffffffffffffffffffffffffff168173ffffffffffffffffffffffffffffffffffffffff1603610fb7576040517f08c379a0000000000000000000000000000000000000000000000000000000008152600401610fae906147be565b60405180910390fd5b80915050919050565b60105481565b600f5481565b5f8073ffffffffffffffffffffffffffffffffffffffff168273ffffffffffffffffffffffffffffffffffffffff160361103b576040517f08c379a00000000000000000000000000000000000000000000000000000000081526004016110329061484c565b60405180910390fd5b60035f8373ffffffffffffffffffffffffffffffffffffffff1673ffffffffffffffffffffffffffffffffffffffff1681526020019081526020015f20549050919050565b600e5481565b8160135460405160200161109b92919061488a565b60405160208183030381529060405280519060200120600e54146110f4576040517f08c379a00000000000000000000000000000000000000000000000000000000081526004016110eb906148ff565b60405180910390fd5b81600f819055505f611105836124da565b90505f61111182612509565b90505f61111e8285612538565b9050827f5f23b605bd6c13580e1bd65c89aa5768674b0165fd8cc0a8a18819c7cd8a7c7860405160405180910390a28073ffffffffffffffffffffffffffffffffffffffff167f391f5edd7209ba797e8055bce97cab2d1a480a2849b0c7fe965c370457166dc460405160405180910390a2600b5f9054906101000a900473ffffffffffffffffffffffffffffffffffffffff1673ffffffffffffffffffffffffffffffffffffffff168173ffffffffffffffffffffffffffffffffffffffff161461121f576040517f08c379a000000000000000000000000000000000000000000000000000000000815260040161121690614967565b60405180910390fd5b5f600f5460105460135460405160200161123b93929190614985565b604051602081830303815290604052805190602001209050600a815f1c61126291906149ee565b601181905550600160185f60115481526020019081526020015f20546112889190614a4b565b60185f60115481526020019081526020015f20819055507f6765f1b8ca6c099f7378c6e9b12cf8afac970d483c3faf81745e4b40c26148db600f546011546040516112d4929190614a7e565b60405180910390a1611309600c5f9054906101000a900473ffffffffffffffffffffffffffffffffffffffff166011546125a2565b505050505050565b600b5f9054906101000a900473ffffffffffffffffffffffffffffffffffffffff1681565b6060600180546113459061412f565b80601f01602080910402602001604051908101604052809291908181526020018280546113719061412f565b80156113bc5780601f10611393576101008083540402835291602001916113bc565b820191905f5260205f20905b81548152906001019060200180831161139f57829003601f168201915b5050505050905090565b5f6113d0836124da565b90505f6113dc82612509565b90505f6113e98285612538565b90503373ffffffffffffffffffffffffffffffffffffffff168173ffffffffffffffffffffffffffffffffffffffff1614611459576040517f08c379a000000000000000000000000000000000000000000000000000000000815260040161145090614967565b60405180910390fd5b8460108190555033600c5f6101000a81548173ffffffffffffffffffffffffffffffffffffffff021916908373ffffffffffffffffffffffffffffffffffffffff160217905550600160145f3373ffffffffffffffffffffffffffffffffffffffff1673ffffffffffffffffffffffffffffffffffffffff1681526020019081526020015f205f8781526020019081526020015f205f6101000a81548160ff021916908315150217905550600c5f9054906101000a900473ffffffffffffffffffffffffffffffffffffffff1673ffffffffffffffffffffffffffffffffffffffff167fc197ebf15e8fe977ad5029df6077570283fa75a10103efc82970e4962d21eb3060105460405161156d9190613b64565b60405180910390a23373ffffffffffffffffffffffffffffffffffffffff167f4b904c2bfe136ea68afa5ff4de7e0c7101664ebd64570c7f6f6f8d8b533d0ef060405160405180910390a25050505050565b60605f6115cc600a61281e565b90505f8167ffffffffffffffff8111156115e9576115e86137bb565b5b60405190808252806020026020018201604052801561162257816020015b61160f6132ff565b8152602001906001900390816116075790505b5090505f5b8281101561188b575f60018261163d9190614a4b565b90505f61164982610f3c565b90505f61165583610b5b565b90505f60165f8381526020019081526020015f206040518060600160405290815f820180546116839061412f565b80601f01602080910402602001604051908101604052809291908181526020018280546116af9061412f565b80156116fa5780601f106116d1576101008083540402835291602001916116fa565b820191905f5260205f20905b8154815290600101906020018083116116dd57829003601f168201915b505050505081526020016001820180546117139061412f565b80601f016020809104026020016040519081016040528092919081815260200182805461173f9061412f565b801561178a5780601f106117615761010080835404028352916020019161178a565b820191905f5260205f20905b81548152906001019060200180831161176d57829003601f168201915b505050505081526020016002820180546117a39061412f565b80601f01602080910402602001604051908101604052809291908181526020018280546117cf9061412f565b801561181a5780601f106117f15761010080835404028352916020019161181a565b820191905f5260205f20905b8154815290600101906020018083116117fd57829003601f168201915b505050505081525050905060405180608001604052808473ffffffffffffffffffffffffffffffffffffffff1681526020018581526020018381526020018281525086868151811061186f5761186e614425565b5b6020026020010181905250505050508080600101915050611627565b50809250505090565b60608060605f60165f8681526020019081526020015f206040518060600160405290815f820180546118c59061412f565b80601f01602080910402602001604051908101604052809291908181526020018280546118f19061412f565b801561193c5780601f106119135761010080835404028352916020019161193c565b820191905f5260205f20905b81548152906001019060200180831161191f57829003601f168201915b505050505081526020016001820180546119559061412f565b80601f01602080910402602001604051908101604052809291908181526020018280546119819061412f565b80156119cc5780601f106119a3576101008083540402835291602001916119cc565b820191905f5260205f20905b8154815290600101906020018083116119af57829003601f168201915b505050505081526020016002820180546119e59061412f565b80601f0160208091040260200160405190810160405280929190818152602001828054611a119061412f565b8015611a5c5780601f10611a3357610100808354040283529160200191611a5c565b820191905f5260205f20905b815481529060010190602001808311611a3f57829003601f168201915b5050505050815250509050805f015181602001518260400151935093509350509193909250565b611a95611a8e612064565b838361282a565b5050565b611aaa611aa4612064565b83612121565b611ae9576040517f08c379a0000000000000000000000000000000000000000000000000000000008152600401611ae0906142eb565b60405180910390fd5b611af584848484612991565b50505050565b60115481565b60135481565b606060175f8381526020019081526020015f208054611b259061412f565b80601f0160208091040260200160405190810160405280929190818152602001828054611b519061412f565b8015611b9c5780601f10611b7357610100808354040283529160200191611b9c565b820191905f5260205f20905b815481529060010190602001808311611b7f57829003601f168201915b50505050509050919050565b5f60405180606001604052808581526020018481526020018381525090508060165f8781526020019081526020015f205f820151815f019081611beb91906146a5565b506020820151816001019081611c0191906146a5565b506040820151816002019081611c1791906146a5565b509050505050505050565b6016602052805f5260405f205f91509050805f018054611c419061412f565b80601f0160208091040260200160405190810160405280929190818152602001828054611c6d9061412f565b8015611cb85780601f10611c8f57610100808354040283529160200191611cb8565b820191905f5260205f20905b815481529060010190602001808311611c9b57829003601f168201915b505050505090806001018054611ccd9061412f565b80601f0160208091040260200160405190810160405280929190818152602001828054611cf99061412f565b8015611d445780601f10611d1b57610100808354040283529160200191611d44565b820191905f5260205f20905b815481529060010190602001808311611d2757829003601f168201915b505050505090806002018054611d599061412f565b80601f0160208091040260200160405190810160405280929190818152602001828054611d859061412f565b8015611dd05780601f10611da757610100808354040283529160200191611dd0565b820191905f5260205f20905b815481529060010190602001808311611db357829003601f168201915b5050505050905083565b600b5f9054906101000a900473ffffffffffffffffffffffffffffffffffffffff1673ffffffffffffffffffffffffffffffffffffffff163373ffffffffffffffffffffffffffffffffffffffff1614611e69576040517f08c379a0000000000000000000000000000000000000000000000000000000008152600401611e6090614aef565b60405180910390fd5b81600e8190555080601381905550600e547f522250e8a5d48ed8b6afbdb88fc1bb8ce6735c729835065b6840033c1d406f9060405160405180910390a25050565b5f60055f8473ffffffffffffffffffffffffffffffffffffffff1673ffffffffffffffffffffffffffffffffffffffff1681526020019081526020015f205f8373ffffffffffffffffffffffffffffffffffffffff1673ffffffffffffffffffffffffffffffffffffffff1681526020019081526020015f205f9054906101000a900460ff16905092915050565b5f7f80ac58cd000000000000000000000000000000000000000000000000000000007bffffffffffffffffffffffffffffffffffffffffffffffffffffffff1916827bffffffffffffffffffffffffffffffffffffffffffffffffffffffff1916148061200257507f5b5e139f000000000000000000000000000000000000000000000000000000007bffffffffffffffffffffffffffffffffffffffffffffffffffffffff1916827bffffffffffffffffffffffffffffffffffffffffffffffffffffffff1916145b806120125750612011826129ed565b5b9050919050565b61202281612a56565b612061576040517f08c379a0000000000000000000000000000000000000000000000000000000008152600401612058906147be565b60405180910390fd5b50565b5f33905090565b8160045f8381526020019081526020015f205f6101000a81548173ffffffffffffffffffffffffffffffffffffffff021916908373ffffffffffffffffffffffffffffffffffffffff160217905550808273ffffffffffffffffffffffffffffffffffffffff166120db83610f3c565b73ffffffffffffffffffffffffffffffffffffffff167f8c5be1e5ebec7d5bd14f71427d1e84f3dd0314c0f7b2291e5b200ac8c7c3b92560405160405180910390a45050565b5f8061212c83610f3c565b90508073ffffffffffffffffffffffffffffffffffffffff168473ffffffffffffffffffffffffffffffffffffffff16148061216e575061216d8185611eaa565b5b806121ac57508373ffffffffffffffffffffffffffffffffffffffff1661219484610a03565b73ffffffffffffffffffffffffffffffffffffffff16145b91505092915050565b8273ffffffffffffffffffffffffffffffffffffffff166121d582610f3c565b73ffffffffffffffffffffffffffffffffffffffff161461222b576040517f08c379a000000000000000000000000000000000000000000000000000000000815260040161222290614b7d565b60405180910390fd5b5f73ffffffffffffffffffffffffffffffffffffffff168273ffffffffffffffffffffffffffffffffffffffff1603612299576040517f08c379a000000000000000000000000000000000000000000000000000000000815260040161229090614c0b565b60405180910390fd5b6122a68383836001612a96565b8273ffffffffffffffffffffffffffffffffffffffff166122c682610f3c565b73ffffffffffffffffffffffffffffffffffffffff161461231c576040517f08c379a000000000000000000000000000000000000000000000000000000000815260040161231390614b7d565b60405180910390fd5b60045f8281526020019081526020015f205f6101000a81549073ffffffffffffffffffffffffffffffffffffffff0219169055600160035f8573ffffffffffffffffffffffffffffffffffffffff1673ffffffffffffffffffffffffffffffffffffffff1681526020019081526020015f205f8282540392505081905550600160035f8473ffffffffffffffffffffffffffffffffffffffff1673ffffffffffffffffffffffffffffffffffffffff1681526020019081526020015f205f82825401925050819055508160025f8381526020019081526020015f205f6101000a81548173ffffffffffffffffffffffffffffffffffffffff021916908373ffffffffffffffffffffffffffffffffffffffff160217905550808273ffffffffffffffffffffffffffffffffffffffff168473ffffffffffffffffffffffffffffffffffffffff167fddf252ad1be2c89b69c2b068fc378daa952ba7f163c4a11628f55a4df523b3ef60405160405180910390a461249c8383836001612bf1565b505050565b5f60025f8381526020019081526020015f205f9054906101000a900473ffffffffffffffffffffffffffffffffffffffff169050919050565b5f816040516020016124ec9190614c29565b604051602081830303815290604052805190602001209050919050565b5f8160405160200161251b9190614c97565b604051602081830303815290604052805190602001209050919050565b5f805f8061254585612bf7565b9250925092506001868285856040515f815260200160405260405161256d9493929190614cd7565b6020604051602081039080840390855afa15801561258d573d5f803e3d5ffd5b50505060206040510351935050505092915050565b6125ac600a612c5c565b5f6125b7600a61281e565b90506125c38382612c70565b8160155f8381526020019081526020015f20819055505f60165f8481526020019081526020015f206040518060600160405290815f820180546126059061412f565b80601f01602080910402602001604051908101604052809291908181526020018280546126319061412f565b801561267c5780601f106126535761010080835404028352916020019161267c565b820191905f5260205f20905b81548152906001019060200180831161265f57829003601f168201915b505050505081526020016001820180546126959061412f565b80601f01602080910402602001604051908101604052809291908181526020018280546126c19061412f565b801561270c5780601f106126e35761010080835404028352916020019161270c565b820191905f5260205f20905b8154815290600101906020018083116126ef57829003601f168201915b505050505081526020016002820180546127259061412f565b80601f01602080910402602001604051908101604052809291908181526020018280546127519061412f565b801561279c5780601f106127735761010080835404028352916020019161279c565b820191905f5260205f20905b81548152906001019060200180831161277f57829003601f168201915b5050505050815250509050806040015160175f8481526020019081526020015f2090816127c991906146a5565b508373ffffffffffffffffffffffffffffffffffffffff167f4cc0a9c4a99ddc700de1af2c9f916a7cbfdb71f14801ccff94061ad1ef8a80408360405161281091906135fc565b60405180910390a250505050565b5f815f01549050919050565b8173ffffffffffffffffffffffffffffffffffffffff168373ffffffffffffffffffffffffffffffffffffffff1603612898576040517f08c379a000000000000000000000000000000000000000000000000000000000815260040161288f90614d64565b60405180910390fd5b8060055f8573ffffffffffffffffffffffffffffffffffffffff1673ffffffffffffffffffffffffffffffffffffffff1681526020019081526020015f205f8473ffffffffffffffffffffffffffffffffffffffff1673ffffffffffffffffffffffffffffffffffffffff1681526020019081526020015f205f6101000a81548160ff0219169083151502179055508173ffffffffffffffffffffffffffffffffffffffff168373ffffffffffffffffffffffffffffffffffffffff167f17307eab39ab6107e8899845ad3d59bd9653f200f220920489ca2b5937696c3183604051612984919061340c565b60405180910390a3505050565b61299c8484846121b5565b6129a884848484612e83565b6129e7576040517f08c379a00000000000000000000000000000000000000000000000000000000081526004016129de90614df2565b60405180910390fd5b50505050565b5f7f01ffc9a7000000000000000000000000000000000000000000000000000000007bffffffffffffffffffffffffffffffffffffffffffffffffffffffff1916827bffffffffffffffffffffffffffffffffffffffffffffffffffffffff1916149050919050565b5f8073ffffffffffffffffffffffffffffffffffffffff16612a77836124a1565b73ffffffffffffffffffffffffffffffffffffffff1614159050919050565b612aa284848484613005565b6001811115612ae6576040517f08c379a0000000000000000000000000000000000000000000000000000000008152600401612add90614e80565b60405180910390fd5b5f8290505f73ffffffffffffffffffffffffffffffffffffffff168573ffffffffffffffffffffffffffffffffffffffff1603612b2b57612b268161300b565b612b6a565b8373ffffffffffffffffffffffffffffffffffffffff168573ffffffffffffffffffffffffffffffffffffffff1614612b6957612b68858261304f565b5b5b5f73ffffffffffffffffffffffffffffffffffffffff168473ffffffffffffffffffffffffffffffffffffffff1603612bab57612ba6816131a5565b612bea565b8473ffffffffffffffffffffffffffffffffffffffff168473ffffffffffffffffffffffffffffffffffffffff1614612be957612be88482613265565b5b5b5050505050565b50505050565b5f805f6041845114612c3e576040517f08c379a0000000000000000000000000000000000000000000000000000000008152600401612c3590614ee8565b60405180910390fd5b602084015192506040840151915060608401515f1a90509193909250565b6001815f015f828254019250508190555050565b5f73ffffffffffffffffffffffffffffffffffffffff168273ffffffffffffffffffffffffffffffffffffffff1603612cde576040517f08c379a0000000000000000000000000000000000000000000000000000000008152600401612cd590614f50565b60405180910390fd5b612ce781612a56565b15612d27576040517f08c379a0000000000000000000000000000000000000000000000000000000008152600401612d1e90614fb8565b60405180910390fd5b612d345f83836001612a96565b612d3d81612a56565b15612d7d576040517f08c379a0000000000000000000000000000000000000000000000000000000008152600401612d7490614fb8565b60405180910390fd5b600160035f8473ffffffffffffffffffffffffffffffffffffffff1673ffffffffffffffffffffffffffffffffffffffff1681526020019081526020015f205f82825401925050819055508160025f8381526020019081526020015f205f6101000a81548173ffffffffffffffffffffffffffffffffffffffff021916908373ffffffffffffffffffffffffffffffffffffffff160217905550808273ffffffffffffffffffffffffffffffffffffffff165f73ffffffffffffffffffffffffffffffffffffffff167fddf252ad1be2c89b69c2b068fc378daa952ba7f163c4a11628f55a4df523b3ef60405160405180910390a4612e7f5f83836001612bf1565b5050565b5f612ea38473ffffffffffffffffffffffffffffffffffffffff166132dd565b15612ff8578373ffffffffffffffffffffffffffffffffffffffff1663150b7a02612ecc612064565b8786866040518563ffffffff1660e01b8152600401612eee9493929190615028565b6020604051808303815f875af1925050508015612f2957506040513d601f19601f82011682018060405250810190612f269190615086565b60015b612fa8573d805f8114612f57576040519150601f19603f3d011682016040523d82523d5f602084013e612f5c565b606091505b505f815103612fa0576040517f08c379a0000000000000000000000000000000000000000000000000000000008152600401612f9790614df2565b60405180910390fd5b805181602001fd5b63150b7a0260e01b7bffffffffffffffffffffffffffffffffffffffffffffffffffffffff1916817bffffffffffffffffffffffffffffffffffffffffffffffffffffffff191614915050612ffd565b600190505b949350505050565b50505050565b60088054905060095f8381526020019081526020015f2081905550600881908060018154018082558091505060019003905f5260205f20015f909190919091505550565b5f600161305b84610fcc565b61306591906150b1565b90505f60075f8481526020019081526020015f2054905081811461313c575f60065f8673ffffffffffffffffffffffffffffffffffffffff1673ffffffffffffffffffffffffffffffffffffffff1681526020019081526020015f205f8481526020019081526020015f205490508060065f8773ffffffffffffffffffffffffffffffffffffffff1673ffffffffffffffffffffffffffffffffffffffff1681526020019081526020015f205f8481526020019081526020015f20819055508160075f8381526020019081526020015f2081905550505b60075f8481526020019081526020015f205f905560065f8573ffffffffffffffffffffffffffffffffffffffff1673ffffffffffffffffffffffffffffffffffffffff1681526020019081526020015f205f8381526020019081526020015f205f905550505050565b5f60016008805490506131b891906150b1565b90505f60095f8481526020019081526020015f205490505f600883815481106131e4576131e3614425565b5b905f5260205f2001549050806008838154811061320457613203614425565b5b905f5260205f2001819055508160095f8381526020019081526020015f208190555060095f8581526020019081526020015f205f9055600880548061324c5761324b6150e4565b5b600190038181905f5260205f20015f9055905550505050565b5f61326f83610fcc565b90508160065f8573ffffffffffffffffffffffffffffffffffffffff1673ffffffffffffffffffffffffffffffffffffffff1681526020019081526020015f205f8381526020019081526020015f20819055508060075f8481526020019081526020015f2081905550505050565b5f808273ffffffffffffffffffffffffffffffffffffffff163b119050919050565b60405180608001604052805f73ffffffffffffffffffffffffffffffffffffffff1681526020015f81526020015f815260200161333a613340565b81525090565b60405180606001604052806060815260200160608152602001606081525090565b5f604051905090565b5f80fd5b5f80fd5b5f7fffffffff0000000000000000000000000000000000000000000000000000000082169050919050565b6133a681613372565b81146133b0575f80fd5b50565b5f813590506133c18161339d565b92915050565b5f602082840312156133dc576133db61336a565b5b5f6133e9848285016133b3565b91505092915050565b5f8115159050919050565b613406816133f2565b82525050565b5f60208201905061341f5f8301846133fd565b92915050565b5f81519050919050565b5f82825260208201905092915050565b5f5b8381101561345c578082015181840152602081019050613441565b5f8484015250505050565b5f601f19601f8301169050919050565b5f61348182613425565b61348b818561342f565b935061349b81856020860161343f565b6134a481613467565b840191505092915050565b5f6020820190508181035f8301526134c78184613477565b905092915050565b5f819050919050565b6134e1816134cf565b81146134eb575f80fd5b50565b5f813590506134fc816134d8565b92915050565b5f602082840312156135175761351661336a565b5b5f613524848285016134ee565b91505092915050565b5f73ffffffffffffffffffffffffffffffffffffffff82169050919050565b5f6135568261352d565b9050919050565b6135668161354c565b82525050565b5f60208201905061357f5f83018461355d565b92915050565b61358e8161354c565b8114613598575f80fd5b50565b5f813590506135a981613585565b92915050565b5f80604083850312156135c5576135c461336a565b5b5f6135d28582860161359b565b92505060206135e3858286016134ee565b9150509250929050565b6135f6816134cf565b82525050565b5f60208201905061360f5f8301846135ed565b92915050565b5f805f6060848603121561362c5761362b61336a565b5b5f6136398682870161359b565b935050602061364a8682870161359b565b925050604061365b868287016134ee565b9150509250925092565b5f819050919050565b61367781613665565b8114613681575f80fd5b50565b5f813590506136928161366e565b92915050565b5f80604083850312156136ae576136ad61336a565b5b5f6136bb8582860161359b565b92505060206136cc85828601613684565b9150509250929050565b5f6136e08261352d565b9050919050565b6136f0816136d6565b82525050565b5f6020820190506137095f8301846136e7565b92915050565b5f80fd5b5f80fd5b5f80fd5b5f8083601f8401126137305761372f61370f565b5b8235905067ffffffffffffffff81111561374d5761374c613713565b5b60208301915083600182028301111561376957613768613717565b5b9250929050565b5f80602083850312156137865761378561336a565b5b5f83013567ffffffffffffffff8111156137a3576137a261336e565b5b6137af8582860161371b565b92509250509250929050565b7f4e487b71000000000000000000000000000000000000000000000000000000005f52604160045260245ffd5b6137f182613467565b810181811067ffffffffffffffff821117156138105761380f6137bb565b5b80604052505050565b5f613822613361565b905061382e82826137e8565b919050565b5f67ffffffffffffffff82111561384d5761384c6137bb565b5b602082029050602081019050919050565b5f61387061386b84613833565b613819565b9050808382526020820190506020840283018581111561389357613892613717565b5b835b818110156138bc57806138a888826134ee565b845260208401935050602081019050613895565b5050509392505050565b5f82601f8301126138da576138d961370f565b5b81356138ea84826020860161385e565b91505092915050565b5f67ffffffffffffffff82111561390d5761390c6137bb565b5b602082029050602081019050919050565b5f80fd5b5f67ffffffffffffffff82111561393c5761393b6137bb565b5b61394582613467565b9050602081019050919050565b828183375f83830152505050565b5f61397261396d84613922565b613819565b90508281526020810184848401111561398e5761398d61391e565b5b613999848285613952565b509392505050565b5f82601f8301126139b5576139b461370f565b5b81356139c5848260208601613960565b91505092915050565b5f6139e06139db846138f3565b613819565b90508083825260208201905060208402830185811115613a0357613a02613717565b5b835b81811015613a4a57803567ffffffffffffffff811115613a2857613a2761370f565b5b808601613a3589826139a1565b85526020850194505050602081019050613a05565b5050509392505050565b5f82601f830112613a6857613a6761370f565b5b8135613a788482602086016139ce565b91505092915050565b5f805f8060808587031215613a9957613a9861336a565b5b5f85013567ffffffffffffffff811115613ab657613ab561336e565b5b613ac2878288016138c6565b945050602085013567ffffffffffffffff811115613ae357613ae261336e565b5b613aef87828801613a54565b935050604085013567ffffffffffffffff811115613b1057613b0f61336e565b5b613b1c87828801613a54565b925050606085013567ffffffffffffffff811115613b3d57613b3c61336e565b5b613b4987828801613a54565b91505092959194509250565b613b5e81613665565b82525050565b5f602082019050613b775f830184613b55565b92915050565b5f60208284031215613b9257613b9161336a565b5b5f613b9f8482850161359b565b91505092915050565b5f67ffffffffffffffff821115613bc257613bc16137bb565b5b613bcb82613467565b9050602081019050919050565b5f613bea613be584613ba8565b613819565b905082815260208101848484011115613c0657613c0561391e565b5b613c11848285613952565b509392505050565b5f82601f830112613c2d57613c2c61370f565b5b8135613c3d848260208601613bd8565b91505092915050565b5f8060408385031215613c5c57613c5b61336a565b5b5f613c6985828601613684565b925050602083013567ffffffffffffffff811115613c8a57613c8961336e565b5b613c9685828601613c19565b9150509250929050565b5f81519050919050565b5f82825260208201905092915050565b5f819050602082019050919050565b613cd28161354c565b82525050565b613ce1816134cf565b82525050565b5f82825260208201905092915050565b5f613d0182613425565b613d0b8185613ce7565b9350613d1b81856020860161343f565b613d2481613467565b840191505092915050565b5f606083015f8301518482035f860152613d498282613cf7565b91505060208301518482036020860152613d638282613cf7565b91505060408301518482036040860152613d7d8282613cf7565b9150508091505092915050565b5f608083015f830151613d9f5f860182613cc9565b506020830151613db26020860182613cd8565b506040830151613dc56040860182613cd8565b5060608301518482036060860152613ddd8282613d2f565b9150508091505092915050565b5f613df58383613d8a565b905092915050565b5f602082019050919050565b5f613e1382613ca0565b613e1d8185613caa565b935083602082028501613e2f85613cba565b805f5b85811015613e6a5784840389528151613e4b8582613dea565b9450613e5683613dfd565b925060208a01995050600181019050613e32565b50829750879550505050505092915050565b5f6020820190508181035f830152613e948184613e09565b905092915050565b5f6060820190508181035f830152613eb48186613477565b90508181036020830152613ec88185613477565b90508181036040830152613edc8184613477565b9050949350505050565b613eef816133f2565b8114613ef9575f80fd5b50565b5f81359050613f0a81613ee6565b92915050565b5f8060408385031215613f2657613f2561336a565b5b5f613f338582860161359b565b9250506020613f4485828601613efc565b9150509250929050565b5f805f8060808587031215613f6657613f6561336a565b5b5f613f738782880161359b565b9450506020613f848782880161359b565b9350506040613f95878288016134ee565b925050606085013567ffffffffffffffff811115613fb657613fb561336e565b5b613fc287828801613c19565b91505092959194509250565b5f805f8060808587031215613fe657613fe561336a565b5b5f613ff3878288016134ee565b945050602085013567ffffffffffffffff8111156140145761401361336e565b5b614020878288016139a1565b935050604085013567ffffffffffffffff8111156140415761404061336e565b5b61404d878288016139a1565b925050606085013567ffffffffffffffff81111561406e5761406d61336e565b5b61407a878288016139a1565b91505092959194509250565b5f806040838503121561409c5761409b61336a565b5b5f6140a985828601613684565b92505060206140ba85828601613684565b9150509250929050565b5f80604083850312156140da576140d961336a565b5b5f6140e78582860161359b565b92505060206140f88582860161359b565b9150509250929050565b7f4e487b71000000000000000000000000000000000000000000000000000000005f52602260045260245ffd5b5f600282049050600182168061414657607f821691505b60208210810361415957614158614102565b5b50919050565b7f4552433732313a20617070726f76616c20746f2063757272656e74206f776e655f8201527f7200000000000000000000000000000000000000000000000000000000000000602082015250565b5f6141b960218361342f565b91506141c48261415f565b604082019050919050565b5f6020820190508181035f8301526141e6816141ad565b9050919050565b7f4552433732313a20617070726f76652063616c6c6572206973206e6f7420746f5f8201527f6b656e206f776e6572206f7220617070726f76656420666f7220616c6c000000602082015250565b5f614247603d8361342f565b9150614252826141ed565b604082019050919050565b5f6020820190508181035f8301526142748161423b565b9050919050565b7f4552433732313a2063616c6c6572206973206e6f7420746f6b656e206f776e655f8201527f72206f7220617070726f76656400000000000000000000000000000000000000602082015250565b5f6142d5602d8361342f565b91506142e08261427b565b604082019050919050565b5f6020820190508181035f830152614302816142c9565b9050919050565b7f455243373231456e756d657261626c653a206f776e657220696e646578206f755f8201527f74206f6620626f756e6473000000000000000000000000000000000000000000602082015250565b5f614363602b8361342f565b915061436e82614309565b604082019050919050565b5f6020820190508181035f83015261439081614357565b9050919050565b7f455243373231456e756d657261626c653a20676c6f62616c20696e646578206f5f8201527f7574206f6620626f756e64730000000000000000000000000000000000000000602082015250565b5f6143f1602c8361342f565b91506143fc82614397565b604082019050919050565b5f6020820190508181035f83015261441e816143e5565b9050919050565b7f4e487b71000000000000000000000000000000000000000000000000000000005f52603260045260245ffd5b5f61445d838561342f565b935061446a838584613952565b61447383613467565b840190509392505050565b5f6020820190508181035f830152614497818486614452565b90509392505050565b7f4172726179206c656e67746873206d69736d61746368000000000000000000005f82015250565b5f6144d460168361342f565b91506144df826144a0565b602082019050919050565b5f6020820190508181035f830152614501816144c8565b9050919050565b5f819050815f5260205f209050919050565b5f6020601f8301049050919050565b5f82821b905092915050565b5f600883026145647fffffffffffffffffffffffffffffffffffffffffffffffffffffffffffffffff82614529565b61456e8683614529565b95508019841693508086168417925050509392505050565b5f819050919050565b5f6145a96145a461459f846134cf565b614586565b6134cf565b9050919050565b5f819050919050565b6145c28361458f565b6145d66145ce826145b0565b848454614535565b825550505050565b5f90565b6145ea6145de565b6145f58184846145b9565b505050565b5b818110156146185761460d5f826145e2565b6001810190506145fb565b5050565b601f82111561465d5761462e81614508565b6146378461451a565b81016020851015614646578190505b61465a6146528561451a565b8301826145fa565b50505b505050565b5f82821c905092915050565b5f61467d5f1984600802614662565b1980831691505092915050565b5f614695838361466e565b9150826002028217905092915050565b6146ae82613425565b67ffffffffffffffff8111156146c7576146c66137bb565b5b6146d1825461412f565b6146dc82828561461c565b5f60209050601f83116001811461470d575f84156146fb578287015190505b614705858261468a565b86555061476c565b601f19841661471b86614508565b5f5b828110156147425784890151825560018201915060208501945060208101905061471d565b8683101561475f578489015161475b601f89168261466e565b8355505b6001600288020188555050505b505050505050565b7f4552433732313a20696e76616c696420746f6b656e20494400000000000000005f82015250565b5f6147a860188361342f565b91506147b382614774565b602082019050919050565b5f6020820190508181035f8301526147d58161479c565b9050919050565b7f4552433732313a2061646472657373207a65726f206973206e6f7420612076615f8201527f6c6964206f776e65720000000000000000000000000000000000000000000000602082015250565b5f61483660298361342f565b9150614841826147dc565b604082019050919050565b5f6020820190508181035f8301526148638161482a565b9050919050565b5f819050919050565b61488461487f82613665565b61486a565b82525050565b5f6148958285614873565b6020820191506148a58284614873565b6020820191508190509392505050565b7f496e76616c6964207365727665722073656564000000000000000000000000005f82015250565b5f6148e960138361342f565b91506148f4826148b5565b602082019050919050565b5f6020820190508181035f830152614916816148dd565b9050919050565b7f496e76616c6964207369676e61747572650000000000000000000000000000005f82015250565b5f61495160118361342f565b915061495c8261491d565b602082019050919050565b5f6020820190508181035f83015261497e81614945565b9050919050565b5f6149908286614873565b6020820191506149a08285614873565b6020820191506149b08284614873565b602082019150819050949350505050565b7f4e487b71000000000000000000000000000000000000000000000000000000005f52601260045260245ffd5b5f6149f8826134cf565b9150614a03836134cf565b925082614a1357614a126149c1565b5b828206905092915050565b7f4e487b71000000000000000000000000000000000000000000000000000000005f52601160045260245ffd5b5f614a55826134cf565b9150614a60836134cf565b9250828201905080821115614a7857614a77614a1e565b5b92915050565b5f604082019050614a915f830185613b55565b614a9e60208301846135ed565b9392505050565b7f4f6e6c79206f776e65722063616e20636f6d6d697400000000000000000000005f82015250565b5f614ad960158361342f565b9150614ae482614aa5565b602082019050919050565b5f6020820190508181035f830152614b0681614acd565b9050919050565b7f4552433732313a207472616e736665722066726f6d20696e636f7272656374205f8201527f6f776e6572000000000000000000000000000000000000000000000000000000602082015250565b5f614b6760258361342f565b9150614b7282614b0d565b604082019050919050565b5f6020820190508181035f830152614b9481614b5b565b9050919050565b7f4552433732313a207472616e7366657220746f20746865207a65726f206164645f8201527f7265737300000000000000000000000000000000000000000000000000000000602082015250565b5f614bf560248361342f565b9150614c0082614b9b565b604082019050919050565b5f6020820190508181035f830152614c2281614be9565b9050919050565b5f614c348284614873565b60208201915081905092915050565b5f81905092915050565b7f19457468657265756d205369676e6564204d6573736167653a0a3332000000005f82015250565b5f614c81601c83614c43565b9150614c8c82614c4d565b601c82019050919050565b5f614ca182614c75565b9150614cad8284614873565b60208201915081905092915050565b5f60ff82169050919050565b614cd181614cbc565b82525050565b5f608082019050614cea5f830187613b55565b614cf76020830186614cc8565b614d046040830185613b55565b614d116060830184613b55565b95945050505050565b7f4552433732313a20617070726f766520746f2063616c6c6572000000000000005f82015250565b5f614d4e60198361342f565b9150614d5982614d1a565b602082019050919050565b5f6020820190508181035f830152614d7b81614d42565b9050919050565b7f4552433732313a207472616e7366657220746f206e6f6e2045524337323152655f8201527f63656976657220696d706c656d656e7465720000000000000000000000000000602082015250565b5f614ddc60328361342f565b9150614de782614d82565b604082019050919050565b5f6020820190508181035f830152614e0981614dd0565b9050919050565b7f455243373231456e756d657261626c653a20636f6e73656375746976652074725f8201527f616e7366657273206e6f7420737570706f727465640000000000000000000000602082015250565b5f614e6a60358361342f565b9150614e7582614e10565b604082019050919050565b5f6020820190508181035f830152614e9781614e5e565b9050919050565b7f696e76616c6964207369676e6174757265206c656e67746800000000000000005f82015250565b5f614ed260188361342f565b9150614edd82614e9e565b602082019050919050565b5f6020820190508181035f830152614eff81614ec6565b9050919050565b7f4552433732313a206d696e7420746f20746865207a65726f20616464726573735f82015250565b5f614f3a60208361342f565b9150614f4582614f06565b602082019050919050565b5f6020820190508181035f830152614f6781614f2e565b9050919050565b7f4552433732313a20746f6b656e20616c7265616479206d696e746564000000005f82015250565b5f614fa2601c8361342f565b9150614fad82614f6e565b602082019050919050565b5f6020820190508181035f830152614fcf81614f96565b9050919050565b5f81519050919050565b5f82825260208201905092915050565b5f614ffa82614fd6565b6150048185614fe0565b935061501481856020860161343f565b61501d81613467565b840191505092915050565b5f60808201905061503b5f83018761355d565b615048602083018661355d565b61505560408301856135ed565b81810360608301526150678184614ff0565b905095945050505050565b5f815190506150808161339d565b92915050565b5f6020828403121561509b5761509a61336a565b5b5f6150a884828501615072565b91505092915050565b5f6150bb826134cf565b91506150c6836134cf565b92508282039050818111156150de576150dd614a1e565b5b92915050565b7f4e487b71000000000000000000000000000000000000000000000000000000005f52603160045260245ffdfea2646970667358221220296e79537f1547f46ab75064635e1f1fbc61e1a9dbffbf577230372a55f169bd64736f6c63430008170033",
  "immutableReferences": {},
  "source": "// SPDX-License-Identifier: MIT\r\n\r\npragma solidity >=0.4.22 <0.9.0;\r\n\r\nimport \"@openzeppelin/contracts/utils/cryptography/ECDSA.sol\";\r\nimport \"@openzeppelin/contracts/token/ERC721/extensions/ERC721Enumerable.sol\";\r\nimport \"@openzeppelin/contracts/utils/Counters.sol\";\r\n//truffle compile\r\n//truffle migrate --network sepolia\r\n//truffle migrate --network sepolia --reset\r\n// \r\nstruct TokenInfo {\r\n    address owner;\r\n    uint256 tokenId;\r\n    uint256 luckyNumber;\r\n    Prize prize;\r\n}\r\n\r\nstruct Prize {\r\n    string name;\r\n    string description;\r\n    string imageURL; // URI (: IPFS)\r\n}\r\ncontract GachaNFT is ERC721Enumerable {\r\n    using ECDSA for bytes32;\r\n    using Counters for Counters.Counter;\r\n\r\n    Counters.Counter private _tokenIdCounter;  // Token ID counter for NFTs\r\n  \r\n//0xdB246570d317400612c3782F0a208c6c51Ae5b22\r\n//truffle migrate --network sepolia --reset\r\n    address payable public owner;\r\n    address payable public player;\r\n    uint256 public maxParticipants;\r\n    bytes32 public serverSeedHash;  // Server seed hash for commitment\r\n    bytes32 public serverSeed;      // Server seed to be revealed later\r\n    bytes32 public userSeed;\r\n    uint256 public luckyNumber;\r\n    bool public isRevealed;\r\n    bytes32 public salt;  // : \r\n\r\n\r\n\r\n    // Store used userSeed\r\n    mapping(address => mapping(bytes32 => bool)) public usedUserSeeds;\r\n    mapping(uint256 => uint256) private tokenLuckyNumbers;   \r\n    // \r\n    mapping(uint256 => Prize) public prizeMapping;\r\n    mapping(uint256 => string) private _tokenURIs;\r\n    mapping(uint256 => uint256) private luckyNumberCounts;\r\n\r\n\r\n\r\n    // Events\r\n    event Participation(address indexed player, bytes32 userSeed);\r\n    event Commitment(bytes32 indexed serverSeedHash);\r\n    event Reveal(bytes32 serverSeed, uint256 luckyNumber);\r\n    event CommitRequested(address indexed user);\r\n    event DebugLogEvent(string);  \r\n    event NFTMinted(address indexed owner, uint256 tokenId);\r\n  event RequestCommit(address indexed requester, string requestId);\r\n\r\n  \r\n\r\n\r\nconstructor(uint256 _maxParticipants) ERC721(\"TokenName\", \"TokenSymbol\") public {\r\n    owner = payable(msg.sender);\r\n    maxParticipants = _maxParticipants;\r\n}\r\n\r\n// \r\n    function setPrize(uint256 luckyNumber, string memory name, string memory description, string memory imageURL) public {\r\n        // \r\n        Prize memory newPrize = Prize({\r\n            name: name,\r\n            description: description,\r\n            imageURL: imageURL\r\n        });\r\n\r\n        prizeMapping[luckyNumber] = newPrize;\r\n    }\r\n\r\n    // \r\n    function getPrize(uint256 luckyNumber) public view returns (string memory name, string memory description, string memory imageURL) {\r\n        Prize memory prize = prizeMapping[luckyNumber];\r\n        return (prize.name, prize.description, prize.imageURL);\r\n    }\r\n  function requestCommit(string calldata requestId) public {\r\n        // \r\n        emit RequestCommit(msg.sender, requestId);\r\n    }\r\n    // Owner commits a hashed server seed\r\n    function commit(bytes32 _serverSeedHash, bytes32 _salt) public {\r\n        require(msg.sender == owner, \"Only owner can commit\");\r\n        serverSeedHash = _serverSeedHash;\r\n        salt = _salt;\r\n        emit Commitment(serverSeedHash);  // Emit Commitment event\r\n    }\r\n\r\n\r\n//  function participate(bytes32 _userSeed) public payable {\r\n//         userSeed = _userSeed;\r\n//         player = payable(msg.sender);\r\n//         usedUserSeeds[msg.sender][_userSeed] = true;\r\n//         emit Participation(player, userSeed);  \r\n//         emit CommitRequested(msg.sender);\r\n//     }\r\n function participate(bytes32 _userSeed, bytes memory _signature) public payable {\r\n    // 1. \r\n    bytes32 messageHash = getMessageHash(_userSeed);\r\n//    bytes32 message = keccak256(abi.encodePacked(msg.sender, _userSeed));\r\n    bytes32 ethSignedMessageHash = getEthSignedMessageHash(messageHash);\r\n    address recoveredAddress = recoverSigner(ethSignedMessageHash, _signature);\r\n\r\n    // 2. \r\n   // address recovered = recoverSigner(ethSignedMessageHash, _signature);\r\n\r\n    // 3. \r\n    require(recoveredAddress == msg.sender, \"Invalid signature\");       \r\n    userSeed = _userSeed;\r\n    player = payable(msg.sender);\r\n    usedUserSeeds[msg.sender][_userSeed] = true;\r\n    emit Participation(player, userSeed);  \r\n    emit CommitRequested(msg.sender);\r\n}\r\n\r\n\r\nevent RecoveredAddress(address indexed recovered);\r\nevent LogMessageHash(bytes32 indexed messageHash);\r\n   function getMessageHash(bytes32 _message) internal pure returns (bytes32) {\r\n        return keccak256(abi.encodePacked(_message));\r\n    }\r\n\r\n    function getEthSignedMessageHash(bytes32 _messageHash) internal pure returns (bytes32) {\r\n        return keccak256(abi.encodePacked(\"\\x19Ethereum Signed Message:\\n32\", _messageHash));\r\n    }\r\n\r\n    function recoverSigner(bytes32 _ethSignedMessageHash, bytes memory _signature) internal pure returns (address) {\r\n        (bytes32 r, bytes32 s, uint8 v) = splitSignature(_signature);\r\n        return ecrecover(_ethSignedMessageHash, v, r, s);\r\n    }\r\n\r\n    function splitSignature(bytes memory _signature) internal pure returns (bytes32 r, bytes32 s, uint8 v) {\r\n        require(_signature.length == 65, \"invalid signature length\");\r\n        assembly {\r\n            r := mload(add(_signature, 32))\r\n            s := mload(add(_signature, 64))\r\n            v := byte(0, mload(add(_signature, 96)))\r\n        }\r\n    }\r\n\r\n    function reveal(bytes32 _serverSeed, bytes memory signature) public {\r\n        require(serverSeedHash == keccak256(abi.encodePacked(_serverSeed, salt)), \"Invalid server seed\");\r\n        serverSeed = _serverSeed;\r\n\r\n        bytes32 messageHash = getMessageHash(_serverSeed);\r\n        bytes32 ethSignedMessageHash = getEthSignedMessageHash(messageHash);\r\n        address recoveredAddress = recoverSigner(ethSignedMessageHash, signature);\r\n\r\n        emit LogMessageHash(messageHash);\r\n        emit RecoveredAddress(recoveredAddress);\r\n\r\n        require(recoveredAddress == owner, \"Invalid signature\");\r\n        \r\n        bytes32 finalHash = keccak256(abi.encodePacked(serverSeed, userSeed, salt));\r\n        luckyNumber = uint256(finalHash) % 10;\r\n        luckyNumberCounts[luckyNumber] = luckyNumberCounts[luckyNumber] + 1;\r\n\r\n        emit Reveal(serverSeed, luckyNumber);\r\n         // mint NFT after the luckyNumber has been determined\r\n        mintNFT(player, luckyNumber);\r\n        \r\n    }\r\n // MintURI\r\nfunction mintNFT(address recipient, uint256 _luckyNumber) internal {\r\n    _tokenIdCounter.increment();\r\n    uint256 newTokenId = _tokenIdCounter.current();\r\n    _mint(recipient, newTokenId);\r\n    \r\n    tokenLuckyNumbers[newTokenId] = _luckyNumber;\r\n\r\n    // tokenURI\r\n    Prize memory prize = prizeMapping[_luckyNumber];\r\n    _tokenURIs[newTokenId] = prize.imageURL;\r\n        emit NFTMinted(recipient, newTokenId);\r\n\r\n}\r\n\r\n// IDURI\r\nfunction tokenURI(uint256 tokenId) public view override returns (string memory) {\r\n    return _tokenURIs[tokenId];\r\n}\r\nfunction getLuckyNumberForToken(uint256 tokenId) public view returns (uint256) {\r\n    return tokenLuckyNumbers[tokenId];\r\n}\r\n\r\nfunction setPrizesBulk(\r\n    uint256[] memory luckyNumbers, \r\n    string[] memory names, \r\n    string[] memory descriptions, \r\n    string[] memory imageURLs\r\n) public {\r\n    require(\r\n        luckyNumbers.length == names.length && \r\n        names.length == descriptions.length && \r\n        descriptions.length == imageURLs.length, \r\n        \"Array lengths mismatch\"\r\n    );\r\n\r\n    for (uint i = 0; i < luckyNumbers.length; i++) {\r\n        Prize memory newPrize = Prize({\r\n            name: names[i],\r\n            description: descriptions[i],\r\n            imageURL: imageURLs[i]\r\n        });\r\n\r\n        prizeMapping[luckyNumbers[i]] = newPrize;\r\n    }\r\n}\r\n function getAllTokensInfo() public view returns (TokenInfo[] memory) {\r\n        uint256 totalTokens = _tokenIdCounter.current();\r\n        TokenInfo[] memory tokens = new TokenInfo[](totalTokens);\r\n\r\n        for (uint256 i = 0; i < totalTokens; i++) {\r\n            uint256 tokenId = i + 1;  // ID1\r\n            address tokenOwner = ownerOf(tokenId);\r\n            uint256 luckyNumber = getLuckyNumberForToken(tokenId);\r\n            Prize memory prize = prizeMapping[luckyNumber];\r\n            tokens[i] = TokenInfo(tokenOwner, tokenId, luckyNumber, prize);\r\n        }\r\n        return tokens;\r\n    }\r\n\r\nfunction getLuckyNumberCount(uint256 _luckyNumber) public view returns (uint256) {\r\n    return luckyNumberCounts[_luckyNumber];\r\n}\r\n}\r\n",
  "sourcePath": "C:\\src\\truffle0\\contracts\\GachaNFT.sol",
  "compiler": {
    "name": "solc",
    "version": "0.8.23+commit.f704f362.Emscripten.clang"
  },
  "schemaVersion": "3.4.16",
  "updatedAt": "2024-01-02T11:56:41.473Z",
  "devdoc": {
    "events": {
      "Approval(address,address,uint256)": {
        "details": "Emitted when `owner` enables `approved` to manage the `tokenId` token."
      },
      "ApprovalForAll(address,address,bool)": {
        "details": "Emitted when `owner` enables or disables (`approved`) `operator` to manage all of its assets."
      },
      "Transfer(address,address,uint256)": {
        "details": "Emitted when `tokenId` token is transferred from `from` to `to`."
      }
    },
    "kind": "dev",
    "methods": {
      "approve(address,uint256)": {
        "details": "See {IERC721-approve}."
      },
      "balanceOf(address)": {
        "details": "See {IERC721-balanceOf}."
      },
      "getApproved(uint256)": {
        "details": "See {IERC721-getApproved}."
      },
      "isApprovedForAll(address,address)": {
        "details": "See {IERC721-isApprovedForAll}."
      },
      "name()": {
        "details": "See {IERC721Metadata-name}."
      },
      "ownerOf(uint256)": {
        "details": "See {IERC721-ownerOf}."
      },
      "safeTransferFrom(address,address,uint256)": {
        "details": "See {IERC721-safeTransferFrom}."
      },
      "safeTransferFrom(address,address,uint256,bytes)": {
        "details": "See {IERC721-safeTransferFrom}."
      },
      "setApprovalForAll(address,bool)": {
        "details": "See {IERC721-setApprovalForAll}."
      },
      "supportsInterface(bytes4)": {
        "details": "See {IERC165-supportsInterface}."
      },
      "symbol()": {
        "details": "See {IERC721Metadata-symbol}."
      },
      "tokenByIndex(uint256)": {
        "details": "See {IERC721Enumerable-tokenByIndex}."
      },
      "tokenOfOwnerByIndex(address,uint256)": {
        "details": "See {IERC721Enumerable-tokenOfOwnerByIndex}."
      },
      "tokenURI(uint256)": {
        "details": "See {IERC721Metadata-tokenURI}."
      },
      "totalSupply()": {
        "details": "See {IERC721Enumerable-totalSupply}."
      },
      "transferFrom(address,address,uint256)": {
        "details": "See {IERC721-transferFrom}."
      }
    },
    "version": 1
  },
  "userdoc": {
    "kind": "user",
    "methods": {},
    "version": 1
  }
}