{
  "contractName": "GachaNFTRefund",
  "abi": [
    {
      "inputs": [
        {
          "internalType": "uint256",
          "name": "_maxParticipants",
          "type": "uint256"
        }
      ],
      "stateMutability": "nonpayable",
      "type": "constructor"
    },
    {
      "anonymous": false,
      "inputs": [
        {
          "indexed": true,
          "internalType": "address",
          "name": "owner",
          "type": "address"
        },
        {
          "indexed": true,
          "internalType": "address",
          "name": "approved",
          "type": "address"
        },
        {
          "indexed": true,
          "internalType": "uint256",
          "name": "tokenId",
          "type": "uint256"
        }
      ],
      "name": "Approval",
      "type": "event"
    },
    {
      "anonymous": false,
      "inputs": [
        {
          "indexed": true,
          "internalType": "address",
          "name": "owner",
          "type": "address"
        },
        {
          "indexed": true,
          "internalType": "address",
          "name": "operator",
          "type": "address"
        },
        {
          "indexed": false,
          "internalType": "bool",
          "name": "approved",
          "type": "bool"
        }
      ],
      "name": "ApprovalForAll",
      "type": "event"
    },
    {
      "anonymous": false,
      "inputs": [
        {
          "indexed": true,
          "internalType": "address",
          "name": "user",
          "type": "address"
        }
      ],
      "name": "CommitRequested",
      "type": "event"
    },
    {
      "anonymous": false,
      "inputs": [
        {
          "indexed": true,
          "internalType": "bytes32",
          "name": "serverSeedHash",
          "type": "bytes32"
        }
      ],
      "name": "Commitment",
      "type": "event"
    },
    {
      "anonymous": false,
      "inputs": [
        {
          "indexed": false,
          "internalType": "string",
          "name": "",
          "type": "string"
        }
      ],
      "name": "DebugLogEvent",
      "type": "event"
    },
    {
      "anonymous": false,
      "inputs": [
        {
          "indexed": true,
          "internalType": "bytes32",
          "name": "messageHash",
          "type": "bytes32"
        }
      ],
      "name": "LogMessageHash",
      "type": "event"
    },
    {
      "anonymous": false,
      "inputs": [
        {
          "indexed": true,
          "internalType": "address",
          "name": "owner",
          "type": "address"
        },
        {
          "indexed": false,
          "internalType": "uint256",
          "name": "tokenId",
          "type": "uint256"
        }
      ],
      "name": "NFTMinted",
      "type": "event"
    },
    {
      "anonymous": false,
      "inputs": [
        {
          "indexed": true,
          "internalType": "address",
          "name": "player",
          "type": "address"
        },
        {
          "indexed": false,
          "internalType": "bytes32",
          "name": "userSeed",
          "type": "bytes32"
        }
      ],
      "name": "Participation",
      "type": "event"
    },
    {
      "anonymous": false,
      "inputs": [
        {
          "indexed": true,
          "internalType": "address",
          "name": "recovered",
          "type": "address"
        }
      ],
      "name": "RecoveredAddress",
      "type": "event"
    },
    {
      "anonymous": false,
      "inputs": [
        {
          "indexed": true,
          "internalType": "address",
          "name": "requester",
          "type": "address"
        },
        {
          "indexed": false,
          "internalType": "string",
          "name": "requestId",
          "type": "string"
        }
      ],
      "name": "RequestCommit",
      "type": "event"
    },
    {
      "anonymous": false,
      "inputs": [
        {
          "indexed": false,
          "internalType": "bytes32",
          "name": "serverSeed",
          "type": "bytes32"
        },
        {
          "indexed": false,
          "internalType": "uint256",
          "name": "luckyNumber",
          "type": "uint256"
        }
      ],
      "name": "Reveal",
      "type": "event"
    },
    {
      "anonymous": false,
      "inputs": [
        {
          "indexed": true,
          "internalType": "address",
          "name": "from",
          "type": "address"
        },
        {
          "indexed": true,
          "internalType": "address",
          "name": "to",
          "type": "address"
        },
        {
          "indexed": true,
          "internalType": "uint256",
          "name": "tokenId",
          "type": "uint256"
        }
      ],
      "name": "Transfer",
      "type": "event"
    },
    {
      "inputs": [
        {
          "internalType": "address",
          "name": "to",
          "type": "address"
        },
        {
          "internalType": "uint256",
          "name": "tokenId",
          "type": "uint256"
        }
      ],
      "name": "approve",
      "outputs": [],
      "stateMutability": "nonpayable",
      "type": "function"
    },
    {
      "inputs": [
        {
          "internalType": "address",
          "name": "owner",
          "type": "address"
        }
      ],
      "name": "balanceOf",
      "outputs": [
        {
          "internalType": "uint256",
          "name": "",
          "type": "uint256"
        }
      ],
      "stateMutability": "view",
      "type": "function",
      "constant": true
    },
    {
      "inputs": [
        {
          "internalType": "uint256",
          "name": "tokenId",
          "type": "uint256"
        }
      ],
      "name": "getApproved",
      "outputs": [
        {
          "internalType": "address",
          "name": "",
          "type": "address"
        }
      ],
      "stateMutability": "view",
      "type": "function",
      "constant": true
    },
    {
      "inputs": [
        {
          "internalType": "address",
          "name": "owner",
          "type": "address"
        },
        {
          "internalType": "address",
          "name": "operator",
          "type": "address"
        }
      ],
      "name": "isApprovedForAll",
      "outputs": [
        {
          "internalType": "bool",
          "name": "",
          "type": "bool"
        }
      ],
      "stateMutability": "view",
      "type": "function",
      "constant": true
    },
    {
      "inputs": [],
      "name": "isRevealed",
      "outputs": [
        {
          "internalType": "bool",
          "name": "",
          "type": "bool"
        }
      ],
      "stateMutability": "view",
      "type": "function",
      "constant": true
    },
    {
      "inputs": [],
      "name": "luckyNumber",
      "outputs": [
        {
          "internalType": "uint256",
          "name": "",
          "type": "uint256"
        }
      ],
      "stateMutability": "view",
      "type": "function",
      "constant": true
    },
    {
      "inputs": [],
      "name": "maxParticipants",
      "outputs": [
        {
          "internalType": "uint256",
          "name": "",
          "type": "uint256"
        }
      ],
      "stateMutability": "view",
      "type": "function",
      "constant": true
    },
    {
      "inputs": [],
      "name": "name",
      "outputs": [
        {
          "internalType": "string",
          "name": "",
          "type": "string"
        }
      ],
      "stateMutability": "view",
      "type": "function",
      "constant": true
    },
    {
      "inputs": [],
      "name": "owner",
      "outputs": [
        {
          "internalType": "address payable",
          "name": "",
          "type": "address"
        }
      ],
      "stateMutability": "view",
      "type": "function",
      "constant": true
    },
    {
      "inputs": [
        {
          "internalType": "uint256",
          "name": "tokenId",
          "type": "uint256"
        }
      ],
      "name": "ownerOf",
      "outputs": [
        {
          "internalType": "address",
          "name": "",
          "type": "address"
        }
      ],
      "stateMutability": "view",
      "type": "function",
      "constant": true
    },
    {
      "inputs": [],
      "name": "player",
      "outputs": [
        {
          "internalType": "address payable",
          "name": "",
          "type": "address"
        }
      ],
      "stateMutability": "view",
      "type": "function",
      "constant": true
    },
    {
      "inputs": [
        {
          "internalType": "uint256",
          "name": "",
          "type": "uint256"
        }
      ],
      "name": "prizeMapping",
      "outputs": [
        {
          "internalType": "string",
          "name": "name",
          "type": "string"
        },
        {
          "internalType": "string",
          "name": "description",
          "type": "string"
        },
        {
          "internalType": "string",
          "name": "imageURL",
          "type": "string"
        }
      ],
      "stateMutability": "view",
      "type": "function",
      "constant": true
    },
    {
      "inputs": [],
      "name": "revealDeadline",
      "outputs": [
        {
          "internalType": "uint256",
          "name": "",
          "type": "uint256"
        }
      ],
      "stateMutability": "view",
      "type": "function",
      "constant": true
    },
    {
      "inputs": [
        {
          "internalType": "address",
          "name": "from",
          "type": "address"
        },
        {
          "internalType": "address",
          "name": "to",
          "type": "address"
        },
        {
          "internalType": "uint256",
          "name": "tokenId",
          "type": "uint256"
        }
      ],
      "name": "safeTransferFrom",
      "outputs": [],
      "stateMutability": "nonpayable",
      "type": "function"
    },
    {
      "inputs": [
        {
          "internalType": "address",
          "name": "from",
          "type": "address"
        },
        {
          "internalType": "address",
          "name": "to",
          "type": "address"
        },
        {
          "internalType": "uint256",
          "name": "tokenId",
          "type": "uint256"
        },
        {
          "internalType": "bytes",
          "name": "data",
          "type": "bytes"
        }
      ],
      "name": "safeTransferFrom",
      "outputs": [],
      "stateMutability": "nonpayable",
      "type": "function"
    },
    {
      "inputs": [],
      "name": "salt",
      "outputs": [
        {
          "internalType": "bytes32",
          "name": "",
          "type": "bytes32"
        }
      ],
      "stateMutability": "view",
      "type": "function",
      "constant": true
    },
    {
      "inputs": [],
      "name": "serverSeed",
      "outputs": [
        {
          "internalType": "bytes32",
          "name": "",
          "type": "bytes32"
        }
      ],
      "stateMutability": "view",
      "type": "function",
      "constant": true
    },
    {
      "inputs": [],
      "name": "serverSeedHash",
      "outputs": [
        {
          "internalType": "bytes32",
          "name": "",
          "type": "bytes32"
        }
      ],
      "stateMutability": "view",
      "type": "function",
      "constant": true
    },
    {
      "inputs": [
        {
          "internalType": "address",
          "name": "operator",
          "type": "address"
        },
        {
          "internalType": "bool",
          "name": "approved",
          "type": "bool"
        }
      ],
      "name": "setApprovalForAll",
      "outputs": [],
      "stateMutability": "nonpayable",
      "type": "function"
    },
    {
      "inputs": [
        {
          "internalType": "bytes4",
          "name": "interfaceId",
          "type": "bytes4"
        }
      ],
      "name": "supportsInterface",
      "outputs": [
        {
          "internalType": "bool",
          "name": "",
          "type": "bool"
        }
      ],
      "stateMutability": "view",
      "type": "function",
      "constant": true
    },
    {
      "inputs": [],
      "name": "symbol",
      "outputs": [
        {
          "internalType": "string",
          "name": "",
          "type": "string"
        }
      ],
      "stateMutability": "view",
      "type": "function",
      "constant": true
    },
    {
      "inputs": [
        {
          "internalType": "uint256",
          "name": "index",
          "type": "uint256"
        }
      ],
      "name": "tokenByIndex",
      "outputs": [
        {
          "internalType": "uint256",
          "name": "",
          "type": "uint256"
        }
      ],
      "stateMutability": "view",
      "type": "function",
      "constant": true
    },
    {
      "inputs": [
        {
          "internalType": "address",
          "name": "owner",
          "type": "address"
        },
        {
          "internalType": "uint256",
          "name": "index",
          "type": "uint256"
        }
      ],
      "name": "tokenOfOwnerByIndex",
      "outputs": [
        {
          "internalType": "uint256",
          "name": "",
          "type": "uint256"
        }
      ],
      "stateMutability": "view",
      "type": "function",
      "constant": true
    },
    {
      "inputs": [],
      "name": "totalSupply",
      "outputs": [
        {
          "internalType": "uint256",
          "name": "",
          "type": "uint256"
        }
      ],
      "stateMutability": "view",
      "type": "function",
      "constant": true
    },
    {
      "inputs": [
        {
          "internalType": "address",
          "name": "from",
          "type": "address"
        },
        {
          "internalType": "address",
          "name": "to",
          "type": "address"
        },
        {
          "internalType": "uint256",
          "name": "tokenId",
          "type": "uint256"
        }
      ],
      "name": "transferFrom",
      "outputs": [],
      "stateMutability": "nonpayable",
      "type": "function"
    },
    {
      "inputs": [
        {
          "internalType": "address",
          "name": "",
          "type": "address"
        },
        {
          "internalType": "bytes32",
          "name": "",
          "type": "bytes32"
        }
      ],
      "name": "usedUserSeeds",
      "outputs": [
        {
          "internalType": "bool",
          "name": "",
          "type": "bool"
        }
      ],
      "stateMutability": "view",
      "type": "function",
      "constant": true
    },
    {
      "inputs": [],
      "name": "userSeed",
      "outputs": [
        {
          "internalType": "bytes32",
          "name": "",
          "type": "bytes32"
        }
      ],
      "stateMutability": "view",
      "type": "function",
      "constant": true
    },
    {
      "inputs": [
        {
          "internalType": "uint256",
          "name": "luckyNumber",
          "type": "uint256"
        },
        {
          "internalType": "string",
          "name": "name",
          "type": "string"
        },
        {
          "internalType": "string",
          "name": "description",
          "type": "string"
        },
        {
          "internalType": "string",
          "name": "imageURL",
          "type": "string"
        }
      ],
      "name": "setPrize",
      "outputs": [],
      "stateMutability": "nonpayable",
      "type": "function"
    },
    {
      "inputs": [
        {
          "internalType": "uint256",
          "name": "luckyNumber",
          "type": "uint256"
        }
      ],
      "name": "getPrize",
      "outputs": [
        {
          "internalType": "string",
          "name": "name",
          "type": "string"
        },
        {
          "internalType": "string",
          "name": "description",
          "type": "string"
        },
        {
          "internalType": "string",
          "name": "imageURL",
          "type": "string"
        }
      ],
      "stateMutability": "view",
      "type": "function",
      "constant": true
    },
    {
      "inputs": [
        {
          "internalType": "string",
          "name": "requestId",
          "type": "string"
        }
      ],
      "name": "requestCommit",
      "outputs": [],
      "stateMutability": "nonpayable",
      "type": "function"
    },
    {
      "inputs": [
        {
          "internalType": "bytes32",
          "name": "_serverSeedHash",
          "type": "bytes32"
        },
        {
          "internalType": "bytes32",
          "name": "_salt",
          "type": "bytes32"
        }
      ],
      "name": "commit",
      "outputs": [],
      "stateMutability": "nonpayable",
      "type": "function"
    },
    {
      "inputs": [
        {
          "internalType": "bytes32",
          "name": "_userSeed",
          "type": "bytes32"
        },
        {
          "internalType": "bytes",
          "name": "_signature",
          "type": "bytes"
        }
      ],
      "name": "participate",
      "outputs": [],
      "stateMutability": "payable",
      "type": "function",
      "payable": true
    },
    {
      "inputs": [
        {
          "internalType": "bytes32",
          "name": "_serverSeed",
          "type": "bytes32"
        },
        {
          "internalType": "bytes",
          "name": "signature",
          "type": "bytes"
        }
      ],
      "name": "reveal",
      "outputs": [],
      "stateMutability": "nonpayable",
      "type": "function"
    },
    {
      "inputs": [
        {
          "internalType": "uint256",
          "name": "tokenId",
          "type": "uint256"
        }
      ],
      "name": "tokenURI",
      "outputs": [
        {
          "internalType": "string",
          "name": "",
          "type": "string"
        }
      ],
      "stateMutability": "view",
      "type": "function",
      "constant": true
    },
    {
      "inputs": [
        {
          "internalType": "uint256",
          "name": "tokenId",
          "type": "uint256"
        }
      ],
      "name": "getLuckyNumberForToken",
      "outputs": [
        {
          "internalType": "uint256",
          "name": "",
          "type": "uint256"
        }
      ],
      "stateMutability": "view",
      "type": "function",
      "constant": true
    },
    {
      "inputs": [
        {
          "internalType": "uint256[]",
          "name": "luckyNumbers",
          "type": "uint256[]"
        },
        {
          "internalType": "string[]",
          "name": "names",
          "type": "string[]"
        },
        {
          "internalType": "string[]",
          "name": "descriptions",
          "type": "string[]"
        },
        {
          "internalType": "string[]",
          "name": "imageURLs",
          "type": "string[]"
        }
      ],
      "name": "setPrizesBulk",
      "outputs": [],
      "stateMutability": "nonpayable",
      "type": "function"
    },
    {
      "inputs": [],
      "name": "getAllTokensInfo",
      "outputs": [
        {
          "components": [
            {
              "internalType": "address",
              "name": "owner",
              "type": "address"
            },
            {
              "internalType": "uint256",
              "name": "tokenId",
              "type": "uint256"
            },
            {
              "internalType": "uint256",
              "name": "luckyNumber",
              "type": "uint256"
            },
            {
              "components": [
                {
                  "internalType": "string",
                  "name": "name",
                  "type": "string"
                },
                {
                  "internalType": "string",
                  "name": "description",
                  "type": "string"
                },
                {
                  "internalType": "string",
                  "name": "imageURL",
                  "type": "string"
                }
              ],
              "internalType": "struct Prize",
              "name": "prize",
              "type": "tuple"
            }
          ],
          "internalType": "struct TokenInfo[]",
          "name": "",
          "type": "tuple[]"
        }
      ],
      "stateMutability": "view",
      "type": "function",
      "constant": true
    },
    {
      "inputs": [
        {
          "internalType": "uint256",
          "name": "_luckyNumber",
          "type": "uint256"
        }
      ],
      "name": "getLuckyNumberCount",
      "outputs": [
        {
          "internalType": "uint256",
          "name": "",
          "type": "uint256"
        }
      ],
      "stateMutability": "view",
      "type": "function",
      "constant": true
    },
    {
      "inputs": [
        {
          "internalType": "bytes",
          "name": "",
          "type": "bytes"
        }
      ],
      "name": "checkUpkeep",
      "outputs": [
        {
          "internalType": "bool",
          "name": "upkeepNeeded",
          "type": "bool"
        },
        {
          "internalType": "bytes",
          "name": "",
          "type": "bytes"
        }
      ],
      "stateMutability": "nonpayable",
      "type": "function"
    },
    {
      "inputs": [
        {
          "internalType": "bytes",
          "name": "",
          "type": "bytes"
        }
      ],
      "name": "performUpkeep",
      "outputs": [],
      "stateMutability": "nonpayable",
      "type": "function"
    },
    {
      "inputs": [
        {
          "internalType": "uint256",
          "name": "tokenId",
          "type": "uint256"
        }
      ],
      "name": "refund",
      "outputs": [],
      "stateMutability": "nonpayable",
      "type": "function"
    },
    {
      "inputs": [
        {
          "internalType": "address",
          "name": "from",
          "type": "address"
        },
        {
          "internalType": "uint256",
          "name": "tokenId",
          "type": "uint256"
        }
      ],
      "name": "refundFrom",
      "outputs": [],
      "stateMutability": "nonpayable",
      "type": "function"
    },
    {
      "inputs": [
        {
          "internalType": "address",
          "name": "spender",
          "type": "address"
        },
        {
          "internalType": "uint256",
          "name": "tokenId",
          "type": "uint256"
        }
      ],
      "name": "isApprovedOrOwner",
      "outputs": [
        {
          "internalType": "bool",
          "name": "",
          "type": "bool"
        }
      ],
      "stateMutability": "view",
      "type": "function",
      "constant": true
    },
    {
      "inputs": [
        {
          "internalType": "uint256",
          "name": "tokenId",
          "type": "uint256"
        }
      ],
      "name": "refundOf",
      "outputs": [
        {
          "internalType": "uint256",
          "name": "_wei",
          "type": "uint256"
        }
      ],
      "stateMutability": "view",
      "type": "function",
      "constant": true
    },
    {
      "inputs": [
        {
          "internalType": "uint256",
          "name": "tokenId",
          "type": "uint256"
        }
      ],
      "name": "refundDeadlineOf",
      "outputs": [
        {
          "internalType": "uint256",
          "name": "block",
          "type": "uint256"
        }
      ],
      "stateMutability": "view",
      "type": "function",
      "constant": true
    }
  ],
  "bytecode": "0x608060405234801562000010575f80fd5b506040516200615838038062006158833981810160405281019062000036919062000151565b6040518060400160405280600981526020017f546f6b656e4e616d6500000000000000000000000000000000000000000000008152506040518060400160405280600b81526020017f546f6b656e53796d626f6c000000000000000000000000000000000000000000815250815f9081620000b29190620003dc565b508060019081620000c49190620003dc565b50505033600d5f6101000a81548173ffffffffffffffffffffffffffffffffffffffff021916908373ffffffffffffffffffffffffffffffffffffffff16021790555080600f8190555050620004c0565b5f80fd5b5f819050919050565b6200012d8162000119565b811462000138575f80fd5b50565b5f815190506200014b8162000122565b92915050565b5f6020828403121562000169576200016862000115565b5b5f62000178848285016200013b565b91505092915050565b5f81519050919050565b7f4e487b71000000000000000000000000000000000000000000000000000000005f52604160045260245ffd5b7f4e487b71000000000000000000000000000000000000000000000000000000005f52602260045260245ffd5b5f6002820490506001821680620001fd57607f821691505b602082108103620002135762000212620001b8565b5b50919050565b5f819050815f5260205f209050919050565b5f6020601f8301049050919050565b5f82821b905092915050565b5f60088302620002777fffffffffffffffffffffffffffffffffffffffffffffffffffffffffffffffff826200023a565b6200028386836200023a565b95508019841693508086168417925050509392505050565b5f819050919050565b5f620002c4620002be620002b88462000119565b6200029b565b62000119565b9050919050565b5f819050919050565b620002df83620002a4565b620002f7620002ee82620002cb565b84845462000246565b825550505050565b5f90565b6200030d620002ff565b6200031a818484620002d4565b505050565b5b818110156200034157620003355f8262000303565b60018101905062000320565b5050565b601f82111562000390576200035a8162000219565b62000365846200022b565b8101602085101562000375578190505b6200038d62000384856200022b565b8301826200031f565b50505b505050565b5f82821c905092915050565b5f620003b25f198460080262000395565b1980831691505092915050565b5f620003cc8383620003a1565b9150826002028217905092915050565b620003e78262000181565b67ffffffffffffffff8111156200040357620004026200018b565b5b6200040f8254620001e5565b6200041c82828562000345565b5f60209050601f83116001811462000452575f84156200043d578287015190505b620004498582620003bf565b865550620004b8565b601f198416620004628662000219565b5f5b828110156200048b5784890151825560018201915060208501945060208101905062000464565b86831015620004ab5784890151620004a7601f891682620003a1565b8355505b6001600288020188555050505b505050505050565b615c8a80620004ce5f395ff3fe608060405260043610610271575f3560e01c806366bcb6421161014e578063a1099bf2116100c0578063bfa0b13311610079578063bfa0b133146109b6578063c87b56dd146109e0578063ceb2d74514610a1c578063d428fa2e14610a44578063e3ce094d14610a82578063e985e9c514610aaa57610271565b8063a1099bf2146108ac578063a22cb465146108ea578063b14b28a314610912578063b88d4fde1461093c578063bdde6dc614610964578063bf205ebc1461098c57610271565b806381a491741161011257806381a49174146107ae57806385205108146107ea5780638da5cb5b1461081257806395d89b411461083c578063984f0be3146108665780639a24a25b1461088257610271565b806366bcb642146106b757806368c282f2146106e15780636e04ff0d1461070b57806370a08231146107485780637382901e1461078457610271565b80633ecce918116101e75780634f556016116101ab5780634f556016146105895780634f6ccce7146105c557806354214f69146106015780635bb46dff1461062b5780635fe8aa5e146106535780636352211e1461067b57610271565b80633ecce9181461049757806342842e0e146104d3578063430c2081146104fb5780634585e33b1461053757806348db5f891461055f57610271565b80630e40fa7b116102395780630e40fa7b1461037b57806318160ddd146103b757806323b872dd146103e157806324924bf714610409578063278ecde1146104335780632f745c591461045b57610271565b806301ffc9a71461027557806306fdde03146102b1578063081812fc146102db578063095ea7b3146103175780630e178ef11461033f575b5f80fd5b348015610280575f80fd5b5061029b60048036038101906102969190613b76565b610ae6565b6040516102a89190613bbb565b60405180910390f35b3480156102bc575f80fd5b506102c5610b5f565b6040516102d29190613c5e565b60405180910390f35b3480156102e6575f80fd5b5061030160048036038101906102fc9190613cb1565b610bee565b60405161030e9190613d1b565b60405180910390f35b348015610322575f80fd5b5061033d60048036038101906103389190613d5e565b610c30565b005b34801561034a575f80fd5b5061036560048036038101906103609190613cb1565b610d46565b6040516103729190613dab565b60405180910390f35b348015610386575f80fd5b506103a1600480360381019061039c9190613cb1565b610d60565b6040516103ae9190613dab565b60405180910390f35b3480156103c2575f80fd5b506103cb610d7a565b6040516103d89190613dab565b60405180910390f35b3480156103ec575f80fd5b5061040760048036038101906104029190613dc4565b610d86565b005b348015610414575f80fd5b5061041d610de6565b60405161042a9190613dab565b60405180910390f35b34801561043e575f80fd5b5061045960048036038101906104549190613cb1565b610dec565b005b348015610466575f80fd5b50610481600480360381019061047c9190613d5e565b610f41565b60405161048e9190613dab565b60405180910390f35b3480156104a2575f80fd5b506104bd60048036038101906104b89190613e47565b610fe1565b6040516104ca9190613bbb565b60405180910390f35b3480156104de575f80fd5b506104f960048036038101906104f49190613dc4565b61100b565b005b348015610506575f80fd5b50610521600480360381019061051c9190613d5e565b61102a565b60405161052e9190613bbb565b60405180910390f35b348015610542575f80fd5b5061055d60048036038101906105589190613ee6565b61103d565b005b34801561056a575f80fd5b50610573611124565b6040516105809190613f51565b60405180910390f35b348015610594575f80fd5b506105af60048036038101906105aa9190613cb1565b611149565b6040516105bc9190613dab565b60405180910390f35b3480156105d0575f80fd5b506105eb60048036038101906105e69190613cb1565b611163565b6040516105f89190613dab565b60405180910390f35b34801561060c575f80fd5b506106156111d1565b6040516106229190613bbb565b60405180910390f35b348015610636575f80fd5b50610651600480360381019061064c9190613fbf565b6111e3565b005b34801561065e575f80fd5b50610679600480360381019061067491906142d0565b611237565b005b348015610686575f80fd5b506106a1600480360381019061069c9190613cb1565b611390565b6040516106ae9190613d1b565b60405180910390f35b3480156106c2575f80fd5b506106cb611414565b6040516106d891906143b3565b60405180910390f35b3480156106ec575f80fd5b506106f561141a565b60405161070291906143b3565b60405180910390f35b348015610716575f80fd5b50610731600480360381019061072c9190613ee6565b611420565b60405161073f92919061441e565b60405180910390f35b348015610753575f80fd5b5061076e6004803603810190610769919061444c565b611445565b60405161077b9190613dab565b60405180910390f35b34801561078f575f80fd5b506107986114f9565b6040516107a591906143b3565b60405180910390f35b3480156107b9575f80fd5b506107d460048036038101906107cf9190613cb1565b6114ff565b6040516107e19190613dab565b60405180910390f35b3480156107f5575f80fd5b50610810600480360381019061080b9190614515565b611519565b005b34801561081d575f80fd5b506108266117a4565b6040516108339190613f51565b60405180910390f35b348015610847575f80fd5b506108506117c9565b60405161085d9190613c5e565b60405180910390f35b610880600480360381019061087b9190614515565b611859565b005b34801561088d575f80fd5b50610896611a52565b6040516108a3919061474b565b60405180910390f35b3480156108b7575f80fd5b506108d260048036038101906108cd9190613cb1565b611d27565b6040516108e19392919061476b565b60405180910390f35b3480156108f5575f80fd5b50610910600480360381019061090b91906147df565b611f16565b005b34801561091d575f80fd5b50610926611f2c565b6040516109339190613dab565b60405180910390f35b348015610947575f80fd5b50610962600480360381019061095d919061481d565b611f32565b005b34801561096f575f80fd5b5061098a60048036038101906109859190613d5e565b611f94565b005b348015610997575f80fd5b506109a0612156565b6040516109ad9190613dab565b60405180910390f35b3480156109c1575f80fd5b506109ca61215c565b6040516109d791906143b3565b60405180910390f35b3480156109eb575f80fd5b50610a066004803603810190610a019190613cb1565b612162565b604051610a139190613c5e565b60405180910390f35b348015610a27575f80fd5b50610a426004803603810190610a3d919061489d565b612203565b005b348015610a4f575f80fd5b50610a6a6004803603810190610a659190613cb1565b61227d565b604051610a799392919061476b565b60405180910390f35b348015610a8d575f80fd5b50610aa86004803603810190610aa39190614955565b612435565b005b348015610ab5575f80fd5b50610ad06004803603810190610acb9190614993565b612518565b604051610add9190613bbb565b60405180910390f35b5f7f780e9d63000000000000000000000000000000000000000000000000000000007bffffffffffffffffffffffffffffffffffffffffffffffffffffffff1916827bffffffffffffffffffffffffffffffffffffffffffffffffffffffff19161480610b585750610b57826125a6565b5b9050919050565b60605f8054610b6d906149fe565b80601f0160208091040260200160405190810160405280929190818152602001828054610b99906149fe565b8015610be45780601f10610bbb57610100808354040283529160200191610be4565b820191905f5260205f20905b815481529060010190602001808311610bc757829003601f168201915b5050505050905090565b5f610bf882612687565b60045f8381526020019081526020015f205f9054906101000a900473ffffffffffffffffffffffffffffffffffffffff169050919050565b5f610c3a82611390565b90508073ffffffffffffffffffffffffffffffffffffffff168373ffffffffffffffffffffffffffffffffffffffff1603610caa576040517f08c379a0000000000000000000000000000000000000000000000000000000008152600401610ca190614a9e565b60405180910390fd5b8073ffffffffffffffffffffffffffffffffffffffff16610cc96126d2565b73ffffffffffffffffffffffffffffffffffffffff161480610cf85750610cf781610cf26126d2565b612518565b5b610d37576040517f08c379a0000000000000000000000000000000000000000000000000000000008152600401610d2e90614b2c565b60405180910390fd5b610d4183836126d9565b505050565b5f60185f8381526020019081526020015f20549050919050565b5f601b5f8381526020019081526020015f20549050919050565b5f600880549050905090565b610d97610d916126d2565b8261278f565b610dd6576040517f08c379a0000000000000000000000000000000000000000000000000000000008152600401610dcd90614bba565b60405180910390fd5b610de1838383612823565b505050565b600f5481565b610df581612b0f565b610e34576040517f08c379a0000000000000000000000000000000000000000000000000000000008152600401610e2b90614c48565b60405180910390fd5b5f610e3e82611390565b90508073ffffffffffffffffffffffffffffffffffffffff163373ffffffffffffffffffffffffffffffffffffffff1614610eae576040517f08c379a0000000000000000000000000000000000000000000000000000000008152600401610ea590614cd6565b60405180910390fd5b5f600b5f8481526020019081526020015f20549050610ecc83612b4f565b8173ffffffffffffffffffffffffffffffffffffffff166108fc8290811502906040515f60405180830381858888f19350505050158015610f0f573d5f803e3d5ffd5b505f600b5f8581526020019081526020015f20819055505f600c5f8581526020019081526020015f2081905550505050565b5f610f4b83611445565b8210610f8c576040517f08c379a0000000000000000000000000000000000000000000000000000000008152600401610f8390614d64565b60405180910390fd5b60065f8473ffffffffffffffffffffffffffffffffffffffff1673ffffffffffffffffffffffffffffffffffffffff1681526020019081526020015f205f8381526020019081526020015f2054905092915050565b6017602052815f5260405f20602052805f5260405f205f915091509054906101000a900460ff1681565b61102583838360405180602001604052805f815250611f32565b505050565b5f611035838361278f565b905092915050565b5f6012546040516020016110519190614da2565b604051602081830303815290604052805190602001209050600a815f1c6110789190614de9565b6013819055506001601b5f60135481526020019081526020015f205461109e9190614e46565b601b5f60135481526020019081526020015f20819055506110e2600e5f9054906101000a900473ffffffffffffffffffffffffffffffffffffffff16601354612c90565b7f6765f1b8ca6c099f7378c6e9b12cf8afac970d483c3faf81745e4b40c26148db601254601354604051611117929190614e79565b60405180910390a1505050565b600e5f9054906101000a900473ffffffffffffffffffffffffffffffffffffffff1681565b5f600c5f8381526020019081526020015f20549050919050565b5f61116c610d7a565b82106111ad576040517f08c379a00000000000000000000000000000000000000000000000000000000081526004016111a490614f10565b60405180910390fd5b600882815481106111c1576111c0614f2e565b5b905f5260205f2001549050919050565b60145f9054906101000a900460ff1681565b3373ffffffffffffffffffffffffffffffffffffffff167f012b1127b60d15366b18ae35b2848ab5a402d272f830e92b37b1db38374a1c09838360405161122b929190614f87565b60405180910390a25050565b82518451148015611249575081518351145b8015611256575080518251145b611295576040517f08c379a000000000000000000000000000000000000000000000000000000000815260040161128c90614ff3565b60405180910390fd5b5f5b8451811015611389575f60405180606001604052808684815181106112bf576112be614f2e565b5b602002602001015181526020018584815181106112df576112de614f2e565b5b602002602001015181526020018484815181106112ff576112fe614f2e565b5b602002602001015181525090508060195f88858151811061132357611322614f2e565b5b602002602001015181526020019081526020015f205f820151815f01908161134b91906151ae565b50602082015181600101908161136191906151ae565b50604082015181600201908161137791906151ae565b50905050508080600101915050611297565b5050505050565b5f8061139b83612f0c565b90505f73ffffffffffffffffffffffffffffffffffffffff168173ffffffffffffffffffffffffffffffffffffffff160361140b576040517f08c379a0000000000000000000000000000000000000000000000000000000008152600401611402906152c7565b60405180910390fd5b80915050919050565b60125481565b60115481565b5f6060426016541091508160405180602001604052805f815250915091509250929050565b5f8073ffffffffffffffffffffffffffffffffffffffff168273ffffffffffffffffffffffffffffffffffffffff16036114b4576040517f08c379a00000000000000000000000000000000000000000000000000000000081526004016114ab90615355565b60405180910390fd5b60035f8373ffffffffffffffffffffffffffffffffffffffff1673ffffffffffffffffffffffffffffffffffffffff1681526020019081526020015f20549050919050565b60105481565b5f600b5f8381526020019081526020015f20549050919050565b8160155460405160200161152e929190615373565b6040516020818303038152906040528051906020012060105414611587576040517f08c379a000000000000000000000000000000000000000000000000000000000815260040161157e906153e8565b60405180910390fd5b816011819055505f61159883612f45565b90505f6115a482612f74565b90505f6115b18285612fa3565b9050827f5f23b605bd6c13580e1bd65c89aa5768674b0165fd8cc0a8a18819c7cd8a7c7860405160405180910390a28073ffffffffffffffffffffffffffffffffffffffff167f391f5edd7209ba797e8055bce97cab2d1a480a2849b0c7fe965c370457166dc460405160405180910390a2600d5f9054906101000a900473ffffffffffffffffffffffffffffffffffffffff1673ffffffffffffffffffffffffffffffffffffffff168173ffffffffffffffffffffffffffffffffffffffff16146116b2576040517f08c379a00000000000000000000000000000000000000000000000000000000081526004016116a990615450565b60405180910390fd5b5f6011546012546015546040516020016116ce9392919061546e565b604051602081830303815290604052805190602001209050600a815f1c6116f59190614de9565b6013819055506001601b5f60135481526020019081526020015f205461171b9190614e46565b601b5f60135481526020019081526020015f20819055507f6765f1b8ca6c099f7378c6e9b12cf8afac970d483c3faf81745e4b40c26148db601154601354604051611767929190614e79565b60405180910390a161179c600e5f9054906101000a900473ffffffffffffffffffffffffffffffffffffffff16601354612c90565b505050505050565b600d5f9054906101000a900473ffffffffffffffffffffffffffffffffffffffff1681565b6060600180546117d8906149fe565b80601f0160208091040260200160405190810160405280929190818152602001828054611804906149fe565b801561184f5780601f106118265761010080835404028352916020019161184f565b820191905f5260205f20905b81548152906001019060200180831161183257829003601f168201915b5050505050905090565b5f61186383612f45565b90505f61186f82612f74565b90505f61187c8285612fa3565b90503373ffffffffffffffffffffffffffffffffffffffff168173ffffffffffffffffffffffffffffffffffffffff16146118ec576040517f08c379a00000000000000000000000000000000000000000000000000000000081526004016118e390615450565b60405180910390fd5b8460128190555033600e5f6101000a81548173ffffffffffffffffffffffffffffffffffffffff021916908373ffffffffffffffffffffffffffffffffffffffff160217905550600160175f3373ffffffffffffffffffffffffffffffffffffffff1673ffffffffffffffffffffffffffffffffffffffff1681526020019081526020015f205f8781526020019081526020015f205f6101000a81548160ff021916908315150217905550600e5f9054906101000a900473ffffffffffffffffffffffffffffffffffffffff1673ffffffffffffffffffffffffffffffffffffffff167fc197ebf15e8fe977ad5029df6077570283fa75a10103efc82970e4962d21eb30601254604051611a0091906143b3565b60405180910390a23373ffffffffffffffffffffffffffffffffffffffff167f4b904c2bfe136ea68afa5ff4de7e0c7101664ebd64570c7f6f6f8d8b533d0ef060405160405180910390a25050505050565b60605f611a5f600a61300d565b90505f8167ffffffffffffffff811115611a7c57611a7b61400a565b5b604051908082528060200260200182016040528015611ab557816020015b611aa2613aae565b815260200190600190039081611a9a5790505b5090505f5b82811015611d1e575f600182611ad09190614e46565b90505f611adc82611390565b90505f611ae883610d46565b90505f60195f8381526020019081526020015f206040518060600160405290815f82018054611b16906149fe565b80601f0160208091040260200160405190810160405280929190818152602001828054611b42906149fe565b8015611b8d5780601f10611b6457610100808354040283529160200191611b8d565b820191905f5260205f20905b815481529060010190602001808311611b7057829003601f168201915b50505050508152602001600182018054611ba6906149fe565b80601f0160208091040260200160405190810160405280929190818152602001828054611bd2906149fe565b8015611c1d5780601f10611bf457610100808354040283529160200191611c1d565b820191905f5260205f20905b815481529060010190602001808311611c0057829003601f168201915b50505050508152602001600282018054611c36906149fe565b80601f0160208091040260200160405190810160405280929190818152602001828054611c62906149fe565b8015611cad5780601f10611c8457610100808354040283529160200191611cad565b820191905f5260205f20905b815481529060010190602001808311611c9057829003601f168201915b505050505081525050905060405180608001604052808473ffffffffffffffffffffffffffffffffffffffff16815260200185815260200183815260200182815250868681518110611d0257611d01614f2e565b5b6020026020010181905250505050508080600101915050611aba565b50809250505090565b60608060605f60195f8681526020019081526020015f206040518060600160405290815f82018054611d58906149fe565b80601f0160208091040260200160405190810160405280929190818152602001828054611d84906149fe565b8015611dcf5780601f10611da657610100808354040283529160200191611dcf565b820191905f5260205f20905b815481529060010190602001808311611db257829003601f168201915b50505050508152602001600182018054611de8906149fe565b80601f0160208091040260200160405190810160405280929190818152602001828054611e14906149fe565b8015611e5f5780601f10611e3657610100808354040283529160200191611e5f565b820191905f5260205f20905b815481529060010190602001808311611e4257829003601f168201915b50505050508152602001600282018054611e78906149fe565b80601f0160208091040260200160405190810160405280929190818152602001828054611ea4906149fe565b8015611eef5780601f10611ec657610100808354040283529160200191611eef565b820191905f5260205f20905b815481529060010190602001808311611ed257829003601f168201915b5050505050815250509050805f015181602001518260400151935093509350509193909250565b611f28611f216126d2565b8383613019565b5050565b60165481565b611f43611f3d6126d2565b8361278f565b611f82576040517f08c379a0000000000000000000000000000000000000000000000000000000008152600401611f7990614bba565b60405180910390fd5b611f8e84848484613180565b50505050565b611f9d81612b0f565b611fdc576040517f08c379a0000000000000000000000000000000000000000000000000000000008152600401611fd390614c48565b60405180910390fd5b600c5f8281526020019081526020015f2054421115612030576040517f08c379a00000000000000000000000000000000000000000000000000000000081526004016120279061551a565b60405180910390fd5b61203a338261102a565b612079576040517f08c379a0000000000000000000000000000000000000000000000000000000008152600401612070906155a8565b60405180910390fd5b8173ffffffffffffffffffffffffffffffffffffffff1661209982611390565b73ffffffffffffffffffffffffffffffffffffffff16146120ef576040517f08c379a00000000000000000000000000000000000000000000000000000000081526004016120e690615636565b60405180910390fd5b5f600b5f8381526020019081526020015f205490508273ffffffffffffffffffffffffffffffffffffffff166108fc8290811502906040515f60405180830381858888f19350505050158015612147573d5f803e3d5ffd5b5061215182612b4f565b505050565b60135481565b60155481565b6060601a5f8381526020019081526020015f208054612180906149fe565b80601f01602080910402602001604051908101604052809291908181526020018280546121ac906149fe565b80156121f75780601f106121ce576101008083540402835291602001916121f7565b820191905f5260205f20905b8154815290600101906020018083116121da57829003601f168201915b50505050509050919050565b5f60405180606001604052808581526020018481526020018381525090508060195f8781526020019081526020015f205f820151815f01908161224691906151ae565b50602082015181600101908161225c91906151ae565b50604082015181600201908161227291906151ae565b509050505050505050565b6019602052805f5260405f205f91509050805f01805461229c906149fe565b80601f01602080910402602001604051908101604052809291908181526020018280546122c8906149fe565b80156123135780601f106122ea57610100808354040283529160200191612313565b820191905f5260205f20905b8154815290600101906020018083116122f657829003601f168201915b505050505090806001018054612328906149fe565b80601f0160208091040260200160405190810160405280929190818152602001828054612354906149fe565b801561239f5780601f106123765761010080835404028352916020019161239f565b820191905f5260205f20905b81548152906001019060200180831161238257829003601f168201915b5050505050908060020180546123b4906149fe565b80601f01602080910402602001604051908101604052809291908181526020018280546123e0906149fe565b801561242b5780601f106124025761010080835404028352916020019161242b565b820191905f5260205f20905b81548152906001019060200180831161240e57829003601f168201915b5050505050905083565b600d5f9054906101000a900473ffffffffffffffffffffffffffffffffffffffff1673ffffffffffffffffffffffffffffffffffffffff163373ffffffffffffffffffffffffffffffffffffffff16146124c4576040517f08c379a00000000000000000000000000000000000000000000000000000000081526004016124bb9061569e565b60405180910390fd5b8160108190555080601581905550603c426124df9190614e46565b6016819055506010547f522250e8a5d48ed8b6afbdb88fc1bb8ce6735c729835065b6840033c1d406f9060405160405180910390a25050565b5f60055f8473ffffffffffffffffffffffffffffffffffffffff1673ffffffffffffffffffffffffffffffffffffffff1681526020019081526020015f205f8373ffffffffffffffffffffffffffffffffffffffff1673ffffffffffffffffffffffffffffffffffffffff1681526020019081526020015f205f9054906101000a900460ff16905092915050565b5f7f80ac58cd000000000000000000000000000000000000000000000000000000007bffffffffffffffffffffffffffffffffffffffffffffffffffffffff1916827bffffffffffffffffffffffffffffffffffffffffffffffffffffffff1916148061267057507f5b5e139f000000000000000000000000000000000000000000000000000000007bffffffffffffffffffffffffffffffffffffffffffffffffffffffff1916827bffffffffffffffffffffffffffffffffffffffffffffffffffffffff1916145b80612680575061267f826131dc565b5b9050919050565b61269081612b0f565b6126cf576040517f08c379a00000000000000000000000000000000000000000000000000000000081526004016126c6906152c7565b60405180910390fd5b50565b5f33905090565b8160045f8381526020019081526020015f205f6101000a81548173ffffffffffffffffffffffffffffffffffffffff021916908373ffffffffffffffffffffffffffffffffffffffff160217905550808273ffffffffffffffffffffffffffffffffffffffff1661274983611390565b73ffffffffffffffffffffffffffffffffffffffff167f8c5be1e5ebec7d5bd14f71427d1e84f3dd0314c0f7b2291e5b200ac8c7c3b92560405160405180910390a45050565b5f8061279a83611390565b90508073ffffffffffffffffffffffffffffffffffffffff168473ffffffffffffffffffffffffffffffffffffffff1614806127dc57506127db8185612518565b5b8061281a57508373ffffffffffffffffffffffffffffffffffffffff1661280284610bee565b73ffffffffffffffffffffffffffffffffffffffff16145b91505092915050565b8273ffffffffffffffffffffffffffffffffffffffff1661284382611390565b73ffffffffffffffffffffffffffffffffffffffff1614612899576040517f08c379a00000000000000000000000000000000000000000000000000000000081526004016128909061572c565b60405180910390fd5b5f73ffffffffffffffffffffffffffffffffffffffff168273ffffffffffffffffffffffffffffffffffffffff1603612907576040517f08c379a00000000000000000000000000000000000000000000000000000000081526004016128fe906157ba565b60405180910390fd5b6129148383836001613245565b8273ffffffffffffffffffffffffffffffffffffffff1661293482611390565b73ffffffffffffffffffffffffffffffffffffffff161461298a576040517f08c379a00000000000000000000000000000000000000000000000000000000081526004016129819061572c565b60405180910390fd5b60045f8281526020019081526020015f205f6101000a81549073ffffffffffffffffffffffffffffffffffffffff0219169055600160035f8573ffffffffffffffffffffffffffffffffffffffff1673ffffffffffffffffffffffffffffffffffffffff1681526020019081526020015f205f8282540392505081905550600160035f8473ffffffffffffffffffffffffffffffffffffffff1673ffffffffffffffffffffffffffffffffffffffff1681526020019081526020015f205f82825401925050819055508160025f8381526020019081526020015f205f6101000a81548173ffffffffffffffffffffffffffffffffffffffff021916908373ffffffffffffffffffffffffffffffffffffffff160217905550808273ffffffffffffffffffffffffffffffffffffffff168473ffffffffffffffffffffffffffffffffffffffff167fddf252ad1be2c89b69c2b068fc378daa952ba7f163c4a11628f55a4df523b3ef60405160405180910390a4612b0a83838360016133a0565b505050565b5f8073ffffffffffffffffffffffffffffffffffffffff16612b3083612f0c565b73ffffffffffffffffffffffffffffffffffffffff1614159050919050565b5f612b5982611390565b9050612b68815f846001613245565b612b7182611390565b905060045f8381526020019081526020015f205f6101000a81549073ffffffffffffffffffffffffffffffffffffffff0219169055600160035f8373ffffffffffffffffffffffffffffffffffffffff1673ffffffffffffffffffffffffffffffffffffffff1681526020019081526020015f205f828254039250508190555060025f8381526020019081526020015f205f6101000a81549073ffffffffffffffffffffffffffffffffffffffff0219169055815f73ffffffffffffffffffffffffffffffffffffffff168273ffffffffffffffffffffffffffffffffffffffff167fddf252ad1be2c89b69c2b068fc378daa952ba7f163c4a11628f55a4df523b3ef60405160405180910390a4612c8c815f8460016133a0565b5050565b612c9a600a6133a6565b5f612ca5600a61300d565b9050612cb183826133ba565b8160185f8381526020019081526020015f20819055505f60195f8481526020019081526020015f206040518060600160405290815f82018054612cf3906149fe565b80601f0160208091040260200160405190810160405280929190818152602001828054612d1f906149fe565b8015612d6a5780601f10612d4157610100808354040283529160200191612d6a565b820191905f5260205f20905b815481529060010190602001808311612d4d57829003601f168201915b50505050508152602001600182018054612d83906149fe565b80601f0160208091040260200160405190810160405280929190818152602001828054612daf906149fe565b8015612dfa5780601f10612dd157610100808354040283529160200191612dfa565b820191905f5260205f20905b815481529060010190602001808311612ddd57829003601f168201915b50505050508152602001600282018054612e13906149fe565b80601f0160208091040260200160405190810160405280929190818152602001828054612e3f906149fe565b8015612e8a5780601f10612e6157610100808354040283529160200191612e8a565b820191905f5260205f20905b815481529060010190602001808311612e6d57829003601f168201915b50505050508152505090508060400151601a5f8481526020019081526020015f209081612eb791906151ae565b508373ffffffffffffffffffffffffffffffffffffffff167f4cc0a9c4a99ddc700de1af2c9f916a7cbfdb71f14801ccff94061ad1ef8a804083604051612efe9190613dab565b60405180910390a250505050565b5f60025f8381526020019081526020015f205f9054906101000a900473ffffffffffffffffffffffffffffffffffffffff169050919050565b5f81604051602001612f579190614da2565b604051602081830303815290604052805190602001209050919050565b5f81604051602001612f86919061582c565b604051602081830303815290604052805190602001209050919050565b5f805f80612fb0856135cd565b9250925092506001868285856040515f8152602001604052604051612fd8949392919061586c565b6020604051602081039080840390855afa158015612ff8573d5f803e3d5ffd5b50505060206040510351935050505092915050565b5f815f01549050919050565b8173ffffffffffffffffffffffffffffffffffffffff168373ffffffffffffffffffffffffffffffffffffffff1603613087576040517f08c379a000000000000000000000000000000000000000000000000000000000815260040161307e906158f9565b60405180910390fd5b8060055f8573ffffffffffffffffffffffffffffffffffffffff1673ffffffffffffffffffffffffffffffffffffffff1681526020019081526020015f205f8473ffffffffffffffffffffffffffffffffffffffff1673ffffffffffffffffffffffffffffffffffffffff1681526020019081526020015f205f6101000a81548160ff0219169083151502179055508173ffffffffffffffffffffffffffffffffffffffff168373ffffffffffffffffffffffffffffffffffffffff167f17307eab39ab6107e8899845ad3d59bd9653f200f220920489ca2b5937696c31836040516131739190613bbb565b60405180910390a3505050565b61318b848484612823565b61319784848484613632565b6131d6576040517f08c379a00000000000000000000000000000000000000000000000000000000081526004016131cd90615987565b60405180910390fd5b50505050565b5f7f01ffc9a7000000000000000000000000000000000000000000000000000000007bffffffffffffffffffffffffffffffffffffffffffffffffffffffff1916827bffffffffffffffffffffffffffffffffffffffffffffffffffffffff1916149050919050565b613251848484846137b4565b6001811115613295576040517f08c379a000000000000000000000000000000000000000000000000000000000815260040161328c90615a15565b60405180910390fd5b5f8290505f73ffffffffffffffffffffffffffffffffffffffff168573ffffffffffffffffffffffffffffffffffffffff16036132da576132d5816137ba565b613319565b8373ffffffffffffffffffffffffffffffffffffffff168573ffffffffffffffffffffffffffffffffffffffff16146133185761331785826137fe565b5b5b5f73ffffffffffffffffffffffffffffffffffffffff168473ffffffffffffffffffffffffffffffffffffffff160361335a5761335581613954565b613399565b8473ffffffffffffffffffffffffffffffffffffffff168473ffffffffffffffffffffffffffffffffffffffff1614613398576133978482613a14565b5b5b5050505050565b50505050565b6001815f015f828254019250508190555050565b5f73ffffffffffffffffffffffffffffffffffffffff168273ffffffffffffffffffffffffffffffffffffffff1603613428576040517f08c379a000000000000000000000000000000000000000000000000000000000815260040161341f90615a7d565b60405180910390fd5b61343181612b0f565b15613471576040517f08c379a000000000000000000000000000000000000000000000000000000000815260040161346890615ae5565b60405180910390fd5b61347e5f83836001613245565b61348781612b0f565b156134c7576040517f08c379a00000000000000000000000000000000000000000000000000000000081526004016134be90615ae5565b60405180910390fd5b600160035f8473ffffffffffffffffffffffffffffffffffffffff1673ffffffffffffffffffffffffffffffffffffffff1681526020019081526020015f205f82825401925050819055508160025f8381526020019081526020015f205f6101000a81548173ffffffffffffffffffffffffffffffffffffffff021916908373ffffffffffffffffffffffffffffffffffffffff160217905550808273ffffffffffffffffffffffffffffffffffffffff165f73ffffffffffffffffffffffffffffffffffffffff167fddf252ad1be2c89b69c2b068fc378daa952ba7f163c4a11628f55a4df523b3ef60405160405180910390a46135c95f838360016133a0565b5050565b5f805f6041845114613614576040517f08c379a000000000000000000000000000000000000000000000000000000000815260040161360b90615b4d565b60405180910390fd5b602084015192506040840151915060608401515f1a90509193909250565b5f6136528473ffffffffffffffffffffffffffffffffffffffff16613a8c565b156137a7578373ffffffffffffffffffffffffffffffffffffffff1663150b7a0261367b6126d2565b8786866040518563ffffffff1660e01b815260040161369d9493929190615b6b565b6020604051808303815f875af19250505080156136d857506040513d601f19601f820116820180604052508101906136d59190615bc9565b60015b613757573d805f8114613706576040519150601f19603f3d011682016040523d82523d5f602084013e61370b565b606091505b505f81510361374f576040517f08c379a000000000000000000000000000000000000000000000000000000000815260040161374690615987565b60405180910390fd5b805181602001fd5b63150b7a0260e01b7bffffffffffffffffffffffffffffffffffffffffffffffffffffffff1916817bffffffffffffffffffffffffffffffffffffffffffffffffffffffff1916149150506137ac565b600190505b949350505050565b50505050565b60088054905060095f8381526020019081526020015f2081905550600881908060018154018082558091505060019003905f5260205f20015f909190919091505550565b5f600161380a84611445565b6138149190615bf4565b90505f60075f8481526020019081526020015f205490508181146138eb575f60065f8673ffffffffffffffffffffffffffffffffffffffff1673ffffffffffffffffffffffffffffffffffffffff1681526020019081526020015f205f8481526020019081526020015f205490508060065f8773ffffffffffffffffffffffffffffffffffffffff1673ffffffffffffffffffffffffffffffffffffffff1681526020019081526020015f205f8481526020019081526020015f20819055508160075f8381526020019081526020015f2081905550505b60075f8481526020019081526020015f205f905560065f8573ffffffffffffffffffffffffffffffffffffffff1673ffffffffffffffffffffffffffffffffffffffff1681526020019081526020015f205f8381526020019081526020015f205f905550505050565b5f60016008805490506139679190615bf4565b90505f60095f8481526020019081526020015f205490505f6008838154811061399357613992614f2e565b5b905f5260205f200154905080600883815481106139b3576139b2614f2e565b5b905f5260205f2001819055508160095f8381526020019081526020015f208190555060095f8581526020019081526020015f205f905560088054806139fb576139fa615c27565b5b600190038181905f5260205f20015f9055905550505050565b5f613a1e83611445565b90508160065f8573ffffffffffffffffffffffffffffffffffffffff1673ffffffffffffffffffffffffffffffffffffffff1681526020019081526020015f205f8381526020019081526020015f20819055508060075f8481526020019081526020015f2081905550505050565b5f808273ffffffffffffffffffffffffffffffffffffffff163b119050919050565b60405180608001604052805f73ffffffffffffffffffffffffffffffffffffffff1681526020015f81526020015f8152602001613ae9613aef565b81525090565b60405180606001604052806060815260200160608152602001606081525090565b5f604051905090565b5f80fd5b5f80fd5b5f7fffffffff0000000000000000000000000000000000000000000000000000000082169050919050565b613b5581613b21565b8114613b5f575f80fd5b50565b5f81359050613b7081613b4c565b92915050565b5f60208284031215613b8b57613b8a613b19565b5b5f613b9884828501613b62565b91505092915050565b5f8115159050919050565b613bb581613ba1565b82525050565b5f602082019050613bce5f830184613bac565b92915050565b5f81519050919050565b5f82825260208201905092915050565b5f5b83811015613c0b578082015181840152602081019050613bf0565b5f8484015250505050565b5f601f19601f8301169050919050565b5f613c3082613bd4565b613c3a8185613bde565b9350613c4a818560208601613bee565b613c5381613c16565b840191505092915050565b5f6020820190508181035f830152613c768184613c26565b905092915050565b5f819050919050565b613c9081613c7e565b8114613c9a575f80fd5b50565b5f81359050613cab81613c87565b92915050565b5f60208284031215613cc657613cc5613b19565b5b5f613cd384828501613c9d565b91505092915050565b5f73ffffffffffffffffffffffffffffffffffffffff82169050919050565b5f613d0582613cdc565b9050919050565b613d1581613cfb565b82525050565b5f602082019050613d2e5f830184613d0c565b92915050565b613d3d81613cfb565b8114613d47575f80fd5b50565b5f81359050613d5881613d34565b92915050565b5f8060408385031215613d7457613d73613b19565b5b5f613d8185828601613d4a565b9250506020613d9285828601613c9d565b9150509250929050565b613da581613c7e565b82525050565b5f602082019050613dbe5f830184613d9c565b92915050565b5f805f60608486031215613ddb57613dda613b19565b5b5f613de886828701613d4a565b9350506020613df986828701613d4a565b9250506040613e0a86828701613c9d565b9150509250925092565b5f819050919050565b613e2681613e14565b8114613e30575f80fd5b50565b5f81359050613e4181613e1d565b92915050565b5f8060408385031215613e5d57613e5c613b19565b5b5f613e6a85828601613d4a565b9250506020613e7b85828601613e33565b9150509250929050565b5f80fd5b5f80fd5b5f80fd5b5f8083601f840112613ea657613ea5613e85565b5b8235905067ffffffffffffffff811115613ec357613ec2613e89565b5b602083019150836001820283011115613edf57613ede613e8d565b5b9250929050565b5f8060208385031215613efc57613efb613b19565b5b5f83013567ffffffffffffffff811115613f1957613f18613b1d565b5b613f2585828601613e91565b92509250509250929050565b5f613f3b82613cdc565b9050919050565b613f4b81613f31565b82525050565b5f602082019050613f645f830184613f42565b92915050565b5f8083601f840112613f7f57613f7e613e85565b5b8235905067ffffffffffffffff811115613f9c57613f9b613e89565b5b602083019150836001820283011115613fb857613fb7613e8d565b5b9250929050565b5f8060208385031215613fd557613fd4613b19565b5b5f83013567ffffffffffffffff811115613ff257613ff1613b1d565b5b613ffe85828601613f6a565b92509250509250929050565b7f4e487b71000000000000000000000000000000000000000000000000000000005f52604160045260245ffd5b61404082613c16565b810181811067ffffffffffffffff8211171561405f5761405e61400a565b5b80604052505050565b5f614071613b10565b905061407d8282614037565b919050565b5f67ffffffffffffffff82111561409c5761409b61400a565b5b602082029050602081019050919050565b5f6140bf6140ba84614082565b614068565b905080838252602082019050602084028301858111156140e2576140e1613e8d565b5b835b8181101561410b57806140f78882613c9d565b8452602084019350506020810190506140e4565b5050509392505050565b5f82601f83011261412957614128613e85565b5b81356141398482602086016140ad565b91505092915050565b5f67ffffffffffffffff82111561415c5761415b61400a565b5b602082029050602081019050919050565b5f80fd5b5f67ffffffffffffffff82111561418b5761418a61400a565b5b61419482613c16565b9050602081019050919050565b828183375f83830152505050565b5f6141c16141bc84614171565b614068565b9050828152602081018484840111156141dd576141dc61416d565b5b6141e88482856141a1565b509392505050565b5f82601f83011261420457614203613e85565b5b81356142148482602086016141af565b91505092915050565b5f61422f61422a84614142565b614068565b9050808382526020820190506020840283018581111561425257614251613e8d565b5b835b8181101561429957803567ffffffffffffffff81111561427757614276613e85565b5b80860161428489826141f0565b85526020850194505050602081019050614254565b5050509392505050565b5f82601f8301126142b7576142b6613e85565b5b81356142c784826020860161421d565b91505092915050565b5f805f80608085870312156142e8576142e7613b19565b5b5f85013567ffffffffffffffff81111561430557614304613b1d565b5b61431187828801614115565b945050602085013567ffffffffffffffff81111561433257614331613b1d565b5b61433e878288016142a3565b935050604085013567ffffffffffffffff81111561435f5761435e613b1d565b5b61436b878288016142a3565b925050606085013567ffffffffffffffff81111561438c5761438b613b1d565b5b614398878288016142a3565b91505092959194509250565b6143ad81613e14565b82525050565b5f6020820190506143c65f8301846143a4565b92915050565b5f81519050919050565b5f82825260208201905092915050565b5f6143f0826143cc565b6143fa81856143d6565b935061440a818560208601613bee565b61441381613c16565b840191505092915050565b5f6040820190506144315f830185613bac565b818103602083015261444381846143e6565b90509392505050565b5f6020828403121561446157614460613b19565b5b5f61446e84828501613d4a565b91505092915050565b5f67ffffffffffffffff8211156144915761449061400a565b5b61449a82613c16565b9050602081019050919050565b5f6144b96144b484614477565b614068565b9050828152602081018484840111156144d5576144d461416d565b5b6144e08482856141a1565b509392505050565b5f82601f8301126144fc576144fb613e85565b5b813561450c8482602086016144a7565b91505092915050565b5f806040838503121561452b5761452a613b19565b5b5f61453885828601613e33565b925050602083013567ffffffffffffffff81111561455957614558613b1d565b5b614565858286016144e8565b9150509250929050565b5f81519050919050565b5f82825260208201905092915050565b5f819050602082019050919050565b6145a181613cfb565b82525050565b6145b081613c7e565b82525050565b5f82825260208201905092915050565b5f6145d082613bd4565b6145da81856145b6565b93506145ea818560208601613bee565b6145f381613c16565b840191505092915050565b5f606083015f8301518482035f86015261461882826145c6565b9150506020830151848203602086015261463282826145c6565b9150506040830151848203604086015261464c82826145c6565b9150508091505092915050565b5f608083015f83015161466e5f860182614598565b50602083015161468160208601826145a7565b50604083015161469460408601826145a7565b50606083015184820360608601526146ac82826145fe565b9150508091505092915050565b5f6146c48383614659565b905092915050565b5f602082019050919050565b5f6146e28261456f565b6146ec8185614579565b9350836020820285016146fe85614589565b805f5b85811015614739578484038952815161471a85826146b9565b9450614725836146cc565b925060208a01995050600181019050614701565b50829750879550505050505092915050565b5f6020820190508181035f83015261476381846146d8565b905092915050565b5f6060820190508181035f8301526147838186613c26565b905081810360208301526147978185613c26565b905081810360408301526147ab8184613c26565b9050949350505050565b6147be81613ba1565b81146147c8575f80fd5b50565b5f813590506147d9816147b5565b92915050565b5f80604083850312156147f5576147f4613b19565b5b5f61480285828601613d4a565b9250506020614813858286016147cb565b9150509250929050565b5f805f806080858703121561483557614834613b19565b5b5f61484287828801613d4a565b945050602061485387828801613d4a565b935050604061486487828801613c9d565b925050606085013567ffffffffffffffff81111561488557614884613b1d565b5b614891878288016144e8565b91505092959194509250565b5f805f80608085870312156148b5576148b4613b19565b5b5f6148c287828801613c9d565b945050602085013567ffffffffffffffff8111156148e3576148e2613b1d565b5b6148ef878288016141f0565b935050604085013567ffffffffffffffff8111156149105761490f613b1d565b5b61491c878288016141f0565b925050606085013567ffffffffffffffff81111561493d5761493c613b1d565b5b614949878288016141f0565b91505092959194509250565b5f806040838503121561496b5761496a613b19565b5b5f61497885828601613e33565b925050602061498985828601613e33565b9150509250929050565b5f80604083850312156149a9576149a8613b19565b5b5f6149b685828601613d4a565b92505060206149c785828601613d4a565b9150509250929050565b7f4e487b71000000000000000000000000000000000000000000000000000000005f52602260045260245ffd5b5f6002820490506001821680614a1557607f821691505b602082108103614a2857614a276149d1565b5b50919050565b7f4552433732313a20617070726f76616c20746f2063757272656e74206f776e655f8201527f7200000000000000000000000000000000000000000000000000000000000000602082015250565b5f614a88602183613bde565b9150614a9382614a2e565b604082019050919050565b5f6020820190508181035f830152614ab581614a7c565b9050919050565b7f4552433732313a20617070726f76652063616c6c6572206973206e6f7420746f5f8201527f6b656e206f776e6572206f7220617070726f76656420666f7220616c6c000000602082015250565b5f614b16603d83613bde565b9150614b2182614abc565b604082019050919050565b5f6020820190508181035f830152614b4381614b0a565b9050919050565b7f4552433732313a2063616c6c6572206973206e6f7420746f6b656e206f776e655f8201527f72206f7220617070726f76656400000000000000000000000000000000000000602082015250565b5f614ba4602d83613bde565b9150614baf82614b4a565b604082019050919050565b5f6020820190508181035f830152614bd181614b98565b9050919050565b7f455243373231526566756e6461626c653a206e6f6e6578697374656e7420746f5f8201527f6b656e0000000000000000000000000000000000000000000000000000000000602082015250565b5f614c32602383613bde565b9150614c3d82614bd8565b604082019050919050565b5f6020820190508181035f830152614c5f81614c26565b9050919050565b7f455243373231526566756e6461626c653a20726566756e6420726571756573745f8201527f2066726f6d206e6f6e2d6f776e65720000000000000000000000000000000000602082015250565b5f614cc0602f83613bde565b9150614ccb82614c66565b604082019050919050565b5f6020820190508181035f830152614ced81614cb4565b9050919050565b7f455243373231456e756d657261626c653a206f776e657220696e646578206f755f8201527f74206f6620626f756e6473000000000000000000000000000000000000000000602082015250565b5f614d4e602b83613bde565b9150614d5982614cf4565b604082019050919050565b5f6020820190508181035f830152614d7b81614d42565b9050919050565b5f819050919050565b614d9c614d9782613e14565b614d82565b82525050565b5f614dad8284614d8b565b60208201915081905092915050565b7f4e487b71000000000000000000000000000000000000000000000000000000005f52601260045260245ffd5b5f614df382613c7e565b9150614dfe83613c7e565b925082614e0e57614e0d614dbc565b5b828206905092915050565b7f4e487b71000000000000000000000000000000000000000000000000000000005f52601160045260245ffd5b5f614e5082613c7e565b9150614e5b83613c7e565b9250828201905080821115614e7357614e72614e19565b5b92915050565b5f604082019050614e8c5f8301856143a4565b614e996020830184613d9c565b9392505050565b7f455243373231456e756d657261626c653a20676c6f62616c20696e646578206f5f8201527f7574206f6620626f756e64730000000000000000000000000000000000000000602082015250565b5f614efa602c83613bde565b9150614f0582614ea0565b604082019050919050565b5f6020820190508181035f830152614f2781614eee565b9050919050565b7f4e487b71000000000000000000000000000000000000000000000000000000005f52603260045260245ffd5b5f614f668385613bde565b9350614f738385846141a1565b614f7c83613c16565b840190509392505050565b5f6020820190508181035f830152614fa0818486614f5b565b90509392505050565b7f4172726179206c656e67746873206d69736d61746368000000000000000000005f82015250565b5f614fdd601683613bde565b9150614fe882614fa9565b602082019050919050565b5f6020820190508181035f83015261500a81614fd1565b9050919050565b5f819050815f5260205f209050919050565b5f6020601f8301049050919050565b5f82821b905092915050565b5f6008830261506d7fffffffffffffffffffffffffffffffffffffffffffffffffffffffffffffffff82615032565b6150778683615032565b95508019841693508086168417925050509392505050565b5f819050919050565b5f6150b26150ad6150a884613c7e565b61508f565b613c7e565b9050919050565b5f819050919050565b6150cb83615098565b6150df6150d7826150b9565b84845461503e565b825550505050565b5f90565b6150f36150e7565b6150fe8184846150c2565b505050565b5b81811015615121576151165f826150eb565b600181019050615104565b5050565b601f8211156151665761513781615011565b61514084615023565b8101602085101561514f578190505b61516361515b85615023565b830182615103565b50505b505050565b5f82821c905092915050565b5f6151865f198460080261516b565b1980831691505092915050565b5f61519e8383615177565b9150826002028217905092915050565b6151b782613bd4565b67ffffffffffffffff8111156151d0576151cf61400a565b5b6151da82546149fe565b6151e5828285615125565b5f60209050601f831160018114615216575f8415615204578287015190505b61520e8582615193565b865550615275565b601f19841661522486615011565b5f5b8281101561524b57848901518255600182019150602085019450602081019050615226565b868310156152685784890151615264601f891682615177565b8355505b6001600288020188555050505b505050505050565b7f4552433732313a20696e76616c696420746f6b656e20494400000000000000005f82015250565b5f6152b1601883613bde565b91506152bc8261527d565b602082019050919050565b5f6020820190508181035f8301526152de816152a5565b9050919050565b7f4552433732313a2061646472657373207a65726f206973206e6f7420612076615f8201527f6c6964206f776e65720000000000000000000000000000000000000000000000602082015250565b5f61533f602983613bde565b915061534a826152e5565b604082019050919050565b5f6020820190508181035f83015261536c81615333565b9050919050565b5f61537e8285614d8b565b60208201915061538e8284614d8b565b6020820191508190509392505050565b7f496e76616c6964207365727665722073656564000000000000000000000000005f82015250565b5f6153d2601383613bde565b91506153dd8261539e565b602082019050919050565b5f6020820190508181035f8301526153ff816153c6565b9050919050565b7f496e76616c6964207369676e61747572650000000000000000000000000000005f82015250565b5f61543a601183613bde565b915061544582615406565b602082019050919050565b5f6020820190508181035f8301526154678161542e565b9050919050565b5f6154798286614d8b565b6020820191506154898285614d8b565b6020820191506154998284614d8b565b602082019150819050949350505050565b7f455243373231526566756e6461626c653a20726566756e6420646561646c696e5f8201527f6520657863656564656400000000000000000000000000000000000000000000602082015250565b5f615504602a83613bde565b915061550f826154aa565b604082019050919050565b5f6020820190508181035f830152615531816154f8565b9050919050565b7f455243373231526566756e6461626c653a20726566756e6420726571756573745f8201527f2066726f6d206e6f6e2d617070726f7665640000000000000000000000000000602082015250565b5f615592603283613bde565b915061559d82615538565b604082019050919050565b5f6020820190508181035f8301526155bf81615586565b9050919050565b7f455243373231526566756e6461626c653a20726566756e6420726571756573745f8201527f20666f722077726f6e67206f776e657200000000000000000000000000000000602082015250565b5f615620603083613bde565b915061562b826155c6565b604082019050919050565b5f6020820190508181035f83015261564d81615614565b9050919050565b7f4f6e6c79206f776e65722063616e20636f6d6d697400000000000000000000005f82015250565b5f615688601583613bde565b915061569382615654565b602082019050919050565b5f6020820190508181035f8301526156b58161567c565b9050919050565b7f4552433732313a207472616e736665722066726f6d20696e636f7272656374205f8201527f6f776e6572000000000000000000000000000000000000000000000000000000602082015250565b5f615716602583613bde565b9150615721826156bc565b604082019050919050565b5f6020820190508181035f8301526157438161570a565b9050919050565b7f4552433732313a207472616e7366657220746f20746865207a65726f206164645f8201527f7265737300000000000000000000000000000000000000000000000000000000602082015250565b5f6157a4602483613bde565b91506157af8261574a565b604082019050919050565b5f6020820190508181035f8301526157d181615798565b9050919050565b5f81905092915050565b7f19457468657265756d205369676e6564204d6573736167653a0a3332000000005f82015250565b5f615816601c836157d8565b9150615821826157e2565b601c82019050919050565b5f6158368261580a565b91506158428284614d8b565b60208201915081905092915050565b5f60ff82169050919050565b61586681615851565b82525050565b5f60808201905061587f5f8301876143a4565b61588c602083018661585d565b61589960408301856143a4565b6158a660608301846143a4565b95945050505050565b7f4552433732313a20617070726f766520746f2063616c6c6572000000000000005f82015250565b5f6158e3601983613bde565b91506158ee826158af565b602082019050919050565b5f6020820190508181035f830152615910816158d7565b9050919050565b7f4552433732313a207472616e7366657220746f206e6f6e2045524337323152655f8201527f63656976657220696d706c656d656e7465720000000000000000000000000000602082015250565b5f615971603283613bde565b915061597c82615917565b604082019050919050565b5f6020820190508181035f83015261599e81615965565b9050919050565b7f455243373231456e756d657261626c653a20636f6e73656375746976652074725f8201527f616e7366657273206e6f7420737570706f727465640000000000000000000000602082015250565b5f6159ff603583613bde565b9150615a0a826159a5565b604082019050919050565b5f6020820190508181035f830152615a2c816159f3565b9050919050565b7f4552433732313a206d696e7420746f20746865207a65726f20616464726573735f82015250565b5f615a67602083613bde565b9150615a7282615a33565b602082019050919050565b5f6020820190508181035f830152615a9481615a5b565b9050919050565b7f4552433732313a20746f6b656e20616c7265616479206d696e746564000000005f82015250565b5f615acf601c83613bde565b9150615ada82615a9b565b602082019050919050565b5f6020820190508181035f830152615afc81615ac3565b9050919050565b7f696e76616c6964207369676e6174757265206c656e67746800000000000000005f82015250565b5f615b37601883613bde565b9150615b4282615b03565b602082019050919050565b5f6020820190508181035f830152615b6481615b2b565b9050919050565b5f608082019050615b7e5f830187613d0c565b615b8b6020830186613d0c565b615b986040830185613d9c565b8181036060830152615baa81846143e6565b905095945050505050565b5f81519050615bc381613b4c565b92915050565b5f60208284031215615bde57615bdd613b19565b5b5f615beb84828501615bb5565b91505092915050565b5f615bfe82613c7e565b9150615c0983613c7e565b9250828203905081811115615c2157615c20614e19565b5b92915050565b7f4e487b71000000000000000000000000000000000000000000000000000000005f52603160045260245ffdfea26469706673582212208e69916252ff6b4848ed258f58c0c23879282ec28e60f00b397ebae7b3aad7ad64736f6c63430008170033",
  "immutableReferences": {},
  "source": "// SPDX-License-Identifier: MIT\r\n\r\npragma solidity >=0.4.22 <0.9.0;\r\n\r\nimport \"@openzeppelin/contracts/utils/cryptography/ECDSA.sol\";\r\nimport \"@openzeppelin/contracts/token/ERC721/extensions/ERC721Enumerable.sol\";\r\nimport \"@openzeppelin/contracts/utils/Counters.sol\";\r\nimport \"@chainlink/contracts/src/v0.8/automation/AutomationCompatible.sol\";\r\nimport \"@openzeppelin/contracts/token/ERC721/ERC721.sol\";\r\n\r\ninterface ERC721Refund {\r\n    function refund(uint256 tokenId) external;\r\n    function refundFrom(address from, uint256 tokenId) external;\r\n    function refundOf(uint256 tokenId) external view returns (uint256 _wei);\r\n    function refundDeadlineOf(uint256 tokenId) external view returns (uint256 block);\r\n}\r\n\r\n//truffle compile\r\n//truffle migrate --network sepolia\r\n//truffle migrate --network sepolia --reset\r\n// \r\nstruct TokenInfo {\r\n    address owner;\r\n    uint256 tokenId;\r\n    uint256 luckyNumber;\r\n    Prize prize;\r\n}\r\n\r\nstruct Prize {\r\n    string name;\r\n    string description;\r\n    string imageURL; // URI (: IPFS)\r\n}\r\n\r\ncontract GachaNFTRefund is ERC721Enumerable,AutomationCompatibleInterface, ERC721Refund {\r\n    using ECDSA for bytes32;\r\n    using Counters for Counters.Counter;\r\n\r\n    Counters.Counter private _tokenIdCounter;  // Token ID counter for NFTs\r\n    \r\n    mapping(uint256 => uint256) private _tokenRefundPrices;\r\n    mapping(uint256 => uint256) private _tokenRefundDeadlines;\r\n//0xdB246570d317400612c3782F0a208c6c51Ae5b22\r\n//truffle migrate --network sepolia --reset\r\n    address payable public owner;\r\n    address payable public player;\r\n    uint256 public maxParticipants;\r\n    bytes32 public serverSeedHash;  // Server seed hash for commitment\r\n    bytes32 public serverSeed;      // Server seed to be revealed later\r\n    bytes32 public userSeed;\r\n    uint256 public luckyNumber;\r\n    bool public isRevealed;\r\n    bytes32 public salt;  // : \r\n    uint256 public revealDeadline;\r\n\r\n\r\n\r\n    // Store used userSeed\r\n    mapping(address => mapping(bytes32 => bool)) public usedUserSeeds;\r\n    mapping(uint256 => uint256) private tokenLuckyNumbers;   \r\n    // \r\n    mapping(uint256 => Prize) public prizeMapping;\r\n    mapping(uint256 => string) private _tokenURIs;\r\n    mapping(uint256 => uint256) private luckyNumberCounts;\r\n\r\n\r\n\r\n    // Events\r\n    event Participation(address indexed player, bytes32 userSeed);\r\n    event Commitment(bytes32 indexed serverSeedHash);\r\n    event Reveal(bytes32 serverSeed, uint256 luckyNumber);\r\n    event CommitRequested(address indexed user);\r\n    event DebugLogEvent(string);  \r\n    event NFTMinted(address indexed owner, uint256 tokenId);\r\n    event RequestCommit(address indexed requester, string requestId);\r\n\r\n  \r\n\r\n\r\nconstructor(uint256 _maxParticipants) ERC721(\"TokenName\", \"TokenSymbol\") public {\r\n    owner = payable(msg.sender);\r\n    maxParticipants = _maxParticipants;\r\n}\r\n\r\n// \r\n    function setPrize(uint256 luckyNumber, string memory name, string memory description, string memory imageURL) public {\r\n        // \r\n        Prize memory newPrize = Prize({\r\n            name: name,\r\n            description: description,\r\n            imageURL: imageURL\r\n        });\r\n\r\n        prizeMapping[luckyNumber] = newPrize;\r\n    }\r\n\r\n    // \r\n    function getPrize(uint256 luckyNumber) public view returns (string memory name, string memory description, string memory imageURL) {\r\n        Prize memory prize = prizeMapping[luckyNumber];\r\n        return (prize.name, prize.description, prize.imageURL);\r\n    }\r\n    function requestCommit(string calldata requestId) public {\r\n        // \r\n        emit RequestCommit(msg.sender, requestId);\r\n    }\r\n    // Owner commits a hashed server seed\r\n    function commit(bytes32 _serverSeedHash, bytes32 _salt) public {\r\n        require(msg.sender == owner, \"Only owner can commit\");\r\n        serverSeedHash = _serverSeedHash;\r\n        salt = _salt;\r\n        revealDeadline = block.timestamp + 1 minutes; // 1\r\n\r\n        emit Commitment(serverSeedHash);  // Emit Commitment event\r\n    }\r\n\r\n\r\n//  function participate(bytes32 _userSeed) public payable {\r\n//         userSeed = _userSeed;\r\n//         player = payable(msg.sender);\r\n//         usedUserSeeds[msg.sender][_userSeed] = true;\r\n//         emit Participation(player, userSeed);  \r\n//         emit CommitRequested(msg.sender);\r\n//     }\r\n function participate(bytes32 _userSeed, bytes memory _signature) public payable {\r\n    // 1. \r\n    bytes32 messageHash = getMessageHash(_userSeed);\r\n//    bytes32 message = keccak256(abi.encodePacked(msg.sender, _userSeed));\r\n    bytes32 ethSignedMessageHash = getEthSignedMessageHash(messageHash);\r\n    address recoveredAddress = recoverSigner(ethSignedMessageHash, _signature);\r\n\r\n    // 2. \r\n   // address recovered = recoverSigner(ethSignedMessageHash, _signature);\r\n\r\n    // 3. \r\n    require(recoveredAddress == msg.sender, \"Invalid signature\");       \r\n    userSeed = _userSeed;\r\n    player = payable(msg.sender);\r\n    usedUserSeeds[msg.sender][_userSeed] = true;\r\n    emit Participation(player, userSeed);  \r\n    emit CommitRequested(msg.sender);\r\n}\r\n\r\n\r\nevent RecoveredAddress(address indexed recovered);\r\nevent LogMessageHash(bytes32 indexed messageHash);\r\n   function getMessageHash(bytes32 _message) internal pure returns (bytes32) {\r\n        return keccak256(abi.encodePacked(_message));\r\n    }\r\n\r\n    function getEthSignedMessageHash(bytes32 _messageHash) internal pure returns (bytes32) {\r\n        return keccak256(abi.encodePacked(\"\\x19Ethereum Signed Message:\\n32\", _messageHash));\r\n    }\r\n\r\n    function recoverSigner(bytes32 _ethSignedMessageHash, bytes memory _signature) internal pure returns (address) {\r\n        (bytes32 r, bytes32 s, uint8 v) = splitSignature(_signature);\r\n        return ecrecover(_ethSignedMessageHash, v, r, s);\r\n    }\r\n\r\n    function splitSignature(bytes memory _signature) internal pure returns (bytes32 r, bytes32 s, uint8 v) {\r\n        require(_signature.length == 65, \"invalid signature length\");\r\n        assembly {\r\n            r := mload(add(_signature, 32))\r\n            s := mload(add(_signature, 64))\r\n            v := byte(0, mload(add(_signature, 96)))\r\n        }\r\n    }\r\n\r\n    function reveal(bytes32 _serverSeed, bytes memory signature) public {\r\n        require(serverSeedHash == keccak256(abi.encodePacked(_serverSeed, salt)), \"Invalid server seed\");\r\n        serverSeed = _serverSeed;\r\n\r\n        bytes32 messageHash = getMessageHash(_serverSeed);\r\n        bytes32 ethSignedMessageHash = getEthSignedMessageHash(messageHash);\r\n        address recoveredAddress = recoverSigner(ethSignedMessageHash, signature);\r\n\r\n        emit LogMessageHash(messageHash);\r\n        emit RecoveredAddress(recoveredAddress);\r\n\r\n        require(recoveredAddress == owner, \"Invalid signature\");\r\n        \r\n        bytes32 finalHash = keccak256(abi.encodePacked(serverSeed, userSeed, salt));\r\n        luckyNumber = uint256(finalHash) % 10;\r\n        luckyNumberCounts[luckyNumber] = luckyNumberCounts[luckyNumber] + 1;\r\n\r\n        emit Reveal(serverSeed, luckyNumber);\r\n         // mint NFT after the luckyNumber has been determined\r\n        mintNFT(player, luckyNumber);\r\n        \r\n    }\r\n // MintURI\r\nfunction mintNFT(address recipient, uint256 _luckyNumber) internal {\r\n    _tokenIdCounter.increment();\r\n    uint256 newTokenId = _tokenIdCounter.current();\r\n    _mint(recipient, newTokenId);\r\n    \r\n    tokenLuckyNumbers[newTokenId] = _luckyNumber;\r\n\r\n    // tokenURI\r\n    Prize memory prize = prizeMapping[_luckyNumber];\r\n    _tokenURIs[newTokenId] = prize.imageURL;\r\n        emit NFTMinted(recipient, newTokenId);\r\n\r\n}\r\n\r\n// IDURI\r\nfunction tokenURI(uint256 tokenId) public view override returns (string memory) {\r\n    return _tokenURIs[tokenId];\r\n}\r\nfunction getLuckyNumberForToken(uint256 tokenId) public view returns (uint256) {\r\n    return tokenLuckyNumbers[tokenId];\r\n}\r\n\r\nfunction setPrizesBulk(\r\n    uint256[] memory luckyNumbers, \r\n    string[] memory names, \r\n    string[] memory descriptions, \r\n    string[] memory imageURLs\r\n) public {\r\n    require(\r\n        luckyNumbers.length == names.length && \r\n        names.length == descriptions.length && \r\n        descriptions.length == imageURLs.length, \r\n        \"Array lengths mismatch\"\r\n    );\r\n\r\n    for (uint i = 0; i < luckyNumbers.length; i++) {\r\n        Prize memory newPrize = Prize({\r\n            name: names[i],\r\n            description: descriptions[i],\r\n            imageURL: imageURLs[i]\r\n        });\r\n\r\n        prizeMapping[luckyNumbers[i]] = newPrize;\r\n    }\r\n}\r\n function getAllTokensInfo() public view returns (TokenInfo[] memory) {\r\n        uint256 totalTokens = _tokenIdCounter.current();\r\n        TokenInfo[] memory tokens = new TokenInfo[](totalTokens);\r\n\r\n        for (uint256 i = 0; i < totalTokens; i++) {\r\n            uint256 tokenId = i + 1;  // ID1\r\n            address tokenOwner = ownerOf(tokenId);\r\n            uint256 luckyNumber = getLuckyNumberForToken(tokenId);\r\n            Prize memory prize = prizeMapping[luckyNumber];\r\n            tokens[i] = TokenInfo(tokenOwner, tokenId, luckyNumber, prize);\r\n        }\r\n        return tokens;\r\n    }\r\n\r\nfunction getLuckyNumberCount(uint256 _luckyNumber) public view returns (uint256) {\r\n    return luckyNumberCounts[_luckyNumber];\r\n}\r\n\r\n\r\n // Chainlink Automation Network\r\n    function checkUpkeep(bytes calldata /* checkData */) external override returns (bool upkeepNeeded, bytes memory /* performData */) {\r\n        // \r\n        // : revealDeadline\r\n        upkeepNeeded = (revealDeadline < block.timestamp) ;\r\n        return (upkeepNeeded, bytes(\"\"));\r\n    }\r\n\r\n    function performUpkeep(bytes calldata /* performData */) external override {\r\n        // checkUpkeeptrue\r\n   //     if (revealDeadline < block.timestamp) {\r\n              // \r\n    //uint256 luckyNumber = uint256(keccak256(abi.encodePacked(userSeed))) % 10;\r\n       bytes32 finalHash = keccak256(abi.encodePacked(userSeed));\r\n       luckyNumber = uint256(finalHash) % 10;\r\n       luckyNumberCounts[luckyNumber] = luckyNumberCounts[luckyNumber] + 1;\r\n\r\n\r\n    // NFT\r\n        mintNFT(player, luckyNumber);\r\n        emit Reveal(userSeed, luckyNumber);\r\n    }\r\n\r\n     // ERC721Refundable\r\n    function refund(uint256 tokenId) external override {\r\n        // \r\n        require(_exists(tokenId), \"ERC721Refundable: nonexistent token\");\r\n        // require(block.timestamp <= _tokenRefundDeadlines[tokenId], \"ERC721Refundable: refund deadline exceeded\");\r\n\r\n        address owner = ownerOf(tokenId);\r\n        require(msg.sender == owner, \"ERC721Refundable: refund request from non-owner\");\r\n\r\n        uint256 refundAmount = _tokenRefundPrices[tokenId];\r\n         _burn(tokenId);  // \r\n\r\n        payable(owner).transfer(refundAmount);\r\n        // _burn(tokenId);\r\n            // \r\n    _tokenRefundPrices[tokenId] = 0;\r\n    _tokenRefundDeadlines[tokenId] = 0;\r\n    }\r\n\r\n    function refundFrom(address from, uint256 tokenId) external override {\r\n    // \r\n    require(_exists(tokenId), \"ERC721Refundable: nonexistent token\");\r\n    // \r\n    require(block.timestamp <= _tokenRefundDeadlines[tokenId], \"ERC721Refundable: refund deadline exceeded\");\r\n    // \r\n    require(isApprovedOrOwner(msg.sender, tokenId), \"ERC721Refundable: refund request from non-approved\");\r\n    // 'from'\r\n    require(ownerOf(tokenId) == from, \"ERC721Refundable: refund request for wrong owner\");\r\n    // \r\n    uint256 refundAmount = _tokenRefundPrices[tokenId];\r\n    // \r\n    payable(from).transfer(refundAmount);\r\n    // \r\n    _burn(tokenId);\r\n}\r\nfunction isApprovedOrOwner(address spender, uint256 tokenId) public view returns (bool) {\r\n    return _isApprovedOrOwner(spender, tokenId);\r\n}\r\n\r\n\r\n    function refundOf(uint256 tokenId) external view override returns (uint256 _wei) {\r\n        return _tokenRefundPrices[tokenId];\r\n    }\r\n\r\n    function refundDeadlineOf(uint256 tokenId) external view override returns (uint256 block) {\r\n        return _tokenRefundDeadlines[tokenId];\r\n    }\r\n\r\n}\r\n",
  "sourcePath": "C:\\src\\truffle0\\contracts\\GachaNFTRefund.sol",
  "compiler": {
    "name": "solc",
    "version": "0.8.23+commit.f704f362.Emscripten.clang"
  },
  "schemaVersion": "3.4.16",
  "updatedAt": "2024-01-02T11:59:26.390Z",
  "networkType": "ethereum",
  "devdoc": {
    "events": {
      "Approval(address,address,uint256)": {
        "details": "Emitted when `owner` enables `approved` to manage the `tokenId` token."
      },
      "ApprovalForAll(address,address,bool)": {
        "details": "Emitted when `owner` enables or disables (`approved`) `operator` to manage all of its assets."
      },
      "Transfer(address,address,uint256)": {
        "details": "Emitted when `tokenId` token is transferred from `from` to `to`."
      }
    },
    "kind": "dev",
    "methods": {
      "approve(address,uint256)": {
        "details": "See {IERC721-approve}."
      },
      "balanceOf(address)": {
        "details": "See {IERC721-balanceOf}."
      },
      "getApproved(uint256)": {
        "details": "See {IERC721-getApproved}."
      },
      "isApprovedForAll(address,address)": {
        "details": "See {IERC721-isApprovedForAll}."
      },
      "name()": {
        "details": "See {IERC721Metadata-name}."
      },
      "ownerOf(uint256)": {
        "details": "See {IERC721-ownerOf}."
      },
      "safeTransferFrom(address,address,uint256)": {
        "details": "See {IERC721-safeTransferFrom}."
      },
      "safeTransferFrom(address,address,uint256,bytes)": {
        "details": "See {IERC721-safeTransferFrom}."
      },
      "setApprovalForAll(address,bool)": {
        "details": "See {IERC721-setApprovalForAll}."
      },
      "supportsInterface(bytes4)": {
        "details": "See {IERC165-supportsInterface}."
      },
      "symbol()": {
        "details": "See {IERC721Metadata-symbol}."
      },
      "tokenByIndex(uint256)": {
        "details": "See {IERC721Enumerable-tokenByIndex}."
      },
      "tokenOfOwnerByIndex(address,uint256)": {
        "details": "See {IERC721Enumerable-tokenOfOwnerByIndex}."
      },
      "tokenURI(uint256)": {
        "details": "See {IERC721Metadata-tokenURI}."
      },
      "totalSupply()": {
        "details": "See {IERC721Enumerable-totalSupply}."
      },
      "transferFrom(address,address,uint256)": {
        "details": "See {IERC721-transferFrom}."
      }
    },
    "version": 1
  },
  "userdoc": {
    "kind": "user",
    "methods": {},
    "version": 1
  }
}