{
  "contractName": "GachaGame",
  "abi": [
    {
      "inputs": [
        {
          "internalType": "uint256",
          "name": "_maxParticipants",
          "type": "uint256"
        }
      ],
      "stateMutability": "nonpayable",
      "type": "constructor"
    },
    {
      "anonymous": false,
      "inputs": [
        {
          "indexed": true,
          "internalType": "address",
          "name": "user",
          "type": "address"
        }
      ],
      "name": "CommitRequested",
      "type": "event"
    },
    {
      "anonymous": false,
      "inputs": [
        {
          "indexed": true,
          "internalType": "bytes32",
          "name": "serverSeedHash",
          "type": "bytes32"
        }
      ],
      "name": "Commitment",
      "type": "event"
    },
    {
      "anonymous": false,
      "inputs": [
        {
          "indexed": false,
          "internalType": "string",
          "name": "",
          "type": "string"
        }
      ],
      "name": "DebugLogEvent",
      "type": "event"
    },
    {
      "anonymous": false,
      "inputs": [
        {
          "indexed": true,
          "internalType": "bytes32",
          "name": "messageHash",
          "type": "bytes32"
        }
      ],
      "name": "LogMessageHash",
      "type": "event"
    },
    {
      "anonymous": false,
      "inputs": [
        {
          "indexed": true,
          "internalType": "address",
          "name": "player",
          "type": "address"
        },
        {
          "indexed": false,
          "internalType": "bytes32",
          "name": "userSeed",
          "type": "bytes32"
        }
      ],
      "name": "Participation",
      "type": "event"
    },
    {
      "anonymous": false,
      "inputs": [
        {
          "indexed": true,
          "internalType": "address",
          "name": "recovered",
          "type": "address"
        }
      ],
      "name": "RecoveredAddress",
      "type": "event"
    },
    {
      "anonymous": false,
      "inputs": [
        {
          "indexed": false,
          "internalType": "bytes32",
          "name": "serverSeed",
          "type": "bytes32"
        },
        {
          "indexed": false,
          "internalType": "uint256",
          "name": "luckyNumber",
          "type": "uint256"
        }
      ],
      "name": "Reveal",
      "type": "event"
    },
    {
      "inputs": [],
      "name": "isRevealed",
      "outputs": [
        {
          "internalType": "bool",
          "name": "",
          "type": "bool"
        }
      ],
      "stateMutability": "view",
      "type": "function"
    },
    {
      "inputs": [],
      "name": "luckyNumber",
      "outputs": [
        {
          "internalType": "uint256",
          "name": "",
          "type": "uint256"
        }
      ],
      "stateMutability": "view",
      "type": "function"
    },
    {
      "inputs": [],
      "name": "maxParticipants",
      "outputs": [
        {
          "internalType": "uint256",
          "name": "",
          "type": "uint256"
        }
      ],
      "stateMutability": "view",
      "type": "function"
    },
    {
      "inputs": [],
      "name": "owner",
      "outputs": [
        {
          "internalType": "address payable",
          "name": "",
          "type": "address"
        }
      ],
      "stateMutability": "view",
      "type": "function"
    },
    {
      "inputs": [],
      "name": "player",
      "outputs": [
        {
          "internalType": "address payable",
          "name": "",
          "type": "address"
        }
      ],
      "stateMutability": "view",
      "type": "function"
    },
    {
      "inputs": [],
      "name": "serverSeed",
      "outputs": [
        {
          "internalType": "bytes32",
          "name": "",
          "type": "bytes32"
        }
      ],
      "stateMutability": "view",
      "type": "function"
    },
    {
      "inputs": [],
      "name": "serverSeedHash",
      "outputs": [
        {
          "internalType": "bytes32",
          "name": "",
          "type": "bytes32"
        }
      ],
      "stateMutability": "view",
      "type": "function"
    },
    {
      "inputs": [
        {
          "internalType": "address",
          "name": "",
          "type": "address"
        },
        {
          "internalType": "bytes32",
          "name": "",
          "type": "bytes32"
        }
      ],
      "name": "usedUserSeeds",
      "outputs": [
        {
          "internalType": "bool",
          "name": "",
          "type": "bool"
        }
      ],
      "stateMutability": "view",
      "type": "function"
    },
    {
      "inputs": [],
      "name": "userSeed",
      "outputs": [
        {
          "internalType": "bytes32",
          "name": "",
          "type": "bytes32"
        }
      ],
      "stateMutability": "view",
      "type": "function"
    },
    {
      "inputs": [
        {
          "internalType": "bytes32",
          "name": "_serverSeedHash",
          "type": "bytes32"
        }
      ],
      "name": "commit",
      "outputs": [],
      "stateMutability": "nonpayable",
      "type": "function"
    },
    {
      "inputs": [
        {
          "internalType": "bytes32",
          "name": "_userSeed",
          "type": "bytes32"
        }
      ],
      "name": "participate",
      "outputs": [],
      "stateMutability": "payable",
      "type": "function"
    },
    {
      "inputs": [
        {
          "internalType": "bytes32",
          "name": "_serverSeed",
          "type": "bytes32"
        },
        {
          "internalType": "bytes",
          "name": "signature",
          "type": "bytes"
        }
      ],
      "name": "reveal",
      "outputs": [],
      "stateMutability": "nonpayable",
      "type": "function"
    }
  ],
  "bytecode": "0x608060405234801561000f575f80fd5b506040516110aa3803806110aa833981810160405281019061003191906100b4565b335f806101000a81548173ffffffffffffffffffffffffffffffffffffffff021916908373ffffffffffffffffffffffffffffffffffffffff16021790555080600281905550506100df565b5f80fd5b5f819050919050565b61009381610081565b811461009d575f80fd5b50565b5f815190506100ae8161008a565b92915050565b5f602082840312156100c9576100c861007d565b5b5f6100d6848285016100a0565b91505092915050565b610fbe806100ec5f395ff3fe6080604052600436106100a6575f3560e01c806368c282f21161006357806368c282f2146101aa5780637382901e146101d457806385205108146101fe5780638da5cb5b14610226578063bf205ebc14610250578063f14fcbc81461027a576100a6565b80630a14504c146100aa57806324924bf7146100c65780633ecce918146100f057806348db5f891461012c57806354214f691461015657806366bcb64214610180575b5f80fd5b6100c460048036038101906100bf91906108fa565b6102a2565b005b3480156100d1575f80fd5b506100da610404565b6040516100e7919061093d565b60405180910390f35b3480156100fb575f80fd5b50610116600480360381019061011191906109b0565b61040a565b6040516101239190610a08565b60405180910390f35b348015610137575f80fd5b50610140610434565b60405161014d9190610a41565b60405180910390f35b348015610161575f80fd5b5061016a610459565b6040516101779190610a08565b60405180910390f35b34801561018b575f80fd5b5061019461046b565b6040516101a19190610a69565b60405180910390f35b3480156101b5575f80fd5b506101be610471565b6040516101cb9190610a69565b60405180910390f35b3480156101df575f80fd5b506101e8610477565b6040516101f59190610a69565b60405180910390f35b348015610209575f80fd5b50610224600480360381019061021f9190610bbe565b61047d565b005b348015610231575f80fd5b5061023a61069a565b6040516102479190610a41565b60405180910390f35b34801561025b575f80fd5b506102646106bd565b604051610271919061093d565b60405180910390f35b348015610285575f80fd5b506102a0600480360381019061029b91906108fa565b6106c3565b005b806005819055503360015f6101000a81548173ffffffffffffffffffffffffffffffffffffffff021916908373ffffffffffffffffffffffffffffffffffffffff160217905550600160085f3373ffffffffffffffffffffffffffffffffffffffff1673ffffffffffffffffffffffffffffffffffffffff1681526020019081526020015f205f8381526020019081526020015f205f6101000a81548160ff02191690831515021790555060015f9054906101000a900473ffffffffffffffffffffffffffffffffffffffff1673ffffffffffffffffffffffffffffffffffffffff167fc197ebf15e8fe977ad5029df6077570283fa75a10103efc82970e4962d21eb306005546040516103b69190610a69565b60405180910390a23373ffffffffffffffffffffffffffffffffffffffff167f4b904c2bfe136ea68afa5ff4de7e0c7101664ebd64570c7f6f6f8d8b533d0ef060405160405180910390a250565b60025481565b6008602052815f5260405f20602052805f5260405f205f915091509054906101000a900460ff1681565b60015f9054906101000a900473ffffffffffffffffffffffffffffffffffffffff1681565b60075f9054906101000a900460ff1681565b60055481565b60045481565b60035481565b8160405160200161048e9190610c38565b60405160208183030381529060405280519060200120600354146104e7576040517f08c379a00000000000000000000000000000000000000000000000000000000081526004016104de90610cac565b60405180910390fd5b816004819055505f6104f883610789565b90505f610504826107b8565b90505f61051182856107e7565b9050827f5f23b605bd6c13580e1bd65c89aa5768674b0165fd8cc0a8a18819c7cd8a7c7860405160405180910390a28073ffffffffffffffffffffffffffffffffffffffff167f391f5edd7209ba797e8055bce97cab2d1a480a2849b0c7fe965c370457166dc460405160405180910390a25f8054906101000a900473ffffffffffffffffffffffffffffffffffffffff1673ffffffffffffffffffffffffffffffffffffffff168173ffffffffffffffffffffffffffffffffffffffff1614610610576040517f08c379a000000000000000000000000000000000000000000000000000000000815260040161060790610d14565b60405180910390fd5b5f600454600554604051602001610628929190610d32565b604051602081830303815290604052805190602001209050600a815f1c61064f9190610d8a565b6006819055507f6765f1b8ca6c099f7378c6e9b12cf8afac970d483c3faf81745e4b40c26148db60045460065460405161068a929190610dba565b60405180910390a1505050505050565b5f8054906101000a900473ffffffffffffffffffffffffffffffffffffffff1681565b60065481565b5f8054906101000a900473ffffffffffffffffffffffffffffffffffffffff1673ffffffffffffffffffffffffffffffffffffffff163373ffffffffffffffffffffffffffffffffffffffff1614610750576040517f08c379a000000000000000000000000000000000000000000000000000000000815260040161074790610e2b565b60405180910390fd5b806003819055506003547f522250e8a5d48ed8b6afbdb88fc1bb8ce6735c729835065b6840033c1d406f9060405160405180910390a250565b5f8160405160200161079b9190610c38565b604051602081830303815290604052805190602001209050919050565b5f816040516020016107ca9190610e9d565b604051602081830303815290604052805190602001209050919050565b5f805f806107f485610851565b9250925092506001868285856040515f815260200160405260405161081c9493929190610edd565b6020604051602081039080840390855afa15801561083c573d5f803e3d5ffd5b50505060206040510351935050505092915050565b5f805f6041845114610898576040517f08c379a000000000000000000000000000000000000000000000000000000000815260040161088f90610f6a565b60405180910390fd5b602084015192506040840151915060608401515f1a90509193909250565b5f604051905090565b5f80fd5b5f80fd5b5f819050919050565b6108d9816108c7565b81146108e3575f80fd5b50565b5f813590506108f4816108d0565b92915050565b5f6020828403121561090f5761090e6108bf565b5b5f61091c848285016108e6565b91505092915050565b5f819050919050565b61093781610925565b82525050565b5f6020820190506109505f83018461092e565b92915050565b5f73ffffffffffffffffffffffffffffffffffffffff82169050919050565b5f61097f82610956565b9050919050565b61098f81610975565b8114610999575f80fd5b50565b5f813590506109aa81610986565b92915050565b5f80604083850312156109c6576109c56108bf565b5b5f6109d38582860161099c565b92505060206109e4858286016108e6565b9150509250929050565b5f8115159050919050565b610a02816109ee565b82525050565b5f602082019050610a1b5f8301846109f9565b92915050565b5f610a2b82610956565b9050919050565b610a3b81610a21565b82525050565b5f602082019050610a545f830184610a32565b92915050565b610a63816108c7565b82525050565b5f602082019050610a7c5f830184610a5a565b92915050565b5f80fd5b5f80fd5b5f601f19601f8301169050919050565b7f4e487b71000000000000000000000000000000000000000000000000000000005f52604160045260245ffd5b610ad082610a8a565b810181811067ffffffffffffffff82111715610aef57610aee610a9a565b5b80604052505050565b5f610b016108b6565b9050610b0d8282610ac7565b919050565b5f67ffffffffffffffff821115610b2c57610b2b610a9a565b5b610b3582610a8a565b9050602081019050919050565b828183375f83830152505050565b5f610b62610b5d84610b12565b610af8565b905082815260208101848484011115610b7e57610b7d610a86565b5b610b89848285610b42565b509392505050565b5f82601f830112610ba557610ba4610a82565b5b8135610bb5848260208601610b50565b91505092915050565b5f8060408385031215610bd457610bd36108bf565b5b5f610be1858286016108e6565b925050602083013567ffffffffffffffff811115610c0257610c016108c3565b5b610c0e85828601610b91565b9150509250929050565b5f819050919050565b610c32610c2d826108c7565b610c18565b82525050565b5f610c438284610c21565b60208201915081905092915050565b5f82825260208201905092915050565b7f496e76616c6964207365727665722073656564000000000000000000000000005f82015250565b5f610c96601383610c52565b9150610ca182610c62565b602082019050919050565b5f6020820190508181035f830152610cc381610c8a565b9050919050565b7f496e76616c6964207369676e61747572650000000000000000000000000000005f82015250565b5f610cfe601183610c52565b9150610d0982610cca565b602082019050919050565b5f6020820190508181035f830152610d2b81610cf2565b9050919050565b5f610d3d8285610c21565b602082019150610d4d8284610c21565b6020820191508190509392505050565b7f4e487b71000000000000000000000000000000000000000000000000000000005f52601260045260245ffd5b5f610d9482610925565b9150610d9f83610925565b925082610daf57610dae610d5d565b5b828206905092915050565b5f604082019050610dcd5f830185610a5a565b610dda602083018461092e565b9392505050565b7f4f6e6c79206f776e65722063616e20636f6d6d697400000000000000000000005f82015250565b5f610e15601583610c52565b9150610e2082610de1565b602082019050919050565b5f6020820190508181035f830152610e4281610e09565b9050919050565b5f81905092915050565b7f19457468657265756d205369676e6564204d6573736167653a0a3332000000005f82015250565b5f610e87601c83610e49565b9150610e9282610e53565b601c82019050919050565b5f610ea782610e7b565b9150610eb38284610c21565b60208201915081905092915050565b5f60ff82169050919050565b610ed781610ec2565b82525050565b5f608082019050610ef05f830187610a5a565b610efd6020830186610ece565b610f0a6040830185610a5a565b610f176060830184610a5a565b95945050505050565b7f696e76616c6964207369676e6174757265206c656e67746800000000000000005f82015250565b5f610f54601883610c52565b9150610f5f82610f20565b602082019050919050565b5f6020820190508181035f830152610f8181610f48565b905091905056fea26469706673582212205f2e68dcd3cb1c280110fde4ce15a11014e50eeb63c0a80c105f904af1ed9a6364736f6c63430008170033",
  "immutableReferences": {},
  "source": "// SPDX-License-Identifier: MIT\r\n\r\npragma solidity >=0.4.22 <0.9.0;\r\n\r\nimport \"@openzeppelin/contracts/utils/cryptography/ECDSA.sol\";\r\n\r\ncontract GachaGame {\r\n    using ECDSA for bytes32;\r\n//0xdB246570d317400612c3782F0a208c6c51Ae5b22\r\n    address payable public owner;\r\n    address payable public player;\r\n    uint256 public maxParticipants;\r\n    bytes32 public serverSeedHash;  // Server seed hash for commitment\r\n    bytes32 public serverSeed;      // Server seed to be revealed later\r\n    bytes32 public userSeed;\r\n    uint256 public luckyNumber;\r\n    bool public isRevealed;\r\n\r\n    // Store used userSeed\r\n    mapping(address => mapping(bytes32 => bool)) public usedUserSeeds;\r\n\r\n    // Events\r\n    event Participation(address indexed player, bytes32 userSeed);\r\n    event Commitment(bytes32 indexed serverSeedHash);\r\n    event Reveal(bytes32 serverSeed, uint256 luckyNumber);\r\n    event CommitRequested(address indexed user);\r\n    event DebugLogEvent(string);  \r\n\r\n\r\n    constructor(uint256 _maxParticipants) public {\r\n        owner = payable(msg.sender);\r\n\r\n        maxParticipants = _maxParticipants;\r\n    }\r\n\r\n    // Owner commits a hashed server seed\r\n    function commit(bytes32 _serverSeedHash) public {\r\n        require(msg.sender == owner, \"Only owner can commit\");\r\n        serverSeedHash = _serverSeedHash;\r\n        emit Commitment(serverSeedHash);  // Emit Commitment event\r\n    }\r\n\r\n\r\n    function participate(bytes32 _userSeed) public payable {\r\n        userSeed = _userSeed;\r\n        player = payable(msg.sender);\r\n        usedUserSeeds[msg.sender][_userSeed] = true;\r\n        emit Participation(player, userSeed);  // Emit Participation event\r\n            // Emit the CommitRequested event\r\n        emit CommitRequested(msg.sender);\r\n    }\r\n\r\n\r\n    event RecoveredAddress(address indexed recovered);\r\n    event LogMessageHash(bytes32 indexed messageHash);\r\n   function getMessageHash(bytes32 _message) internal pure returns (bytes32) {\r\n        return keccak256(abi.encodePacked(_message));\r\n    }\r\n\r\n    function getEthSignedMessageHash(bytes32 _messageHash) internal pure returns (bytes32) {\r\n        return keccak256(abi.encodePacked(\"\\x19Ethereum Signed Message:\\n32\", _messageHash));\r\n    }\r\n\r\n    function recoverSigner(bytes32 _ethSignedMessageHash, bytes memory _signature) internal pure returns (address) {\r\n        (bytes32 r, bytes32 s, uint8 v) = splitSignature(_signature);\r\n        return ecrecover(_ethSignedMessageHash, v, r, s);\r\n    }\r\n\r\n    function splitSignature(bytes memory _signature) internal pure returns (bytes32 r, bytes32 s, uint8 v) {\r\n        require(_signature.length == 65, \"invalid signature length\");\r\n        assembly {\r\n            r := mload(add(_signature, 32))\r\n            s := mload(add(_signature, 64))\r\n            v := byte(0, mload(add(_signature, 96)))\r\n        }\r\n    }\r\n\r\n    function reveal(bytes32 _serverSeed, bytes memory signature) public {\r\n        require(serverSeedHash == keccak256(abi.encodePacked(_serverSeed)), \"Invalid server seed\");\r\n        serverSeed = _serverSeed;\r\n\r\n        bytes32 messageHash = getMessageHash(_serverSeed);\r\n        bytes32 ethSignedMessageHash = getEthSignedMessageHash(messageHash);\r\n        address recoveredAddress = recoverSigner(ethSignedMessageHash, signature);\r\n\r\n        emit LogMessageHash(messageHash);\r\n        emit RecoveredAddress(recoveredAddress);\r\n\r\n        require(recoveredAddress == owner, \"Invalid signature\");\r\n        \r\n        bytes32 finalHash = keccak256(abi.encodePacked(serverSeed, userSeed));\r\n        luckyNumber = uint256(finalHash) % 10;\r\n        emit Reveal(serverSeed, luckyNumber);\r\n    }\r\n\r\n}\r\n",
  "sourcePath": "C:\\src\\truffle0\\contracts\\GachaGame.sol",
  "compiler": {
    "name": "solc",
    "version": "0.8.23+commit.f704f362.Emscripten.clang"
  },
  "schemaVersion": "3.4.16",
  "updatedAt": "2024-01-02T11:56:41.459Z",
  "devdoc": {
    "kind": "dev",
    "methods": {},
    "version": 1
  },
  "userdoc": {
    "kind": "user",
    "methods": {},
    "version": 1
  }
}