{
  "contractName": "NFTContract",
  "abi": [
    {
      "inputs": [],
      "stateMutability": "nonpayable",
      "type": "constructor"
    },
    {
      "anonymous": false,
      "inputs": [
        {
          "indexed": true,
          "internalType": "address",
          "name": "owner",
          "type": "address"
        },
        {
          "indexed": true,
          "internalType": "address",
          "name": "approved",
          "type": "address"
        },
        {
          "indexed": true,
          "internalType": "uint256",
          "name": "tokenId",
          "type": "uint256"
        }
      ],
      "name": "Approval",
      "type": "event"
    },
    {
      "anonymous": false,
      "inputs": [
        {
          "indexed": true,
          "internalType": "address",
          "name": "owner",
          "type": "address"
        },
        {
          "indexed": true,
          "internalType": "address",
          "name": "operator",
          "type": "address"
        },
        {
          "indexed": false,
          "internalType": "bool",
          "name": "approved",
          "type": "bool"
        }
      ],
      "name": "ApprovalForAll",
      "type": "event"
    },
    {
      "anonymous": false,
      "inputs": [
        {
          "indexed": true,
          "internalType": "address",
          "name": "from",
          "type": "address"
        },
        {
          "indexed": true,
          "internalType": "address",
          "name": "to",
          "type": "address"
        },
        {
          "indexed": true,
          "internalType": "uint256",
          "name": "tokenId",
          "type": "uint256"
        }
      ],
      "name": "Transfer",
      "type": "event"
    },
    {
      "inputs": [
        {
          "internalType": "address",
          "name": "to",
          "type": "address"
        },
        {
          "internalType": "uint256",
          "name": "tokenId",
          "type": "uint256"
        }
      ],
      "name": "approve",
      "outputs": [],
      "stateMutability": "nonpayable",
      "type": "function"
    },
    {
      "inputs": [
        {
          "internalType": "address",
          "name": "owner",
          "type": "address"
        }
      ],
      "name": "balanceOf",
      "outputs": [
        {
          "internalType": "uint256",
          "name": "",
          "type": "uint256"
        }
      ],
      "stateMutability": "view",
      "type": "function"
    },
    {
      "inputs": [
        {
          "internalType": "uint256",
          "name": "tokenId",
          "type": "uint256"
        }
      ],
      "name": "getApproved",
      "outputs": [
        {
          "internalType": "address",
          "name": "",
          "type": "address"
        }
      ],
      "stateMutability": "view",
      "type": "function"
    },
    {
      "inputs": [
        {
          "internalType": "address",
          "name": "owner",
          "type": "address"
        },
        {
          "internalType": "address",
          "name": "operator",
          "type": "address"
        }
      ],
      "name": "isApprovedForAll",
      "outputs": [
        {
          "internalType": "bool",
          "name": "",
          "type": "bool"
        }
      ],
      "stateMutability": "view",
      "type": "function"
    },
    {
      "inputs": [],
      "name": "name",
      "outputs": [
        {
          "internalType": "string",
          "name": "",
          "type": "string"
        }
      ],
      "stateMutability": "view",
      "type": "function"
    },
    {
      "inputs": [
        {
          "internalType": "uint256",
          "name": "tokenId",
          "type": "uint256"
        }
      ],
      "name": "ownerOf",
      "outputs": [
        {
          "internalType": "address",
          "name": "",
          "type": "address"
        }
      ],
      "stateMutability": "view",
      "type": "function"
    },
    {
      "inputs": [
        {
          "internalType": "address",
          "name": "from",
          "type": "address"
        },
        {
          "internalType": "address",
          "name": "to",
          "type": "address"
        },
        {
          "internalType": "uint256",
          "name": "tokenId",
          "type": "uint256"
        }
      ],
      "name": "safeTransferFrom",
      "outputs": [],
      "stateMutability": "nonpayable",
      "type": "function"
    },
    {
      "inputs": [
        {
          "internalType": "address",
          "name": "from",
          "type": "address"
        },
        {
          "internalType": "address",
          "name": "to",
          "type": "address"
        },
        {
          "internalType": "uint256",
          "name": "tokenId",
          "type": "uint256"
        },
        {
          "internalType": "bytes",
          "name": "data",
          "type": "bytes"
        }
      ],
      "name": "safeTransferFrom",
      "outputs": [],
      "stateMutability": "nonpayable",
      "type": "function"
    },
    {
      "inputs": [
        {
          "internalType": "address",
          "name": "operator",
          "type": "address"
        },
        {
          "internalType": "bool",
          "name": "approved",
          "type": "bool"
        }
      ],
      "name": "setApprovalForAll",
      "outputs": [],
      "stateMutability": "nonpayable",
      "type": "function"
    },
    {
      "inputs": [
        {
          "internalType": "bytes4",
          "name": "interfaceId",
          "type": "bytes4"
        }
      ],
      "name": "supportsInterface",
      "outputs": [
        {
          "internalType": "bool",
          "name": "",
          "type": "bool"
        }
      ],
      "stateMutability": "view",
      "type": "function"
    },
    {
      "inputs": [],
      "name": "symbol",
      "outputs": [
        {
          "internalType": "string",
          "name": "",
          "type": "string"
        }
      ],
      "stateMutability": "view",
      "type": "function"
    },
    {
      "inputs": [
        {
          "internalType": "uint256",
          "name": "index",
          "type": "uint256"
        }
      ],
      "name": "tokenByIndex",
      "outputs": [
        {
          "internalType": "uint256",
          "name": "",
          "type": "uint256"
        }
      ],
      "stateMutability": "view",
      "type": "function"
    },
    {
      "inputs": [
        {
          "internalType": "address",
          "name": "owner",
          "type": "address"
        },
        {
          "internalType": "uint256",
          "name": "index",
          "type": "uint256"
        }
      ],
      "name": "tokenOfOwnerByIndex",
      "outputs": [
        {
          "internalType": "uint256",
          "name": "",
          "type": "uint256"
        }
      ],
      "stateMutability": "view",
      "type": "function"
    },
    {
      "inputs": [],
      "name": "totalSupply",
      "outputs": [
        {
          "internalType": "uint256",
          "name": "",
          "type": "uint256"
        }
      ],
      "stateMutability": "view",
      "type": "function"
    },
    {
      "inputs": [
        {
          "internalType": "address",
          "name": "from",
          "type": "address"
        },
        {
          "internalType": "address",
          "name": "to",
          "type": "address"
        },
        {
          "internalType": "uint256",
          "name": "tokenId",
          "type": "uint256"
        }
      ],
      "name": "transferFrom",
      "outputs": [],
      "stateMutability": "nonpayable",
      "type": "function"
    },
    {
      "inputs": [
        {
          "internalType": "address",
          "name": "to",
          "type": "address"
        }
      ],
      "name": "mint",
      "outputs": [],
      "stateMutability": "nonpayable",
      "type": "function"
    },
    {
      "inputs": [
        {
          "internalType": "uint256",
          "name": "tokenId",
          "type": "uint256"
        },
        {
          "internalType": "string",
          "name": "_tokenURI",
          "type": "string"
        }
      ],
      "name": "setTokenURI",
      "outputs": [],
      "stateMutability": "nonpayable",
      "type": "function"
    },
    {
      "inputs": [
        {
          "internalType": "uint256",
          "name": "tokenId",
          "type": "uint256"
        }
      ],
      "name": "tokenURI",
      "outputs": [
        {
          "internalType": "string",
          "name": "",
          "type": "string"
        }
      ],
      "stateMutability": "view",
      "type": "function"
    }
  ],
  "bytecode": "0x608060405234801562000010575f80fd5b506040518060400160405280600981526020017f546f6b656e4e616d6500000000000000000000000000000000000000000000008152506040518060400160405280600b81526020017f546f6b656e53796d626f6c000000000000000000000000000000000000000000815250815f90816200008d91906200030c565b5080600190816200009f91906200030c565b505050620003f0565b5f81519050919050565b7f4e487b71000000000000000000000000000000000000000000000000000000005f52604160045260245ffd5b7f4e487b71000000000000000000000000000000000000000000000000000000005f52602260045260245ffd5b5f60028204905060018216806200012457607f821691505b6020821081036200013a5762000139620000df565b5b50919050565b5f819050815f5260205f209050919050565b5f6020601f8301049050919050565b5f82821b905092915050565b5f600883026200019e7fffffffffffffffffffffffffffffffffffffffffffffffffffffffffffffffff8262000161565b620001aa868362000161565b95508019841693508086168417925050509392505050565b5f819050919050565b5f819050919050565b5f620001f4620001ee620001e884620001c2565b620001cb565b620001c2565b9050919050565b5f819050919050565b6200020f83620001d4565b620002276200021e82620001fb565b8484546200016d565b825550505050565b5f90565b6200023d6200022f565b6200024a81848462000204565b505050565b5b818110156200027157620002655f8262000233565b60018101905062000250565b5050565b601f821115620002c0576200028a8162000140565b620002958462000152565b81016020851015620002a5578190505b620002bd620002b48562000152565b8301826200024f565b50505b505050565b5f82821c905092915050565b5f620002e25f1984600802620002c5565b1980831691505092915050565b5f620002fc8383620002d1565b9150826002028217905092915050565b6200031782620000a8565b67ffffffffffffffff811115620003335762000332620000b2565b5b6200033f82546200010c565b6200034c82828562000275565b5f60209050601f83116001811462000382575f84156200036d578287015190505b620003798582620002ef565b865550620003e8565b601f198416620003928662000140565b5f5b82811015620003bb5784890151825560018201915060208501945060208101905062000394565b86831015620003db5784890151620003d7601f891682620002d1565b8355505b6001600288020188555050505b505050505050565b612e7080620003fe5f395ff3fe608060405234801561000f575f80fd5b5060043610610114575f3560e01c80634f6ccce7116100a057806395d89b411161006f57806395d89b4114610300578063a22cb4651461031e578063b88d4fde1461033a578063c87b56dd14610356578063e985e9c51461038657610114565b80634f6ccce7146102545780636352211e146102845780636a627842146102b457806370a08231146102d057610114565b8063162094c4116100e7578063162094c4146101b257806318160ddd146101ce57806323b872dd146101ec5780632f745c591461020857806342842e0e1461023857610114565b806301ffc9a71461011857806306fdde0314610148578063081812fc14610166578063095ea7b314610196575b5f80fd5b610132600480360381019061012d9190611c35565b6103b6565b60405161013f9190611c7a565b60405180910390f35b61015061042f565b60405161015d9190611d1d565b60405180910390f35b610180600480360381019061017b9190611d70565b6104be565b60405161018d9190611dda565b60405180910390f35b6101b060048036038101906101ab9190611e1d565b610500565b005b6101cc60048036038101906101c79190611f87565b610616565b005b6101d6610689565b6040516101e39190611ff0565b60405180910390f35b61020660048036038101906102019190612009565b610695565b005b610222600480360381019061021d9190611e1d565b6106f5565b60405161022f9190611ff0565b60405180910390f35b610252600480360381019061024d9190612009565b610795565b005b61026e60048036038101906102699190611d70565b6107b4565b60405161027b9190611ff0565b60405180910390f35b61029e60048036038101906102999190611d70565b610822565b6040516102ab9190611dda565b60405180910390f35b6102ce60048036038101906102c99190612059565b6108a6565b005b6102ea60048036038101906102e59190612059565b6108c6565b6040516102f79190611ff0565b60405180910390f35b61030861097a565b6040516103159190611d1d565b60405180910390f35b610338600480360381019061033391906120ae565b610a0a565b005b610354600480360381019061034f919061218a565b610a20565b005b610370600480360381019061036b9190611d70565b610a82565b60405161037d9190611d1d565b60405180910390f35b6103a0600480360381019061039b919061220a565b610b23565b6040516103ad9190611c7a565b60405180910390f35b5f7f780e9d63000000000000000000000000000000000000000000000000000000007bffffffffffffffffffffffffffffffffffffffffffffffffffffffff1916827bffffffffffffffffffffffffffffffffffffffffffffffffffffffff19161480610428575061042782610bb1565b5b9050919050565b60605f805461043d90612275565b80601f016020809104026020016040519081016040528092919081815260200182805461046990612275565b80156104b45780601f1061048b576101008083540402835291602001916104b4565b820191905f5260205f20905b81548152906001019060200180831161049757829003601f168201915b5050505050905090565b5f6104c882610c92565b60045f8381526020019081526020015f205f9054906101000a900473ffffffffffffffffffffffffffffffffffffffff169050919050565b5f61050a82610822565b90508073ffffffffffffffffffffffffffffffffffffffff168373ffffffffffffffffffffffffffffffffffffffff160361057a576040517f08c379a000000000000000000000000000000000000000000000000000000000815260040161057190612315565b60405180910390fd5b8073ffffffffffffffffffffffffffffffffffffffff16610599610cdd565b73ffffffffffffffffffffffffffffffffffffffff1614806105c857506105c7816105c2610cdd565b610b23565b5b610607576040517f08c379a00000000000000000000000000000000000000000000000000000000081526004016105fe906123a3565b60405180910390fd5b6106118383610ce4565b505050565b610627610621610cdd565b83610d9a565b610666576040517f08c379a000000000000000000000000000000000000000000000000000000000815260040161065d9061240b565b60405180910390fd5b80600b5f8481526020019081526020015f20908161068491906125c6565b505050565b5f600880549050905090565b6106a66106a0610cdd565b82610d9a565b6106e5576040517f08c379a00000000000000000000000000000000000000000000000000000000081526004016106dc90612705565b60405180910390fd5b6106f0838383610e2e565b505050565b5f6106ff836108c6565b8210610740576040517f08c379a000000000000000000000000000000000000000000000000000000000815260040161073790612793565b60405180910390fd5b60065f8473ffffffffffffffffffffffffffffffffffffffff1673ffffffffffffffffffffffffffffffffffffffff1681526020019081526020015f205f8381526020019081526020015f2054905092915050565b6107af83838360405180602001604052805f815250610a20565b505050565b5f6107bd610689565b82106107fe576040517f08c379a00000000000000000000000000000000000000000000000000000000081526004016107f590612821565b60405180910390fd5b600882815481106108125761081161283f565b5b905f5260205f2001549050919050565b5f8061082d8361111a565b90505f73ffffffffffffffffffffffffffffffffffffffff168173ffffffffffffffffffffffffffffffffffffffff160361089d576040517f08c379a0000000000000000000000000000000000000000000000000000000008152600401610894906128b6565b60405180910390fd5b80915050919050565b6108b0600a611153565b6108c3816108be600a611167565b611173565b50565b5f8073ffffffffffffffffffffffffffffffffffffffff168273ffffffffffffffffffffffffffffffffffffffff1603610935576040517f08c379a000000000000000000000000000000000000000000000000000000000815260040161092c90612944565b60405180910390fd5b60035f8373ffffffffffffffffffffffffffffffffffffffff1673ffffffffffffffffffffffffffffffffffffffff1681526020019081526020015f20549050919050565b60606001805461098990612275565b80601f01602080910402602001604051908101604052809291908181526020018280546109b590612275565b8015610a005780601f106109d757610100808354040283529160200191610a00565b820191905f5260205f20905b8154815290600101906020018083116109e357829003601f168201915b5050505050905090565b610a1c610a15610cdd565b8383611386565b5050565b610a31610a2b610cdd565b83610d9a565b610a70576040517f08c379a0000000000000000000000000000000000000000000000000000000008152600401610a6790612705565b60405180910390fd5b610a7c848484846114ed565b50505050565b6060600b5f8381526020019081526020015f208054610aa090612275565b80601f0160208091040260200160405190810160405280929190818152602001828054610acc90612275565b8015610b175780601f10610aee57610100808354040283529160200191610b17565b820191905f5260205f20905b815481529060010190602001808311610afa57829003601f168201915b50505050509050919050565b5f60055f8473ffffffffffffffffffffffffffffffffffffffff1673ffffffffffffffffffffffffffffffffffffffff1681526020019081526020015f205f8373ffffffffffffffffffffffffffffffffffffffff1673ffffffffffffffffffffffffffffffffffffffff1681526020019081526020015f205f9054906101000a900460ff16905092915050565b5f7f80ac58cd000000000000000000000000000000000000000000000000000000007bffffffffffffffffffffffffffffffffffffffffffffffffffffffff1916827bffffffffffffffffffffffffffffffffffffffffffffffffffffffff19161480610c7b57507f5b5e139f000000000000000000000000000000000000000000000000000000007bffffffffffffffffffffffffffffffffffffffffffffffffffffffff1916827bffffffffffffffffffffffffffffffffffffffffffffffffffffffff1916145b80610c8b5750610c8a82611549565b5b9050919050565b610c9b816115b2565b610cda576040517f08c379a0000000000000000000000000000000000000000000000000000000008152600401610cd1906128b6565b60405180910390fd5b50565b5f33905090565b8160045f8381526020019081526020015f205f6101000a81548173ffffffffffffffffffffffffffffffffffffffff021916908373ffffffffffffffffffffffffffffffffffffffff160217905550808273ffffffffffffffffffffffffffffffffffffffff16610d5483610822565b73ffffffffffffffffffffffffffffffffffffffff167f8c5be1e5ebec7d5bd14f71427d1e84f3dd0314c0f7b2291e5b200ac8c7c3b92560405160405180910390a45050565b5f80610da583610822565b90508073ffffffffffffffffffffffffffffffffffffffff168473ffffffffffffffffffffffffffffffffffffffff161480610de75750610de68185610b23565b5b80610e2557508373ffffffffffffffffffffffffffffffffffffffff16610e0d846104be565b73ffffffffffffffffffffffffffffffffffffffff16145b91505092915050565b8273ffffffffffffffffffffffffffffffffffffffff16610e4e82610822565b73ffffffffffffffffffffffffffffffffffffffff1614610ea4576040517f08c379a0000000000000000000000000000000000000000000000000000000008152600401610e9b906129d2565b60405180910390fd5b5f73ffffffffffffffffffffffffffffffffffffffff168273ffffffffffffffffffffffffffffffffffffffff1603610f12576040517f08c379a0000000000000000000000000000000000000000000000000000000008152600401610f0990612a60565b60405180910390fd5b610f1f83838360016115f2565b8273ffffffffffffffffffffffffffffffffffffffff16610f3f82610822565b73ffffffffffffffffffffffffffffffffffffffff1614610f95576040517f08c379a0000000000000000000000000000000000000000000000000000000008152600401610f8c906129d2565b60405180910390fd5b60045f8281526020019081526020015f205f6101000a81549073ffffffffffffffffffffffffffffffffffffffff0219169055600160035f8573ffffffffffffffffffffffffffffffffffffffff1673ffffffffffffffffffffffffffffffffffffffff1681526020019081526020015f205f8282540392505081905550600160035f8473ffffffffffffffffffffffffffffffffffffffff1673ffffffffffffffffffffffffffffffffffffffff1681526020019081526020015f205f82825401925050819055508160025f8381526020019081526020015f205f6101000a81548173ffffffffffffffffffffffffffffffffffffffff021916908373ffffffffffffffffffffffffffffffffffffffff160217905550808273ffffffffffffffffffffffffffffffffffffffff168473ffffffffffffffffffffffffffffffffffffffff167fddf252ad1be2c89b69c2b068fc378daa952ba7f163c4a11628f55a4df523b3ef60405160405180910390a4611115838383600161174d565b505050565b5f60025f8381526020019081526020015f205f9054906101000a900473ffffffffffffffffffffffffffffffffffffffff169050919050565b6001815f015f828254019250508190555050565b5f815f01549050919050565b5f73ffffffffffffffffffffffffffffffffffffffff168273ffffffffffffffffffffffffffffffffffffffff16036111e1576040517f08c379a00000000000000000000000000000000000000000000000000000000081526004016111d890612ac8565b60405180910390fd5b6111ea816115b2565b1561122a576040517f08c379a000000000000000000000000000000000000000000000000000000000815260040161122190612b30565b60405180910390fd5b6112375f838360016115f2565b611240816115b2565b15611280576040517f08c379a000000000000000000000000000000000000000000000000000000000815260040161127790612b30565b60405180910390fd5b600160035f8473ffffffffffffffffffffffffffffffffffffffff1673ffffffffffffffffffffffffffffffffffffffff1681526020019081526020015f205f82825401925050819055508160025f8381526020019081526020015f205f6101000a81548173ffffffffffffffffffffffffffffffffffffffff021916908373ffffffffffffffffffffffffffffffffffffffff160217905550808273ffffffffffffffffffffffffffffffffffffffff165f73ffffffffffffffffffffffffffffffffffffffff167fddf252ad1be2c89b69c2b068fc378daa952ba7f163c4a11628f55a4df523b3ef60405160405180910390a46113825f8383600161174d565b5050565b8173ffffffffffffffffffffffffffffffffffffffff168373ffffffffffffffffffffffffffffffffffffffff16036113f4576040517f08c379a00000000000000000000000000000000000000000000000000000000081526004016113eb90612b98565b60405180910390fd5b8060055f8573ffffffffffffffffffffffffffffffffffffffff1673ffffffffffffffffffffffffffffffffffffffff1681526020019081526020015f205f8473ffffffffffffffffffffffffffffffffffffffff1673ffffffffffffffffffffffffffffffffffffffff1681526020019081526020015f205f6101000a81548160ff0219169083151502179055508173ffffffffffffffffffffffffffffffffffffffff168373ffffffffffffffffffffffffffffffffffffffff167f17307eab39ab6107e8899845ad3d59bd9653f200f220920489ca2b5937696c31836040516114e09190611c7a565b60405180910390a3505050565b6114f8848484610e2e565b61150484848484611753565b611543576040517f08c379a000000000000000000000000000000000000000000000000000000000815260040161153a90612c26565b60405180910390fd5b50505050565b5f7f01ffc9a7000000000000000000000000000000000000000000000000000000007bffffffffffffffffffffffffffffffffffffffffffffffffffffffff1916827bffffffffffffffffffffffffffffffffffffffffffffffffffffffff1916149050919050565b5f8073ffffffffffffffffffffffffffffffffffffffff166115d38361111a565b73ffffffffffffffffffffffffffffffffffffffff1614159050919050565b6115fe848484846118d5565b6001811115611642576040517f08c379a000000000000000000000000000000000000000000000000000000000815260040161163990612cb4565b60405180910390fd5b5f8290505f73ffffffffffffffffffffffffffffffffffffffff168573ffffffffffffffffffffffffffffffffffffffff160361168757611682816118db565b6116c6565b8373ffffffffffffffffffffffffffffffffffffffff168573ffffffffffffffffffffffffffffffffffffffff16146116c5576116c4858261191f565b5b5b5f73ffffffffffffffffffffffffffffffffffffffff168473ffffffffffffffffffffffffffffffffffffffff16036117075761170281611a75565b611746565b8473ffffffffffffffffffffffffffffffffffffffff168473ffffffffffffffffffffffffffffffffffffffff1614611745576117448482611b35565b5b5b5050505050565b50505050565b5f6117738473ffffffffffffffffffffffffffffffffffffffff16611bad565b156118c8578373ffffffffffffffffffffffffffffffffffffffff1663150b7a0261179c610cdd565b8786866040518563ffffffff1660e01b81526004016117be9493929190612d24565b6020604051808303815f875af19250505080156117f957506040513d601f19601f820116820180604052508101906117f69190612d82565b60015b611878573d805f8114611827576040519150601f19603f3d011682016040523d82523d5f602084013e61182c565b606091505b505f815103611870576040517f08c379a000000000000000000000000000000000000000000000000000000000815260040161186790612c26565b60405180910390fd5b805181602001fd5b63150b7a0260e01b7bffffffffffffffffffffffffffffffffffffffffffffffffffffffff1916817bffffffffffffffffffffffffffffffffffffffffffffffffffffffff1916149150506118cd565b600190505b949350505050565b50505050565b60088054905060095f8381526020019081526020015f2081905550600881908060018154018082558091505060019003905f5260205f20015f909190919091505550565b5f600161192b846108c6565b6119359190612dda565b90505f60075f8481526020019081526020015f20549050818114611a0c575f60065f8673ffffffffffffffffffffffffffffffffffffffff1673ffffffffffffffffffffffffffffffffffffffff1681526020019081526020015f205f8481526020019081526020015f205490508060065f8773ffffffffffffffffffffffffffffffffffffffff1673ffffffffffffffffffffffffffffffffffffffff1681526020019081526020015f205f8481526020019081526020015f20819055508160075f8381526020019081526020015f2081905550505b60075f8481526020019081526020015f205f905560065f8573ffffffffffffffffffffffffffffffffffffffff1673ffffffffffffffffffffffffffffffffffffffff1681526020019081526020015f205f8381526020019081526020015f205f905550505050565b5f6001600880549050611a889190612dda565b90505f60095f8481526020019081526020015f205490505f60088381548110611ab457611ab361283f565b5b905f5260205f20015490508060088381548110611ad457611ad361283f565b5b905f5260205f2001819055508160095f8381526020019081526020015f208190555060095f8581526020019081526020015f205f90556008805480611b1c57611b1b612e0d565b5b600190038181905f5260205f20015f9055905550505050565b5f611b3f836108c6565b90508160065f8573ffffffffffffffffffffffffffffffffffffffff1673ffffffffffffffffffffffffffffffffffffffff1681526020019081526020015f205f8381526020019081526020015f20819055508060075f8481526020019081526020015f2081905550505050565b5f808273ffffffffffffffffffffffffffffffffffffffff163b119050919050565b5f604051905090565b5f80fd5b5f80fd5b5f7fffffffff0000000000000000000000000000000000000000000000000000000082169050919050565b611c1481611be0565b8114611c1e575f80fd5b50565b5f81359050611c2f81611c0b565b92915050565b5f60208284031215611c4a57611c49611bd8565b5b5f611c5784828501611c21565b91505092915050565b5f8115159050919050565b611c7481611c60565b82525050565b5f602082019050611c8d5f830184611c6b565b92915050565b5f81519050919050565b5f82825260208201905092915050565b5f5b83811015611cca578082015181840152602081019050611caf565b5f8484015250505050565b5f601f19601f8301169050919050565b5f611cef82611c93565b611cf98185611c9d565b9350611d09818560208601611cad565b611d1281611cd5565b840191505092915050565b5f6020820190508181035f830152611d358184611ce5565b905092915050565b5f819050919050565b611d4f81611d3d565b8114611d59575f80fd5b50565b5f81359050611d6a81611d46565b92915050565b5f60208284031215611d8557611d84611bd8565b5b5f611d9284828501611d5c565b91505092915050565b5f73ffffffffffffffffffffffffffffffffffffffff82169050919050565b5f611dc482611d9b565b9050919050565b611dd481611dba565b82525050565b5f602082019050611ded5f830184611dcb565b92915050565b611dfc81611dba565b8114611e06575f80fd5b50565b5f81359050611e1781611df3565b92915050565b5f8060408385031215611e3357611e32611bd8565b5b5f611e4085828601611e09565b9250506020611e5185828601611d5c565b9150509250929050565b5f80fd5b5f80fd5b7f4e487b71000000000000000000000000000000000000000000000000000000005f52604160045260245ffd5b611e9982611cd5565b810181811067ffffffffffffffff82111715611eb857611eb7611e63565b5b80604052505050565b5f611eca611bcf565b9050611ed68282611e90565b919050565b5f67ffffffffffffffff821115611ef557611ef4611e63565b5b611efe82611cd5565b9050602081019050919050565b828183375f83830152505050565b5f611f2b611f2684611edb565b611ec1565b905082815260208101848484011115611f4757611f46611e5f565b5b611f52848285611f0b565b509392505050565b5f82601f830112611f6e57611f6d611e5b565b5b8135611f7e848260208601611f19565b91505092915050565b5f8060408385031215611f9d57611f9c611bd8565b5b5f611faa85828601611d5c565b925050602083013567ffffffffffffffff811115611fcb57611fca611bdc565b5b611fd785828601611f5a565b9150509250929050565b611fea81611d3d565b82525050565b5f6020820190506120035f830184611fe1565b92915050565b5f805f606084860312156120205761201f611bd8565b5b5f61202d86828701611e09565b935050602061203e86828701611e09565b925050604061204f86828701611d5c565b9150509250925092565b5f6020828403121561206e5761206d611bd8565b5b5f61207b84828501611e09565b91505092915050565b61208d81611c60565b8114612097575f80fd5b50565b5f813590506120a881612084565b92915050565b5f80604083850312156120c4576120c3611bd8565b5b5f6120d185828601611e09565b92505060206120e28582860161209a565b9150509250929050565b5f67ffffffffffffffff82111561210657612105611e63565b5b61210f82611cd5565b9050602081019050919050565b5f61212e612129846120ec565b611ec1565b90508281526020810184848401111561214a57612149611e5f565b5b612155848285611f0b565b509392505050565b5f82601f83011261217157612170611e5b565b5b813561218184826020860161211c565b91505092915050565b5f805f80608085870312156121a2576121a1611bd8565b5b5f6121af87828801611e09565b94505060206121c087828801611e09565b93505060406121d187828801611d5c565b925050606085013567ffffffffffffffff8111156121f2576121f1611bdc565b5b6121fe8782880161215d565b91505092959194509250565b5f80604083850312156122205761221f611bd8565b5b5f61222d85828601611e09565b925050602061223e85828601611e09565b9150509250929050565b7f4e487b71000000000000000000000000000000000000000000000000000000005f52602260045260245ffd5b5f600282049050600182168061228c57607f821691505b60208210810361229f5761229e612248565b5b50919050565b7f4552433732313a20617070726f76616c20746f2063757272656e74206f776e655f8201527f7200000000000000000000000000000000000000000000000000000000000000602082015250565b5f6122ff602183611c9d565b915061230a826122a5565b604082019050919050565b5f6020820190508181035f83015261232c816122f3565b9050919050565b7f4552433732313a20617070726f76652063616c6c6572206973206e6f7420746f5f8201527f6b656e206f776e6572206f7220617070726f76656420666f7220616c6c000000602082015250565b5f61238d603d83611c9d565b915061239882612333565b604082019050919050565b5f6020820190508181035f8301526123ba81612381565b9050919050565b7f4e6f74206f776e6572206e6f7220617070726f766564000000000000000000005f82015250565b5f6123f5601683611c9d565b9150612400826123c1565b602082019050919050565b5f6020820190508181035f830152612422816123e9565b9050919050565b5f819050815f5260205f209050919050565b5f6020601f8301049050919050565b5f82821b905092915050565b5f600883026124857fffffffffffffffffffffffffffffffffffffffffffffffffffffffffffffffff8261244a565b61248f868361244a565b95508019841693508086168417925050509392505050565b5f819050919050565b5f6124ca6124c56124c084611d3d565b6124a7565b611d3d565b9050919050565b5f819050919050565b6124e3836124b0565b6124f76124ef826124d1565b848454612456565b825550505050565b5f90565b61250b6124ff565b6125168184846124da565b505050565b5b818110156125395761252e5f82612503565b60018101905061251c565b5050565b601f82111561257e5761254f81612429565b6125588461243b565b81016020851015612567578190505b61257b6125738561243b565b83018261251b565b50505b505050565b5f82821c905092915050565b5f61259e5f1984600802612583565b1980831691505092915050565b5f6125b6838361258f565b9150826002028217905092915050565b6125cf82611c93565b67ffffffffffffffff8111156125e8576125e7611e63565b5b6125f28254612275565b6125fd82828561253d565b5f60209050601f83116001811461262e575f841561261c578287015190505b61262685826125ab565b86555061268d565b601f19841661263c86612429565b5f5b828110156126635784890151825560018201915060208501945060208101905061263e565b86831015612680578489015161267c601f89168261258f565b8355505b6001600288020188555050505b505050505050565b7f4552433732313a2063616c6c6572206973206e6f7420746f6b656e206f776e655f8201527f72206f7220617070726f76656400000000000000000000000000000000000000602082015250565b5f6126ef602d83611c9d565b91506126fa82612695565b604082019050919050565b5f6020820190508181035f83015261271c816126e3565b9050919050565b7f455243373231456e756d657261626c653a206f776e657220696e646578206f755f8201527f74206f6620626f756e6473000000000000000000000000000000000000000000602082015250565b5f61277d602b83611c9d565b915061278882612723565b604082019050919050565b5f6020820190508181035f8301526127aa81612771565b9050919050565b7f455243373231456e756d657261626c653a20676c6f62616c20696e646578206f5f8201527f7574206f6620626f756e64730000000000000000000000000000000000000000602082015250565b5f61280b602c83611c9d565b9150612816826127b1565b604082019050919050565b5f6020820190508181035f830152612838816127ff565b9050919050565b7f4e487b71000000000000000000000000000000000000000000000000000000005f52603260045260245ffd5b7f4552433732313a20696e76616c696420746f6b656e20494400000000000000005f82015250565b5f6128a0601883611c9d565b91506128ab8261286c565b602082019050919050565b5f6020820190508181035f8301526128cd81612894565b9050919050565b7f4552433732313a2061646472657373207a65726f206973206e6f7420612076615f8201527f6c6964206f776e65720000000000000000000000000000000000000000000000602082015250565b5f61292e602983611c9d565b9150612939826128d4565b604082019050919050565b5f6020820190508181035f83015261295b81612922565b9050919050565b7f4552433732313a207472616e736665722066726f6d20696e636f7272656374205f8201527f6f776e6572000000000000000000000000000000000000000000000000000000602082015250565b5f6129bc602583611c9d565b91506129c782612962565b604082019050919050565b5f6020820190508181035f8301526129e9816129b0565b9050919050565b7f4552433732313a207472616e7366657220746f20746865207a65726f206164645f8201527f7265737300000000000000000000000000000000000000000000000000000000602082015250565b5f612a4a602483611c9d565b9150612a55826129f0565b604082019050919050565b5f6020820190508181035f830152612a7781612a3e565b9050919050565b7f4552433732313a206d696e7420746f20746865207a65726f20616464726573735f82015250565b5f612ab2602083611c9d565b9150612abd82612a7e565b602082019050919050565b5f6020820190508181035f830152612adf81612aa6565b9050919050565b7f4552433732313a20746f6b656e20616c7265616479206d696e746564000000005f82015250565b5f612b1a601c83611c9d565b9150612b2582612ae6565b602082019050919050565b5f6020820190508181035f830152612b4781612b0e565b9050919050565b7f4552433732313a20617070726f766520746f2063616c6c6572000000000000005f82015250565b5f612b82601983611c9d565b9150612b8d82612b4e565b602082019050919050565b5f6020820190508181035f830152612baf81612b76565b9050919050565b7f4552433732313a207472616e7366657220746f206e6f6e2045524337323152655f8201527f63656976657220696d706c656d656e7465720000000000000000000000000000602082015250565b5f612c10603283611c9d565b9150612c1b82612bb6565b604082019050919050565b5f6020820190508181035f830152612c3d81612c04565b9050919050565b7f455243373231456e756d657261626c653a20636f6e73656375746976652074725f8201527f616e7366657273206e6f7420737570706f727465640000000000000000000000602082015250565b5f612c9e603583611c9d565b9150612ca982612c44565b604082019050919050565b5f6020820190508181035f830152612ccb81612c92565b9050919050565b5f81519050919050565b5f82825260208201905092915050565b5f612cf682612cd2565b612d008185612cdc565b9350612d10818560208601611cad565b612d1981611cd5565b840191505092915050565b5f608082019050612d375f830187611dcb565b612d446020830186611dcb565b612d516040830185611fe1565b8181036060830152612d638184612cec565b905095945050505050565b5f81519050612d7c81611c0b565b92915050565b5f60208284031215612d9757612d96611bd8565b5b5f612da484828501612d6e565b91505092915050565b7f4e487b71000000000000000000000000000000000000000000000000000000005f52601160045260245ffd5b5f612de482611d3d565b9150612def83611d3d565b9250828203905081811115612e0757612e06612dad565b5b92915050565b7f4e487b71000000000000000000000000000000000000000000000000000000005f52603160045260245ffdfea26469706673582212204b83955eba64b51df36953e7c4b6dadd590311d4690738b048df2a59d9836f7564736f6c63430008170033",
  "immutableReferences": {},
  "source": "// SPDX-License-Identifier: MIT\r\npragma solidity >=0.4.22 <0.9.0;\r\n\r\nimport \"@openzeppelin/contracts/token/ERC721/extensions/ERC721Enumerable.sol\";\r\nimport \"@openzeppelin/contracts/utils/Counters.sol\";\r\n\r\ncontract NFTContract is ERC721Enumerable {\r\n    using Counters for Counters.Counter;\r\n    Counters.Counter private _tokenIdCounter;\r\n\r\n    mapping(uint256 => string) private tokenURIs;\r\n\r\n    constructor() ERC721(\"TokenName\", \"TokenSymbol\") {}\r\n\r\n    function mint(address to) external {\r\n        _tokenIdCounter.increment();\r\n        _mint(to, _tokenIdCounter.current());\r\n    }\r\n\r\n    function setTokenURI(uint256 tokenId, string memory _tokenURI) external {\r\n        require(_isApprovedOrOwner(_msgSender(), tokenId), \"Not owner nor approved\");\r\n        tokenURIs[tokenId] = _tokenURI;\r\n    }\r\n\r\n    function tokenURI(uint256 tokenId) public view override returns (string memory) {\r\n        return tokenURIs[tokenId];\r\n    }\r\n}\r\n",
  "sourcePath": "C:\\src\\truffle0\\contracts\\NFTContract.sol",
  "compiler": {
    "name": "solc",
    "version": "0.8.23+commit.f704f362.Emscripten.clang"
  },
  "schemaVersion": "3.4.16",
  "updatedAt": "2024-01-02T11:56:41.661Z",
  "devdoc": {
    "events": {
      "Approval(address,address,uint256)": {
        "details": "Emitted when `owner` enables `approved` to manage the `tokenId` token."
      },
      "ApprovalForAll(address,address,bool)": {
        "details": "Emitted when `owner` enables or disables (`approved`) `operator` to manage all of its assets."
      },
      "Transfer(address,address,uint256)": {
        "details": "Emitted when `tokenId` token is transferred from `from` to `to`."
      }
    },
    "kind": "dev",
    "methods": {
      "approve(address,uint256)": {
        "details": "See {IERC721-approve}."
      },
      "balanceOf(address)": {
        "details": "See {IERC721-balanceOf}."
      },
      "getApproved(uint256)": {
        "details": "See {IERC721-getApproved}."
      },
      "isApprovedForAll(address,address)": {
        "details": "See {IERC721-isApprovedForAll}."
      },
      "name()": {
        "details": "See {IERC721Metadata-name}."
      },
      "ownerOf(uint256)": {
        "details": "See {IERC721-ownerOf}."
      },
      "safeTransferFrom(address,address,uint256)": {
        "details": "See {IERC721-safeTransferFrom}."
      },
      "safeTransferFrom(address,address,uint256,bytes)": {
        "details": "See {IERC721-safeTransferFrom}."
      },
      "setApprovalForAll(address,bool)": {
        "details": "See {IERC721-setApprovalForAll}."
      },
      "supportsInterface(bytes4)": {
        "details": "See {IERC165-supportsInterface}."
      },
      "symbol()": {
        "details": "See {IERC721Metadata-symbol}."
      },
      "tokenByIndex(uint256)": {
        "details": "See {IERC721Enumerable-tokenByIndex}."
      },
      "tokenOfOwnerByIndex(address,uint256)": {
        "details": "See {IERC721Enumerable-tokenOfOwnerByIndex}."
      },
      "tokenURI(uint256)": {
        "details": "See {IERC721Metadata-tokenURI}."
      },
      "totalSupply()": {
        "details": "See {IERC721Enumerable-totalSupply}."
      },
      "transferFrom(address,address,uint256)": {
        "details": "See {IERC721-transferFrom}."
      }
    },
    "version": 1
  },
  "userdoc": {
    "kind": "user",
    "methods": {},
    "version": 1
  }
}