{
  "contractName": "NFTmulti",
  "abi": [
    {
      "inputs": [
        {
          "internalType": "string",
          "name": "_baseURI",
          "type": "string"
        }
      ],
      "stateMutability": "nonpayable",
      "type": "constructor"
    },
    {
      "anonymous": false,
      "inputs": [
        {
          "indexed": true,
          "internalType": "address",
          "name": "account",
          "type": "address"
        },
        {
          "indexed": true,
          "internalType": "address",
          "name": "operator",
          "type": "address"
        },
        {
          "indexed": false,
          "internalType": "bool",
          "name": "approved",
          "type": "bool"
        }
      ],
      "name": "ApprovalForAll",
      "type": "event"
    },
    {
      "anonymous": false,
      "inputs": [
        {
          "indexed": true,
          "internalType": "address",
          "name": "previousOwner",
          "type": "address"
        },
        {
          "indexed": true,
          "internalType": "address",
          "name": "newOwner",
          "type": "address"
        }
      ],
      "name": "OwnershipTransferred",
      "type": "event"
    },
    {
      "anonymous": false,
      "inputs": [
        {
          "indexed": true,
          "internalType": "address",
          "name": "operator",
          "type": "address"
        },
        {
          "indexed": true,
          "internalType": "address",
          "name": "from",
          "type": "address"
        },
        {
          "indexed": true,
          "internalType": "address",
          "name": "to",
          "type": "address"
        },
        {
          "indexed": false,
          "internalType": "uint256[]",
          "name": "ids",
          "type": "uint256[]"
        },
        {
          "indexed": false,
          "internalType": "uint256[]",
          "name": "values",
          "type": "uint256[]"
        }
      ],
      "name": "TransferBatch",
      "type": "event"
    },
    {
      "anonymous": false,
      "inputs": [
        {
          "indexed": true,
          "internalType": "address",
          "name": "operator",
          "type": "address"
        },
        {
          "indexed": true,
          "internalType": "address",
          "name": "from",
          "type": "address"
        },
        {
          "indexed": true,
          "internalType": "address",
          "name": "to",
          "type": "address"
        },
        {
          "indexed": false,
          "internalType": "uint256",
          "name": "id",
          "type": "uint256"
        },
        {
          "indexed": false,
          "internalType": "uint256",
          "name": "value",
          "type": "uint256"
        }
      ],
      "name": "TransferSingle",
      "type": "event"
    },
    {
      "anonymous": false,
      "inputs": [
        {
          "indexed": false,
          "internalType": "string",
          "name": "value",
          "type": "string"
        },
        {
          "indexed": true,
          "internalType": "uint256",
          "name": "id",
          "type": "uint256"
        }
      ],
      "name": "URI",
      "type": "event"
    },
    {
      "inputs": [
        {
          "internalType": "address",
          "name": "account",
          "type": "address"
        },
        {
          "internalType": "uint256",
          "name": "id",
          "type": "uint256"
        }
      ],
      "name": "balanceOf",
      "outputs": [
        {
          "internalType": "uint256",
          "name": "",
          "type": "uint256"
        }
      ],
      "stateMutability": "view",
      "type": "function",
      "constant": true
    },
    {
      "inputs": [
        {
          "internalType": "address[]",
          "name": "accounts",
          "type": "address[]"
        },
        {
          "internalType": "uint256[]",
          "name": "ids",
          "type": "uint256[]"
        }
      ],
      "name": "balanceOfBatch",
      "outputs": [
        {
          "internalType": "uint256[]",
          "name": "",
          "type": "uint256[]"
        }
      ],
      "stateMutability": "view",
      "type": "function",
      "constant": true
    },
    {
      "inputs": [
        {
          "internalType": "address",
          "name": "account",
          "type": "address"
        },
        {
          "internalType": "address",
          "name": "operator",
          "type": "address"
        }
      ],
      "name": "isApprovedForAll",
      "outputs": [
        {
          "internalType": "bool",
          "name": "",
          "type": "bool"
        }
      ],
      "stateMutability": "view",
      "type": "function",
      "constant": true
    },
    {
      "inputs": [],
      "name": "owner",
      "outputs": [
        {
          "internalType": "address",
          "name": "",
          "type": "address"
        }
      ],
      "stateMutability": "view",
      "type": "function",
      "constant": true
    },
    {
      "inputs": [],
      "name": "renounceOwnership",
      "outputs": [],
      "stateMutability": "nonpayable",
      "type": "function"
    },
    {
      "inputs": [
        {
          "internalType": "address",
          "name": "from",
          "type": "address"
        },
        {
          "internalType": "address",
          "name": "to",
          "type": "address"
        },
        {
          "internalType": "uint256[]",
          "name": "ids",
          "type": "uint256[]"
        },
        {
          "internalType": "uint256[]",
          "name": "amounts",
          "type": "uint256[]"
        },
        {
          "internalType": "bytes",
          "name": "data",
          "type": "bytes"
        }
      ],
      "name": "safeBatchTransferFrom",
      "outputs": [],
      "stateMutability": "nonpayable",
      "type": "function"
    },
    {
      "inputs": [
        {
          "internalType": "address",
          "name": "from",
          "type": "address"
        },
        {
          "internalType": "address",
          "name": "to",
          "type": "address"
        },
        {
          "internalType": "uint256",
          "name": "id",
          "type": "uint256"
        },
        {
          "internalType": "uint256",
          "name": "amount",
          "type": "uint256"
        },
        {
          "internalType": "bytes",
          "name": "data",
          "type": "bytes"
        }
      ],
      "name": "safeTransferFrom",
      "outputs": [],
      "stateMutability": "nonpayable",
      "type": "function"
    },
    {
      "inputs": [
        {
          "internalType": "address",
          "name": "operator",
          "type": "address"
        },
        {
          "internalType": "bool",
          "name": "approved",
          "type": "bool"
        }
      ],
      "name": "setApprovalForAll",
      "outputs": [],
      "stateMutability": "nonpayable",
      "type": "function"
    },
    {
      "inputs": [
        {
          "internalType": "bytes4",
          "name": "interfaceId",
          "type": "bytes4"
        }
      ],
      "name": "supportsInterface",
      "outputs": [
        {
          "internalType": "bool",
          "name": "",
          "type": "bool"
        }
      ],
      "stateMutability": "view",
      "type": "function",
      "constant": true
    },
    {
      "inputs": [
        {
          "internalType": "address",
          "name": "newOwner",
          "type": "address"
        }
      ],
      "name": "transferOwnership",
      "outputs": [],
      "stateMutability": "nonpayable",
      "type": "function"
    },
    {
      "inputs": [
        {
          "internalType": "string",
          "name": "_baseURI",
          "type": "string"
        }
      ],
      "name": "setBaseURI",
      "outputs": [],
      "stateMutability": "nonpayable",
      "type": "function"
    },
    {
      "inputs": [
        {
          "internalType": "uint256",
          "name": "tokenId",
          "type": "uint256"
        }
      ],
      "name": "uri",
      "outputs": [
        {
          "internalType": "string",
          "name": "",
          "type": "string"
        }
      ],
      "stateMutability": "view",
      "type": "function",
      "constant": true
    },
    {
      "inputs": [
        {
          "internalType": "address",
          "name": "account",
          "type": "address"
        },
        {
          "internalType": "uint256",
          "name": "id",
          "type": "uint256"
        },
        {
          "internalType": "uint256",
          "name": "amount",
          "type": "uint256"
        },
        {
          "internalType": "bytes",
          "name": "data",
          "type": "bytes"
        }
      ],
      "name": "mint",
      "outputs": [],
      "stateMutability": "nonpayable",
      "type": "function"
    },
    {
      "inputs": [
        {
          "internalType": "address",
          "name": "to",
          "type": "address"
        },
        {
          "internalType": "uint256[]",
          "name": "ids",
          "type": "uint256[]"
        },
        {
          "internalType": "uint256[]",
          "name": "amounts",
          "type": "uint256[]"
        },
        {
          "internalType": "bytes",
          "name": "data",
          "type": "bytes"
        }
      ],
      "name": "mintBatch",
      "outputs": [],
      "stateMutability": "nonpayable",
      "type": "function"
    },
    {
      "inputs": [
        {
          "internalType": "address",
          "name": "account",
          "type": "address"
        },
        {
          "internalType": "uint256",
          "name": "id",
          "type": "uint256"
        },
        {
          "internalType": "uint256",
          "name": "amount",
          "type": "uint256"
        }
      ],
      "name": "burn",
      "outputs": [],
      "stateMutability": "nonpayable",
      "type": "function"
    },
    {
      "inputs": [
        {
          "internalType": "address",
          "name": "account",
          "type": "address"
        },
        {
          "internalType": "uint256[]",
          "name": "ids",
          "type": "uint256[]"
        },
        {
          "internalType": "uint256[]",
          "name": "amounts",
          "type": "uint256[]"
        }
      ],
      "name": "burnBatch",
      "outputs": [],
      "stateMutability": "nonpayable",
      "type": "function"
    }
  ],
  "bytecode": "0x60806040523480156200001157600080fd5b50604051620041a9380380620041a98339818101604052810190620000379190620002a5565b6040518060200160405280600081525062000058816200009960201b60201c565b50620000796200006d620000b560201b60201c565b620000bd60201b60201c565b80600490805190602001906200009192919062000183565b50506200045a565b8060029080519060200190620000b192919062000183565b5050565b600033905090565b6000600360009054906101000a900473ffffffffffffffffffffffffffffffffffffffff16905081600360006101000a81548173ffffffffffffffffffffffffffffffffffffffff021916908373ffffffffffffffffffffffffffffffffffffffff1602179055508173ffffffffffffffffffffffffffffffffffffffff168173ffffffffffffffffffffffffffffffffffffffff167f8be0079c531659141344cd1fd0a4f28419497f9722a3daafe3b4186f6b6457e060405160405180910390a35050565b82805462000191906200037f565b90600052602060002090601f016020900481019282620001b5576000855562000201565b82601f10620001d057805160ff191683800117855562000201565b8280016001018555821562000201579182015b8281111562000200578251825591602001919060010190620001e3565b5b50905062000210919062000214565b5090565b5b808211156200022f57600081600090555060010162000215565b5090565b60006200024a620002448462000313565b620002ea565b9050828152602081018484840111156200026357600080fd5b6200027084828562000349565b509392505050565b600082601f8301126200028a57600080fd5b81516200029c84826020860162000233565b91505092915050565b600060208284031215620002b857600080fd5b600082015167ffffffffffffffff811115620002d357600080fd5b620002e18482850162000278565b91505092915050565b6000620002f662000309565b9050620003048282620003b5565b919050565b6000604051905090565b600067ffffffffffffffff8211156200033157620003306200041a565b5b6200033c8262000449565b9050602081019050919050565b60005b83811015620003695780820151818401526020810190506200034c565b8381111562000379576000848401525b50505050565b600060028204905060018216806200039857607f821691505b60208210811415620003af57620003ae620003eb565b5b50919050565b620003c08262000449565b810181811067ffffffffffffffff82111715620003e257620003e16200041a565b5b80604052505050565b7f4e487b7100000000000000000000000000000000000000000000000000000000600052602260045260246000fd5b7f4e487b7100000000000000000000000000000000000000000000000000000000600052604160045260246000fd5b6000601f19601f8301169050919050565b613d3f806200046a6000396000f3fe608060405234801561001057600080fd5b50600436106100ff5760003560e01c8063715018a611610097578063e985e9c511610066578063e985e9c514610294578063f242432a146102c4578063f2fde38b146102e0578063f5298aca146102fc576100ff565b8063715018a614610234578063731133e91461023e5780638da5cb5b1461025a578063a22cb46514610278576100ff565b80632eb2c2d6116100d35780632eb2c2d6146101b05780634e1273f4146101cc57806355f804b3146101fc5780636b20c45414610218576100ff565b8062fdd58e1461010457806301ffc9a7146101345780630e89341c146101645780631f7fdffa14610194575b600080fd5b61011e60048036038101906101199190612929565b610318565b60405161012b919061329a565b60405180910390f35b61014e60048036038101906101499190612a9b565b6103e1565b60405161015b919061309d565b60405180910390f35b61017e60048036038101906101799190612b2e565b6104c3565b60405161018b91906130b8565b60405180910390f35b6101ae60048036038101906101a99190612842565b6104f7565b005b6101ca60048036038101906101c59190612675565b610511565b005b6101e660048036038101906101e19190612a2f565b6105b2565b6040516101f39190613044565b60405180910390f35b61021660048036038101906102119190612aed565b610763565b005b610232600480360381019061022d91906127c3565b610785565b005b61023c610795565b005b610258600480360381019061025391906129b4565b6107a9565b005b6102626107c3565b60405161026f9190612f67565b60405180910390f35b610292600480360381019061028d91906128ed565b6107ed565b005b6102ae60048036038101906102a99190612639565b610803565b6040516102bb919061309d565b60405180910390f35b6102de60048036038101906102d99190612734565b610897565b005b6102fa60048036038101906102f59190612610565b610938565b005b61031660048036038101906103119190612965565b6109bc565b005b60008073ffffffffffffffffffffffffffffffffffffffff168373ffffffffffffffffffffffffffffffffffffffff161415610389576040517f08c379a00000000000000000000000000000000000000000000000000000000081526004016103809061313a565b60405180910390fd5b60008083815260200190815260200160002060008473ffffffffffffffffffffffffffffffffffffffff1673ffffffffffffffffffffffffffffffffffffffff16815260200190815260200160002054905092915050565b60007fd9b67a26000000000000000000000000000000000000000000000000000000007bffffffffffffffffffffffffffffffffffffffffffffffffffffffff1916827bffffffffffffffffffffffffffffffffffffffffffffffffffffffff191614806104ac57507f0e89341c000000000000000000000000000000000000000000000000000000007bffffffffffffffffffffffffffffffffffffffffffffffffffffffff1916827bffffffffffffffffffffffffffffffffffffffffffffffffffffffff1916145b806104bc57506104bb826109cc565b5b9050919050565b606060046104d083610a36565b6040516020016104e1929190612f38565b6040516020818303038152906040529050919050565b6104ff610bf2565b61050b84848484610c70565b50505050565b610519610ee9565b73ffffffffffffffffffffffffffffffffffffffff168573ffffffffffffffffffffffffffffffffffffffff16148061055f575061055e85610559610ee9565b610803565b5b61059e576040517f08c379a00000000000000000000000000000000000000000000000000000000081526004016105959061315a565b60405180910390fd5b6105ab8585858585610ef1565b5050505050565b606081518351146105f8576040517f08c379a00000000000000000000000000000000000000000000000000000000081526004016105ef9061321a565b60405180910390fd5b6000835167ffffffffffffffff81111561063b577f4e487b7100000000000000000000000000000000000000000000000000000000600052604160045260246000fd5b6040519080825280602002602001820160405280156106695781602001602082028036833780820191505090505b50905060005b8451811015610758576107028582815181106106b4577f4e487b7100000000000000000000000000000000000000000000000000000000600052603260045260246000fd5b60200260200101518583815181106106f5577f4e487b7100000000000000000000000000000000000000000000000000000000600052603260045260246000fd5b6020026020010151610318565b82828151811061073b577f4e487b7100000000000000000000000000000000000000000000000000000000600052603260045260246000fd5b602002602001018181525050806107519061364c565b905061066f565b508091505092915050565b61076b610bf2565b8060049080519060200190610781929190612308565b5050565b61079083838361125f565b505050565b61079d610bf2565b6107a7600061157a565b565b6107b1610bf2565b6107bd84848484611640565b50505050565b6000600360009054906101000a900473ffffffffffffffffffffffffffffffffffffffff16905090565b6107ff6107f8610ee9565b83836117f1565b5050565b6000600160008473ffffffffffffffffffffffffffffffffffffffff1673ffffffffffffffffffffffffffffffffffffffff16815260200190815260200160002060008373ffffffffffffffffffffffffffffffffffffffff1673ffffffffffffffffffffffffffffffffffffffff16815260200190815260200160002060009054906101000a900460ff16905092915050565b61089f610ee9565b73ffffffffffffffffffffffffffffffffffffffff168573ffffffffffffffffffffffffffffffffffffffff1614806108e557506108e4856108df610ee9565b610803565b5b610924576040517f08c379a000000000000000000000000000000000000000000000000000000000815260040161091b9061315a565b60405180910390fd5b610931858585858561195e565b5050505050565b610940610bf2565b600073ffffffffffffffffffffffffffffffffffffffff168173ffffffffffffffffffffffffffffffffffffffff1614156109b0576040517f08c379a00000000000000000000000000000000000000000000000000000000081526004016109a7906130fa565b60405180910390fd5b6109b98161157a565b50565b6109c7838383611bfa565b505050565b60007f01ffc9a7000000000000000000000000000000000000000000000000000000007bffffffffffffffffffffffffffffffffffffffffffffffffffffffff1916827bffffffffffffffffffffffffffffffffffffffffffffffffffffffff1916149050919050565b60606000821415610a7e576040518060400160405280600181526020017f30000000000000000000000000000000000000000000000000000000000000008152509050610bed565b600082905060005b60008214610ab0578080610a999061364c565b915050600a82610aa991906134a4565b9150610a86565b60008167ffffffffffffffff811115610af2577f4e487b7100000000000000000000000000000000000000000000000000000000600052604160045260246000fd5b6040519080825280601f01601f191660200182016040528015610b245781602001600182028036833780820191505090505b5090506000600183610b3691906134d5565b90505b60008614610be557600a86610b4e9190613695565b6030610b5a919061344e565b60f81b828280610b69906135bf565b935081518110610ba2577f4e487b7100000000000000000000000000000000000000000000000000000000600052603260045260246000fd5b60200101907effffffffffffffffffffffffffffffffffffffffffffffffffffffffffffff1916908160001a905350600a86610bde91906134a4565b9550610b39565b819450505050505b919050565b610bfa610ee9565b73ffffffffffffffffffffffffffffffffffffffff16610c186107c3565b73ffffffffffffffffffffffffffffffffffffffff1614610c6e576040517f08c379a0000000000000000000000000000000000000000000000000000000008152600401610c65906131da565b60405180910390fd5b565b600073ffffffffffffffffffffffffffffffffffffffff168473ffffffffffffffffffffffffffffffffffffffff161415610ce0576040517f08c379a0000000000000000000000000000000000000000000000000000000008152600401610cd79061325a565b60405180910390fd5b8151835114610d24576040517f08c379a0000000000000000000000000000000000000000000000000000000008152600401610d1b9061323a565b60405180910390fd5b6000610d2e610ee9565b9050610d3f81600087878787611e41565b60005b8451811015610e4457838181518110610d84577f4e487b7100000000000000000000000000000000000000000000000000000000600052603260045260246000fd5b6020026020010151600080878481518110610dc8577f4e487b7100000000000000000000000000000000000000000000000000000000600052603260045260246000fd5b6020026020010151815260200190815260200160002060008873ffffffffffffffffffffffffffffffffffffffff1673ffffffffffffffffffffffffffffffffffffffff1681526020019081526020016000206000828254610e2a919061344e565b925050819055508080610e3c9061364c565b915050610d42565b508473ffffffffffffffffffffffffffffffffffffffff16600073ffffffffffffffffffffffffffffffffffffffff168273ffffffffffffffffffffffffffffffffffffffff167f4a39dc06d4c0dbc64b70af90fd698a233a518aa5d07e595d983b8c0526c8f7fb8787604051610ebc929190613066565b60405180910390a4610ed381600087878787611e49565b610ee281600087878787611e51565b5050505050565b600033905090565b8151835114610f35576040517f08c379a0000000000000000000000000000000000000000000000000000000008152600401610f2c9061323a565b60405180910390fd5b600073ffffffffffffffffffffffffffffffffffffffff168473ffffffffffffffffffffffffffffffffffffffff161415610fa5576040517f08c379a0000000000000000000000000000000000000000000000000000000008152600401610f9c9061317a565b60405180910390fd5b6000610faf610ee9565b9050610fbf818787878787611e41565b60005b84518110156111bc576000858281518110611006577f4e487b7100000000000000000000000000000000000000000000000000000000600052603260045260246000fd5b60200260200101519050600085838151811061104b577f4e487b7100000000000000000000000000000000000000000000000000000000600052603260045260246000fd5b60200260200101519050600080600084815260200190815260200160002060008b73ffffffffffffffffffffffffffffffffffffffff1673ffffffffffffffffffffffffffffffffffffffff168152602001908152602001600020549050818110156110ec576040517f08c379a00000000000000000000000000000000000000000000000000000000081526004016110e3906131ba565b60405180910390fd5b81810360008085815260200190815260200160002060008c73ffffffffffffffffffffffffffffffffffffffff1673ffffffffffffffffffffffffffffffffffffffff168152602001908152602001600020819055508160008085815260200190815260200160002060008b73ffffffffffffffffffffffffffffffffffffffff1673ffffffffffffffffffffffffffffffffffffffff16815260200190815260200160002060008282546111a1919061344e565b92505081905550505050806111b59061364c565b9050610fc2565b508473ffffffffffffffffffffffffffffffffffffffff168673ffffffffffffffffffffffffffffffffffffffff168273ffffffffffffffffffffffffffffffffffffffff167f4a39dc06d4c0dbc64b70af90fd698a233a518aa5d07e595d983b8c0526c8f7fb8787604051611233929190613066565b60405180910390a4611249818787878787611e49565b611257818787878787611e51565b505050505050565b600073ffffffffffffffffffffffffffffffffffffffff168373ffffffffffffffffffffffffffffffffffffffff1614156112cf576040517f08c379a00000000000000000000000000000000000000000000000000000000081526004016112c69061319a565b60405180910390fd5b8051825114611313576040517f08c379a000000000000000000000000000000000000000000000000000000000815260040161130a9061323a565b60405180910390fd5b600061131d610ee9565b905061133d81856000868660405180602001604052806000815250611e41565b60005b83518110156114d6576000848281518110611384577f4e487b7100000000000000000000000000000000000000000000000000000000600052603260045260246000fd5b6020026020010151905060008483815181106113c9577f4e487b7100000000000000000000000000000000000000000000000000000000600052603260045260246000fd5b60200260200101519050600080600084815260200190815260200160002060008973ffffffffffffffffffffffffffffffffffffffff1673ffffffffffffffffffffffffffffffffffffffff1681526020019081526020016000205490508181101561146a576040517f08c379a00000000000000000000000000000000000000000000000000000000081526004016114619061311a565b60405180910390fd5b81810360008085815260200190815260200160002060008a73ffffffffffffffffffffffffffffffffffffffff1673ffffffffffffffffffffffffffffffffffffffff1681526020019081526020016000208190555050505080806114ce9061364c565b915050611340565b50600073ffffffffffffffffffffffffffffffffffffffff168473ffffffffffffffffffffffffffffffffffffffff168273ffffffffffffffffffffffffffffffffffffffff167f4a39dc06d4c0dbc64b70af90fd698a233a518aa5d07e595d983b8c0526c8f7fb868660405161154e929190613066565b60405180910390a461157481856000868660405180602001604052806000815250611e49565b50505050565b6000600360009054906101000a900473ffffffffffffffffffffffffffffffffffffffff16905081600360006101000a81548173ffffffffffffffffffffffffffffffffffffffff021916908373ffffffffffffffffffffffffffffffffffffffff1602179055508173ffffffffffffffffffffffffffffffffffffffff168173ffffffffffffffffffffffffffffffffffffffff167f8be0079c531659141344cd1fd0a4f28419497f9722a3daafe3b4186f6b6457e060405160405180910390a35050565b600073ffffffffffffffffffffffffffffffffffffffff168473ffffffffffffffffffffffffffffffffffffffff1614156116b0576040517f08c379a00000000000000000000000000000000000000000000000000000000081526004016116a79061325a565b60405180910390fd5b60006116ba610ee9565b905060006116c785612038565b905060006116d485612038565b90506116e583600089858589611e41565b8460008088815260200190815260200160002060008973ffffffffffffffffffffffffffffffffffffffff1673ffffffffffffffffffffffffffffffffffffffff1681526020019081526020016000206000828254611744919061344e565b925050819055508673ffffffffffffffffffffffffffffffffffffffff16600073ffffffffffffffffffffffffffffffffffffffff168473ffffffffffffffffffffffffffffffffffffffff167fc3d58168c5ae7397731d063d5bbf3d657854427343f4c083240f7aacaa2d0f6289896040516117c29291906132b5565b60405180910390a46117d983600089858589611e49565b6117e8836000898989896120fe565b50505050505050565b8173ffffffffffffffffffffffffffffffffffffffff168373ffffffffffffffffffffffffffffffffffffffff161415611860576040517f08c379a0000000000000000000000000000000000000000000000000000000008152600401611857906131fa565b60405180910390fd5b80600160008573ffffffffffffffffffffffffffffffffffffffff1673ffffffffffffffffffffffffffffffffffffffff16815260200190815260200160002060008473ffffffffffffffffffffffffffffffffffffffff1673ffffffffffffffffffffffffffffffffffffffff16815260200190815260200160002060006101000a81548160ff0219169083151502179055508173ffffffffffffffffffffffffffffffffffffffff168373ffffffffffffffffffffffffffffffffffffffff167f17307eab39ab6107e8899845ad3d59bd9653f200f220920489ca2b5937696c3183604051611951919061309d565b60405180910390a3505050565b600073ffffffffffffffffffffffffffffffffffffffff168473ffffffffffffffffffffffffffffffffffffffff1614156119ce576040517f08c379a00000000000000000000000000000000000000000000000000000000081526004016119c59061317a565b60405180910390fd5b60006119d8610ee9565b905060006119e585612038565b905060006119f285612038565b9050611a02838989858589611e41565b600080600088815260200190815260200160002060008a73ffffffffffffffffffffffffffffffffffffffff1673ffffffffffffffffffffffffffffffffffffffff16815260200190815260200160002054905085811015611a99576040517f08c379a0000000000000000000000000000000000000000000000000000000008152600401611a90906131ba565b60405180910390fd5b85810360008089815260200190815260200160002060008b73ffffffffffffffffffffffffffffffffffffffff1673ffffffffffffffffffffffffffffffffffffffff168152602001908152602001600020819055508560008089815260200190815260200160002060008a73ffffffffffffffffffffffffffffffffffffffff1673ffffffffffffffffffffffffffffffffffffffff1681526020019081526020016000206000828254611b4e919061344e565b925050819055508773ffffffffffffffffffffffffffffffffffffffff168973ffffffffffffffffffffffffffffffffffffffff168573ffffffffffffffffffffffffffffffffffffffff167fc3d58168c5ae7397731d063d5bbf3d657854427343f4c083240f7aacaa2d0f628a8a604051611bcb9291906132b5565b60405180910390a4611be1848a8a86868a611e49565b611bef848a8a8a8a8a6120fe565b505050505050505050565b600073ffffffffffffffffffffffffffffffffffffffff168373ffffffffffffffffffffffffffffffffffffffff161415611c6a576040517f08c379a0000000000000000000000000000000000000000000000000000000008152600401611c619061319a565b60405180910390fd5b6000611c74610ee9565b90506000611c8184612038565b90506000611c8e84612038565b9050611cae83876000858560405180602001604052806000815250611e41565b600080600087815260200190815260200160002060008873ffffffffffffffffffffffffffffffffffffffff1673ffffffffffffffffffffffffffffffffffffffff16815260200190815260200160002054905084811015611d45576040517f08c379a0000000000000000000000000000000000000000000000000000000008152600401611d3c9061311a565b60405180910390fd5b84810360008088815260200190815260200160002060008973ffffffffffffffffffffffffffffffffffffffff1673ffffffffffffffffffffffffffffffffffffffff16815260200190815260200160002081905550600073ffffffffffffffffffffffffffffffffffffffff168773ffffffffffffffffffffffffffffffffffffffff168573ffffffffffffffffffffffffffffffffffffffff167fc3d58168c5ae7397731d063d5bbf3d657854427343f4c083240f7aacaa2d0f628989604051611e129291906132b5565b60405180910390a4611e3884886000868660405180602001604052806000815250611e49565b50505050505050565b505050505050565b505050505050565b611e708473ffffffffffffffffffffffffffffffffffffffff166122e5565b15612030578373ffffffffffffffffffffffffffffffffffffffff1663bc197c8187878686866040518663ffffffff1660e01b8152600401611eb6959493929190612f82565b602060405180830381600087803b158015611ed057600080fd5b505af1925050508015611f0157506040513d601f19601f82011682018060405250810190611efe9190612ac4565b60015b611fa757611f0d613782565b806308c379a01415611f6a5750611f22613c17565b80611f2d5750611f6c565b806040517f08c379a0000000000000000000000000000000000000000000000000000000008152600401611f6191906130b8565b60405180910390fd5b505b6040517f08c379a0000000000000000000000000000000000000000000000000000000008152600401611f9e9061327a565b60405180910390fd5b63bc197c8160e01b7bffffffffffffffffffffffffffffffffffffffffffffffffffffffff1916817bffffffffffffffffffffffffffffffffffffffffffffffffffffffff19161461202e576040517f08c379a0000000000000000000000000000000000000000000000000000000008152600401612025906130da565b60405180910390fd5b505b505050505050565b60606000600167ffffffffffffffff81111561207d577f4e487b7100000000000000000000000000000000000000000000000000000000600052604160045260246000fd5b6040519080825280602002602001820160405280156120ab5781602001602082028036833780820191505090505b50905082816000815181106120e9577f4e487b7100000000000000000000000000000000000000000000000000000000600052603260045260246000fd5b60200260200101818152505080915050919050565b61211d8473ffffffffffffffffffffffffffffffffffffffff166122e5565b156122dd578373ffffffffffffffffffffffffffffffffffffffff1663f23a6e6187878686866040518663ffffffff1660e01b8152600401612163959493929190612fea565b602060405180830381600087803b15801561217d57600080fd5b505af19250505080156121ae57506040513d601f19601f820116820180604052508101906121ab9190612ac4565b60015b612254576121ba613782565b806308c379a0141561221757506121cf613c17565b806121da5750612219565b806040517f08c379a000000000000000000000000000000000000000000000000000000000815260040161220e91906130b8565b60405180910390fd5b505b6040517f08c379a000000000000000000000000000000000000000000000000000000000815260040161224b9061327a565b60405180910390fd5b63f23a6e6160e01b7bffffffffffffffffffffffffffffffffffffffffffffffffffffffff1916817bffffffffffffffffffffffffffffffffffffffffffffffffffffffff1916146122db576040517f08c379a00000000000000000000000000000000000000000000000000000000081526004016122d2906130da565b60405180910390fd5b505b505050505050565b6000808273ffffffffffffffffffffffffffffffffffffffff163b119050919050565b828054612314906135e9565b90600052602060002090601f016020900481019282612336576000855561237d565b82601f1061234f57805160ff191683800117855561237d565b8280016001018555821561237d579182015b8281111561237c578251825591602001919060010190612361565b5b50905061238a919061238e565b5090565b5b808211156123a757600081600090555060010161238f565b5090565b60006123be6123b984613303565b6132de565b905080838252602082019050828560208602820111156123dd57600080fd5b60005b8581101561240d57816123f388826124ff565b8452602084019350602083019250506001810190506123e0565b5050509392505050565b600061242a6124258461332f565b6132de565b9050808382526020820190508285602086028201111561244957600080fd5b60005b85811015612479578161245f88826125fb565b84526020840193506020830192505060018101905061244c565b5050509392505050565b60006124966124918461335b565b6132de565b9050828152602081018484840111156124ae57600080fd5b6124b984828561357d565b509392505050565b60006124d46124cf8461338c565b6132de565b9050828152602081018484840111156124ec57600080fd5b6124f784828561357d565b509392505050565b60008135905061250e81613cad565b92915050565b600082601f83011261252557600080fd5b81356125358482602086016123ab565b91505092915050565b600082601f83011261254f57600080fd5b813561255f848260208601612417565b91505092915050565b60008135905061257781613cc4565b92915050565b60008135905061258c81613cdb565b92915050565b6000815190506125a181613cdb565b92915050565b600082601f8301126125b857600080fd5b81356125c8848260208601612483565b91505092915050565b600082601f8301126125e257600080fd5b81356125f28482602086016124c1565b91505092915050565b60008135905061260a81613cf2565b92915050565b60006020828403121561262257600080fd5b6000612630848285016124ff565b91505092915050565b6000806040838503121561264c57600080fd5b600061265a858286016124ff565b925050602061266b858286016124ff565b9150509250929050565b600080600080600060a0868803121561268d57600080fd5b600061269b888289016124ff565b95505060206126ac888289016124ff565b945050604086013567ffffffffffffffff8111156126c957600080fd5b6126d58882890161253e565b935050606086013567ffffffffffffffff8111156126f257600080fd5b6126fe8882890161253e565b925050608086013567ffffffffffffffff81111561271b57600080fd5b612727888289016125a7565b9150509295509295909350565b600080600080600060a0868803121561274c57600080fd5b600061275a888289016124ff565b955050602061276b888289016124ff565b945050604061277c888289016125fb565b935050606061278d888289016125fb565b925050608086013567ffffffffffffffff8111156127aa57600080fd5b6127b6888289016125a7565b9150509295509295909350565b6000806000606084860312156127d857600080fd5b60006127e6868287016124ff565b935050602084013567ffffffffffffffff81111561280357600080fd5b61280f8682870161253e565b925050604084013567ffffffffffffffff81111561282c57600080fd5b6128388682870161253e565b9150509250925092565b6000806000806080858703121561285857600080fd5b6000612866878288016124ff565b945050602085013567ffffffffffffffff81111561288357600080fd5b61288f8782880161253e565b935050604085013567ffffffffffffffff8111156128ac57600080fd5b6128b88782880161253e565b925050606085013567ffffffffffffffff8111156128d557600080fd5b6128e1878288016125a7565b91505092959194509250565b6000806040838503121561290057600080fd5b600061290e858286016124ff565b925050602061291f85828601612568565b9150509250929050565b6000806040838503121561293c57600080fd5b600061294a858286016124ff565b925050602061295b858286016125fb565b9150509250929050565b60008060006060848603121561297a57600080fd5b6000612988868287016124ff565b9350506020612999868287016125fb565b92505060406129aa868287016125fb565b9150509250925092565b600080600080608085870312156129ca57600080fd5b60006129d8878288016124ff565b94505060206129e9878288016125fb565b93505060406129fa878288016125fb565b925050606085013567ffffffffffffffff811115612a1757600080fd5b612a23878288016125a7565b91505092959194509250565b60008060408385031215612a4257600080fd5b600083013567ffffffffffffffff811115612a5c57600080fd5b612a6885828601612514565b925050602083013567ffffffffffffffff811115612a8557600080fd5b612a918582860161253e565b9150509250929050565b600060208284031215612aad57600080fd5b6000612abb8482850161257d565b91505092915050565b600060208284031215612ad657600080fd5b6000612ae484828501612592565b91505092915050565b600060208284031215612aff57600080fd5b600082013567ffffffffffffffff811115612b1957600080fd5b612b25848285016125d1565b91505092915050565b600060208284031215612b4057600080fd5b6000612b4e848285016125fb565b91505092915050565b6000612b638383612f1a565b60208301905092915050565b612b7881613509565b82525050565b6000612b89826133e2565b612b938185613410565b9350612b9e836133bd565b8060005b83811015612bcf578151612bb68882612b57565b9750612bc183613403565b925050600181019050612ba2565b5085935050505092915050565b612be58161351b565b82525050565b6000612bf6826133ed565b612c008185613421565b9350612c1081856020860161358c565b612c19816137a4565b840191505092915050565b6000612c2f826133f8565b612c398185613432565b9350612c4981856020860161358c565b612c52816137a4565b840191505092915050565b6000612c68826133f8565b612c728185613443565b9350612c8281856020860161358c565b80840191505092915050565b60008154612c9b816135e9565b612ca58186613443565b94506001821660008114612cc05760018114612cd157612d04565b60ff19831686528186019350612d04565b612cda856133cd565b60005b83811015612cfc57815481890152600182019150602081019050612cdd565b838801955050505b50505092915050565b6000612d1a602883613432565b9150612d25826137c2565b604082019050919050565b6000612d3d602683613432565b9150612d4882613811565b604082019050919050565b6000612d60602483613432565b9150612d6b82613860565b604082019050919050565b6000612d83602a83613432565b9150612d8e826138af565b604082019050919050565b6000612da6602e83613432565b9150612db1826138fe565b604082019050919050565b6000612dc9602583613432565b9150612dd48261394d565b604082019050919050565b6000612dec602383613432565b9150612df78261399c565b604082019050919050565b6000612e0f602a83613432565b9150612e1a826139eb565b604082019050919050565b6000612e32600583613443565b9150612e3d82613a3a565b600582019050919050565b6000612e55602083613432565b9150612e6082613a63565b602082019050919050565b6000612e78602983613432565b9150612e8382613a8c565b604082019050919050565b6000612e9b602983613432565b9150612ea682613adb565b604082019050919050565b6000612ebe602883613432565b9150612ec982613b2a565b604082019050919050565b6000612ee1602183613432565b9150612eec82613b79565b604082019050919050565b6000612f04603483613432565b9150612f0f82613bc8565b604082019050919050565b612f2381613573565b82525050565b612f3281613573565b82525050565b6000612f448285612c8e565b9150612f508284612c5d565b9150612f5b82612e25565b91508190509392505050565b6000602082019050612f7c6000830184612b6f565b92915050565b600060a082019050612f976000830188612b6f565b612fa46020830187612b6f565b8181036040830152612fb68186612b7e565b90508181036060830152612fca8185612b7e565b90508181036080830152612fde8184612beb565b90509695505050505050565b600060a082019050612fff6000830188612b6f565b61300c6020830187612b6f565b6130196040830186612f29565b6130266060830185612f29565b81810360808301526130388184612beb565b90509695505050505050565b6000602082019050818103600083015261305e8184612b7e565b905092915050565b600060408201905081810360008301526130808185612b7e565b905081810360208301526130948184612b7e565b90509392505050565b60006020820190506130b26000830184612bdc565b92915050565b600060208201905081810360008301526130d28184612c24565b905092915050565b600060208201905081810360008301526130f381612d0d565b9050919050565b6000602082019050818103600083015261311381612d30565b9050919050565b6000602082019050818103600083015261313381612d53565b9050919050565b6000602082019050818103600083015261315381612d76565b9050919050565b6000602082019050818103600083015261317381612d99565b9050919050565b6000602082019050818103600083015261319381612dbc565b9050919050565b600060208201905081810360008301526131b381612ddf565b9050919050565b600060208201905081810360008301526131d381612e02565b9050919050565b600060208201905081810360008301526131f381612e48565b9050919050565b6000602082019050818103600083015261321381612e6b565b9050919050565b6000602082019050818103600083015261323381612e8e565b9050919050565b6000602082019050818103600083015261325381612eb1565b9050919050565b6000602082019050818103600083015261327381612ed4565b9050919050565b6000602082019050818103600083015261329381612ef7565b9050919050565b60006020820190506132af6000830184612f29565b92915050565b60006040820190506132ca6000830185612f29565b6132d76020830184612f29565b9392505050565b60006132e86132f9565b90506132f4828261361b565b919050565b6000604051905090565b600067ffffffffffffffff82111561331e5761331d613753565b5b602082029050602081019050919050565b600067ffffffffffffffff82111561334a57613349613753565b5b602082029050602081019050919050565b600067ffffffffffffffff82111561337657613375613753565b5b61337f826137a4565b9050602081019050919050565b600067ffffffffffffffff8211156133a7576133a6613753565b5b6133b0826137a4565b9050602081019050919050565b6000819050602082019050919050565b60008190508160005260206000209050919050565b600081519050919050565b600081519050919050565b600081519050919050565b6000602082019050919050565b600082825260208201905092915050565b600082825260208201905092915050565b600082825260208201905092915050565b600081905092915050565b600061345982613573565b915061346483613573565b9250827fffffffffffffffffffffffffffffffffffffffffffffffffffffffffffffffff03821115613499576134986136c6565b5b828201905092915050565b60006134af82613573565b91506134ba83613573565b9250826134ca576134c96136f5565b5b828204905092915050565b60006134e082613573565b91506134eb83613573565b9250828210156134fe576134fd6136c6565b5b828203905092915050565b600061351482613553565b9050919050565b60008115159050919050565b60007fffffffff0000000000000000000000000000000000000000000000000000000082169050919050565b600073ffffffffffffffffffffffffffffffffffffffff82169050919050565b6000819050919050565b82818337600083830152505050565b60005b838110156135aa57808201518184015260208101905061358f565b838111156135b9576000848401525b50505050565b60006135ca82613573565b915060008214156135de576135dd6136c6565b5b600182039050919050565b6000600282049050600182168061360157607f821691505b6020821081141561361557613614613724565b5b50919050565b613624826137a4565b810181811067ffffffffffffffff8211171561364357613642613753565b5b80604052505050565b600061365782613573565b91507fffffffffffffffffffffffffffffffffffffffffffffffffffffffffffffffff82141561368a576136896136c6565b5b600182019050919050565b60006136a082613573565b91506136ab83613573565b9250826136bb576136ba6136f5565b5b828206905092915050565b7f4e487b7100000000000000000000000000000000000000000000000000000000600052601160045260246000fd5b7f4e487b7100000000000000000000000000000000000000000000000000000000600052601260045260246000fd5b7f4e487b7100000000000000000000000000000000000000000000000000000000600052602260045260246000fd5b7f4e487b7100000000000000000000000000000000000000000000000000000000600052604160045260246000fd5b600060033d11156137a15760046000803e61379e6000516137b5565b90505b90565b6000601f19601f8301169050919050565b60008160e01c9050919050565b7f455243313135353a204552433131353552656365697665722072656a6563746560008201527f6420746f6b656e73000000000000000000000000000000000000000000000000602082015250565b7f4f776e61626c653a206e6577206f776e657220697320746865207a65726f206160008201527f6464726573730000000000000000000000000000000000000000000000000000602082015250565b7f455243313135353a206275726e20616d6f756e7420657863656564732062616c60008201527f616e636500000000000000000000000000000000000000000000000000000000602082015250565b7f455243313135353a2061646472657373207a65726f206973206e6f742061207660008201527f616c6964206f776e657200000000000000000000000000000000000000000000602082015250565b7f455243313135353a2063616c6c6572206973206e6f7420746f6b656e206f776e60008201527f6572206f7220617070726f766564000000000000000000000000000000000000602082015250565b7f455243313135353a207472616e7366657220746f20746865207a65726f20616460008201527f6472657373000000000000000000000000000000000000000000000000000000602082015250565b7f455243313135353a206275726e2066726f6d20746865207a65726f206164647260008201527f6573730000000000000000000000000000000000000000000000000000000000602082015250565b7f455243313135353a20696e73756666696369656e742062616c616e636520666f60008201527f72207472616e7366657200000000000000000000000000000000000000000000602082015250565b7f2e6a736f6e000000000000000000000000000000000000000000000000000000600082015250565b7f4f776e61626c653a2063616c6c6572206973206e6f7420746865206f776e6572600082015250565b7f455243313135353a2073657474696e6720617070726f76616c2073746174757360008201527f20666f722073656c660000000000000000000000000000000000000000000000602082015250565b7f455243313135353a206163636f756e747320616e6420696473206c656e67746860008201527f206d69736d617463680000000000000000000000000000000000000000000000602082015250565b7f455243313135353a2069647320616e6420616d6f756e7473206c656e6774682060008201527f6d69736d61746368000000000000000000000000000000000000000000000000602082015250565b7f455243313135353a206d696e7420746f20746865207a65726f2061646472657360008201527f7300000000000000000000000000000000000000000000000000000000000000602082015250565b7f455243313135353a207472616e7366657220746f206e6f6e2d4552433131353560008201527f526563656976657220696d706c656d656e746572000000000000000000000000602082015250565b600060443d1015613c2757613caa565b613c2f6132f9565b60043d036004823e80513d602482011167ffffffffffffffff82111715613c57575050613caa565b808201805167ffffffffffffffff811115613c755750505050613caa565b80602083010160043d038501811115613c92575050505050613caa565b613ca18260200185018661361b565b82955050505050505b90565b613cb681613509565b8114613cc157600080fd5b50565b613ccd8161351b565b8114613cd857600080fd5b50565b613ce481613527565b8114613cef57600080fd5b50565b613cfb81613573565b8114613d0657600080fd5b5056fea2646970667358221220768f768d21cdcb466d2f26e73fd7c7da27937574790fa8ff7990e520eb4ea78e64736f6c63430008010033",
  "immutableReferences": {},
  "source": "// SPDX-License-Identifier: MIT\r\n\r\n//pragma solidity ^0.8.0;\r\npragma solidity >=0.4.22 <0.9.0;\r\n\r\nimport \"@openzeppelin/contracts/token/ERC1155/ERC1155.sol\";\r\nimport \"@openzeppelin/contracts/access/Ownable.sol\";\r\n\r\ncontract NFTmulti is ERC1155, Ownable {\r\n\r\n//    constructor() ERC1155(\"https://myapi.com/api/token/{id}.json\") {}\r\n    string private baseURI;\r\n\r\n    constructor(string memory _baseURI) ERC1155(\"\") {\r\n        baseURI = _baseURI;\r\n    }\r\n\r\n    function setBaseURI(string memory _baseURI) external onlyOwner {\r\n        baseURI = _baseURI;\r\n    }\r\n\r\n    function uri(uint256 tokenId) public view override returns (string memory) {\r\n        return string(abi.encodePacked(baseURI, uint2str(tokenId), \".json\"));\r\n    }\r\n    function mint(address account, uint256 id, uint256 amount, bytes memory data) external onlyOwner {\r\n        _mint(account, id, amount, data);\r\n    }\r\n\r\n    function mintBatch(address to, uint256[] memory ids, uint256[] memory amounts, bytes memory data) external onlyOwner {\r\n        _mintBatch(to, ids, amounts, data);\r\n    }\r\n\r\n    function burn(address account, uint256 id, uint256 amount) external {\r\n        ////require(msg.sender == account, \"You are not the owner or an approved operator\");\r\n        _burn(account, id, amount);\r\n    }\r\n\r\n    function burnBatch(address account, uint256[] memory ids, uint256[] memory amounts) external {\r\n        ////require(msg.sender == account, \"You are not the owner or an approved operator\");\r\n        _burnBatch(account, ids, amounts);\r\n    }\r\n     function uint2str(uint256 _i) internal pure returns (string memory _uintAsString) {\r\n        // uintstring\r\n        if (_i == 0) {\r\n            return \"0\";\r\n        }\r\n        uint j = _i;\r\n        uint len;\r\n        while (j != 0) {\r\n            len++;\r\n            j /= 10;\r\n        }\r\n        bytes memory bstr = new bytes(len);\r\n        uint k = len - 1;\r\n        while (_i != 0) {\r\n            bstr[k--] = bytes1(uint8(48 + _i % 10));\r\n            _i /= 10;\r\n        }\r\n        return string(bstr);\r\n    }\r\n}\r\n",
  "sourcePath": "C:\\src\\truffle0\\contracts\\NFTmulti.sol",
  "compiler": {
    "name": "solc",
    "version": "0.8.1+commit.df193b15.Emscripten.clang"
  },
  "schemaVersion": "3.4.16",
  "updatedAt": "2023-09-26T14:01:33.395Z",
  "networkType": "ethereum",
  "devdoc": {
    "kind": "dev",
    "methods": {
      "balanceOf(address,uint256)": {
        "details": "See {IERC1155-balanceOf}. Requirements: - `account` cannot be the zero address."
      },
      "balanceOfBatch(address[],uint256[])": {
        "details": "See {IERC1155-balanceOfBatch}. Requirements: - `accounts` and `ids` must have the same length."
      },
      "isApprovedForAll(address,address)": {
        "details": "See {IERC1155-isApprovedForAll}."
      },
      "owner()": {
        "details": "Returns the address of the current owner."
      },
      "renounceOwnership()": {
        "details": "Leaves the contract without owner. It will not be possible to call `onlyOwner` functions. Can only be called by the current owner. NOTE: Renouncing ownership will leave the contract without an owner, thereby disabling any functionality that is only available to the owner."
      },
      "safeBatchTransferFrom(address,address,uint256[],uint256[],bytes)": {
        "details": "See {IERC1155-safeBatchTransferFrom}."
      },
      "safeTransferFrom(address,address,uint256,uint256,bytes)": {
        "details": "See {IERC1155-safeTransferFrom}."
      },
      "setApprovalForAll(address,bool)": {
        "details": "See {IERC1155-setApprovalForAll}."
      },
      "supportsInterface(bytes4)": {
        "details": "See {IERC165-supportsInterface}."
      },
      "transferOwnership(address)": {
        "details": "Transfers ownership of the contract to a new account (`newOwner`). Can only be called by the current owner."
      }
    },
    "version": 1
  },
  "userdoc": {
    "kind": "user",
    "methods": {},
    "version": 1
  }
}