{
  "contractName": "GachaNFTBulk",
  "abi": [
    {
      "inputs": [
        {
          "internalType": "uint256",
          "name": "_maxParticipants",
          "type": "uint256"
        }
      ],
      "stateMutability": "nonpayable",
      "type": "constructor"
    },
    {
      "anonymous": false,
      "inputs": [
        {
          "indexed": true,
          "internalType": "address",
          "name": "owner",
          "type": "address"
        },
        {
          "indexed": true,
          "internalType": "address",
          "name": "approved",
          "type": "address"
        },
        {
          "indexed": true,
          "internalType": "uint256",
          "name": "tokenId",
          "type": "uint256"
        }
      ],
      "name": "Approval",
      "type": "event"
    },
    {
      "anonymous": false,
      "inputs": [
        {
          "indexed": true,
          "internalType": "address",
          "name": "owner",
          "type": "address"
        },
        {
          "indexed": true,
          "internalType": "address",
          "name": "operator",
          "type": "address"
        },
        {
          "indexed": false,
          "internalType": "bool",
          "name": "approved",
          "type": "bool"
        }
      ],
      "name": "ApprovalForAll",
      "type": "event"
    },
    {
      "anonymous": false,
      "inputs": [
        {
          "indexed": true,
          "internalType": "address",
          "name": "user",
          "type": "address"
        }
      ],
      "name": "CommitRequested",
      "type": "event"
    },
    {
      "anonymous": false,
      "inputs": [
        {
          "indexed": true,
          "internalType": "bytes32",
          "name": "serverSeedHash",
          "type": "bytes32"
        }
      ],
      "name": "Commitment",
      "type": "event"
    },
    {
      "anonymous": false,
      "inputs": [
        {
          "indexed": false,
          "internalType": "string",
          "name": "",
          "type": "string"
        }
      ],
      "name": "DebugLogEvent",
      "type": "event"
    },
    {
      "anonymous": false,
      "inputs": [
        {
          "indexed": true,
          "internalType": "bytes32",
          "name": "messageHash",
          "type": "bytes32"
        }
      ],
      "name": "LogMessageHash",
      "type": "event"
    },
    {
      "anonymous": false,
      "inputs": [
        {
          "indexed": true,
          "internalType": "address",
          "name": "owner",
          "type": "address"
        },
        {
          "indexed": false,
          "internalType": "uint256",
          "name": "tokenId",
          "type": "uint256"
        }
      ],
      "name": "NFTMinted",
      "type": "event"
    },
    {
      "anonymous": false,
      "inputs": [
        {
          "indexed": true,
          "internalType": "address",
          "name": "player",
          "type": "address"
        },
        {
          "indexed": false,
          "internalType": "bytes32",
          "name": "userSeed",
          "type": "bytes32"
        }
      ],
      "name": "Participation",
      "type": "event"
    },
    {
      "anonymous": false,
      "inputs": [
        {
          "indexed": true,
          "internalType": "address",
          "name": "recovered",
          "type": "address"
        }
      ],
      "name": "RecoveredAddress",
      "type": "event"
    },
    {
      "anonymous": false,
      "inputs": [
        {
          "indexed": true,
          "internalType": "address",
          "name": "requester",
          "type": "address"
        },
        {
          "indexed": false,
          "internalType": "string",
          "name": "requestId",
          "type": "string"
        }
      ],
      "name": "RequestCommit",
      "type": "event"
    },
    {
      "anonymous": false,
      "inputs": [
        {
          "indexed": true,
          "internalType": "address",
          "name": "requester",
          "type": "address"
        }
      ],
      "name": "RequestDetermineResults",
      "type": "event"
    },
    {
      "anonymous": false,
      "inputs": [
        {
          "indexed": false,
          "internalType": "bytes32",
          "name": "serverSeed",
          "type": "bytes32"
        },
        {
          "indexed": false,
          "internalType": "uint256",
          "name": "luckyNumber",
          "type": "uint256"
        }
      ],
      "name": "Reveal",
      "type": "event"
    },
    {
      "anonymous": false,
      "inputs": [
        {
          "indexed": true,
          "internalType": "address",
          "name": "from",
          "type": "address"
        },
        {
          "indexed": true,
          "internalType": "address",
          "name": "to",
          "type": "address"
        },
        {
          "indexed": true,
          "internalType": "uint256",
          "name": "tokenId",
          "type": "uint256"
        }
      ],
      "name": "Transfer",
      "type": "event"
    },
    {
      "inputs": [
        {
          "internalType": "address",
          "name": "to",
          "type": "address"
        },
        {
          "internalType": "uint256",
          "name": "tokenId",
          "type": "uint256"
        }
      ],
      "name": "approve",
      "outputs": [],
      "stateMutability": "nonpayable",
      "type": "function"
    },
    {
      "inputs": [
        {
          "internalType": "address",
          "name": "owner",
          "type": "address"
        }
      ],
      "name": "balanceOf",
      "outputs": [
        {
          "internalType": "uint256",
          "name": "",
          "type": "uint256"
        }
      ],
      "stateMutability": "view",
      "type": "function",
      "constant": true
    },
    {
      "inputs": [
        {
          "internalType": "uint256",
          "name": "tokenId",
          "type": "uint256"
        }
      ],
      "name": "getApproved",
      "outputs": [
        {
          "internalType": "address",
          "name": "",
          "type": "address"
        }
      ],
      "stateMutability": "view",
      "type": "function",
      "constant": true
    },
    {
      "inputs": [
        {
          "internalType": "address",
          "name": "owner",
          "type": "address"
        },
        {
          "internalType": "address",
          "name": "operator",
          "type": "address"
        }
      ],
      "name": "isApprovedForAll",
      "outputs": [
        {
          "internalType": "bool",
          "name": "",
          "type": "bool"
        }
      ],
      "stateMutability": "view",
      "type": "function",
      "constant": true
    },
    {
      "inputs": [],
      "name": "isRevealed",
      "outputs": [
        {
          "internalType": "bool",
          "name": "",
          "type": "bool"
        }
      ],
      "stateMutability": "view",
      "type": "function",
      "constant": true
    },
    {
      "inputs": [],
      "name": "luckyNumber",
      "outputs": [
        {
          "internalType": "uint256",
          "name": "",
          "type": "uint256"
        }
      ],
      "stateMutability": "view",
      "type": "function",
      "constant": true
    },
    {
      "inputs": [],
      "name": "maxParticipants",
      "outputs": [
        {
          "internalType": "uint256",
          "name": "",
          "type": "uint256"
        }
      ],
      "stateMutability": "view",
      "type": "function",
      "constant": true
    },
    {
      "inputs": [],
      "name": "name",
      "outputs": [
        {
          "internalType": "string",
          "name": "",
          "type": "string"
        }
      ],
      "stateMutability": "view",
      "type": "function",
      "constant": true
    },
    {
      "inputs": [],
      "name": "owner",
      "outputs": [
        {
          "internalType": "address payable",
          "name": "",
          "type": "address"
        }
      ],
      "stateMutability": "view",
      "type": "function",
      "constant": true
    },
    {
      "inputs": [
        {
          "internalType": "uint256",
          "name": "tokenId",
          "type": "uint256"
        }
      ],
      "name": "ownerOf",
      "outputs": [
        {
          "internalType": "address",
          "name": "",
          "type": "address"
        }
      ],
      "stateMutability": "view",
      "type": "function",
      "constant": true
    },
    {
      "inputs": [
        {
          "internalType": "uint256",
          "name": "",
          "type": "uint256"
        }
      ],
      "name": "participants",
      "outputs": [
        {
          "internalType": "address",
          "name": "addr",
          "type": "address"
        },
        {
          "internalType": "bytes32",
          "name": "userSeed",
          "type": "bytes32"
        }
      ],
      "stateMutability": "view",
      "type": "function",
      "constant": true
    },
    {
      "inputs": [],
      "name": "player",
      "outputs": [
        {
          "internalType": "address payable",
          "name": "",
          "type": "address"
        }
      ],
      "stateMutability": "view",
      "type": "function",
      "constant": true
    },
    {
      "inputs": [
        {
          "internalType": "uint256",
          "name": "",
          "type": "uint256"
        }
      ],
      "name": "prizeMapping",
      "outputs": [
        {
          "internalType": "string",
          "name": "name",
          "type": "string"
        },
        {
          "internalType": "string",
          "name": "description",
          "type": "string"
        },
        {
          "internalType": "string",
          "name": "imageURL",
          "type": "string"
        }
      ],
      "stateMutability": "view",
      "type": "function",
      "constant": true
    },
    {
      "inputs": [],
      "name": "revealDeadline",
      "outputs": [
        {
          "internalType": "uint256",
          "name": "",
          "type": "uint256"
        }
      ],
      "stateMutability": "view",
      "type": "function",
      "constant": true
    },
    {
      "inputs": [
        {
          "internalType": "address",
          "name": "from",
          "type": "address"
        },
        {
          "internalType": "address",
          "name": "to",
          "type": "address"
        },
        {
          "internalType": "uint256",
          "name": "tokenId",
          "type": "uint256"
        }
      ],
      "name": "safeTransferFrom",
      "outputs": [],
      "stateMutability": "nonpayable",
      "type": "function"
    },
    {
      "inputs": [
        {
          "internalType": "address",
          "name": "from",
          "type": "address"
        },
        {
          "internalType": "address",
          "name": "to",
          "type": "address"
        },
        {
          "internalType": "uint256",
          "name": "tokenId",
          "type": "uint256"
        },
        {
          "internalType": "bytes",
          "name": "data",
          "type": "bytes"
        }
      ],
      "name": "safeTransferFrom",
      "outputs": [],
      "stateMutability": "nonpayable",
      "type": "function"
    },
    {
      "inputs": [],
      "name": "salt",
      "outputs": [
        {
          "internalType": "bytes32",
          "name": "",
          "type": "bytes32"
        }
      ],
      "stateMutability": "view",
      "type": "function",
      "constant": true
    },
    {
      "inputs": [],
      "name": "serverSeed",
      "outputs": [
        {
          "internalType": "bytes32",
          "name": "",
          "type": "bytes32"
        }
      ],
      "stateMutability": "view",
      "type": "function",
      "constant": true
    },
    {
      "inputs": [],
      "name": "serverSeedHash",
      "outputs": [
        {
          "internalType": "bytes32",
          "name": "",
          "type": "bytes32"
        }
      ],
      "stateMutability": "view",
      "type": "function",
      "constant": true
    },
    {
      "inputs": [
        {
          "internalType": "address",
          "name": "operator",
          "type": "address"
        },
        {
          "internalType": "bool",
          "name": "approved",
          "type": "bool"
        }
      ],
      "name": "setApprovalForAll",
      "outputs": [],
      "stateMutability": "nonpayable",
      "type": "function"
    },
    {
      "inputs": [
        {
          "internalType": "bytes4",
          "name": "interfaceId",
          "type": "bytes4"
        }
      ],
      "name": "supportsInterface",
      "outputs": [
        {
          "internalType": "bool",
          "name": "",
          "type": "bool"
        }
      ],
      "stateMutability": "view",
      "type": "function",
      "constant": true
    },
    {
      "inputs": [],
      "name": "symbol",
      "outputs": [
        {
          "internalType": "string",
          "name": "",
          "type": "string"
        }
      ],
      "stateMutability": "view",
      "type": "function",
      "constant": true
    },
    {
      "inputs": [
        {
          "internalType": "uint256",
          "name": "index",
          "type": "uint256"
        }
      ],
      "name": "tokenByIndex",
      "outputs": [
        {
          "internalType": "uint256",
          "name": "",
          "type": "uint256"
        }
      ],
      "stateMutability": "view",
      "type": "function",
      "constant": true
    },
    {
      "inputs": [
        {
          "internalType": "address",
          "name": "owner",
          "type": "address"
        },
        {
          "internalType": "uint256",
          "name": "index",
          "type": "uint256"
        }
      ],
      "name": "tokenOfOwnerByIndex",
      "outputs": [
        {
          "internalType": "uint256",
          "name": "",
          "type": "uint256"
        }
      ],
      "stateMutability": "view",
      "type": "function",
      "constant": true
    },
    {
      "inputs": [],
      "name": "totalSupply",
      "outputs": [
        {
          "internalType": "uint256",
          "name": "",
          "type": "uint256"
        }
      ],
      "stateMutability": "view",
      "type": "function",
      "constant": true
    },
    {
      "inputs": [
        {
          "internalType": "address",
          "name": "from",
          "type": "address"
        },
        {
          "internalType": "address",
          "name": "to",
          "type": "address"
        },
        {
          "internalType": "uint256",
          "name": "tokenId",
          "type": "uint256"
        }
      ],
      "name": "transferFrom",
      "outputs": [],
      "stateMutability": "nonpayable",
      "type": "function"
    },
    {
      "inputs": [
        {
          "internalType": "address",
          "name": "",
          "type": "address"
        },
        {
          "internalType": "bytes32",
          "name": "",
          "type": "bytes32"
        }
      ],
      "name": "usedUserSeeds",
      "outputs": [
        {
          "internalType": "bool",
          "name": "",
          "type": "bool"
        }
      ],
      "stateMutability": "view",
      "type": "function",
      "constant": true
    },
    {
      "inputs": [],
      "name": "userSeed",
      "outputs": [
        {
          "internalType": "bytes32",
          "name": "",
          "type": "bytes32"
        }
      ],
      "stateMutability": "view",
      "type": "function",
      "constant": true
    },
    {
      "inputs": [
        {
          "internalType": "uint256",
          "name": "luckyNumber",
          "type": "uint256"
        },
        {
          "internalType": "string",
          "name": "name",
          "type": "string"
        },
        {
          "internalType": "string",
          "name": "description",
          "type": "string"
        },
        {
          "internalType": "string",
          "name": "imageURL",
          "type": "string"
        }
      ],
      "name": "setPrize",
      "outputs": [],
      "stateMutability": "nonpayable",
      "type": "function"
    },
    {
      "inputs": [
        {
          "internalType": "uint256",
          "name": "luckyNumber",
          "type": "uint256"
        }
      ],
      "name": "getPrize",
      "outputs": [
        {
          "internalType": "string",
          "name": "name",
          "type": "string"
        },
        {
          "internalType": "string",
          "name": "description",
          "type": "string"
        },
        {
          "internalType": "string",
          "name": "imageURL",
          "type": "string"
        }
      ],
      "stateMutability": "view",
      "type": "function",
      "constant": true
    },
    {
      "inputs": [
        {
          "internalType": "string",
          "name": "requestId",
          "type": "string"
        }
      ],
      "name": "requestCommit",
      "outputs": [],
      "stateMutability": "nonpayable",
      "type": "function"
    },
    {
      "inputs": [
        {
          "internalType": "bytes32",
          "name": "_serverSeedHash",
          "type": "bytes32"
        },
        {
          "internalType": "bytes32",
          "name": "_salt",
          "type": "bytes32"
        }
      ],
      "name": "commit",
      "outputs": [],
      "stateMutability": "nonpayable",
      "type": "function"
    },
    {
      "inputs": [
        {
          "internalType": "bytes32",
          "name": "_userSeed",
          "type": "bytes32"
        },
        {
          "internalType": "bytes",
          "name": "_signature",
          "type": "bytes"
        }
      ],
      "name": "participate",
      "outputs": [],
      "stateMutability": "payable",
      "type": "function",
      "payable": true
    },
    {
      "inputs": [
        {
          "internalType": "bytes32",
          "name": "_serverSeed",
          "type": "bytes32"
        },
        {
          "internalType": "bytes",
          "name": "signature",
          "type": "bytes"
        }
      ],
      "name": "reveal",
      "outputs": [],
      "stateMutability": "nonpayable",
      "type": "function"
    },
    {
      "inputs": [
        {
          "internalType": "uint256",
          "name": "tokenId",
          "type": "uint256"
        }
      ],
      "name": "tokenURI",
      "outputs": [
        {
          "internalType": "string",
          "name": "",
          "type": "string"
        }
      ],
      "stateMutability": "view",
      "type": "function",
      "constant": true
    },
    {
      "inputs": [
        {
          "internalType": "uint256",
          "name": "tokenId",
          "type": "uint256"
        }
      ],
      "name": "getLuckyNumberForToken",
      "outputs": [
        {
          "internalType": "uint256",
          "name": "",
          "type": "uint256"
        }
      ],
      "stateMutability": "view",
      "type": "function",
      "constant": true
    },
    {
      "inputs": [
        {
          "internalType": "uint256[]",
          "name": "luckyNumbers",
          "type": "uint256[]"
        },
        {
          "internalType": "string[]",
          "name": "names",
          "type": "string[]"
        },
        {
          "internalType": "string[]",
          "name": "descriptions",
          "type": "string[]"
        },
        {
          "internalType": "string[]",
          "name": "imageURLs",
          "type": "string[]"
        }
      ],
      "name": "setPrizesBulk",
      "outputs": [],
      "stateMutability": "nonpayable",
      "type": "function"
    },
    {
      "inputs": [],
      "name": "getAllTokensInfo",
      "outputs": [
        {
          "components": [
            {
              "internalType": "address",
              "name": "owner",
              "type": "address"
            },
            {
              "internalType": "uint256",
              "name": "tokenId",
              "type": "uint256"
            },
            {
              "internalType": "uint256",
              "name": "luckyNumber",
              "type": "uint256"
            },
            {
              "components": [
                {
                  "internalType": "string",
                  "name": "name",
                  "type": "string"
                },
                {
                  "internalType": "string",
                  "name": "description",
                  "type": "string"
                },
                {
                  "internalType": "string",
                  "name": "imageURL",
                  "type": "string"
                }
              ],
              "internalType": "struct Prize",
              "name": "prize",
              "type": "tuple"
            }
          ],
          "internalType": "struct TokenInfo[]",
          "name": "",
          "type": "tuple[]"
        }
      ],
      "stateMutability": "view",
      "type": "function",
      "constant": true
    },
    {
      "inputs": [
        {
          "internalType": "uint256",
          "name": "_luckyNumber",
          "type": "uint256"
        }
      ],
      "name": "getLuckyNumberCount",
      "outputs": [
        {
          "internalType": "uint256",
          "name": "",
          "type": "uint256"
        }
      ],
      "stateMutability": "view",
      "type": "function",
      "constant": true
    },
    {
      "inputs": [
        {
          "internalType": "bytes",
          "name": "",
          "type": "bytes"
        }
      ],
      "name": "checkUpkeep",
      "outputs": [
        {
          "internalType": "bool",
          "name": "upkeepNeeded",
          "type": "bool"
        },
        {
          "internalType": "bytes",
          "name": "",
          "type": "bytes"
        }
      ],
      "stateMutability": "nonpayable",
      "type": "function"
    },
    {
      "inputs": [
        {
          "internalType": "bytes",
          "name": "",
          "type": "bytes"
        }
      ],
      "name": "performUpkeep",
      "outputs": [],
      "stateMutability": "nonpayable",
      "type": "function"
    },
    {
      "inputs": [],
      "name": "requestDetermineResults",
      "outputs": [],
      "stateMutability": "nonpayable",
      "type": "function"
    },
    {
      "inputs": [
        {
          "internalType": "bytes32",
          "name": "_serverSeed",
          "type": "bytes32"
        },
        {
          "internalType": "bytes",
          "name": "signature",
          "type": "bytes"
        }
      ],
      "name": "determineResults",
      "outputs": [],
      "stateMutability": "nonpayable",
      "type": "function"
    },
    {
      "inputs": [],
      "name": "getParticipantCount",
      "outputs": [
        {
          "internalType": "uint256",
          "name": "",
          "type": "uint256"
        }
      ],
      "stateMutability": "view",
      "type": "function",
      "constant": true
    }
  ],
  "bytecode": "0x608060405234801562000010575f80fd5b5060405162005eb638038062005eb6833981810160405281019062000036919062000151565b6040518060400160405280600981526020017f546f6b656e4e616d6500000000000000000000000000000000000000000000008152506040518060400160405280600b81526020017f546f6b656e53796d626f6c000000000000000000000000000000000000000000815250815f9081620000b29190620003dc565b508060019081620000c49190620003dc565b50505033600b5f6101000a81548173ffffffffffffffffffffffffffffffffffffffff021916908373ffffffffffffffffffffffffffffffffffffffff16021790555080600d8190555050620004c0565b5f80fd5b5f819050919050565b6200012d8162000119565b811462000138575f80fd5b50565b5f815190506200014b8162000122565b92915050565b5f6020828403121562000169576200016862000115565b5b5f62000178848285016200013b565b91505092915050565b5f81519050919050565b7f4e487b71000000000000000000000000000000000000000000000000000000005f52604160045260245ffd5b7f4e487b71000000000000000000000000000000000000000000000000000000005f52602260045260245ffd5b5f6002820490506001821680620001fd57607f821691505b602082108103620002135762000212620001b8565b5b50919050565b5f819050815f5260205f209050919050565b5f6020601f8301049050919050565b5f82821b905092915050565b5f60088302620002777fffffffffffffffffffffffffffffffffffffffffffffffffffffffffffffffff826200023a565b6200028386836200023a565b95508019841693508086168417925050509392505050565b5f819050919050565b5f620002c4620002be620002b88462000119565b6200029b565b62000119565b9050919050565b5f819050919050565b620002df83620002a4565b620002f7620002ee82620002cb565b84845462000246565b825550505050565b5f90565b6200030d620002ff565b6200031a818484620002d4565b505050565b5b818110156200034157620003355f8262000303565b60018101905062000320565b5050565b601f82111562000390576200035a8162000219565b62000365846200022b565b8101602085101562000375578190505b6200038d62000384856200022b565b8301826200031f565b50505b505050565b5f82821c905092915050565b5f620003b25f198460080262000395565b1980831691505092915050565b5f620003cc8383620003a1565b9150826002028217905092915050565b620003e78262000181565b67ffffffffffffffff8111156200040357620004026200018b565b5b6200040f8254620001e5565b6200041c82828562000345565b5f60209050601f83116001811462000452575f84156200043d578287015190505b620004498582620003bf565b865550620004b8565b601f198416620004628662000219565b5f5b828110156200048b5784890151825560018201915060208501945060208101905062000464565b86831015620004ab5784890151620004a7601f891682620003a1565b8355505b6001600288020188555050505b505050505050565b6159e880620004ce5f395ff3fe608060405260043610610266575f3560e01c806368c282f211610143578063a22cb465116100b5578063bfa0b13311610079578063bfa0b1331461094c578063c87b56dd14610976578063ceb2d745146109b2578063d428fa2e146109da578063e3ce094d14610a18578063e985e9c514610a4057610266565b8063a22cb4651461087e578063ad605729146108a6578063b14b28a3146108d0578063b88d4fde146108fa578063bf205ebc1461092257610266565b80638520510811610107578063852051081461077e5780638da5cb5b146107a657806395d89b41146107d0578063984f0be3146107fa5780639a24a25b14610816578063a1099bf21461084057610266565b806368c282f2146106895780636e04ff0d146106b357806370a08231146106f05780637382901e1461072c5780637b53f7221461075657610266565b80633ecce918116101dc57806354214f69116101a057806354214f69146105935780635496510d146105bd5780635bb46dff146105d35780635fe8aa5e146105fb5780636352211e1461062357806366bcb6421461065f57610266565b80633ecce918146104a157806342842e0e146104dd5780634585e33b1461050557806348db5f891461052d5780634f6ccce71461055757610266565b80630e40fa7b1161022e5780630e40fa7b1461037057806318160ddd146103ac57806323b872dd146103d657806324924bf7146103fe5780632f745c591461042857806335c1d3491461046457610266565b806301ffc9a71461026a57806306fdde03146102a6578063081812fc146102d0578063095ea7b31461030c5780630e178ef114610334575b5f80fd5b348015610275575f80fd5b50610290600480360381019061028b9190613a32565b610a7c565b60405161029d9190613a77565b60405180910390f35b3480156102b1575f80fd5b506102ba610af5565b6040516102c79190613b1a565b60405180910390f35b3480156102db575f80fd5b506102f660048036038101906102f19190613b6d565b610b84565b6040516103039190613bd7565b60405180910390f35b348015610317575f80fd5b50610332600480360381019061032d9190613c1a565b610bc6565b005b34801561033f575f80fd5b5061035a60048036038101906103559190613b6d565b610cdc565b6040516103679190613c67565b60405180910390f35b34801561037b575f80fd5b5061039660048036038101906103919190613b6d565b610cf6565b6040516103a39190613c67565b60405180910390f35b3480156103b7575f80fd5b506103c0610d10565b6040516103cd9190613c67565b60405180910390f35b3480156103e1575f80fd5b506103fc60048036038101906103f79190613c80565b610d1c565b005b348015610409575f80fd5b50610412610d7c565b60405161041f9190613c67565b60405180910390f35b348015610433575f80fd5b5061044e60048036038101906104499190613c1a565b610d82565b60405161045b9190613c67565b60405180910390f35b34801561046f575f80fd5b5061048a60048036038101906104859190613b6d565b610e22565b604051610498929190613ce8565b60405180910390f35b3480156104ac575f80fd5b506104c760048036038101906104c29190613d39565b610e70565b6040516104d49190613a77565b60405180910390f35b3480156104e8575f80fd5b5061050360048036038101906104fe9190613c80565b610e9a565b005b348015610510575f80fd5b5061052b60048036038101906105269190613dd8565b610eb9565b005b348015610538575f80fd5b50610541610fa0565b60405161054e9190613e43565b60405180910390f35b348015610562575f80fd5b5061057d60048036038101906105789190613b6d565b610fc5565b60405161058a9190613c67565b60405180910390f35b34801561059e575f80fd5b506105a7611033565b6040516105b49190613a77565b60405180910390f35b3480156105c8575f80fd5b506105d1611045565b005b3480156105de575f80fd5b506105f960048036038101906105f49190613eb1565b61108a565b005b348015610606575f80fd5b50610621600480360381019061061c91906141c2565b6110de565b005b34801561062e575f80fd5b5061064960048036038101906106449190613b6d565b611237565b6040516106569190613bd7565b60405180910390f35b34801561066a575f80fd5b506106736112bb565b6040516106809190614296565b60405180910390f35b348015610694575f80fd5b5061069d6112c1565b6040516106aa9190614296565b60405180910390f35b3480156106be575f80fd5b506106d960048036038101906106d49190613dd8565b6112c7565b6040516106e7929190614301565b60405180910390f35b3480156106fb575f80fd5b506107166004803603810190610711919061432f565b6112ec565b6040516107239190613c67565b60405180910390f35b348015610737575f80fd5b506107406113a0565b60405161074d9190614296565b60405180910390f35b348015610761575f80fd5b5061077c600480360381019061077791906143f8565b6113a6565b005b348015610789575f80fd5b506107a4600480360381019061079f91906143f8565b611658565b005b3480156107b1575f80fd5b506107ba6118e3565b6040516107c79190613e43565b60405180910390f35b3480156107db575f80fd5b506107e4611908565b6040516107f19190613b1a565b60405180910390f35b610814600480360381019061080f91906143f8565b611998565b005b348015610821575f80fd5b5061082a611ba1565b604051610837919061462e565b60405180910390f35b34801561084b575f80fd5b5061086660048036038101906108619190613b6d565b611e76565b6040516108759392919061464e565b60405180910390f35b348015610889575f80fd5b506108a4600480360381019061089f91906146c2565b612065565b005b3480156108b1575f80fd5b506108ba61207b565b6040516108c79190613c67565b60405180910390f35b3480156108db575f80fd5b506108e4612087565b6040516108f19190613c67565b60405180910390f35b348015610905575f80fd5b50610920600480360381019061091b9190614700565b61208d565b005b34801561092d575f80fd5b506109366120ef565b6040516109439190613c67565b60405180910390f35b348015610957575f80fd5b506109606120f5565b60405161096d9190614296565b60405180910390f35b348015610981575f80fd5b5061099c60048036038101906109979190613b6d565b6120fb565b6040516109a99190613b1a565b60405180910390f35b3480156109bd575f80fd5b506109d860048036038101906109d39190614780565b61219c565b005b3480156109e5575f80fd5b50610a0060048036038101906109fb9190613b6d565b612216565b604051610a0f9392919061464e565b60405180910390f35b348015610a23575f80fd5b50610a3e6004803603810190610a399190614838565b6123ce565b005b348015610a4b575f80fd5b50610a666004803603810190610a619190614876565b6124b1565b604051610a739190613a77565b60405180910390f35b5f7f780e9d63000000000000000000000000000000000000000000000000000000007bffffffffffffffffffffffffffffffffffffffffffffffffffffffff1916827bffffffffffffffffffffffffffffffffffffffffffffffffffffffff19161480610aee5750610aed8261253f565b5b9050919050565b60605f8054610b03906148e1565b80601f0160208091040260200160405190810160405280929190818152602001828054610b2f906148e1565b8015610b7a5780601f10610b5157610100808354040283529160200191610b7a565b820191905f5260205f20905b815481529060010190602001808311610b5d57829003601f168201915b5050505050905090565b5f610b8e82612620565b60045f8381526020019081526020015f205f9054906101000a900473ffffffffffffffffffffffffffffffffffffffff169050919050565b5f610bd082611237565b90508073ffffffffffffffffffffffffffffffffffffffff168373ffffffffffffffffffffffffffffffffffffffff1603610c40576040517f08c379a0000000000000000000000000000000000000000000000000000000008152600401610c3790614981565b60405180910390fd5b8073ffffffffffffffffffffffffffffffffffffffff16610c5f61266b565b73ffffffffffffffffffffffffffffffffffffffff161480610c8e5750610c8d81610c8861266b565b6124b1565b5b610ccd576040517f08c379a0000000000000000000000000000000000000000000000000000000008152600401610cc490614a0f565b60405180910390fd5b610cd78383612672565b505050565b5f60165f8381526020019081526020015f20549050919050565b5f60195f8381526020019081526020015f20549050919050565b5f600880549050905090565b610d2d610d2761266b565b82612728565b610d6c576040517f08c379a0000000000000000000000000000000000000000000000000000000008152600401610d6390614a9d565b60405180910390fd5b610d778383836127bc565b505050565b600d5481565b5f610d8c836112ec565b8210610dcd576040517f08c379a0000000000000000000000000000000000000000000000000000000008152600401610dc490614b2b565b60405180910390fd5b60065f8473ffffffffffffffffffffffffffffffffffffffff1673ffffffffffffffffffffffffffffffffffffffff1681526020019081526020015f205f8381526020019081526020015f2054905092915050565b601a8181548110610e31575f80fd5b905f5260205f2090600202015f91509050805f015f9054906101000a900473ffffffffffffffffffffffffffffffffffffffff16908060010154905082565b6015602052815f5260405f20602052805f5260405f205f915091509054906101000a900460ff1681565b610eb483838360405180602001604052805f81525061208d565b505050565b5f601054604051602001610ecd9190614b69565b604051602081830303815290604052805190602001209050600a815f1c610ef49190614bb0565b601181905550600160195f60115481526020019081526020015f2054610f1a9190614c0d565b60195f60115481526020019081526020015f2081905550610f5e600c5f9054906101000a900473ffffffffffffffffffffffffffffffffffffffff16601154612aa8565b7f6765f1b8ca6c099f7378c6e9b12cf8afac970d483c3faf81745e4b40c26148db601054601154604051610f93929190614c40565b60405180910390a1505050565b600c5f9054906101000a900473ffffffffffffffffffffffffffffffffffffffff1681565b5f610fce610d10565b821061100f576040517f08c379a000000000000000000000000000000000000000000000000000000000815260040161100690614cd7565b60405180910390fd5b6008828154811061102357611022614cf5565b5b905f5260205f2001549050919050565b60125f9054906101000a900460ff1681565b3373ffffffffffffffffffffffffffffffffffffffff167fdda016d7b874cacc86c2b42a2ede2a36f88802bf7e12e60506bb10f80c19ad6460405160405180910390a2565b3373ffffffffffffffffffffffffffffffffffffffff167f012b1127b60d15366b18ae35b2848ab5a402d272f830e92b37b1db38374a1c0983836040516110d2929190614d4e565b60405180910390a25050565b825184511480156110f0575081518351145b80156110fd575080518251145b61113c576040517f08c379a000000000000000000000000000000000000000000000000000000000815260040161113390614dba565b60405180910390fd5b5f5b8451811015611230575f604051806060016040528086848151811061116657611165614cf5565b5b6020026020010151815260200185848151811061118657611185614cf5565b5b602002602001015181526020018484815181106111a6576111a5614cf5565b5b602002602001015181525090508060175f8885815181106111ca576111c9614cf5565b5b602002602001015181526020019081526020015f205f820151815f0190816111f29190614f75565b5060208201518160010190816112089190614f75565b50604082015181600201908161121e9190614f75565b5090505050808060010191505061113e565b5050505050565b5f8061124283612d24565b90505f73ffffffffffffffffffffffffffffffffffffffff168173ffffffffffffffffffffffffffffffffffffffff16036112b2576040517f08c379a00000000000000000000000000000000000000000000000000000000081526004016112a99061508e565b60405180910390fd5b80915050919050565b60105481565b600f5481565b5f6060426014541091508160405180602001604052805f815250915091509250929050565b5f8073ffffffffffffffffffffffffffffffffffffffff168273ffffffffffffffffffffffffffffffffffffffff160361135b576040517f08c379a00000000000000000000000000000000000000000000000000000000081526004016113529061511c565b60405180910390fd5b60035f8373ffffffffffffffffffffffffffffffffffffffff1673ffffffffffffffffffffffffffffffffffffffff1681526020019081526020015f20549050919050565b600e5481565b816013546040516020016113bb92919061513a565b60405160208183030381529060405280519060200120600e5414611414576040517f08c379a000000000000000000000000000000000000000000000000000000000815260040161140b906151af565b60405180910390fd5b81600f819055505f61142583612d5d565b90505f61143182612d8c565b90505f61143e8285612dbb565b9050600b5f9054906101000a900473ffffffffffffffffffffffffffffffffffffffff1673ffffffffffffffffffffffffffffffffffffffff168173ffffffffffffffffffffffffffffffffffffffff16146114cf576040517f08c379a00000000000000000000000000000000000000000000000000000000081526004016114c690615217565b60405180910390fd5b5f5b601a80549050811015611643575f600f54601a83815481106114f6576114f5614cf5565b5b905f5260205f20906002020160010154601a848154811061151a57611519614cf5565b5b905f5260205f2090600202015f015f9054906101000a900473ffffffffffffffffffffffffffffffffffffffff1660135460405160200161155e949392919061527a565b6040516020818303038152906040528051906020012090505f600a825f1c6115869190614bb0565b905060195f8281526020019081526020015f205f8154809291906115a9906152c7565b91905055506115f9601a84815481106115c5576115c4614cf5565b5b905f5260205f2090600202015f015f9054906101000a900473ffffffffffffffffffffffffffffffffffffffff1682612aa8565b7f6765f1b8ca6c099f7378c6e9b12cf8afac970d483c3faf81745e4b40c26148db600f548260405161162c929190614c40565b60405180910390a1505080806001019150506114d1565b50601a5f6116519190613906565b5050505050565b8160135460405160200161166d92919061513a565b60405160208183030381529060405280519060200120600e54146116c6576040517f08c379a00000000000000000000000000000000000000000000000000000000081526004016116bd906151af565b60405180910390fd5b81600f819055505f6116d783612d5d565b90505f6116e382612d8c565b90505f6116f08285612dbb565b9050827f5f23b605bd6c13580e1bd65c89aa5768674b0165fd8cc0a8a18819c7cd8a7c7860405160405180910390a28073ffffffffffffffffffffffffffffffffffffffff167f391f5edd7209ba797e8055bce97cab2d1a480a2849b0c7fe965c370457166dc460405160405180910390a2600b5f9054906101000a900473ffffffffffffffffffffffffffffffffffffffff1673ffffffffffffffffffffffffffffffffffffffff168173ffffffffffffffffffffffffffffffffffffffff16146117f1576040517f08c379a00000000000000000000000000000000000000000000000000000000081526004016117e890615217565b60405180910390fd5b5f600f5460105460135460405160200161180d9392919061530e565b604051602081830303815290604052805190602001209050600a815f1c6118349190614bb0565b601181905550600160195f60115481526020019081526020015f205461185a9190614c0d565b60195f60115481526020019081526020015f20819055507f6765f1b8ca6c099f7378c6e9b12cf8afac970d483c3faf81745e4b40c26148db600f546011546040516118a6929190614c40565b60405180910390a16118db600c5f9054906101000a900473ffffffffffffffffffffffffffffffffffffffff16601154612aa8565b505050505050565b600b5f9054906101000a900473ffffffffffffffffffffffffffffffffffffffff1681565b606060018054611917906148e1565b80601f0160208091040260200160405190810160405280929190818152602001828054611943906148e1565b801561198e5780601f106119655761010080835404028352916020019161198e565b820191905f5260205f20905b81548152906001019060200180831161197157829003601f168201915b5050505050905090565b5f6119a283612d5d565b90505f6119ae82612d8c565b90505f6119bb8285612dbb565b90503373ffffffffffffffffffffffffffffffffffffffff168173ffffffffffffffffffffffffffffffffffffffff1614611a2b576040517f08c379a0000000000000000000000000000000000000000000000000000000008152600401611a2290615217565b60405180910390fd5b5f5b601a80549050811015611af6573373ffffffffffffffffffffffffffffffffffffffff16601a8281548110611a6557611a64614cf5565b5b905f5260205f2090600202015f015f9054906101000a900473ffffffffffffffffffffffffffffffffffffffff1673ffffffffffffffffffffffffffffffffffffffff1603611ae9576040517f08c379a0000000000000000000000000000000000000000000000000000000008152600401611ae090615394565b60405180910390fd5b8080600101915050611a2d565b50601a60405180604001604052803373ffffffffffffffffffffffffffffffffffffffff16815260200187815250908060018154018082558091505060019003905f5260205f2090600202015f909190919091505f820151815f015f6101000a81548173ffffffffffffffffffffffffffffffffffffffff021916908373ffffffffffffffffffffffffffffffffffffffff1602179055506020820151816001015550505050505050565b60605f611bae600a612e25565b90505f8167ffffffffffffffff811115611bcb57611bca613efc565b5b604051908082528060200260200182016040528015611c0457816020015b611bf1613927565b815260200190600190039081611be95790505b5090505f5b82811015611e6d575f600182611c1f9190614c0d565b90505f611c2b82611237565b90505f611c3783610cdc565b90505f60175f8381526020019081526020015f206040518060600160405290815f82018054611c65906148e1565b80601f0160208091040260200160405190810160405280929190818152602001828054611c91906148e1565b8015611cdc5780601f10611cb357610100808354040283529160200191611cdc565b820191905f5260205f20905b815481529060010190602001808311611cbf57829003601f168201915b50505050508152602001600182018054611cf5906148e1565b80601f0160208091040260200160405190810160405280929190818152602001828054611d21906148e1565b8015611d6c5780601f10611d4357610100808354040283529160200191611d6c565b820191905f5260205f20905b815481529060010190602001808311611d4f57829003601f168201915b50505050508152602001600282018054611d85906148e1565b80601f0160208091040260200160405190810160405280929190818152602001828054611db1906148e1565b8015611dfc5780601f10611dd357610100808354040283529160200191611dfc565b820191905f5260205f20905b815481529060010190602001808311611ddf57829003601f168201915b505050505081525050905060405180608001604052808473ffffffffffffffffffffffffffffffffffffffff16815260200185815260200183815260200182815250868681518110611e5157611e50614cf5565b5b6020026020010181905250505050508080600101915050611c09565b50809250505090565b60608060605f60175f8681526020019081526020015f206040518060600160405290815f82018054611ea7906148e1565b80601f0160208091040260200160405190810160405280929190818152602001828054611ed3906148e1565b8015611f1e5780601f10611ef557610100808354040283529160200191611f1e565b820191905f5260205f20905b815481529060010190602001808311611f0157829003601f168201915b50505050508152602001600182018054611f37906148e1565b80601f0160208091040260200160405190810160405280929190818152602001828054611f63906148e1565b8015611fae5780601f10611f8557610100808354040283529160200191611fae565b820191905f5260205f20905b815481529060010190602001808311611f9157829003601f168201915b50505050508152602001600282018054611fc7906148e1565b80601f0160208091040260200160405190810160405280929190818152602001828054611ff3906148e1565b801561203e5780601f106120155761010080835404028352916020019161203e565b820191905f5260205f20905b81548152906001019060200180831161202157829003601f168201915b5050505050815250509050805f015181602001518260400151935093509350509193909250565b61207761207061266b565b8383612e31565b5050565b5f601a80549050905090565b60145481565b61209e61209861266b565b83612728565b6120dd576040517f08c379a00000000000000000000000000000000000000000000000000000000081526004016120d490614a9d565b60405180910390fd5b6120e984848484612f98565b50505050565b60115481565b60135481565b606060185f8381526020019081526020015f208054612119906148e1565b80601f0160208091040260200160405190810160405280929190818152602001828054612145906148e1565b80156121905780601f1061216757610100808354040283529160200191612190565b820191905f5260205f20905b81548152906001019060200180831161217357829003601f168201915b50505050509050919050565b5f60405180606001604052808581526020018481526020018381525090508060175f8781526020019081526020015f205f820151815f0190816121df9190614f75565b5060208201518160010190816121f59190614f75565b50604082015181600201908161220b9190614f75565b509050505050505050565b6017602052805f5260405f205f91509050805f018054612235906148e1565b80601f0160208091040260200160405190810160405280929190818152602001828054612261906148e1565b80156122ac5780601f10612283576101008083540402835291602001916122ac565b820191905f5260205f20905b81548152906001019060200180831161228f57829003601f168201915b5050505050908060010180546122c1906148e1565b80601f01602080910402602001604051908101604052809291908181526020018280546122ed906148e1565b80156123385780601f1061230f57610100808354040283529160200191612338565b820191905f5260205f20905b81548152906001019060200180831161231b57829003601f168201915b50505050509080600201805461234d906148e1565b80601f0160208091040260200160405190810160405280929190818152602001828054612379906148e1565b80156123c45780601f1061239b576101008083540402835291602001916123c4565b820191905f5260205f20905b8154815290600101906020018083116123a757829003601f168201915b5050505050905083565b600b5f9054906101000a900473ffffffffffffffffffffffffffffffffffffffff1673ffffffffffffffffffffffffffffffffffffffff163373ffffffffffffffffffffffffffffffffffffffff161461245d576040517f08c379a0000000000000000000000000000000000000000000000000000000008152600401612454906153fc565b60405180910390fd5b81600e8190555080601381905550603c426124789190614c0d565b601481905550600e547f522250e8a5d48ed8b6afbdb88fc1bb8ce6735c729835065b6840033c1d406f9060405160405180910390a25050565b5f60055f8473ffffffffffffffffffffffffffffffffffffffff1673ffffffffffffffffffffffffffffffffffffffff1681526020019081526020015f205f8373ffffffffffffffffffffffffffffffffffffffff1673ffffffffffffffffffffffffffffffffffffffff1681526020019081526020015f205f9054906101000a900460ff16905092915050565b5f7f80ac58cd000000000000000000000000000000000000000000000000000000007bffffffffffffffffffffffffffffffffffffffffffffffffffffffff1916827bffffffffffffffffffffffffffffffffffffffffffffffffffffffff1916148061260957507f5b5e139f000000000000000000000000000000000000000000000000000000007bffffffffffffffffffffffffffffffffffffffffffffffffffffffff1916827bffffffffffffffffffffffffffffffffffffffffffffffffffffffff1916145b80612619575061261882612ff4565b5b9050919050565b6126298161305d565b612668576040517f08c379a000000000000000000000000000000000000000000000000000000000815260040161265f9061508e565b60405180910390fd5b50565b5f33905090565b8160045f8381526020019081526020015f205f6101000a81548173ffffffffffffffffffffffffffffffffffffffff021916908373ffffffffffffffffffffffffffffffffffffffff160217905550808273ffffffffffffffffffffffffffffffffffffffff166126e283611237565b73ffffffffffffffffffffffffffffffffffffffff167f8c5be1e5ebec7d5bd14f71427d1e84f3dd0314c0f7b2291e5b200ac8c7c3b92560405160405180910390a45050565b5f8061273383611237565b90508073ffffffffffffffffffffffffffffffffffffffff168473ffffffffffffffffffffffffffffffffffffffff161480612775575061277481856124b1565b5b806127b357508373ffffffffffffffffffffffffffffffffffffffff1661279b84610b84565b73ffffffffffffffffffffffffffffffffffffffff16145b91505092915050565b8273ffffffffffffffffffffffffffffffffffffffff166127dc82611237565b73ffffffffffffffffffffffffffffffffffffffff1614612832576040517f08c379a00000000000000000000000000000000000000000000000000000000081526004016128299061548a565b60405180910390fd5b5f73ffffffffffffffffffffffffffffffffffffffff168273ffffffffffffffffffffffffffffffffffffffff16036128a0576040517f08c379a000000000000000000000000000000000000000000000000000000000815260040161289790615518565b60405180910390fd5b6128ad838383600161309d565b8273ffffffffffffffffffffffffffffffffffffffff166128cd82611237565b73ffffffffffffffffffffffffffffffffffffffff1614612923576040517f08c379a000000000000000000000000000000000000000000000000000000000815260040161291a9061548a565b60405180910390fd5b60045f8281526020019081526020015f205f6101000a81549073ffffffffffffffffffffffffffffffffffffffff0219169055600160035f8573ffffffffffffffffffffffffffffffffffffffff1673ffffffffffffffffffffffffffffffffffffffff1681526020019081526020015f205f8282540392505081905550600160035f8473ffffffffffffffffffffffffffffffffffffffff1673ffffffffffffffffffffffffffffffffffffffff1681526020019081526020015f205f82825401925050819055508160025f8381526020019081526020015f205f6101000a81548173ffffffffffffffffffffffffffffffffffffffff021916908373ffffffffffffffffffffffffffffffffffffffff160217905550808273ffffffffffffffffffffffffffffffffffffffff168473ffffffffffffffffffffffffffffffffffffffff167fddf252ad1be2c89b69c2b068fc378daa952ba7f163c4a11628f55a4df523b3ef60405160405180910390a4612aa383838360016131f8565b505050565b612ab2600a6131fe565b5f612abd600a612e25565b9050612ac98382613212565b8160165f8381526020019081526020015f20819055505f60175f8481526020019081526020015f206040518060600160405290815f82018054612b0b906148e1565b80601f0160208091040260200160405190810160405280929190818152602001828054612b37906148e1565b8015612b825780601f10612b5957610100808354040283529160200191612b82565b820191905f5260205f20905b815481529060010190602001808311612b6557829003601f168201915b50505050508152602001600182018054612b9b906148e1565b80601f0160208091040260200160405190810160405280929190818152602001828054612bc7906148e1565b8015612c125780601f10612be957610100808354040283529160200191612c12565b820191905f5260205f20905b815481529060010190602001808311612bf557829003601f168201915b50505050508152602001600282018054612c2b906148e1565b80601f0160208091040260200160405190810160405280929190818152602001828054612c57906148e1565b8015612ca25780601f10612c7957610100808354040283529160200191612ca2565b820191905f5260205f20905b815481529060010190602001808311612c8557829003601f168201915b5050505050815250509050806040015160185f8481526020019081526020015f209081612ccf9190614f75565b508373ffffffffffffffffffffffffffffffffffffffff167f4cc0a9c4a99ddc700de1af2c9f916a7cbfdb71f14801ccff94061ad1ef8a804083604051612d169190613c67565b60405180910390a250505050565b5f60025f8381526020019081526020015f205f9054906101000a900473ffffffffffffffffffffffffffffffffffffffff169050919050565b5f81604051602001612d6f9190614b69565b604051602081830303815290604052805190602001209050919050565b5f81604051602001612d9e919061558a565b604051602081830303815290604052805190602001209050919050565b5f805f80612dc885613425565b9250925092506001868285856040515f8152602001604052604051612df094939291906155ca565b6020604051602081039080840390855afa158015612e10573d5f803e3d5ffd5b50505060206040510351935050505092915050565b5f815f01549050919050565b8173ffffffffffffffffffffffffffffffffffffffff168373ffffffffffffffffffffffffffffffffffffffff1603612e9f576040517f08c379a0000000000000000000000000000000000000000000000000000000008152600401612e9690615657565b60405180910390fd5b8060055f8573ffffffffffffffffffffffffffffffffffffffff1673ffffffffffffffffffffffffffffffffffffffff1681526020019081526020015f205f8473ffffffffffffffffffffffffffffffffffffffff1673ffffffffffffffffffffffffffffffffffffffff1681526020019081526020015f205f6101000a81548160ff0219169083151502179055508173ffffffffffffffffffffffffffffffffffffffff168373ffffffffffffffffffffffffffffffffffffffff167f17307eab39ab6107e8899845ad3d59bd9653f200f220920489ca2b5937696c3183604051612f8b9190613a77565b60405180910390a3505050565b612fa38484846127bc565b612faf8484848461348a565b612fee576040517f08c379a0000000000000000000000000000000000000000000000000000000008152600401612fe5906156e5565b60405180910390fd5b50505050565b5f7f01ffc9a7000000000000000000000000000000000000000000000000000000007bffffffffffffffffffffffffffffffffffffffffffffffffffffffff1916827bffffffffffffffffffffffffffffffffffffffffffffffffffffffff1916149050919050565b5f8073ffffffffffffffffffffffffffffffffffffffff1661307e83612d24565b73ffffffffffffffffffffffffffffffffffffffff1614159050919050565b6130a98484848461360c565b60018111156130ed576040517f08c379a00000000000000000000000000000000000000000000000000000000081526004016130e490615773565b60405180910390fd5b5f8290505f73ffffffffffffffffffffffffffffffffffffffff168573ffffffffffffffffffffffffffffffffffffffff16036131325761312d81613612565b613171565b8373ffffffffffffffffffffffffffffffffffffffff168573ffffffffffffffffffffffffffffffffffffffff16146131705761316f8582613656565b5b5b5f73ffffffffffffffffffffffffffffffffffffffff168473ffffffffffffffffffffffffffffffffffffffff16036131b2576131ad816137ac565b6131f1565b8473ffffffffffffffffffffffffffffffffffffffff168473ffffffffffffffffffffffffffffffffffffffff16146131f0576131ef848261386c565b5b5b5050505050565b50505050565b6001815f015f828254019250508190555050565b5f73ffffffffffffffffffffffffffffffffffffffff168273ffffffffffffffffffffffffffffffffffffffff1603613280576040517f08c379a0000000000000000000000000000000000000000000000000000000008152600401613277906157db565b60405180910390fd5b6132898161305d565b156132c9576040517f08c379a00000000000000000000000000000000000000000000000000000000081526004016132c090615843565b60405180910390fd5b6132d65f8383600161309d565b6132df8161305d565b1561331f576040517f08c379a000000000000000000000000000000000000000000000000000000000815260040161331690615843565b60405180910390fd5b600160035f8473ffffffffffffffffffffffffffffffffffffffff1673ffffffffffffffffffffffffffffffffffffffff1681526020019081526020015f205f82825401925050819055508160025f8381526020019081526020015f205f6101000a81548173ffffffffffffffffffffffffffffffffffffffff021916908373ffffffffffffffffffffffffffffffffffffffff160217905550808273ffffffffffffffffffffffffffffffffffffffff165f73ffffffffffffffffffffffffffffffffffffffff167fddf252ad1be2c89b69c2b068fc378daa952ba7f163c4a11628f55a4df523b3ef60405160405180910390a46134215f838360016131f8565b5050565b5f805f604184511461346c576040517f08c379a0000000000000000000000000000000000000000000000000000000008152600401613463906158ab565b60405180910390fd5b602084015192506040840151915060608401515f1a90509193909250565b5f6134aa8473ffffffffffffffffffffffffffffffffffffffff166138e4565b156135ff578373ffffffffffffffffffffffffffffffffffffffff1663150b7a026134d361266b565b8786866040518563ffffffff1660e01b81526004016134f594939291906158c9565b6020604051808303815f875af192505050801561353057506040513d601f19601f8201168201806040525081019061352d9190615927565b60015b6135af573d805f811461355e576040519150601f19603f3d011682016040523d82523d5f602084013e613563565b606091505b505f8151036135a7576040517f08c379a000000000000000000000000000000000000000000000000000000000815260040161359e906156e5565b60405180910390fd5b805181602001fd5b63150b7a0260e01b7bffffffffffffffffffffffffffffffffffffffffffffffffffffffff1916817bffffffffffffffffffffffffffffffffffffffffffffffffffffffff191614915050613604565b600190505b949350505050565b50505050565b60088054905060095f8381526020019081526020015f2081905550600881908060018154018082558091505060019003905f5260205f20015f909190919091505550565b5f6001613662846112ec565b61366c9190615952565b90505f60075f8481526020019081526020015f20549050818114613743575f60065f8673ffffffffffffffffffffffffffffffffffffffff1673ffffffffffffffffffffffffffffffffffffffff1681526020019081526020015f205f8481526020019081526020015f205490508060065f8773ffffffffffffffffffffffffffffffffffffffff1673ffffffffffffffffffffffffffffffffffffffff1681526020019081526020015f205f8481526020019081526020015f20819055508160075f8381526020019081526020015f2081905550505b60075f8481526020019081526020015f205f905560065f8573ffffffffffffffffffffffffffffffffffffffff1673ffffffffffffffffffffffffffffffffffffffff1681526020019081526020015f205f8381526020019081526020015f205f905550505050565b5f60016008805490506137bf9190615952565b90505f60095f8481526020019081526020015f205490505f600883815481106137eb576137ea614cf5565b5b905f5260205f2001549050806008838154811061380b5761380a614cf5565b5b905f5260205f2001819055508160095f8381526020019081526020015f208190555060095f8581526020019081526020015f205f9055600880548061385357613852615985565b5b600190038181905f5260205f20015f9055905550505050565b5f613876836112ec565b90508160065f8573ffffffffffffffffffffffffffffffffffffffff1673ffffffffffffffffffffffffffffffffffffffff1681526020019081526020015f205f8381526020019081526020015f20819055508060075f8481526020019081526020015f2081905550505050565b5f808273ffffffffffffffffffffffffffffffffffffffff163b119050919050565b5080545f8255600202905f5260205f20908101906139249190613968565b50565b60405180608001604052805f73ffffffffffffffffffffffffffffffffffffffff1681526020015f81526020015f81526020016139626139ab565b81525090565b5b808211156139a7575f8082015f6101000a81549073ffffffffffffffffffffffffffffffffffffffff0219169055600182015f905550600201613969565b5090565b60405180606001604052806060815260200160608152602001606081525090565b5f604051905090565b5f80fd5b5f80fd5b5f7fffffffff0000000000000000000000000000000000000000000000000000000082169050919050565b613a11816139dd565b8114613a1b575f80fd5b50565b5f81359050613a2c81613a08565b92915050565b5f60208284031215613a4757613a466139d5565b5b5f613a5484828501613a1e565b91505092915050565b5f8115159050919050565b613a7181613a5d565b82525050565b5f602082019050613a8a5f830184613a68565b92915050565b5f81519050919050565b5f82825260208201905092915050565b5f5b83811015613ac7578082015181840152602081019050613aac565b5f8484015250505050565b5f601f19601f8301169050919050565b5f613aec82613a90565b613af68185613a9a565b9350613b06818560208601613aaa565b613b0f81613ad2565b840191505092915050565b5f6020820190508181035f830152613b328184613ae2565b905092915050565b5f819050919050565b613b4c81613b3a565b8114613b56575f80fd5b50565b5f81359050613b6781613b43565b92915050565b5f60208284031215613b8257613b816139d5565b5b5f613b8f84828501613b59565b91505092915050565b5f73ffffffffffffffffffffffffffffffffffffffff82169050919050565b5f613bc182613b98565b9050919050565b613bd181613bb7565b82525050565b5f602082019050613bea5f830184613bc8565b92915050565b613bf981613bb7565b8114613c03575f80fd5b50565b5f81359050613c1481613bf0565b92915050565b5f8060408385031215613c3057613c2f6139d5565b5b5f613c3d85828601613c06565b9250506020613c4e85828601613b59565b9150509250929050565b613c6181613b3a565b82525050565b5f602082019050613c7a5f830184613c58565b92915050565b5f805f60608486031215613c9757613c966139d5565b5b5f613ca486828701613c06565b9350506020613cb586828701613c06565b9250506040613cc686828701613b59565b9150509250925092565b5f819050919050565b613ce281613cd0565b82525050565b5f604082019050613cfb5f830185613bc8565b613d086020830184613cd9565b9392505050565b613d1881613cd0565b8114613d22575f80fd5b50565b5f81359050613d3381613d0f565b92915050565b5f8060408385031215613d4f57613d4e6139d5565b5b5f613d5c85828601613c06565b9250506020613d6d85828601613d25565b9150509250929050565b5f80fd5b5f80fd5b5f80fd5b5f8083601f840112613d9857613d97613d77565b5b8235905067ffffffffffffffff811115613db557613db4613d7b565b5b602083019150836001820283011115613dd157613dd0613d7f565b5b9250929050565b5f8060208385031215613dee57613ded6139d5565b5b5f83013567ffffffffffffffff811115613e0b57613e0a6139d9565b5b613e1785828601613d83565b92509250509250929050565b5f613e2d82613b98565b9050919050565b613e3d81613e23565b82525050565b5f602082019050613e565f830184613e34565b92915050565b5f8083601f840112613e7157613e70613d77565b5b8235905067ffffffffffffffff811115613e8e57613e8d613d7b565b5b602083019150836001820283011115613eaa57613ea9613d7f565b5b9250929050565b5f8060208385031215613ec757613ec66139d5565b5b5f83013567ffffffffffffffff811115613ee457613ee36139d9565b5b613ef085828601613e5c565b92509250509250929050565b7f4e487b71000000000000000000000000000000000000000000000000000000005f52604160045260245ffd5b613f3282613ad2565b810181811067ffffffffffffffff82111715613f5157613f50613efc565b5b80604052505050565b5f613f636139cc565b9050613f6f8282613f29565b919050565b5f67ffffffffffffffff821115613f8e57613f8d613efc565b5b602082029050602081019050919050565b5f613fb1613fac84613f74565b613f5a565b90508083825260208201905060208402830185811115613fd457613fd3613d7f565b5b835b81811015613ffd5780613fe98882613b59565b845260208401935050602081019050613fd6565b5050509392505050565b5f82601f83011261401b5761401a613d77565b5b813561402b848260208601613f9f565b91505092915050565b5f67ffffffffffffffff82111561404e5761404d613efc565b5b602082029050602081019050919050565b5f80fd5b5f67ffffffffffffffff82111561407d5761407c613efc565b5b61408682613ad2565b9050602081019050919050565b828183375f83830152505050565b5f6140b36140ae84614063565b613f5a565b9050828152602081018484840111156140cf576140ce61405f565b5b6140da848285614093565b509392505050565b5f82601f8301126140f6576140f5613d77565b5b81356141068482602086016140a1565b91505092915050565b5f61412161411c84614034565b613f5a565b9050808382526020820190506020840283018581111561414457614143613d7f565b5b835b8181101561418b57803567ffffffffffffffff81111561416957614168613d77565b5b80860161417689826140e2565b85526020850194505050602081019050614146565b5050509392505050565b5f82601f8301126141a9576141a8613d77565b5b81356141b984826020860161410f565b91505092915050565b5f805f80608085870312156141da576141d96139d5565b5b5f85013567ffffffffffffffff8111156141f7576141f66139d9565b5b61420387828801614007565b945050602085013567ffffffffffffffff811115614224576142236139d9565b5b61423087828801614195565b935050604085013567ffffffffffffffff811115614251576142506139d9565b5b61425d87828801614195565b925050606085013567ffffffffffffffff81111561427e5761427d6139d9565b5b61428a87828801614195565b91505092959194509250565b5f6020820190506142a95f830184613cd9565b92915050565b5f81519050919050565b5f82825260208201905092915050565b5f6142d3826142af565b6142dd81856142b9565b93506142ed818560208601613aaa565b6142f681613ad2565b840191505092915050565b5f6040820190506143145f830185613a68565b818103602083015261432681846142c9565b90509392505050565b5f60208284031215614344576143436139d5565b5b5f61435184828501613c06565b91505092915050565b5f67ffffffffffffffff82111561437457614373613efc565b5b61437d82613ad2565b9050602081019050919050565b5f61439c6143978461435a565b613f5a565b9050828152602081018484840111156143b8576143b761405f565b5b6143c3848285614093565b509392505050565b5f82601f8301126143df576143de613d77565b5b81356143ef84826020860161438a565b91505092915050565b5f806040838503121561440e5761440d6139d5565b5b5f61441b85828601613d25565b925050602083013567ffffffffffffffff81111561443c5761443b6139d9565b5b614448858286016143cb565b9150509250929050565b5f81519050919050565b5f82825260208201905092915050565b5f819050602082019050919050565b61448481613bb7565b82525050565b61449381613b3a565b82525050565b5f82825260208201905092915050565b5f6144b382613a90565b6144bd8185614499565b93506144cd818560208601613aaa565b6144d681613ad2565b840191505092915050565b5f606083015f8301518482035f8601526144fb82826144a9565b9150506020830151848203602086015261451582826144a9565b9150506040830151848203604086015261452f82826144a9565b9150508091505092915050565b5f608083015f8301516145515f86018261447b565b506020830151614564602086018261448a565b506040830151614577604086018261448a565b506060830151848203606086015261458f82826144e1565b9150508091505092915050565b5f6145a7838361453c565b905092915050565b5f602082019050919050565b5f6145c582614452565b6145cf818561445c565b9350836020820285016145e18561446c565b805f5b8581101561461c57848403895281516145fd858261459c565b9450614608836145af565b925060208a019950506001810190506145e4565b50829750879550505050505092915050565b5f6020820190508181035f83015261464681846145bb565b905092915050565b5f6060820190508181035f8301526146668186613ae2565b9050818103602083015261467a8185613ae2565b9050818103604083015261468e8184613ae2565b9050949350505050565b6146a181613a5d565b81146146ab575f80fd5b50565b5f813590506146bc81614698565b92915050565b5f80604083850312156146d8576146d76139d5565b5b5f6146e585828601613c06565b92505060206146f6858286016146ae565b9150509250929050565b5f805f8060808587031215614718576147176139d5565b5b5f61472587828801613c06565b945050602061473687828801613c06565b935050604061474787828801613b59565b925050606085013567ffffffffffffffff811115614768576147676139d9565b5b614774878288016143cb565b91505092959194509250565b5f805f8060808587031215614798576147976139d5565b5b5f6147a587828801613b59565b945050602085013567ffffffffffffffff8111156147c6576147c56139d9565b5b6147d2878288016140e2565b935050604085013567ffffffffffffffff8111156147f3576147f26139d9565b5b6147ff878288016140e2565b925050606085013567ffffffffffffffff8111156148205761481f6139d9565b5b61482c878288016140e2565b91505092959194509250565b5f806040838503121561484e5761484d6139d5565b5b5f61485b85828601613d25565b925050602061486c85828601613d25565b9150509250929050565b5f806040838503121561488c5761488b6139d5565b5b5f61489985828601613c06565b92505060206148aa85828601613c06565b9150509250929050565b7f4e487b71000000000000000000000000000000000000000000000000000000005f52602260045260245ffd5b5f60028204905060018216806148f857607f821691505b60208210810361490b5761490a6148b4565b5b50919050565b7f4552433732313a20617070726f76616c20746f2063757272656e74206f776e655f8201527f7200000000000000000000000000000000000000000000000000000000000000602082015250565b5f61496b602183613a9a565b915061497682614911565b604082019050919050565b5f6020820190508181035f8301526149988161495f565b9050919050565b7f4552433732313a20617070726f76652063616c6c6572206973206e6f7420746f5f8201527f6b656e206f776e6572206f7220617070726f76656420666f7220616c6c000000602082015250565b5f6149f9603d83613a9a565b9150614a048261499f565b604082019050919050565b5f6020820190508181035f830152614a26816149ed565b9050919050565b7f4552433732313a2063616c6c6572206973206e6f7420746f6b656e206f776e655f8201527f72206f7220617070726f76656400000000000000000000000000000000000000602082015250565b5f614a87602d83613a9a565b9150614a9282614a2d565b604082019050919050565b5f6020820190508181035f830152614ab481614a7b565b9050919050565b7f455243373231456e756d657261626c653a206f776e657220696e646578206f755f8201527f74206f6620626f756e6473000000000000000000000000000000000000000000602082015250565b5f614b15602b83613a9a565b9150614b2082614abb565b604082019050919050565b5f6020820190508181035f830152614b4281614b09565b9050919050565b5f819050919050565b614b63614b5e82613cd0565b614b49565b82525050565b5f614b748284614b52565b60208201915081905092915050565b7f4e487b71000000000000000000000000000000000000000000000000000000005f52601260045260245ffd5b5f614bba82613b3a565b9150614bc583613b3a565b925082614bd557614bd4614b83565b5b828206905092915050565b7f4e487b71000000000000000000000000000000000000000000000000000000005f52601160045260245ffd5b5f614c1782613b3a565b9150614c2283613b3a565b9250828201905080821115614c3a57614c39614be0565b5b92915050565b5f604082019050614c535f830185613cd9565b614c606020830184613c58565b9392505050565b7f455243373231456e756d657261626c653a20676c6f62616c20696e646578206f5f8201527f7574206f6620626f756e64730000000000000000000000000000000000000000602082015250565b5f614cc1602c83613a9a565b9150614ccc82614c67565b604082019050919050565b5f6020820190508181035f830152614cee81614cb5565b9050919050565b7f4e487b71000000000000000000000000000000000000000000000000000000005f52603260045260245ffd5b5f614d2d8385613a9a565b9350614d3a838584614093565b614d4383613ad2565b840190509392505050565b5f6020820190508181035f830152614d67818486614d22565b90509392505050565b7f4172726179206c656e67746873206d69736d61746368000000000000000000005f82015250565b5f614da4601683613a9a565b9150614daf82614d70565b602082019050919050565b5f6020820190508181035f830152614dd181614d98565b9050919050565b5f819050815f5260205f209050919050565b5f6020601f8301049050919050565b5f82821b905092915050565b5f60088302614e347fffffffffffffffffffffffffffffffffffffffffffffffffffffffffffffffff82614df9565b614e3e8683614df9565b95508019841693508086168417925050509392505050565b5f819050919050565b5f614e79614e74614e6f84613b3a565b614e56565b613b3a565b9050919050565b5f819050919050565b614e9283614e5f565b614ea6614e9e82614e80565b848454614e05565b825550505050565b5f90565b614eba614eae565b614ec5818484614e89565b505050565b5b81811015614ee857614edd5f82614eb2565b600181019050614ecb565b5050565b601f821115614f2d57614efe81614dd8565b614f0784614dea565b81016020851015614f16578190505b614f2a614f2285614dea565b830182614eca565b50505b505050565b5f82821c905092915050565b5f614f4d5f1984600802614f32565b1980831691505092915050565b5f614f658383614f3e565b9150826002028217905092915050565b614f7e82613a90565b67ffffffffffffffff811115614f9757614f96613efc565b5b614fa182546148e1565b614fac828285614eec565b5f60209050601f831160018114614fdd575f8415614fcb578287015190505b614fd58582614f5a565b86555061503c565b601f198416614feb86614dd8565b5f5b8281101561501257848901518255600182019150602085019450602081019050614fed565b8683101561502f578489015161502b601f891682614f3e565b8355505b6001600288020188555050505b505050505050565b7f4552433732313a20696e76616c696420746f6b656e20494400000000000000005f82015250565b5f615078601883613a9a565b915061508382615044565b602082019050919050565b5f6020820190508181035f8301526150a58161506c565b9050919050565b7f4552433732313a2061646472657373207a65726f206973206e6f7420612076615f8201527f6c6964206f776e65720000000000000000000000000000000000000000000000602082015250565b5f615106602983613a9a565b9150615111826150ac565b604082019050919050565b5f6020820190508181035f830152615133816150fa565b9050919050565b5f6151458285614b52565b6020820191506151558284614b52565b6020820191508190509392505050565b7f496e76616c6964207365727665722073656564000000000000000000000000005f82015250565b5f615199601383613a9a565b91506151a482615165565b602082019050919050565b5f6020820190508181035f8301526151c68161518d565b9050919050565b7f496e76616c6964207369676e61747572650000000000000000000000000000005f82015250565b5f615201601183613a9a565b915061520c826151cd565b602082019050919050565b5f6020820190508181035f83015261522e816151f5565b9050919050565b5f8160601b9050919050565b5f61524b82615235565b9050919050565b5f61525c82615241565b9050919050565b61527461526f82613bb7565b615252565b82525050565b5f6152858287614b52565b6020820191506152958286614b52565b6020820191506152a58285615263565b6014820191506152b58284614b52565b60208201915081905095945050505050565b5f6152d182613b3a565b91507fffffffffffffffffffffffffffffffffffffffffffffffffffffffffffffffff820361530357615302614be0565b5b600182019050919050565b5f6153198286614b52565b6020820191506153298285614b52565b6020820191506153398284614b52565b602082019150819050949350505050565b7f5573657220616c7265616479207061727469636970617465642e0000000000005f82015250565b5f61537e601a83613a9a565b91506153898261534a565b602082019050919050565b5f6020820190508181035f8301526153ab81615372565b9050919050565b7f4f6e6c79206f776e65722063616e20636f6d6d697400000000000000000000005f82015250565b5f6153e6601583613a9a565b91506153f1826153b2565b602082019050919050565b5f6020820190508181035f830152615413816153da565b9050919050565b7f4552433732313a207472616e736665722066726f6d20696e636f7272656374205f8201527f6f776e6572000000000000000000000000000000000000000000000000000000602082015250565b5f615474602583613a9a565b915061547f8261541a565b604082019050919050565b5f6020820190508181035f8301526154a181615468565b9050919050565b7f4552433732313a207472616e7366657220746f20746865207a65726f206164645f8201527f7265737300000000000000000000000000000000000000000000000000000000602082015250565b5f615502602483613a9a565b915061550d826154a8565b604082019050919050565b5f6020820190508181035f83015261552f816154f6565b9050919050565b5f81905092915050565b7f19457468657265756d205369676e6564204d6573736167653a0a3332000000005f82015250565b5f615574601c83615536565b915061557f82615540565b601c82019050919050565b5f61559482615568565b91506155a08284614b52565b60208201915081905092915050565b5f60ff82169050919050565b6155c4816155af565b82525050565b5f6080820190506155dd5f830187613cd9565b6155ea60208301866155bb565b6155f76040830185613cd9565b6156046060830184613cd9565b95945050505050565b7f4552433732313a20617070726f766520746f2063616c6c6572000000000000005f82015250565b5f615641601983613a9a565b915061564c8261560d565b602082019050919050565b5f6020820190508181035f83015261566e81615635565b9050919050565b7f4552433732313a207472616e7366657220746f206e6f6e2045524337323152655f8201527f63656976657220696d706c656d656e7465720000000000000000000000000000602082015250565b5f6156cf603283613a9a565b91506156da82615675565b604082019050919050565b5f6020820190508181035f8301526156fc816156c3565b9050919050565b7f455243373231456e756d657261626c653a20636f6e73656375746976652074725f8201527f616e7366657273206e6f7420737570706f727465640000000000000000000000602082015250565b5f61575d603583613a9a565b915061576882615703565b604082019050919050565b5f6020820190508181035f83015261578a81615751565b9050919050565b7f4552433732313a206d696e7420746f20746865207a65726f20616464726573735f82015250565b5f6157c5602083613a9a565b91506157d082615791565b602082019050919050565b5f6020820190508181035f8301526157f2816157b9565b9050919050565b7f4552433732313a20746f6b656e20616c7265616479206d696e746564000000005f82015250565b5f61582d601c83613a9a565b9150615838826157f9565b602082019050919050565b5f6020820190508181035f83015261585a81615821565b9050919050565b7f696e76616c6964207369676e6174757265206c656e67746800000000000000005f82015250565b5f615895601883613a9a565b91506158a082615861565b602082019050919050565b5f6020820190508181035f8301526158c281615889565b9050919050565b5f6080820190506158dc5f830187613bc8565b6158e96020830186613bc8565b6158f66040830185613c58565b818103606083015261590881846142c9565b905095945050505050565b5f8151905061592181613a08565b92915050565b5f6020828403121561593c5761593b6139d5565b5b5f61594984828501615913565b91505092915050565b5f61595c82613b3a565b915061596783613b3a565b925082820390508181111561597f5761597e614be0565b5b92915050565b7f4e487b71000000000000000000000000000000000000000000000000000000005f52603160045260245ffdfea26469706673582212208901553826ba01b4c7dc1646141e6b61361097478151bb5b73cb4740e64dffb464736f6c63430008160033",
  "immutableReferences": {},
  "source": "// SPDX-License-Identifier: MIT\r\n\r\npragma solidity >=0.4.22 <0.9.0;\r\n\r\nimport \"@openzeppelin/contracts/utils/cryptography/ECDSA.sol\";\r\nimport \"@openzeppelin/contracts/token/ERC721/extensions/ERC721Enumerable.sol\";\r\nimport \"@openzeppelin/contracts/utils/Counters.sol\";\r\nimport \"@chainlink/contracts/src/v0.8/automation/AutomationCompatible.sol\";\r\n\r\n//truffle compile\r\n//truffle migrate --network sepolia\r\n//truffle migrate --network sepolia --reset\r\n// \r\nstruct TokenInfo {\r\n    address owner;\r\n    uint256 tokenId;\r\n    uint256 luckyNumber;\r\n    Prize prize;\r\n}\r\n\r\nstruct Prize {\r\n    string name;\r\n    string description;\r\n    string imageURL; // URI (: IPFS)\r\n}\r\n\r\n\r\n\r\ncontract GachaNFTBulk is ERC721Enumerable,AutomationCompatibleInterface {\r\n    using ECDSA for bytes32;\r\n    using Counters for Counters.Counter;\r\n\r\n    Counters.Counter private _tokenIdCounter;  // Token ID counter for NFTs\r\n  \r\n//0xdB246570d317400612c3782F0a208c6c51Ae5b22\r\n//truffle migrate --network sepolia --reset\r\n    address payable public owner;\r\n    address payable public player;\r\n    uint256 public maxParticipants;\r\n    bytes32 public serverSeedHash;  // Server seed hash for commitment\r\n    bytes32 public serverSeed;      // Server seed to be revealed later\r\n    bytes32 public userSeed;\r\n    uint256 public luckyNumber;\r\n    bool public isRevealed;\r\n    bytes32 public salt;  // : \r\n    uint256 public revealDeadline;\r\n\r\n\r\n\r\n    // Store used userSeed\r\n    mapping(address => mapping(bytes32 => bool)) public usedUserSeeds;\r\n    mapping(uint256 => uint256) private tokenLuckyNumbers;   \r\n    // \r\n    mapping(uint256 => Prize) public prizeMapping;\r\n    mapping(uint256 => string) private _tokenURIs;\r\n    mapping(uint256 => uint256) private luckyNumberCounts;\r\n\r\n\r\n\r\n    // Events\r\n    event Participation(address indexed player, bytes32 userSeed);\r\n    event Commitment(bytes32 indexed serverSeedHash);\r\n    event Reveal(bytes32 serverSeed, uint256 luckyNumber);\r\n    event CommitRequested(address indexed user);\r\n    event DebugLogEvent(string);  \r\n    event NFTMinted(address indexed owner, uint256 tokenId);\r\n  event RequestCommit(address indexed requester, string requestId);\r\nevent RequestDetermineResults(address indexed requester);\r\n\r\n  \r\n\r\n\r\nconstructor(uint256 _maxParticipants) ERC721(\"TokenName\", \"TokenSymbol\") public {\r\n    owner = payable(msg.sender);\r\n    maxParticipants = _maxParticipants;\r\n}\r\n\r\n// \r\n    function setPrize(uint256 luckyNumber, string memory name, string memory description, string memory imageURL) public {\r\n        // \r\n        Prize memory newPrize = Prize({\r\n            name: name,\r\n            description: description,\r\n            imageURL: imageURL\r\n        });\r\n\r\n        prizeMapping[luckyNumber] = newPrize;\r\n    }\r\n\r\n    // \r\n    function getPrize(uint256 luckyNumber) public view returns (string memory name, string memory description, string memory imageURL) {\r\n        Prize memory prize = prizeMapping[luckyNumber];\r\n        return (prize.name, prize.description, prize.imageURL);\r\n    }\r\n    function requestCommit(string calldata requestId) public {\r\n        // \r\n        emit RequestCommit(msg.sender, requestId);\r\n    }\r\n    // Owner commits a hashed server seed\r\n    function commit(bytes32 _serverSeedHash, bytes32 _salt) public {\r\n        require(msg.sender == owner, \"Only owner can commit\");\r\n        serverSeedHash = _serverSeedHash;\r\n        salt = _salt;\r\n        revealDeadline = block.timestamp + 1 minutes; // 1\r\n\r\n        emit Commitment(serverSeedHash);  // Emit Commitment event\r\n    }\r\n\r\n\r\n//  function participate(bytes32 _userSeed) public payable {\r\n//         userSeed = _userSeed;\r\n//         player = payable(msg.sender);\r\n//         usedUserSeeds[msg.sender][_userSeed] = true;\r\n//         emit Participation(player, userSeed);  \r\n//         emit CommitRequested(msg.sender);\r\n//     }\r\n//  function participate(bytes32 _userSeed, bytes memory _signature) public payable {\r\n//     // 1. \r\n//     bytes32 messageHash = getMessageHash(_userSeed);\r\n// //    bytes32 message = keccak256(abi.encodePacked(msg.sender, _userSeed));\r\n//     bytes32 ethSignedMessageHash = getEthSignedMessageHash(messageHash);\r\n\r\n//     // 2. \r\n//     address recoveredAddress = recoverSigner(ethSignedMessageHash, _signature);\r\n\r\n//     // 3. \r\n//     require(recoveredAddress == msg.sender, \"Invalid signature\");       \r\n//     userSeed = _userSeed;\r\n//     player = payable(msg.sender);\r\n//     usedUserSeeds[msg.sender][_userSeed] = true;\r\n//     emit Participation(player, userSeed);  \r\n//     emit CommitRequested(msg.sender);\r\n// }\r\n struct Participant {\r\n        address addr;\r\n        bytes32 userSeed;\r\n    }\r\n\r\n    Participant[] public participants;\r\n\r\nfunction participate(bytes32 _userSeed, bytes memory _signature) public payable {\r\n    // \r\n    bytes32 messageHash = getMessageHash(_userSeed);\r\n    bytes32 ethSignedMessageHash = getEthSignedMessageHash(messageHash);\r\n\r\n    // \r\n    address recoveredAddress = recoverSigner(ethSignedMessageHash, _signature);\r\n    require(recoveredAddress == msg.sender, \"Invalid signature\");\r\n\r\n    // \r\n    for (uint i = 0; i < participants.length; i++) {\r\n        require(participants[i].addr != msg.sender, \"User already participated.\");\r\n    }\r\n\r\n    // \r\n    participants.push(Participant({\r\n        addr: msg.sender,\r\n        userSeed: _userSeed\r\n    }));\r\n}\r\n\r\nevent RecoveredAddress(address indexed recovered);\r\nevent LogMessageHash(bytes32 indexed messageHash);\r\n   function getMessageHash(bytes32 _message) internal pure returns (bytes32) {\r\n        return keccak256(abi.encodePacked(_message));\r\n    }\r\n\r\n    function getEthSignedMessageHash(bytes32 _messageHash) internal pure returns (bytes32) {\r\n        return keccak256(abi.encodePacked(\"\\x19Ethereum Signed Message:\\n32\", _messageHash));\r\n    }\r\n\r\n    function recoverSigner(bytes32 _ethSignedMessageHash, bytes memory _signature) internal pure returns (address) {\r\n        (bytes32 r, bytes32 s, uint8 v) = splitSignature(_signature);\r\n        return ecrecover(_ethSignedMessageHash, v, r, s);\r\n    }\r\n\r\n    function splitSignature(bytes memory _signature) internal pure returns (bytes32 r, bytes32 s, uint8 v) {\r\n        require(_signature.length == 65, \"invalid signature length\");\r\n        assembly {\r\n            r := mload(add(_signature, 32))\r\n            s := mload(add(_signature, 64))\r\n            v := byte(0, mload(add(_signature, 96)))\r\n        }\r\n    }\r\n\r\n    function reveal(bytes32 _serverSeed, bytes memory signature) public {\r\n        require(serverSeedHash == keccak256(abi.encodePacked(_serverSeed, salt)), \"Invalid server seed\");\r\n        serverSeed = _serverSeed;\r\n\r\n        bytes32 messageHash = getMessageHash(_serverSeed);\r\n        bytes32 ethSignedMessageHash = getEthSignedMessageHash(messageHash);\r\n        address recoveredAddress = recoverSigner(ethSignedMessageHash, signature);\r\n\r\n        emit LogMessageHash(messageHash);\r\n        emit RecoveredAddress(recoveredAddress);\r\n\r\n        require(recoveredAddress == owner, \"Invalid signature\");\r\n        \r\n        bytes32 finalHash = keccak256(abi.encodePacked(serverSeed, userSeed, salt));\r\n        luckyNumber = uint256(finalHash) % 10;\r\n        luckyNumberCounts[luckyNumber] = luckyNumberCounts[luckyNumber] + 1;\r\n\r\n        emit Reveal(serverSeed, luckyNumber);\r\n         // mint NFT after the luckyNumber has been determined\r\n        mintNFT(player, luckyNumber);\r\n        \r\n    }\r\n // MintURI\r\nfunction mintNFT(address recipient, uint256 _luckyNumber) internal {\r\n    _tokenIdCounter.increment();\r\n    uint256 newTokenId = _tokenIdCounter.current();\r\n    _mint(recipient, newTokenId);\r\n    \r\n    tokenLuckyNumbers[newTokenId] = _luckyNumber;\r\n\r\n    // tokenURI\r\n    Prize memory prize = prizeMapping[_luckyNumber];\r\n    _tokenURIs[newTokenId] = prize.imageURL;\r\n        emit NFTMinted(recipient, newTokenId);\r\n\r\n}\r\n\r\n// IDURI\r\nfunction tokenURI(uint256 tokenId) public view override returns (string memory) {\r\n    return _tokenURIs[tokenId];\r\n}\r\nfunction getLuckyNumberForToken(uint256 tokenId) public view returns (uint256) {\r\n    return tokenLuckyNumbers[tokenId];\r\n}\r\n\r\nfunction setPrizesBulk(\r\n    uint256[] memory luckyNumbers, \r\n    string[] memory names, \r\n    string[] memory descriptions, \r\n    string[] memory imageURLs\r\n) public {\r\n    require(\r\n        luckyNumbers.length == names.length && \r\n        names.length == descriptions.length && \r\n        descriptions.length == imageURLs.length, \r\n        \"Array lengths mismatch\"\r\n    );\r\n\r\n    for (uint i = 0; i < luckyNumbers.length; i++) {\r\n        Prize memory newPrize = Prize({\r\n            name: names[i],\r\n            description: descriptions[i],\r\n            imageURL: imageURLs[i]\r\n        });\r\n\r\n        prizeMapping[luckyNumbers[i]] = newPrize;\r\n    }\r\n}\r\n function getAllTokensInfo() public view returns (TokenInfo[] memory) {\r\n        uint256 totalTokens = _tokenIdCounter.current();\r\n        TokenInfo[] memory tokens = new TokenInfo[](totalTokens);\r\n\r\n        for (uint256 i = 0; i < totalTokens; i++) {\r\n            uint256 tokenId = i + 1;  // ID1\r\n            address tokenOwner = ownerOf(tokenId);\r\n            uint256 luckyNumber = getLuckyNumberForToken(tokenId);\r\n            Prize memory prize = prizeMapping[luckyNumber];\r\n            tokens[i] = TokenInfo(tokenOwner, tokenId, luckyNumber, prize);\r\n        }\r\n        return tokens;\r\n    }\r\n\r\nfunction getLuckyNumberCount(uint256 _luckyNumber) public view returns (uint256) {\r\n    return luckyNumberCounts[_luckyNumber];\r\n}\r\n\r\n\r\n // Chainlink Automation Network\r\n    function checkUpkeep(bytes calldata /* checkData */) external override returns (bool upkeepNeeded, bytes memory /* performData */) {\r\n        // \r\n        // : revealDeadline\r\n        upkeepNeeded = (revealDeadline < block.timestamp) ;\r\n        return (upkeepNeeded, bytes(\"\"));\r\n    }\r\n\r\n    function performUpkeep(bytes calldata /* performData */) external override {\r\n        // checkUpkeeptrue\r\n   //     if (revealDeadline < block.timestamp) {\r\n              // \r\n    //uint256 luckyNumber = uint256(keccak256(abi.encodePacked(userSeed))) % 10;\r\n       bytes32 finalHash = keccak256(abi.encodePacked(userSeed));\r\n       luckyNumber = uint256(finalHash) % 10;\r\n       luckyNumberCounts[luckyNumber] = luckyNumberCounts[luckyNumber] + 1;\r\n\r\n\r\n    // NFT\r\n        mintNFT(player, luckyNumber);\r\n        emit Reveal(userSeed, luckyNumber);\r\n    }\r\n\r\n\r\n\r\n\r\n\r\n//     struct Participant {\r\n//         address addr;\r\n//         bytes32 userSeed;\r\n//     }\r\n\r\n//     Participant[] public participants; // \r\n\r\n//     // \r\n// function participateInBulk(bytes32[] calldata _userSeeds, bytes[] calldata _signatures) public payable {\r\n//         require(_userSeeds.length == _signatures.length, \"Mismatch between seeds and signatures\");\r\n\r\n//         for (uint i = 0; i < _userSeeds.length; i++) {\r\n//             // \r\n//             bytes32 messageHash = getMessageHash(_userSeeds[i]);\r\n//             bytes32 ethSignedMessageHash = getEthSignedMessageHash(messageHash);\r\n//             address recoveredAddress = recoverSigner(ethSignedMessageHash, _signatures[i]);\r\n\r\n//             require(recoveredAddress == msg.sender, \"Invalid signature\");\r\n\r\n//             // \r\n//             participants.push(Participant({\r\n//                 addr: msg.sender,\r\n//                 userSeed: _userSeeds[i]\r\n//             }));\r\n\r\n//             emit Participation(msg.sender, _userSeeds[i]);  \r\n//         }\r\n//     }\r\nfunction requestDetermineResults() public {\r\n    emit RequestDetermineResults(msg.sender);\r\n}\r\n\r\nfunction determineResults(bytes32 _serverSeed, bytes memory signature) public {\r\n    require(serverSeedHash == keccak256(abi.encodePacked(_serverSeed, salt)), \"Invalid server seed\");\r\n    serverSeed = _serverSeed;\r\n\r\n    bytes32 messageHash = getMessageHash(_serverSeed);\r\n    bytes32 ethSignedMessageHash = getEthSignedMessageHash(messageHash);\r\n    address recoveredAddress = recoverSigner(ethSignedMessageHash, signature);\r\n\r\n    require(recoveredAddress == owner, \"Invalid signature\");\r\n\r\n    for (uint i = 0; i < participants.length; i++) {\r\n        bytes32 finalHash = keccak256(abi.encodePacked(serverSeed, participants[i].userSeed, participants[i].addr, salt));\r\n        uint256 luckyNumber = uint256(finalHash) % 10;\r\n        luckyNumberCounts[luckyNumber]++;\r\n        mintNFT(participants[i].addr, luckyNumber);\r\n        emit Reveal(serverSeed, luckyNumber);\r\n    }\r\n\r\n    // \r\n    delete participants;\r\n}\r\nfunction getParticipantCount() public view returns (uint) {\r\n    return participants.length;\r\n}\r\n\r\n\r\n}\r\n",
  "sourcePath": "C:\\src\\truffle0\\contracts\\GachaNFTBulk.sol",
  "compiler": {
    "name": "solc",
    "version": "0.8.22+commit.4fc1097e.Emscripten.clang"
  },
  "schemaVersion": "3.4.16",
  "updatedAt": "2023-11-07T10:30:51.196Z",
  "networkType": "ethereum",
  "devdoc": {
    "events": {
      "Approval(address,address,uint256)": {
        "details": "Emitted when `owner` enables `approved` to manage the `tokenId` token."
      },
      "ApprovalForAll(address,address,bool)": {
        "details": "Emitted when `owner` enables or disables (`approved`) `operator` to manage all of its assets."
      },
      "Transfer(address,address,uint256)": {
        "details": "Emitted when `tokenId` token is transferred from `from` to `to`."
      }
    },
    "kind": "dev",
    "methods": {
      "approve(address,uint256)": {
        "details": "See {IERC721-approve}."
      },
      "balanceOf(address)": {
        "details": "See {IERC721-balanceOf}."
      },
      "getApproved(uint256)": {
        "details": "See {IERC721-getApproved}."
      },
      "isApprovedForAll(address,address)": {
        "details": "See {IERC721-isApprovedForAll}."
      },
      "name()": {
        "details": "See {IERC721Metadata-name}."
      },
      "ownerOf(uint256)": {
        "details": "See {IERC721-ownerOf}."
      },
      "safeTransferFrom(address,address,uint256)": {
        "details": "See {IERC721-safeTransferFrom}."
      },
      "safeTransferFrom(address,address,uint256,bytes)": {
        "details": "See {IERC721-safeTransferFrom}."
      },
      "setApprovalForAll(address,bool)": {
        "details": "See {IERC721-setApprovalForAll}."
      },
      "supportsInterface(bytes4)": {
        "details": "See {IERC165-supportsInterface}."
      },
      "symbol()": {
        "details": "See {IERC721Metadata-symbol}."
      },
      "tokenByIndex(uint256)": {
        "details": "See {IERC721Enumerable-tokenByIndex}."
      },
      "tokenOfOwnerByIndex(address,uint256)": {
        "details": "See {IERC721Enumerable-tokenOfOwnerByIndex}."
      },
      "tokenURI(uint256)": {
        "details": "See {IERC721Metadata-tokenURI}."
      },
      "totalSupply()": {
        "details": "See {IERC721Enumerable-totalSupply}."
      },
      "transferFrom(address,address,uint256)": {
        "details": "See {IERC721-transferFrom}."
      }
    },
    "version": 1
  },
  "userdoc": {
    "kind": "user",
    "methods": {},
    "version": 1
  }
}